:020000040000FA
:030000000200D724
:03001300020641A1
:030033000205744F
:03003B0002069E1C
:0300630002070091
:03006B0002045636
:03007B000204E597
:1000830002060300000080FBE4900F0078C57902AC
:100093008002F0A3D8FCD9FA7AC47B1090010778C8
:1000A3001579018015E493A3AD82AE838A828B8395
:1000B300F0A3AA82AB838D828E83D8E9D9E77582B8
:1000C3004875830B74001200E9758286758300748A
:1000D300001200E975D0007581BF750C00750D0F16
:1000E300759F0002008BC09FF59FE473D09F22D0C1
:1000F30083D082C09FE493C0E0740193C0E0740294
:1001030093F59F22FF0000000000000000000000A4
:1001130000C20100000000001200F24507001200B7
:10012300F26408001200F2F108001200F201090063
:100133001200F2BC0B001200F2F60B001200F245A3
:100143000C001200F24A0C001200F27C0B001200A9
:10015300F29C0B001200F22A0C001200F2220A0099
:100163001200F2510A001200F2670A001200F27F35
:100173000A001200F2970A001200F2BC0A001200F1
:10018300F2C50A001200F2DA0A001200F2EF0A00C6
:100193001200F21509001200F20E0B001200F23ADF
:1001A3000C00E4936670130874019366700C087472
:1001B3000293667005087403936622C3E49396085A
:1001C300740193960874029396087403939622E03D
:1001D300F608A3E0F608A3E0F608A3E0F622E6F0AB
:1001E30008A3E6F008A3E6F008A3E6F022E0FAA3EA
:1001F300E0FBA3E0FCA3E0FD22700422600D18C61F
:10020300C333C608C633C6D5E0F41822E473250CFD
:10021300C582C0E0E50D34FFC583C0E0E50CC3959E
:100223008224F810AF0885830D85820C80088583AE
:100233000D85820CD2AFCEF0A3E520F0A37808E6BB
:1002430008F0A3DEFAEFF0A3E58124FAF8E608F05C
:10025300A3E608F0A3E608F0A30808E608F0A3E67F
:1002630008F0A315811581D0E0FED0E0F8158115C3
:10027300811581E8C0E0EEC0E022850D83850C8204
:10028300E0A3FEE0A3F5207808E0A3F608DFFAE098
:10029300A3FFE0A3C0E0E0A3C0E0E0A3C0E0E0A3CD
:1002A300C0E0E0A3C0E010AF0885820C85830D8019
:1002B3000885820C85830DD2AFD083D0820200EFF4
:1002C300C0D0250CC582C0E0E50D34FFC583C0E076
:1002D300E50CC3958224F310AF0885830D85820C4A
:1002E300800885830D85820CD2AFC8F0A3E9F0A303
:1002F300EAF0A3EBF0A37908E709F0A3D8FAECF04E
:10030300A3EDF0A3EEF0A3EFF0A3D0E0F0A3D0E0D1
:10031300F0A3D0E0F0A3E520F0A3E5F0F0A322855D
:100323000D83850C82E0C0E0A3E0F9A3E0FAA3E02B
:10033300FBA37808E0F608A3DFFAE0FCA3E0FDA343
:10034300E0FEA3E0FFA3E0C0E0A3E0C0E0A3E0F58C
:10035300D0A3E0F520A3E0A3F5F010AF0885830D4B
:1003630085820C800885830D85820CD2AFD082D024
:1003730083D0E0F8D0E032D083D082ECC0E0EDC08F
:10038300E0EEC0E0EFC0E0E493A3FCE493A3FDE45C
:1003930093A3FEE493A3FFEF4E4D4C60151203F6B7
:1003A300EC24FFFCED34FFFDEE34FFFEEF34FFFFE2
:1003B30080E5E493A3FCE493A3FDE493A3FEE49319
:1003C300A3FFEF4E4D4C6015120433EC24FFFCEDFC
:1003D30034FFFDEE34FFFEEF34FFFF80E5D0E0FF96
:1003E300D0E0FED0E0FDD0E0FCE493A3C0E0E493D2
:1003F300C0E022C0E0C0F088F01201BEA8F04007C0
:100403001201A5A8F0701AA3A3A3A31201BEA8F01A
:10041300A3A3A3A34013D0F0D0E0D0E0D0E0020325
:10042300E0A3A3A3A3A3A3A3A3A3A3D0F0D0E022F9
:10043300C0E0C0F088F01201A5A8F0A3A3A3A370A5
:100443000BD0F0D0E0D0E0D0E00203E0A3A3D0F0E3
:10045300D0E022C0E074F11202C3C2C5E589607D19
:100463007E008073750801750900EE78081201FC9F
:10047300E508FFE5895F605EEEF87900E875F00254
:10048300A4C8AAF075F000A42AFA75F002E9A42A18
:10049300F9748928F582740F39F583E0F8A3E0F93C
:1004A300E849602EEEF87900E875F002A4C8AAF0D6
:1004B30075F000A42AFA75F002E9A42AF9748928D0
:1004C300F582740F39F583E0F8A3E0F5838882128F
:1004D300020FEFF452890EEEC3940840877F0202A5
:1004E3000322C0E074F11202C3C2EBE58A607D7E91
:1004F300008073750801750900EE78081201FCE5A8
:1005030008FFE58A5F605EEEF87900E875F002A403
:10051300C8AAF075F000A42AFA75F002E9A42AF932
:10052300749928F582740F39F583E0F8A3E0F9E8AC
:1005330049602EEEF87900E875F002A4C8AAF075B8
:10054300F000A42AFA75F002E9A42AF9749928F5AF
:1005530082740F39F583E0F8A3E0F58388821202F1
:100563000FEFF4528A0EEEC3940840877F02020312
:1005730022C0E074F11202C3C2E8E58B607D7E0005
:100583008073750801750900EE78081201FCE5080F
:10059300FFE58B5F605EEEF87900E875F002A4C8B2
:1005A300AAF075F000A42AFA75F002E9A42AF974F6
:1005B300A928F582740F39F583E0F8A3E0F9E84937
:1005C300602EEEF87900E875F002A4C8AAF075F081
:1005D30000A42AFA75F002E9A42AF974A928F5827D
:1005E300740F39F583E0F8A3E0F583888212020FD4
:1005F300EFF4528B0EEEC3940540877F0202032271
:10060300C0E074F21202C3A2AFE433FEC2AFE5E965
:10061300A2E65020900FB3E0F8A3E0F9E849600E9A
:10062300900FB3E0F8A3E0F583888212020F759B65
:100633000053E9BFEEA2E092AF7F01020322C0E0C4
:10064300C0D0E8C0E0E9C0E0C082C083A8C1E8C070
:10065300E0901036E0F8790074B528F582740F390C
:10066300F583D0E0F0901035E0F8901036E0687034
:1006730006E595901037F0901036E024019010367F
:10068300F0C3948040069010367400F0D083D0827B
:10069300D0E0F9D0E0F8D0D0D0E032C0E0C0D0E86C
:1006A300C0E0E9C0E0C082C0839010B8E0F89010C9
:1006B300B9E068700B539AFB9010BA7401F0802E66
:1006C300C2E99010B8E0F87401289010B8F0E8F887
:1006D3007900743828F582741039F583E0F5C190F8
:1006E30010B8E0C3948040069010B87400F0D08333
:1006F300D082D0E0F9D0E0F8D0D0D0E032C0E074BE
:10070300F21202C3C2DBC2C49010C2E02401F0A300
:10071300E03400F09010C2E064D07004A3E06403FE
:1007230070159010C27400F0A37400F09010C1749F
:1007330001F012019F80069010C17400F07F010246
:10074300032274F71202117E097F0F120181120135
:100753003F7901EEFAEFFB1201758E828F83E0C2BF
:10076300E7F08E828F83E0640570538E828F83E07F
:10077300F97A0A7B0F1201758E828F83A3E0A2E5BB
:100783005004D2F08002C2F0A2F0E492E09010CCC8
:10079300F0780D790F88828983A3E0A2E7400302F2
:1007A30008598E828F83A3A3A3E0FA900F00E06A17
:1007B30060030208597401900F01F00208598E82F8
:1007C3008F83E024F59010C9F08E828F83E0F97A4D
:1007D3000A7B0F1201758E828F83A3E0A2E550047A
:1007E300D2F08002C2F0A2F0E492E09010CCF08E3E
:1007F300828F83A3A3A3A3A3A3A3A3E0F8A3E0F9F6
:100803009010C5E8F0A3E9F09010CA7413F0A37434
:100813000FF09010C9E0F83395E0F99010CAE02882
:10082300F8A3E039F988828983E09010CDF08882BB
:100833008983A3E0A2E750128E828F83A3E054DF63
:100843006441700674019010CEF08E828F83A3A34F
:10085300A3E09010C4F01201451201877F01020248
:100863007D74F4120211EAFEEBFF12015DE96401EB
:10087300700479018073120145900F07EEF0A3EF26
:10088300F09010CA7400F0A37400F07401900F028A
:10089300F09010D478081201D2900F037808120157
:1008A300E1900F07E0F8A3E0F5838882A3A3A3A355
:1008B300E0F9120163900F07E0F8A3E0F583888263
:1008C300E0FAA3E0FB120169900F07E0F8A3E0F55B
:1008D300838882A3A3E0FAA3E0FB12016F7A1B7B58
:1008E3000112018D12013F79007F0402027DC08253
:1008F300C0839010CEE0F9D083D0820200EFC08293
:10090300C0837401900F02F012017BD083D0820266
:1009130000EF74F41202118A088B098C0A8D0B53B1
:10092300F1FE43F30C53F2F375868075C4807808A7
:1009330012037A000000000C000000B004000088DD
:1009430009600900009009C0120000980980250081
:1009530000A00940380000A809004B0000B009803E
:10096300700000B80900960000C00900E10000C84B
:1009730009002C0100D00900C20100D8090084033A
:1009830000E009E80975C23B75C505805E75C23B89
:1009930075C506805675C23B75C507804E75C23B4B
:1009A30075C508804675C2D875C508803E75C23BBB
:1009B30075C509803675C2D875C509802E75C23BC9
:1009C30075C50A802675C2D875C50A801E75C23BD7
:1009D30075C50B801675C2D875C50B800E75C2D848
:1009E30075C50C800675C23B75C50A75C40243867E
:1009F30040D2AA75C1009010357400F0901036747F
:100A030000F09010B87400F09010B97400F09010DA
:100A1300377400F09010BA7400F07F0402027DC0B6
:100A230082C083906189E04460F090619074D5F056
:100A33009061FA7409F09061B27415F09061AE742C
:100A430000F01201877900D083D0820200EFC082C8
:100A5300C08375F005E9A424D490618FF0D083D0CE
:100A6300820200EFC082C083EA906174F0E4CBFAA3
:100A7300EA906175F0D083D0820200EFC082C08318
:100A8300EA906172F0E4CBFAEA906173F0D083D01C
:100A9300820200EFC082C0838015E5D9C0E08A825C
:100AA3008B83D0E0F08A828B83A3AA82AB8319E97C
:100AB30070E8D083D0820200EF75E1EC75E1E302C8
:100AC30000EFC082C0839061A3E0C2E6F0539AFEB8
:100AD300D083D0820200EFC082C0839061A3E0D2B2
:100AE300E6F0439A01D083D0820200EFC082C08334
:100AF300A2AFE433F8C2AF900FB3EAF0A3EBF0E890
:100B0300A2E092AFD083D0820200EFC082C0839074
:100B130010BD7440F0A37430F09010BF7414F090C3
:100B230010BB7434F0A37412F09010C07401F07A07
:100B3300BB7B10120121E9640160F412012DD08303
:100B4300D0820200EF7E0012013312019979031261
:100B530001517904120151790112015179021201F3
:100B6300518005790112014B120127E9F8E8FEE8EB
:100B730070F1790112015180EFE914600B14600CDC
:100B830014600D14600E800ED290800AD2918006FC
:100B9300D2938002D2940200EFE914600B14600C2C
:100BA30014600D14600E800EC290800AC2918006FC
:100BB300C2938002C2940200EFC082C08312015725
:100BC30053F4FEC29043FE0153F4FDC29143FE026F
:100BD30053F4F7C29343FE0853F4EFC29443FE1059
:100BE3009010D01201F012019312013FD083D082F2
:100BF3000200EFE5C65480F853BEFBE59DA2E55025
:100C0300FAE59DA2E240F400740169700774494853
:100C1300F5C68005E9700288C6AAC6A89EEA687070
:100C2300FA43BE040200EFC082C083790012013987
:100C3300D083D0820200EF53EBF753EBEFC2BC0239
:0C0C430000EFD2AF0200EFC2AF0200EFE2
:04000005000000D720
:00000001FF
