:020000040000FA
:06000000020A4D0201CDD1
:03002B0002083D8B
:0300430002070BA6
:03005300020102A5
:1000830002016101012434120100000491810399EA
:10009300810020FD000206FFFF010101040200DAD6
:1000A3001A000000E8030000FFFFA31BE8030000A1
:1000B30064006400A0BB0D00A0BB0D00020008009B
:1000C300000502070101051E02051E020A0A0102BC
:1000D3000803B80B02803E0102E8030A050001FF92
:1000E300FF14010105030101FF0F10FEFF3623007A
:1000F300000000A82100000000FF000000FF00C076
:10010300E074F11203E4A2AFE433F509D2AF85A79B
:1001130008AFA1EF5508FE74105E6006120C4D7512
:10012300A1EF74085E6008120C5375A1F78024EFE9
:10013300A2E092F0E508A2E082F05017906198E007
:10014300F890079CE0C398A2D265D0335002E8F040
:1001530075A1FEE509A2E092AF7F02020443C0E06D
:1001630074F21203E4A2AFE433FED2AF9061A4E0D1
:10017300F8759B00E59158540860087591F7120CC7
:100183009B8023E59158541060087591EF120CA1E0
:100193008014E591A2E092F0E8A2E082F05007E03B
:1001A300C2E0F0120DF79061A3E0F8E5E9585404BA
:1001B300600E120DCD75E9FB906193E0A2E640F26B
:1001C300EEA2E092AF7F01020443C0E074F2120397
:1001D300E4A2AFE433FED2AF9061A5E0F8E5BF58E7
:1001E3005404600675BFFB120E0F80D4C3E498F865
:1001F300E499F91202308026C3E49AFAE49BFBE9FE
:1002030020E7E9120230E498F8E499F922C3E4986C
:10021300F8E499F9120230E498F8E499F9C3E49AFE
:10022300FAE49BFB22EB20E7CFE920E7E0B90010DB
:10023300BB0008E88AF084F8AAF022E4FBC8FA229B
:10024300EB70227B10C833C8C933C9335007C39A34
:10025300C3DBF280069A50012ADBEAC833F4C8C92B
:1002630033F4C9FA2275F008E4C833C8C933C93373
:10027300C99AC99B5004C92AC93BD5F0ECFBC833C2
:10028300F4C8E4C9FA22080808EAC0E0EBC0E08633
:10029300F0E7A4FA180986F0E7A42AFA180986F009
:1002A300E7A42AFA180986F0E7A42AFA1986F0E7E0
:1002B300A4FBE5F02AFA190886F0E7A42BFBE5F086
:1002C3003AFA190886F0E7A42BFBE5F03AFA181876
:1002D3000986F0E7A4C5F02BFBE43AFA1908E7C551
:1002E300F0C6A426F6E5F03BFBE43AFA1886F0E7FD
:1002F300A4F6E5F00826F6E43B08F6E43A08F6D05F
:10030300E0FBD0E0FA22E4CFC0E0E4CEC0E0E4CDED
:10031300C0E0E4CCC0E075F020E626F608E633F64C
:1003230008E633F608E633F6181818EC33FCED3319
:10033300FDEE33FEEF33FFC3EC9709ED9709EE971C
:1003430009EF97191919400FFFEC97FC09ED97FD79
:1003530009EE97FE191906D5F0BFECF709EDF70979
:10036300EEF709EFF7191919D0E0FCD0E0FDD0E062
:10037300FED0E0FF222518C582C0E0E51934FFC591
:1003830083C0E0E518C3958224F810AF088583196C
:100393008582188008858319858218D2AFCEF0A391
:1003A300E520F0A37808E608F0A3DEFAEFF0A3E572
:1003B3008124FAF8E608F0A3E608F0A3E608F0A320
:1003C3000808E608F0A3E608F0A315811581D0E03C
:1003D300FED0E0F8158115811581E8C0E0EEC0E09C
:1003E30022C0D02518C582C0E0E51934FFC583C0FB
:1003F300E0E518C3958224F310AF0885831985823D
:10040300188008858319858218D2AFC8F0A3E9F054
:10041300A3EAF0A3EBF0A37908E709F0A3D8FAEC79
:10042300F0A3EDF0A3EEF0A3EFF0A3D0E0F0A3D0A0
:10043300E0F0A3D0E0F0A3E520F0A3E5F0F0A322E1
:10044300851983851882E0C0E0A3E0F9A3E0FAA34D
:10045300E0FBA37808E0F608A3DFFAE0FCA3E0FDE5
:10046300A3E0FEA3E0FFA3E0C0E0A3E0C0E0A3E0BD
:10047300F5D0A3E0F520A3E0A3F5F010AF08858342
:10048300198582188008858319858218D2AFD08296
:10049300D083D0E0F8D0E032120ADFB900030204BF
:1004A300DAE49003017854791C8002F0A3D8FCD9D4
:1004B300FA7A547B1E900086787D79018015E49347
:1004C300A3AD82AE838A828B83F0A3AA82AB838D92
:1004D300828E83D8E9D9E77582657583A674041281
:1004E30007CE7582ED75832074001207CE75F01068
:1004F3008E1A8F1B85821F85831E8518828519831B
:10050300E0CEA3E0CF851F82851E83EBC9EAC8ED49
:10051300CBECCAC3E833C8E933C9EA33CAEB33CBFC
:10052300C3EA9EF51DEB9FF51CB35004AB1CAA1D3B
:10053300EC33CCED33CDD5F0DAAE1AAF1B22D0833A
:10054300D082ECC0E0EDC0E0E493A3FCE493A3FD10
:10055300ED4C600D120619EC24FFFCED34FFFD8019
:10056300EFE493A3FCE493A3FDED4C600D1206B6F8
:10057300EC24FFFCED34FFFD80EFD0E0FDD0E0FC88
:10058300E493A3C0E0E493C0E02285198385188235
:10059300E0A3FEE0A3F5207808E0A3F608DFFAE085
:1005A300A3FFE0A3C0E0E0A3C0E0E0A3C0E0E0A3BA
:1005B300C0E0E0A3C0E010AF0885821885831980EE
:1005C30008858218858319D2AFD083D0820207D4DD
:1005D300D083D082E9C0E0E493A3C386F0C5F0954D
:1005E300F0F908E493A386F0C5F095F0700BE4935B
:1005F300A3C3994005E9048002A3E475F002A4258E
:1006030082F582E5F03583F583D0E0F9E493A3C066
:10061300E0E493C0E022C0E0C3E49396087401933E
:100623009618400FE4936670080874019366187077
:10063300007019A3A3C3E49396087401939618A3B7
:10064300A3400DD0E0D0E0D0E002057DA3A3A3A397
:10065300A3A3D0E0227404800474028000CCC0E021
:10066300EDC0E0E518C39CCCAD1950011D10AF06D9
:100673008C188D1980068C188D19D2AF120750D0A3
:10068300E0FDD0E0FC2274028000CCC0E0EDC0E0CD
:10069300E518C39CCCAD1950011D10AF068C188D05
:1006A3001980068C188D19D2AF12072ED0E0FDD019
:1006B300E0FC22C0E0C0F088F0E4936670080874A0
:1006C300019366187000A8F0A3A3700BD0F0D0E0DC
:1006D300D0E0D0E002057DA3A3D0F0D0E022D08308
:1006E300D082CCC0E0E493A360061207AF1470FA83
:1006F300E493A360061208BA1470FAD0E0FCE49302
:10070300A3C0E0E493C0E022C0E074F21203E4A2C9
:10071300AFE433FED2AFC2C0E5D1A2E45003120B63
:1007230057EEA2E092AF7F01020443CAC0E0E49314
:10073300A3C582CCC582C583CDC583F0A3C582CCB6
:10074300C582C583CDC583DAE5D0E0CA22CAC0E03D
:10075300E0A3C582CCC582C583CDC583F0A3C58282
:10076300CCC582C583CDC583DAE6D0E0CA22C008F2
:10077300C3E096F50808A3E096420808A3E0964272
:100783000808A3E09645087001D3D0082270090831
:100793000808226016181818C6C333C608C633C61D
:1007A30008C633C608C633C6D5E0EA22C0E0E493E0
:1007B300A3D39C5010E493A3C39C400AD0E0D0E0A1
:1007C300D0E00206FEA3A3A3D0E022C09FF59FE4DE
:1007D30073D09F22D083D082C09FE493C0E0740182
:1007E30093C0E0740293F59F227404800A7403801B
:1007F30006740280027401C0E0F404120822D0E0FF
:10080300120A8A2200C0D0251810AF08F518500C20
:1008130005198008F51850020519D2AFD0D022254A
:1008230018F58210AF08F518400C15198008F51853
:1008330040021519D2AF85198322C0E0C0D0E8C0A9
:10084300E0A8A8D2AFC2C7E8A2E792AFD0E0F8D041
:10085300D0D0E032BB0102E722C082C08389828A02
:1008630083BB0003E08002E493D083D0822260162E
:10087300080808C6C313C618C613C618C613C61875
:10088300C613C6D5E0EA222518F8E43519F922255E
:1008930018FAE43519FB222518FCE43519FD22C3A7
:1008A300E0C696F608A3E0C696F608A3E0C696F659
:1008B30008A3E0C696F622C0E0E493A36C7009D0C7
:1008C300E0D0E0D0E00206FEA3A3D0E0222518107A
:1008D300AF08F518400C15198008F51840021519D2
:1008E300D2AF22E066701008A3E066700A08A3E0A6
:1008F30066700408A3E06622C3E09608A3E09608A6
:10090300A3E09608A3E096A2D265D03322E76670EF
:10091300100809E766700A0809E76670040809E722
:100923006622C3E096F008A3E096F008A3E096F0F1
:1009330008A3E096F022C3E697F60809E697F608BF
:1009430009E697F60809E697F622C3E49396087436
:100953000193960874029396087403939622E627EC
:10096300F60809E637F60809E637F60809E637F622
:1009730022700422600D18C6C333C608C633C6D519
:10098300E0F41822E493F608740193F608740293D2
:10099300F608740393F622E657F60809E657F608B5
:1009A30009E657F60809E657F622E056F608A3E0EB
:1009B30056F608A3E056F608A3E056F622E056F0F2
:1009C30008A3E056F008A3E056F008A3E056F0228F
:1009D300E026F608A3E036F608A3E036F608A3E01F
:1009E30036F622E647F60809E647F60809E647F62B
:1009F3000809E647F622E026F008A3E036F008A34C
:100A0300E036F008A3E036F022E4C396F608E49655
:100A1300F608E496F608E496F622C6F4C608C6F489
:100A2300C608C6F4C608C6F4C622C3E7960809E793
:100A3300960809E7960809E79622C3E09608A3E01B
:100A43009608A3E09608A3E0962275D00075813F2F
:100A53007518017519030002049BE6F008A3E6F07C
:100A630008A3E6F008A3E6F022600C08C6C313C689
:100A730018C613C6D5E0F422E0F608A3E0F608A3EF
:100A8300E0F608A3E0F622CAC0E0E6F0A308DAFA2B
:100A9300D0E0FA22E8F0A3E9F0A3EAF0A3EBF02216
:100AA300E0F8A3E0F9A3E0FAA3E0FB22ECF0A3ED66
:100AB300F0A3EEF0A3EFF022E0FCA3E0FDA3E0FE41
:100AC300A3E0FF22EAF0A3EBF0A3ECF0A3EDF02206
:100AD300E0FAA3E0FBA3E0FCA3E0FD22E5C754F8A2
:100AE3004401F5C77901222518F582E43519F58308
:100AF30022C2AF75D69F020000221207D753BB0450
:100B03001207D756BB041207D759BB041207D75C89
:100B1300BB041207D75E96041207D76C960412071C
:100B2300D7E596041207D7B997041207D78B990410
:100B33001207D7BFFF011207D75685041207D7C282
:100B430085041207D77A86041207D766870412072B
:100B5300D7D688041207D73D89041207D789890499
:100B63001207D79A89041207D7AA89041207D71D37
:100B73008A041207D7338A041207D76FAF04120708
:100B8300D78BAF041207D793AF041207D7A2AF04D2
:100B93001207D7ADAF041207D7B8AF041207D7C1F6
:100BA300AF041207D7C7AF041207D7D9AF04120790
:100BB300D7F8AF041207D71CB0041207D737B00415
:100BC3001207D767B0041207D792B0041207D7A849
:100BD300B0041207D7D7B0041207D701B104120724
:100BE300D71CB1041207D7B7FA011207D7E3FA01EA
:100BF3001207D754FD011207D794FD011207D7D46A
:100C0300FD011207D7E8FD011207D701FE01120704
:100C1300D7F2FE011207D797FF011207D7ABFF01E7
:100C23001207D782FE031207D7A6FE031207D7BF08
:100C3300FE031207D7F1FE031207D721FF031207A2
:100C4300D74EFF031207D7B0FF031207D7BFFF0327
:100C53001207D7C9FF031207D7D6FF031207D7CF4F
:100C6300A3041207D7EFA3041207D72EA404120775
:100C7300D749A4041207D768A4041207D7CEA40443
:100C83001207D7D7A4041207D734A5041207D758DD
:100C9300A5041207D719A6041207D726A60412071C
:100CA300D737A6041207D76DB9041207D785B9043D
:100CB3001207D7B1B9041207D77FFB021207D7D3A4
:100CC300FC021207D7E1FC021207D7F4FC02120759
:100CD300D709FD021207D71EFD021207D731FD0205
:100CE3001207D7A5FD021207D70AFE021207D7ACD7
:100CF300FE021207D770FF021207D780FF02120706
:100D0300D78FFF021207D7D4B8041207D7F8B80455
:100D13001207D720B9041207D748B9041207D72FEF
:100D2300AB041207D756AB041207D774AB041207F0
:100D3300D7E7AB041207D7BEA0041207D7D7A00486
:100D43001207D7E3A0041207D7F7A0041207D71599
:100D5300A1041207D71FA1041207D729A104120760
:100D6300D73CA1041207D7C6A1041207D73BA2049C
:100D73001207D76FA2041207D7BDA2041207D70A1E
:100D8300A3041207D725A3041207D72FA30412071E
:100D9300D755A3041207D7BAA3041207D71DB80463
:100DA3001207D73FB8041207D721BB041207D7F5A0
:100DB300E6031207D71FE7031207D73CE70312071F
:100DC300D74FE7031207D765E7031207D7C3E70334
:100DD3001207D7FBE7031207D7F3EB031207D73842
:100DE300ED031207D76BED031207D7CEED031207FE
:100DF300D751EF031207D779EF031207D78EEF030B
:100E03001207D79EEF031207D7E2EF031207D73D6E
:100E1300F0031207D74DF0031207D775B204120778
:100E2300D78FB2041207D7B7B2041207D7D0B204D0
:100E33001207D7F4B2041207D712B3041207D72943
:100E4300B3041207D757B3041207D772B3041207B8
:100E5300D7B4BA041207D7F099041207D7009A043B
:100E63001207D7079B041207D73B9B041207D75DD2
:100E73009B041207D7809B041207D79E9B0412077B
:100E8300D7D89B041207D73D9C041207D77F9C0435
:100E93001207D7BE9C041207D7EF9C041207D7266C
:100EA3009D041207D752AD041207D772AD0412077F
:100EB300D757AE041207D73FAF041207D769B70459
:100EC3001207D7A6B7041207D7E8B7041207D7F853
:100ED300B7041207D702B8041207D71AB8041207C7
:100EE300D7B3F7031207D7BDF7031207D7F7F703F3
:100EF3001207D760F8031207D77DF8031207D71F2D
:100F0300F9031207D728F9031207D76DF90312075C
:100F1300D796F9031207D7A3F9031207D714FA03D5
:100F23001207D79FFA031207D7EDFA031207D72B3D
:100F3300FB031207D790FB031207D7B3FB03120778
:100F4300D72AFC031207D781FC031207D7BCFC0383
:100F53001207D7F1FC031207D703FD031207D715B6
:100F6300FD031207D734FD031207D73DFD03120714
:100F7300D7F8FD031207D744FE031207D735B10490
:100F83001207D7F9A8041207D72FA9041207D77796
:100F9300A9041207D7D0AA041207D79CB2031207D9
:100FA300D7C0B3031207D7FAB3031207D7A4B50305
:100FB3001207D7CEB5031207D743B8031207D78357
:100FC300B8031207D719BA031207D7B6BA03120721
:100FD300D708BB031207D7ABBB031207D7E3BB0387
:100FE3001207D725BC031207D794BD031207D7E214
:100FF300BE031207D713C1031207D741C103120758
:10100300D768C1031207D771C1031207D7C1C10340
:101013001207D753C2031207D782C5031207D70596
:10102300C6031207D7DB7F001207D7F17F00120731
:10103300D769BA041207D7978E041207D7AD8E0467
:101043001207D7518F041207D7908F041207D7AD19
:101053008F041207D7DE8F041207D72B90041207D1
:10106300D75E90041207D79990041207D78E920483
:101073001207D7B0B5041207D70FB6041207D74D1E
:10108300B6041207D78EB6041207D7F29D031207D0
:10109300D7379E031207D7C69E031207D723A00391
:1010A3001207D7ECA0031207D767A1031207D7B91A
:1010B300A1031207D71AA2031207D753A2031207D9
:1010C300D793A2031207D79BA3031207D7D6A30371
:1010D3001207D703A4031207D75FA4031207D78D00
:1010E300A4031207D7A7A4031207D7EEA40312077A
:1010F300D70EA5031207D7CBA5031207D7ACA603B8
:101103001207D706A7031207D74AA7031207D76602
:10111300A7031207D7E2A9031207D7FEA9031207F1
:10112300D775AA031207D79AAA031207D711AB03DD
:101133001207D7DEAB031207D723AC031207D785F9
:10114300AC031207D748AD031207D74BAD03120701
:10115300D755AD031207D75FAD031207D762AD03AF
:101163001207D7E2AD031207D70BAE031207D71945
:10117300AE031207D740AE031207D764AE031207BC
:10118300D79FAE031207D711AF031207D714AF03CC
:101193001207D71EAF031207D75FAF031207D78C0F
:1011A300AF031207D7ACAF031207D7F5AF0312078C
:1011B300D72CB0031207D729B1031207D753B203B1
:1011C3001207D769B2031207D78E7F001207D7A67B
:1011D3007F001207D7A5B3041207D77DF0031207C8
:1011E300D7CCF0031207D76CF2031207D727F40307
:1011F3001207D769F4031207D788F5031207D792AA
:10120300F6031207D7B4F6031207D7FEF603120745
:10121300D77FF7031207D70080031207D71F800376
:101223001207D7AB80031207D7F480031207D74EF8
:1012330081031207D7C681031207D7278203120738
:10124300D77382031207D7E782031207D76C83038E
:101253001207D7E483031207D72784031207D74063
:1012630088031207D7838A031207D7348B03120725
:10127300D7B68B031207D7F38B031207D7B88D03A7
:101283001207D7B78F031207D78190031207D7FA34
:1012930092031207D77393031207D76494031207B9
:1012A300D79F97031207D7AF97031207D726990340
:1012B3001207D7AB99031207D7F89A031207D73D42
:1012C3009C031207D7A49C031207D7409D03120760
:1012D300D7AD6F001207D74D70001207D7B7700054
:1012E3001207D75E71001207D7BD71001207D769C5
:1012F30072001207D71275001207D738760012074B
:10130300D7BC76001207D79978001207D746790021
:101313001207D7DC79001207D77E7B001207D78E1E
:101323007C001207D7307D001207D74F7E001207CB
:10133300D752C6031207D7C4C6031207D70CC70375
:101343001207D74EC7031207D7ABC7031207D7FE3F
:10135300C7031207D766C8031207D77CC90312074E
:10136300D7A4C9031207D786CA031207D797CA039C
:101373001207D7AFCA031207D7ABCB031207D7DCC9
:10138300CB031207D7E5CB031207D7FCCB03120716
:10139300D70DCC031207D740CC031207D757CC0382
:1013A3001207D754CD031207D710CE031207D74A1B
:1013B300CE031207D74CCF031207D71FD003120750
:1013C300D7BFD0031207D733D1031207D748D103AE
:1013D3001207D77E9D041207D7269F041207D7EC66
:1013E3009F041207D741A0041207D79B9204120748
:1013F300D7B992041207D7FD92041207D723930497
:101403001207D74993041207D76193041207D779B8
:1014130093041207D7DC93041207D71E9404120710
:10142300D74095041207D74995041207D75295045C
:101433001207D75B95041207D76595041207D73DAA
:101443008A041207D71D8E041207D72B8E041207A6
:10145300D7308E041207D786A7041207D7C8FF0216
:101463001207D7E0FF031207D76725001207D7BE7D
:1014730025001207D72A26001207D7B6260012071F
:10148300D76C27001207D7B427001207D7CD270040
:101493001207D7F027001207D72E28001207D77D8F
:1014A30028001207D7A828001207D7062900120719
:1014B300D7AD29001207D7552A001207D7D12A0022
:1014C3001207D79E2B001207D70E2C001207D72A1C
:1014D3002C001207D7592C001207D7652E001207CC
:1014E300D7932F001207D7BF2F001207D7F32F0070
:1014F3001207D71430001207D72330001207D72E54
:1015030030001207D7DD30001207D74D3100120724
:10151300D7D831001207D7E031001207D74D320078
:101523001207D78932001207D74F33001207D72289
:1015330034001207D7DEF9011207D79935001207D5
:10154300D77D36001207D7A236001207D71437000B
:101553001207D7AF37001207D79F38001207D7C437
:1015630038001207D7DC39001207D7FA39001207FF
:10157300D7163A001207D7A83A001207D7B83A008D
:101583001207D7E63B001207D76A3C001207D7A61B
:101593003C001207D7803E001207D750BB04120746
:1015A300D75142001207D75B42001207D7654200AA
:1015B3001207D76F42001207D77942001207D7925A
:1015C30042001207D79C42001207D70943001207B3
:1015D300D71443001207D73C43001207D7474300F1
:1015E3001207D7AC43001207D7B643001207D7C17F
:1015F30043001207D7E543001207D7094400120737
:10160300D77B44001207D7C444001207D7E0440035
:101613001207D75145001207D79D45001207D7E699
:1016230045001207D72446001207D7A54600120724
:10163300D74C47001207D71B49001207D780490030
:101643001207D7AE4A001207D7D44A001207D71C95
:101653004C001207D7564F001207D75451001207F8
:10166300D71F53001207D7B853001207D7B9550035
:101673001207D76E56001207D7A756001207D70DC9
:1016830057001207D71757001207D7405900120700
:10169300D77F5A001207D7D65A001207D7815B00AB
:1016A3001207D7315D001207D77E5E001207D79E5F
:1016B3005E001207D7F35E001207D7F45F0012072C
:1016C300D71C60001207D77B60001207D773610035
:1016D3001207D7EA61001207D7FD62001207D76B22
:1016E30063001207D76A64001207D7C466001207A3
:1016F300D7ED66001207D75368001207D7D56900E4
:101703001207D72C6A001207D7DA6A001207D77FAD
:101713006B001207D7D86B001207D7966C0012071D
:10172300D7286D001207D7876D001207D7C96D0040
:101733001207D7FA6D001207D7516F001207D700AF
:1017430080021207D73280021207D76B800212077A
:10175300D72982021207D76D82021207D74183026B
:101763001207D7A083021207D7B684021207D70243
:1017730085021207D79087021207D76A8A021207D7
:10178300D7B18B021207D7498C021207D7558C02A7
:101793001207D79E8C021207D7E08D021207D7D605
:1017A3008E021207D7008F021207D7568F02120735
:1017B300D7AF8F021207D72290021207D75892028F
:1017C3001207D7DA93021207D7BF94021207D70979
:1017D30096021207D74198021207D73E9B021207BF
:1017E300D74D9B021207D7E19B021207D7249C0215
:1017F3001207D7A39C021207D7209F021207D752C2
:10180300A0021207D72AA1021207D7ACA10212071E
:10181300D7E1A5021207D710A6021207D76BA602BB
:101823001207D79EA6021207D722A7021207D77262
:10183300A7021207D7DFA8021207D703A9021207CC
:10184300D73AA9021207D747A9021207D74AA90212
:101853001207D779A9021207D771AB021207D73043
:10186300AC021207D75FAC021207D7E8AD0212072A
:10187300D77CAE021207D78BAE021207D7FEAE0299
:101883001207D722B1021207D781B1021207D7D5A7
:10189300B1021207D704B4021207D7E7B402120742
:1018A300D7A3B5021207D7B7B5021207D7E4B5021B
:1018B3001207D714B6021207D71BB8021207D7C6EE
:1018C300B8021207D74AB9021207D791B902120711
:1018D300D703BA021207D758BB021207D701BC02BB
:1018E3001207D719BC021207D7BCBC021207D7389C
:1018F300BF021207D7E0C0021207D7FEC0021207C9
:10190300D72182011207D75982011207D7598701BC
:101913001207D79F87011207D7D588011207D73A35
:1019230089011207D7AF8A011207D7B98D011207B0
:10193300D7E48E011207D7F798011207D7879901C9
:101943001207D7719C011207D77E9D011207D7F1A9
:101953009D011207D7559F011207D734A001120723
:10196300D7A2A2011207D734A4011207D7C1A40139
:101973001207D7E8A5011207D710A6011207D7B09F
:10198300A6011207D79BA7011207D768A801120760
:10199300D785A8011207D7AEA8011207D7DBA80184
:1019A3001207D722AB011207D7F1AB011207D730C9
:1019B300AC011207D7B2AC011207D753AD0112071E
:1019C300D785AD011207D7CCAD011207D7FFAD0103
:1019D3001207D743AE011207D792AE011207D7976A
:1019E300AE011207D7F3AE011207D737AF011207C3
:1019F300D711B0011207D776B0011207D7DCB001B7
:101A03001207D757B1011207D7BFB4011207D7C2C4
:101A1300B5011207D740B7011207D756BA0112070B
:101A2300D7F8BA011207D741BD011207D7FCBD0190
:101A33001207D73BBE011207D713C0011207D730D5
:101A4300C0011207D739C0011207D742C0011207DC
:101A5300D74DC0011207D76CC0011207D710C201BE
:101A63001207D76DC2011207D777C2011207D791A8
:101A7300C2011207D7A2C3011207D7EBC301120792
:101A8300D7A5C4011207D7BCC5011207D791C60158
:101A93001207D7D8C7011207D7DCC8011207D7D559
:101AA300C9011207D7EDC9011207D724CA011207CA
:101AB300D72ECA011207D739CA011207D757CA014D
:101AC3001207D79FCA011207D7FDCA011207D724ED
:101AD300CB011207D736CB011207D7EBCB01120785
:101AE300D724CC011207D746CD011207D799CD01D0
:101AF3001207D77FCE011207D7A6CE011207D7163A
:101B0300CF011207D792CF011207D7EED0011207E8
:101B1300D715D2011207D7D7D2011207D7A5D30100
:101B23001207D763D4011207D74BD5011207D7F594
:101B3300D5011207D75DD6011207D712D7011207B5
:101B4300D76ED7011207D7C6D7011207D78CD80192
:101B53001207D7AFD8011207D76AD9011207D78C5A
:101B6300D9011207D7EDD9011207D71DDC011207DE
:101B7300D716DD011207D7C2DD011207D7E3DF0154
:101B83001207D72CE0011207D777E0011207D7D34A
:101B9300E0011207D731E1011207D755E10112071E
:101BA300D779E1011207D7AEE1011207D7D6E101D8
:101BB3001207D71BE2011207D76FE2011207D7C83A
:101BC300E2011207D7C2E3011207D760E50112074A
:101BD300D7A5E5011207D7CEE5011207D757E601CE
:101BE3001207D7CAE6011207D7D8E6011207D7FCB6
:101BF300E6011207D752E7011207D76DE701120773
:101C0300D728E8011207D754E8011207D797E8014C
:101C13001207D7FAE8011207D708EB011207D734E6
:101C2300EB011207D7EFEB011207D7D3EC01120731
:101C3300D767ED011207D775DC031207D7ADDC03B5
:101C43001207D7CEDC031207D710DD031207D774B0
:101C5300DD031207D77EDD031207D78EDD031207DC
:101C6300D7C5DD031207D76EE1031207D736E303A7
:101C73001207D71AE5031207D7BCE5031207D746A5
:101C8300E6031207D78EC1021207D737C202120723
:101C9300D716C3021207D722C4021207D742C402BF
:101CA3001207D764C5021207D714C7021207D781D8
:101CB300C7021207D752C8021207D758C902120720
:101CC300D7D0C9021207D70BCA021207D764CA02B8
:101CD3001207D79FCA021207D7E8CA021207D77C96
:101CE300CB021207D712CC021207D7E7CC02120796
:101CF300D7BACD021207D748CE021207D76ECE024B
:101D03001207D79BCE021207D7CCCE021207D79960
:101D1300CF021207D7A9CF021207D7FCCF021207AF
:101D2300D709D0021207D716D0021207D71FD00245
:101D33001207D783D0021207D7E1D0021207D72C9C
:101D4300D1021207D747D1021207D76ED102120769
:101D5300D78BD1021207D797D1021207D728D30204
:101D63001207D741D3021207D7BDD3021207D7D028
:101D7300D3021207D7E0D3021207D784D402120783
:101D8300D7F0D5021207D703D7021207D7A3D7027A
:101D93001207D7ADD7021207D72CD8021207D73DA7
:101DA300D8021207D77CD8021207D7AAD802120783
:101DB300D777D9021207D7CED9021207D707DA028B
:101DC3001207D75DDA021207D77BDA021207D7C9E7
:101DD300DA021207D794DB021207D7E2DB021207FB
:101DE300D72FDC021207D7B2DC021207D7DCDC02E2
:101DF3001207D712DD021207D721DD021207D7809F
:101E0300DD021207D7F8DD021207D739DE02120707
:101E1300D789DE021207D7B4DE021207D7CEDE025D
:101E23001207D7E8DE021207D7BDDF021207D7C7B2
:101E3300DF021207D708E0021207D759E0021207A0
:101E4300D76DE0021207D78FE1021207D7A4E10290
:101E53001207D737E2021207D7ABE2021207D750B5
:101E6300E3021207D75BE3021207D7BEE4021207AD
:101E7300D7DAE4021207D726E5021207D794E50260
:101E83001207D7C6E5021207D7E0E5021207D740CB
:101E9300E6021207D7DFE6021207D72AE702120784
:101EA300D77DE9021207D715EA021207D78CEA0297
:101EB3001207D7E9EC021207D701ED021207D70484
:101EC300ED021207D710ED021207D724ED02120715
:101ED300D72CED021207D763ED021207D757EE0294
:101EE3001207D7E1EE021207D763EF021207D7E317
:101EF300EF021207D7BAF0021207D7DCF00212077B
:101F0300D775F1021207D7D2F1021207D7D5F10222
:101F13001207D744F2021207D790F3021207D7A38E
:101F2300F4021207D72EF5021207D741F602120761
:101F3300D708F7021207D739F7021207D75FF7025C
:101F43001207D768F7021207D797F7021207D74786
:101F5300F8021207D7F7F8021207D76AF902120735
:101F6300D70DFA021207D780FA021207D7BFFA0277
:101F73001207D708FB021207D704F9011207D73A51
:101F8300F8011207D7A9F6011207D772F601120753
:101F9300D744F6011207D7F8F5011207D761F50107
:101FA3001207D7D1F4011207D7ABF4011207D76098
:101FB300F4011207D72AF4011207D7ADF301120770
:101FC300D748F3011207D7F7F2011207D71FF2011F
:101FD3001207D78FF1011207D743F1011207D7BEBA
:101FE300F0011207D779F0011207D75DF00112074C
:101FF300D705EF011207D7D7EE011207D7A4EE01D9
:102003001207D728EE011207D7FB7F001207D70567
:1020130085041207D797B5041207D731B504120701
:10202300D7AEB4041207D760BA041207D717BA049D
:102033001207D702BA041207D7F2B9041207D73B23
:10204300BB041207D78E84041207D73F84041207F8
:10205300D71384041207D7F7FF011207D75A800456
:102063001207D70080041207D738B7041207D71A0C
:10207300B7041207D709BB041207D7B0B604120777
:10208300D73D42001207D72ADC031207D7D1DB035F
:102093001207D79CDB031207D767DB031207D7337B
:1020A300DB031207D7C6DA031207D7AEDA03120728
:1020B300D789DA031207D762D7031207D735D503B7
:1020C3001207D73CD3031207D7C8D2031207D77915
:1020D300D2031207D733D2031207D7F8BA04120771
:1020E300D7D5D1031207D777340000000080FBE473
:1020F30073000136360101000102010001030100F2
:10210300010401060605020000070100340801006E
:102113000F090401010D0100FF0E08000017020062
:1021230000190100FF1A0100011B0100FE1C010040
:10213300081D0200001F010001200100012102000F
:10214300002301000F2402000026010001270100E3
:1021530008280200FF2A0100072B0102402C01007E
:10216300002D0100012E0100012F0100FF30010BA2
:102173001D310800003A0100083B01000F3C01003B
:10218300013D0100FF3E040000420400004604003C
:10219300004A0400004E04000052040000560400EC
:1021A300005A040000010371030103010301030149
:1021B30003010322030203010310030003000300CE
:1021C3000300030003000300034203000324030688
:1021D300030003000304031203250323032503233E
:1021E3000304030403000300030003440300030088
:1021F3000323030003650321003503810300030563
:1022030003000300030003000325032303010171FB
:1022130001010101011101010131010101010180EC
:1022230001100161013B001400630173017201623B
:102233000143010001130106013D013500040112B0
:102243000100010001000100010401040133013315
:10225300013C014401320136000001000165010027
:1022630001350081010001050182018301000103A1
:1022730002710230016002110270020102020202C5
:10228300028002100261023A00410063027302728B
:102293000262024302000213023800000200020439
:1022A30002120200020002000200020402040237CA
:1022B3000037003C024402000239000002000265BC
:1022C300020002350281020002050282028302003B
:1022D3000203047104020460041104700402040282
:1022E300040104020410046104000414046304736D
:1022F300047204620443040004130406040004008B
:1023030004040412040004000400040004510464DF
:10231300000004000400044404000400040004005A
:102323000465040004350481046400050400048387
:1023330004000403007100300160001100700031DB
:1023430002200350048000100061000000140063A9
:1023530000730072006200430000001300060000D7
:102363000000000400120000000000000000000450
:10237300000400370037003C024400000000000066
:10238300000000650000003500810000000500002A
:10239300008300000036000100060000000F00006B
:1023A300000000000000000000000003FFFF000029
:1023B3000403FFFF0000FFFF0FF4010005C4040343
:1023C30020000100000B00000000000000000301DA
:1023D3000F000000000000000000000000000000EB
:1023E30000000000000000000000000000000000EA
:1023F3000000000A000000020000000400000008C2
:1024030000000010000000200000004000000080D9
:1024130000000000010000000200000004000000B2
:102423000800000010000000200000004000000031
:1024330000EF12130077121F007D121F8083120119
:1024430000EF1202003B1203004112040047120581
:10245300004D120600591236006B12FFFF000001F7
:102463003D19066D190867190B791910F116024306
:1024730019055B190749190C25190D311964E72052
:10248300FF000007ECFDFDFDECDCDCCCBCACAC9C40
:102493009C8C7C7C6C6C5C5C5C4C4C3C3C2C2C1CA9
:1024A3001C00160F00000B150B020002220F330055
:1024B300000E5A6967426565416C6C69616E6365BC
:1024C300303901030507090B0D0F00020406080A42
:1024D3000C0D140AE5D5C5B5A5A59585857565309B
:1024E3003017181921301B1D1F300001191618163B
:1024F300161823030000393D3F373C3C362C442D4E
:10250300303016181920231A1C1E3000034A494381
:102513004E181A2505020C0E020B040B0A070800BD
:102523000F02040201010101090200000000000082
:1025330000BE040AE8030000FA06000000000E00D3
:102543008624D5247F00E803FF1E1E0005280C0007
:1025530004090803090303010C0A0508150C00FF0D
:1025630010040804C082C083790012645AC082C078
:1025730083901C2C125D0ED083D082C3E09CA3E019
:102583009D500DEA240B1225B6122596600279019F
:10259300023A0FEA75F00BA4FAA8F075F00BEBA45E
:1025A30028FB901C2EE02AF8A3E03B8882F583E009
:1025B300540F22F582E43B124F4E2274F712037834
:1025C300890812465D1228FCACF075F00BE9A42CC7
:1025D300F9901C2EE028F8A3E039F9E8FEE9FF742E
:1025E30001650860067402650870228A828B831273
:1025F3002AB2740265087021EA2403FA50010B120F
:10260300148DE970148E828F83E4F0800CEA240326
:10261300FCE43B122AA91214878E828F83E0D2E74F
:10262300F012115702424C74F4120378122B83797F
:10263300008E828F83E06078890A890B8063E50AC4
:1026430075F00BA4FAA8F075F00BE50B1225A27038
:1026530048E50A75F00BA4F8AAF075F00BE50B1228
:102663002AC68E828F83E0850882850983123C50B7
:10267300122A27EE2403FCE43F1227611214871267
:102683004461E50AF0A3E50B12379CD2E7F012117F
:10269300577901901C2C12351B050AE50A700205B7
:1026A3000B901C2C125651C3E50A9AE50B9B408EE6
:1026B3000237A674F5120378EAFEEBFF750A01747C
:1026C3000B120AEA12616BEC4D6015EC12531B3DC1
:1026D300122B91790112146FE50845096075802367
:1026E300E508450960441253193509122B91122745
:1026F3006212148DE96401701BEEFAEFFB1214757C
:10270300E9F50A850882850983122A1F7902AA0836
:10271300AB098011122AAA12148DE964017034796D
:1027230003EEFAEFFB12146F80298E828F83A3E0EE
:1027330064FE7003A3E0F4700B122AAA12148DE94D
:102743006401700CEEFAEFFB121475E9F50A8003CD
:10275300750A000230D6E50A2403FCE4350BFDE5D7
:10276300082403FAE43509FB2274F7120378901C5A
:102773002C124591EA4B602FEA75F00BA4FAA8F0EE
:1027830075F00BEBA428FBEAFEEBFF120F8F901CF6
:102793002E124591901C2E1243A66012EEFCEFFD03
:1027A3007900120EF38007901C2EE4F0A3F002428E
:1027B3004CC082C083EC4D600512108580097C08F3
:1027C3007D007900120EF3023A0FC082C0837900B4
:1027D300EA4B60167800E8FCEA2C1246696004793B
:1027E30001780808E8C3940840EC023A0F74F71222
:1027F300037874F31208D0ECFEEDFF851882851977
:1028030083E4F004120AEAEAF0A3EB12490112147A
:10281300AB7403120AEAAC82AD83EEFAEFFB121437
:1028230087EEFAEFFB12148D02424774F712037816
:1028330074F31208D0ECFEEDFF851882851983E44A
:10284300F0EAFCEBFD7403120AEAAA82AB831214CA
:1028530087AA18AB191214B17401120AEA123C6167
:102863008E828F8312454D74FE68700374FF696016
:102873000479018002790002424774F7120378EA6F
:10288300FEEBFF121469E9F5087401650870111273
:1028930028E7F4FA88828983E05A4480F0121157BA
:1028A300A90802424C74F7120378EAFEEBFF75089D
:1028B300008E828F83E0602A121469E9F50874019F
:1028C3006508701E1228E7FA88828983E05A70121D
:1028D3008E828F83E04480FA88828983E04AF012F3
:1028E300115780BC124304F81228FC122BF3F8A3EF
:1028F300E039F98E828F83E022A3E0F9E875F00BCB
:10290300A4F82274F41203788A088B097C007D00F2
:10291300EA122764121487E508122A417900850810
:1029230082850983A3E064FE7003A3E0F460787EEC
:10293300007F008065EEFAEFFB1225966057EEFAF2
:10294300EFFBEA75F00BA4FAA8F075F00BEBA428E3
:10295300FB901C2EE02AF50AA3E03BF50B850882C9
:10296300850983125650850A82850B83A3E06A701A
:1029730003A3E06B701FE50A2403FAE4350BFB1293
:10298300148DE964017006122759121487122A362E
:102993007901125E750EEE70010F901C2C125651C8
:1029A300C3EE9AEF9B408E0237A674F31203788A24
:1029B300088B098A828B83122A1FEA122A41750C1B
:1029C30000EA12276412148DE9640170477E007FC8
:1029D30000803C122BE5FAA3E0398A82F583E054A8
:1029E3000F6027122BE5F50AA3E039F50B122759DF
:1029F30012107FE964017012850A82850B83122A03
:102A030027122A36750C01125E750EEE70010F1235
:102A13002C0240BFA90C7F0502058DA3A374FEF011
:102A2300A304F022A3124238850882850983A312E6
:102A33003AA222E508122A4BEEF0A3EFF022122A63
:102A43004B74FEF0A304F022240BF582E43509F560
:102A5300832274F5120378EAFEEBFF8E828F8312D2
:102A63002A1F7C007D00122AAA121487EEFAEFFBBC
:102A7300121469E9F50A7401650A702712423112CA
:102A83002ABA850882F583122AB212276212148D9C
:102A9300E96401700EE5082403FCE43509122AA950
:102AA3001214870230D6FDEE2403FAE43FFB22A37F
:102AB30012565F123AA222E875F00BA4F8AAF07539
:102AC300F00BE9122BF9F508A3E039F5092274F2AA
:102AD30012037874E61208D0122B83750A01750865
:102AE30000750900750C00750D0085188285198322
:102AF300E4F0EE2403FCE43FFD7403120AEAAA8225
:102B0300AB83121487AA18AB191214B1E9640170CC
:102B13001F740B120AEA122B937401120AEA12565B
:102B2300597003A3E069604AA818A919880889099C
:102B3300740D120AEA123C4FA3123C61740E120A7E
:102B4300EA12454D740D1208921214ABE964017038
:102B530009740D12088A880C890D780C1207F4ACDD
:102B630008AD09EEFAEFFB12147B7402120807E9B1
:102B7300F50AEEFAEFFB1214A5A90A741A024473BC
:102B8300EAFEEBFF12446574FEF0A304F022F58322
:102B930012563FF9124465123AA222C082C08378CA
:102BA300007900800508E8700109901C2C12357922
:102BB300E99B5029E8FAE9FBEA75F00BA4FAACF0BB
:102BC30075F00BEBA42CFB901C2EE02AFCA3E03B3E
:102BD3008C82F583E0540F70CC7900800279010276
:102BE3003A0FEEF8EFF9E875F00BA4F8122BF32285
:102BF300AAF075F00BE9A42AF9901C2EE028229084
:102C03001C2C124238C3EE98EF9922C082C08390E5
:102C1300255FE49375F01CA4FCADF079FF7A2E7B5D
:102C230008120EF3023A0F74F7120378E9FCEAFD77
:102C33007A007B008010EB1232849C4008E0F8EDB0
:102C4300C39840010A0B90255FE493F8EBC39840C7
:102C5300E57B0002424C74EC12037874F31208D043
:102C63008A0C8B0D8C088D09890AEC45096016AA1C
:102C730008AB091214F98A0E8B0FAE0EAF0FEE4F8D
:102C83006003022D577A0080010A90255F12559642
:102C9300500F122E4C70F2742E28FE740839FF80E8
:102CA300047E007F00EE4F7003022E0090253F123A
:102CB3002E1D60257403650A60067404650A701985
:102CC3007A0479031214CF8A0E8B0F90255FE49355
:102CD300F890253F122E36502D90253D122E1D6063
:102CE3002C7401650A60067402650A70207A027901
:102CF300011214CF8A0E8B0F90255FE493F8902571
:102D03003D122E3640077A007B00022E188518826A
:102D13008519837401F0120AEAE50CF0A3E50DF0BE
:102D2300AC08AD097403120AEAAA82AB83121487B2
:102D3300AA18AB191214BD740B120AEA123A9B8E2D
:102D4300828F83A3A3A3A3A3A3E4125D0AAA0CAB5C
:102D53000D121B9B7800E50A6007C39405500278A7
:102D6300048E828F83E50CF0A3E50D123147A3A3F4
:102D7300E50AF0E88E828F83A3A3A3A3A312591CB1
:102D83005001097A027B00120228123554A312382B
:102D93008E123580E50A605BC394035056901EA1E2
:102DA300E070189023F6780C12098712352B120A5B
:102DB3005D9023F6780C1209878027F508750900C2
:102DC30074027808120974122E271209879081C998
:102DD3007810120A7B780C791012028912352B12A3
:102DE3000A5DEE241312352E120A5DEE241B1259CE
:102DF300138009123537122A22A3F0A3F07A04793B
:102E0300001214CF1231384005901EB4E4F0121AA8
:102E13006FEEFAEFFB740D023A89E493F8740193B1
:102E2300F9E8492274F62508F58274233509F583F8
:102E3300780C22E493FA740193FBE8C39AF8E49BB9
:102E4300F9C3E50E98E50F9922EA122E52F4227582
:102E5300F01CA4F8A9F0743228F582740839F583BC
:102E6300E02274EE12037874F31208D0EAFEEBFF4B
:102E73008C108D11750800AA10AB111214F9EA4BCE
:102E83007003022F808A828B83E06E7003A3E06F4E
:102E93007003022F808A828B83A3A3A3A3E0C3942E
:102EA300054003022F808A828B83125E63E0607287
:102EB3008A828B83A3A3A3A3E0C394035064901ECD
:102EC300A1E070219023F67808120987122F871248
:102ED3000A5D9023F67808120987EA2413122F8AD1
:102EE300120A5D8030F5087509007402780812092A
:102EF30074122E271209879081C97808120A7B78E9
:102F03000C7908120289123671120A5DEA2413122F
:102F13003674120A5DEA241BF582E43BF583E4F080
:102F2300801B7508FE7509FF750AFF750BFF122FCD
:102F330087120A5DEA2413122F8A120A5D750800AC
:102F4300750900750A00750B00EA240C122F8A120A
:102F53000A5D8518828519837401F0120AEAEEF07E
:102F6300A3EFF0AC10AD117403120AEAAA82AB838B
:102F7300121487AA18AB191214BD750801A9087495
:102F83000D025E5BEA2417F582E43BF583780822A1
:102F930074F61203781214F38A088B09A808A90996
:102FA300E849601488828983A3A3A3A3E06009C3CB
:102FB30094055004790180027900802F74F612037E
:102FC300781214F38A088B09A808A909E849601440
:102FD30088828983A3A3A3A3E06009C39403500455
:102FE30079018002790080031208077F0202058DB0
:102FF30074F61203781214F38A828B83E582458375
:10300300600BA3A3A3A3E07004790180027900807D
:10301300DAC082C083EAFCEBFD7A007B00023A0C43
:10302300C082C0837C007D00023A0C74F5120378E1
:1030330074F31208D0EAFEEBFF8C088D09C3EC94FD
:10304300F8ED94FF4004EE4F6065750A0080197433
:10305300FF6508700474FF6509600B126454700403
:10306300A3E06509603B050A90255FE493F8E50A50
:10307300C398503BE50A122E4D60EBEE4F60D01221
:1030830030BD120AEA1248FD1214B7E960D874037E
:10309300120AEAAC82AD83EEFAEFFB12107FE9600D
:1030A300C5E50A75F01CA4F8A9F012327B80047AF6
:1030B300007B00740D120807801B85188285198315
:1030C3007401F0743028F582740839F5831242389C
:1030D300740B22A90A7F0302058D74F4120378741A
:1030E300F31208D07508001214F98A0A8B0BAE0A82
:1030F300AF0BEE4F60258518828519831231451277
:1031030030D0120AEA1248FD12149F7C1C7D00790C
:10311300FFEEFAEFFB120EF37508017A0479001241
:1031230014CF1231385009901EB47401F0121A6F83
:10313300A9080237A190255FE493F8C3EA98EB94BA
:1031430000227401123C54A3A32274F7120378E9FA
:10315300FE74FE6A700374FF6B7C00700380240CA2
:103163001231B0501EEC122E4D60F412334A70032C
:10317300A3E06B70EA800BEC1231C56019E06403C5
:1031830060140C1231B0501EEE60ECEC1231BA60D8
:10319300F1C3940550ECEC75F01CA4FCADF012697E
:1031A300CA12565180047AFE7BFF02424C90255F7F
:1031B300E493F8ECC3982275F01CA4F8A9F0122E3E
:1031C300592275F01CA4F8A9F0122E596401221299
:1031D300150B023A0FC082C083790180F274F0129A
:1031E30003788A0A8B0B7A0479011214CF8A0C8B29
:1031F3000DEA450D6040EA2AFAEB33FB120F8F8A82
:10320300088B09AE08AF09EE4F60267AFE7BFF12EA
:10321300151174FE6A700374FF6B601E8508828546
:103223000983124591E5082402F50850E205098057
:10323300DE750C0080047E007F00850A82850B8387
:10324300E50CF0EEFAEFFB023511C082C0837C007F
:103253008009EA24FF1AEB34FFFB0C1231B0501142
:10326300EC123284940550F2EA4B70E612327B8002
:10327300047A007B00023A0F742E28FA740839FB93
:1032830022122E52C32274F712037874F31208D059
:103293007E00807DEF75F017A4F8A9F012333B127E
:1032A3005651EE75F01CA4F8A9F012334A7003A32B
:1032B300E06B603DEF75F017A4F8AAF0EAF912335A
:1032C3003B123C617401120AEAE0687003A3E069EF
:1032D300601FEF75F017A4F8EAF9747C28FC740AF0
:1032E30039FD7403120AEAAA82AB8312107FE960E4
:1032F30013EF75F017A4F8A9F0747A28FA740A3951
:10330300FB121BA70F902563E493F8EFC398408447
:103313000E1269B7501FEE126F2BF47003A3E0F483
:1033230060EE1230BD120AEA1248FD1214B7E960CA
:10333300DF7F0080D002424712333F22747A28F5A0
:1033430082740A39F58322126F366A2274F41203E7
:103353007874F31208D07E0080389081F5780812D3
:103363000A7BEE75F01CA4F8A9F0744128F5827469
:103373000839F58378081208E66016908209780800
:10338300120A7BEE75F01CA4F812341778081209A0
:10339300F90E1269B7507AEE1231BA60F4C394038E
:1033A30050EF123417120AA3E8494A4B70AC901E2F
:1033B300A0E06401702D901D341243A66025EE75C4
:1033C300F01CA4F8A9F0742E28F8740839F9123403
:1033D3006D120658888289831235021220F2740412
:1033E3001208078518828519837401F0EE75F01CA5
:1033F300A4F8A9F01230C6120AEA1248FD1214B753
:10340300E9608E7403120AEAAA82AB83121505805F
:10341300800237A1744528F582740839F583227434
:10342300F61203781214F38A088B09A808A909E88D
:1034330049603288828983A3A3A3A3E06023C39452
:1034430003501E12346D120ABBE82417F582E439C7
:10345300F583120AAFE8241BF582E439F58374017E
:10346300F0790180027900022FEEE82413F582E45B
:1034730039F5832274F0120378EAFEEBFF901D2ED8
:103483001243A66072901D341243A6606A901D38E1
:103493001243A660621268431220F2E97059901E2B
:1034A300A1E0700A9023F678081209878028F508AE
:1034B30075090074027808120974126A25742312BC
:1034C300682478081209879081C9780C120A7B78DE
:1034D30008790C12028978081207EC1234FC1220C6
:1034E300F27404120807E96401700C8E828F83A3BF
:1034F300A31268311220F280158E828F83A3A31248
:103503004F50901D3412683B22740D1208077F0838
:1035130002058D125D12EC22E0F50AA3E0F50B2201
:10352300E493F8E508C39822EE2417F582E43FF507
:1035330083780C2212354A74FEF0A304F0A3F0A39F
:10354300F0123E5E74FE22EE2417F582E43FF5830B
:1035530022E88E828F83A3A3A3A3A3A3A3A31242D0
:103563000C740112420CA374AAF0EE2410F582E449
:103573003FF583E4F022124F50C3E89A22A3F012DE
:103583004465E4F0EE240CF582E43FF583E4F0A314
:10359300F0A3F0A3F02274F012037874F31208D0AE
:1035A300EAFEEBFF7A0279011214CFEA8E828F834F
:1035B300F0700302366475F00CA4FAABF0120F8FAF
:1035C3008A088B09EA4509700302366AAE08AF0917
:1035D300750A00801C908209120658EEFAEFFB125E
:1035E3000F7174041208078A0C8B0DAE0CAF0D0516
:1035F3000A90255FE493F8E50AC398506AE50A1236
:1036030031C56005E0640270E61230BD120AEA12A9
:1036130048FD1214B7E960187403120AEAAC82ADCC
:1036230083EEFAEFFB1210858A0C8B0DAE0CAF0DF7
:10363300E50A75F01CA4F8A9F0744928F58274080A
:103643001266A26401708E12327BEA24131236745E
:10365300120A7B1236711208A2780C1207EC02359B
:10366300DE750800750900AA08AB0902350CEA24C7
:1036730017F582E43BF583780C22C082C083901C4B
:10368300377455F0A37419F0901C39744FF0A37478
:1036930019F0901C3D74A1F0A37415F0023A0F7455
:1036A300F7120378EAFEEBFF901CA8E06408601FA2
:1036B300E06404601A8E828F83E0540364017044D3
:1036C300124300F8A3E0F5838882E0640670358E28
:1036D300828F83A3A3E064FE7003A3E0F460258ECE
:1036E300828F83A3A3125D1B7003A3E0697008EEAE
:1036F3002415125D026005121A038003121A09E9E8
:10370300F50880037508C2EEFAEFFB120F95022845
:10371300A374F41203788A088B098A828B83E0FAF4
:10372300A3E0F8EA28FAE43400FB120F8F8A0A8B2D
:103733000BAE0AAF0BEE4F605A850882850983E012
:10374300FC7D007900120EF38E828F83122A1E12E3
:103753001A3F8E828F83A3A3A3A3EAF0A3EB1237AE
:103763009CF8EE28F8E43F122B968508828509839E
:10377300A3E0C0E0125906D0E0F0121A51EE240E75
:10378300F582E43FF583E9123BDCE0C0E0123A91B5
:10379300D0E0F0EEFAEFFB800A123BD4E022740D86
:1037A3001208077F0402058D741880F474F4120361
:1037B3007874E81208D0EAFEEBFF901C301243A69F
:1037C30060030238897A077B00120F8F901C301236
:1037D3004591901C301243A670030238858E828F68
:1037E30083120AA3901C30E0FCA3E0F5838C8212C1
:1037F3000A97EE2404F50AE43FF50B850A82F58364
:10380300E0C0E0901C30124F25A3A3A3D0E0F0EE5C
:103813002405F508E43FF509850882F583E0C0E057
:10382300901C30124F36D0E012388EE0C0E0901C6E
:103833003012563FC82406F582E438F583D0E012EF
:103843003893120EF38E828F83120AA38518828512
:103853001983120A97850A82850B83E0C0E07405F9
:10386300120AEAD0E012379CC0E07404120AEAD0CC
:10387300E0F07407120AEAE412490112140FE9F99D
:1038830080067910800279010237AB1262E5A32228
:10389300F07C187D007900AA18AB1922C082C0837E
:1038A300901C301243A66010901C30125651120F18
:1038B30095901C30E4F0A3F0121973121B4D023AD9
:1038C3000F74F412037874E81208D08A0A8B0BEC95
:1038D300FEEDFF89087428120AEAE0FD7429120A32
:1038E300EAE0FC740F6D7005740F6C6012901E9CFF
:1038F300E064026005EDC39C500579C10239D974B7
:1039030024120AEA120AA3901CA9120A97E5089046
:103913001CAFF0ED901CADF0ECA3F0742A120AEA90
:10392300E0901CB0F074FF650A700474FF650B70BF
:1039330024901EB0E0F47003A3E0F4700C120EFFA9
:10394300901CA6EAF0A3EB8015901EB01266B8E8AF
:10395300F0A3E98009901CA6E50AF0A3E50BF0EEBD
:103963004F6017EEFAEFFB121C01E96401700BEED6
:10397300FCEFFD7ABA7B1C121085901C99E4F0A32E
:10398300F0901C9CF0A3F0901CB9F0901E9CE06496
:10399300027008901CAD740FF0A3F0901CA874057E
:1039A300123893120EF37404120AEAE4F0901CA97D
:1039B300120AA3851882851983120A97901CAFE017
:1039C300C0E07405120AEAD0E0F07407120AEAE4D0
:1039D30012490112140F0237AB74F7120378E990FE
:1039E3001C36F07A807B00901CF3E0F912105B1216
:1039F3001571790002424CC082C083901C36E0707E
:103A03000312127112157180031214FFD083D08236
:103A13000207D474F0120378901C36E0901EB37042
:103A23000FE060057900121121901EB3E4F0804A83
:103A3300E064016008901C36E0F9121121901EB376
:103A43007401F0901C36E0F46030E0F50CE4F50D01
:103A5300F50EF50FF090820D7808120A7B780C7939
:103A630008120289780C1207EC7A807B00901CF311
:103A7300E0F912104F74041208077AB37B1E7941E0
:103A83001213FD0235111208077F0C02058DEE2477
:103A930011F582E43FF5832212593B123AA222E840
:103AA300F0A3E9F02274F7120378EB901CB0F01244
:103AB300196102424C74F612037874E91208D08A31
:103AC300088B097E008A828B83A3A3A3E0C0E074E2
:103AD30006120AEAD0E0F08A828B83A3A3E0C0E057
:103AE3007408120AEAD0E0F07409120AEA7401F0C9
:103AF3008A828B831243A6600D8A828B831256516E
:103B030012148DE970357407120AEAE4F0121A39B7
:103B13007404120AEA124591901CA8E06404700E22
:103B2300121A457402120AEAEAF0A3EB804E7402F9
:103B3300120AEA74FDF0A374FF8041AC18AD198535
:103B430008828509831256511214998508828509C2
:103B530083A3A3A3A3E070317407120AEA740112CA
:103B63003C5A7402120AEA12454D8508828509837C
:103B7300123C617404120AEAE8F0A3E9F074021239
:103B83000892121A8DE9FE8041123C5B740A120AF4
:103B9300EA12454D7414120AEA7401123BDCA3E0E5
:103BA300C0E07415120AEAD0E0F07416120AEAE4CF
:103BB300123BD4125D0E740C120AEAAA82AB831272
:103BC3001085740A120892121139EEF97417022F34
:103BD300EBF085088285098322123BE022123BD455
:103BE300A3A32274F712037874F81208D0EAFEEB49
:103BF300FF7900901CA8E064086005E06404704746
:103C030085188285198374FDF0A374FFF0121A39A5
:103C13007402120AEA1245917405120AEA123C4F21
:103C2300A3E0C0E07404120AEAD0E0123C50E0C002
:103C3300E07406120AEAD0E0F07407120AEAE4120A
:103C43004901121A8DE9F97408024249E4123C54FD
:103C530022F08E828F8322F0851882851983124287
:103C630038227F0702058D74F412037874F9120861
:103C7300D08A088B098C0A8D0B8518828519837865
:103C830008120A5D7404120AEAE9F07405120AEADA
:103C9300E4F07406120AEAE4124901121553740798
:103CA3000237A374F51203788A088B098A828B83FF
:103CB300125E78EE4F7003023E57901C571243A6D4
:103CC30060178A828B83A3A3E0F9EEFAEFFB901CC3
:103CD30058E0F58388821220F28E828F83A3A3A3F8
:103CE300A3A3A3A3A3A3E064026003023DC18E8246
:103CF3008F83A3A3A3A3A3A3E054027003023DE510
:103D0300850882850983A3A3E064E97003023DE586
:103D1300850882850983A3A3E064CD7003023DE592
:103D2300850882850983A3A3E064F07003023DE55F
:103D3300EE240D1241ED6028EE2413125D02602083
:103D43008E828F83A3A3A3A3A3A3A3A3A3A3123EA0
:103D530076121ABDE9701D7A307B011211D58014D9
:103D6300901EA2E0048E828F83A3A3A3A3A3A3A385
:103D7300A3A3A3F0850882850983A3A3E0701F751D
:103D83000A0080097A367B011211D5050A8508825B
:103D9300850983A3A3A3E0F8E50AC39840E6EE24CC
:103DA3000A12559DC0E0123E5AD0E0124208740434
:103DB300F0901EA3125935E8123E68120F478E8207
:103DC3008F83A3A3A3A3A3A3A3A3A3E0640260126B
:103DD3008E828F83A3A3A3A3A3A3A3A3A3E06406B9
:103DE30070728E828F83A3A3A3A3A3A3E0A2E05048
:103DF30063850882850983A3A3E0F9EEFAEFFB123A
:103E030018A78E828F83A3A3A3A3A3A3E054FE12B8
:103E13003E76121ABDE9850882850983A3A3702A19
:103E2300E070237A2F7B011211D57E0085088285ED
:103E33000983A3A3A3E0F8EEC39850187A367B0155
:103E43001211D50E80E67A318005E070077A2D7B5A
:103E5300011211D50230D8123E5E22EE2413F582F0
:103E6300E43FF58322F0A3E9F07A207B00901CF372
:103E7300E0F922123C5412683B124F502274EC12A8
:103E8300037874BD1208D0EAFEEBFF8C108D117518
:103E93000C00750E00AC18AD191217F3740D120A4D
:103EA300EAE070087410120AEAE06014851882854B
:103EB3001983E0A2E6500E125644121ABDE96005BA
:103EC3007A35023FE1851882851983E0540C640436
:103ED3007005750D018003750D00E0A2E5503D7579
:103EE3000E01E50DA2E04034121A3F124223700383
:103EF300A3E06970051241EA706B121A3F12422364
:103F03007003A3E06960151241EA7010125D28ACDA
:103F130018AD19121889E96003023FDF1241EA70F4
:103F23002C851882851983E0A2E650217401120AB8
:103F3300EAE054037017851882851983E0540C64F2
:103F43000C600AE0540C64086003750C0185188248
:103F5300851983E05403F87402687019125D241202
:103F630018050241E51256441242317415120AEA49
:103F730012454D809A7401687047E50CA2E0500B1E
:103F83001241EA7006125D241217F9741A120AEA32
:103F9300E518F0A3E5191242307417120AEA124524
:103FA3004D8E828F83A3A3A3A3A3A3E0C0E07419C0
:103FB300120AEAD0E0F0741712089212175702415E
:103FC300E5E860030241E5901C90E0640170178E00
:103FD300828F83A3A3A3A3A3A3E0700A7A347B01F4
:103FE3001211D50241E57442120AEA7402124230F8
:103FF300743A120AEA1241F7E05480700302410155
:104003007424120AEA7402124208123C61741C12EC
:104013000AEA12454D7403120AEAE0C0E07425125D
:104023000AEAD0E0F07402120AEAE0C0E074261251
:104033000AEAD0E0F0901CA6123C617427120AEA47
:1040430012454D7406120AEA123C617429120AEAF7
:1040530012454D7408120AEA123C61742B120AEAE3
:1040630012454D7410120AEAE0F8742D120AEAE8B8
:10407300F0A3E4F0740E120AEA123C61742F120AE0
:10408300EA1241F7123C617431120AEA124214E057
:10409300C0E07433120AEAD0E01262F4C0E0743470
:1040A300120AEAD0E0F0125CFFC0E07435120AEAAB
:1040B300D0E0F07411120AEAE0C0E07436120AEAA2
:1040C300D0E0F07413120AEAE0C0E07437120AEA8F
:1040D300D0E0F0EE2423125D02C0E07438120AEA45
:1040E300D0E0F0EE2425125D02C0E07439120AEA32
:1040F300D0E0F0741C12089212180B0241E57457B9
:10410300120AEA7808120A7BE50DA2E04003024195
:104113009DEE240F125D02C0E07412120AEAD0E091
:10412300F0901C591243A670030241E5121A3F8A0C
:10413300128B13A812A913743A120AEAE0687003E7
:10414300A3E06960030241E5EE2423125D02F50D4D
:10415300780D1207F81241FE12065C78081207EC7C
:10416300E50EF50878081207F88E828F83A3A3A3C0
:10417300A3E0F50878081207F878101207F4A90CE1
:10418300740B12089A7445120892901C59125655D2
:104193001220F2740B1208078048E50CA2E05006C7
:1041A300125D241217F9125CFFF50C780C1207F854
:1041B30078081207ECE50EF50878081207F878106E
:1041C3001207F4901CA612065CEE2412125D02F98B
:1041D300744412089A740A1208921218B3740A12D9
:1041E30008077443023A89EE2421F582E43FF583FC
:1041F300E0548022123AA21241FE22EE2421F582DB
:10420300E43FF5832212420C221262E9A3A3A3A383
:1042130022E8F0A3E9F0EE240FF582E43FF58322D0
:104223008A088B09A808A9091243046822F01244DA
:10423300651242382212563FF92274F7120378129C
:1042430011038005740D1208077F0102058D74F7B1
:1042530012037812110980F174F712037812111501
:1042630080E7C082C08312110F023A0F74F7120362
:104273007812111B80D374F71203787409120AEAB7
:10428300E0F50878081207F812112D740180B7C001
:1042930082C083121139023A0F74F6120378EAFED0
:1042A300EBFF901C93E0A2E150498E828F83A3A37E
:1042B300A3A3A3A3A3A3A3A3E064016036121A4597
:1042C3008A088B09A808A9098E828F83E068700386
:1042D300A3E069601E124300640160178E828F831E
:1042E3001256511214E7E9600A8E828F83125651D7
:1042F3001219FDEEFAEFFB12113F022FEE124304E7
:1043030022124469E02274F7120378121145024223
:104313004C74F7120378EAFEEBFF89087401650811
:10432300701479001216BB90254CE493FC7900EECF
:10433300FAEFFB12163102424C74F7120378121192
:104343003302424C74F412037874F91208D0E9FE74
:104353008A088B098C0A8D0B901B631243A6602B72
:10436300EE851882851983F07401120AEA7808121F
:104373000A5D7413120AEA123C617405120AEA1206
:1043830048FD901B631256551220F2023CA1E50E24
:1043930075F006A4F8AAF0EAF9740628F582740DFC
:1043A30039F583124238E84922C082C08312118D45
:1043B300023A0F74F712037812115102424C74F748
:1043C300120378901EB6E0F97800800B1246715400
:1043D3000D6401700119081245DE5003E970ED0206
:1043E300424C74F7120378901EB7E0F97800800B03
:1043F300124671548D6481700119081245DE500311
:10440300E970ED02424C74F2120378890BE975F0FE
:1044130006A4A9F0240FF508E439F509E5082AFAFA
:10442300E43509FB120F8F8A0C8B0DAE0CAF0DEE2A
:104433004F6025AC08AD097900120EF3124461E513
:104443000BF0EE2508F8EF3509F98E828F83A3A3CD
:10445300A3A3A3A3A312454BEEFAEFFB80151244CB
:10446300652212446922EE240BF582E43FF5832290
:104473001208077F0602058D74F6120378EAFEEB35
:10448300FF121607E9F8901EB5E0F9E8C399400951
:10449300901C3F12565112160DEE2402F8E43FF918
:1044A30088088909901C41125A3C901C41E004F091
:1044B300EEFAEFFB121613850882850983E0025B8F
:1044C3006BC082C0837900901C3F80010912565152
:1044D3008A828B83E582458370F2023A0F74F71266
:1044E3000378EAFEEBFFEE4F605B901C3F1243A69E
:1044F3006053888289837A007B00EE65827003EFC4
:1045030065836013AA82AB83123C6188828983E549
:10451300824583603080E3901C3F123C61EE6870FB
:1045230002EF698E828F837008123C61901C3F807A
:104533000312682912454DEEFAEFFB121787EEFAC4
:10454300EFFB120F9502424CA3A3123AA222C082A0
:10455300C083901C3F8004888289831243A6600A2B
:10456300888289831235164D70ED8A828B83E4F03D
:10457300A3F0E8496006888289838003901C3F1278
:104583004591023A0FEE241AF582E43FF583EAF0EF
:10459300A3EBF022124F50EA4B2274F712037890E8
:1045A3001C3F80048A828B831245976027780080A2
:1045B30001081245DE50EDE875F006A4FCADF0EA03
:1045C3002CFCEB3DFDEC2413F582E43DF583E0691F
:1045D30070DF80047A007B0002424C124662FCE8E2
:1045E300C39C2274F7120378E9FE7D0080010D124B
:1045F300465DEDC3985023ED75F006A4F8AFF0EFD8
:10460300F912465370E8ED75F006A4F81246944C7F
:10461300F0E8240FFAE439FB80047A007B000242BD
:104623004C74F6120378E9FEEAFF121619EA4B609E
:104633001C7C008010EC75F006A4F8A9F012465318
:104643007002EFF00C12465DECC39840E8022FEEC7
:1046530012468C241312469D6E22124662F822EAF9
:10466300240B12466922F582E43BF583E022E875C8
:10467300F006A4FCADF0EA2CFCEB3DFDEC2414F5B4
:1046830082E43DF583E022EFF9EA28F8EB39F9E813
:104693002212468A241412469D22F582E439F583B8
:1046A300E02274F61203781217277A008016EA754F
:1046B300F006A4F8A9F0125A6CE4125B6FF0A3128F
:1046C3006155F00A90255112559640E27A00801CFC
:1046D3008A087509007403780812097412473DA308
:1046E30074FEF0A30412592CA3E4F00A902565127A
:1046F300559640DC7900801A89087509007403789F
:104703000812097474A2126A27740D126824122AFB
:10471300200990255412614E40DE90255AE493906F
:104723001C43F090820D1206587A107B00901CF304
:10473300E0F91210557404022FEB74622508F87423
:104743000D3509F9888289832274F012037874F590
:104753001208D08A088B09890A8C0BE9A2E050144D
:104763007508FC7509FFA2E15005D2E402480DD299
:10477300E302480D12170F8A0C8B0DA80CA90D909C
:104783001C99E0687003A3E069600EAC0A7902AA81
:1047930008AB09121709E9700579000248DDE50A3B
:1047A300F50C780C1207F879027CFE7DFFAA08ABA2
:1047B300091216857401120807E960030248DBE554
:1047C3000AC2E5F50AA2E64043740312089AAA084E
:1047D300AB09121493E9702E124F2F121B898A0C06
:1047E3008B0DAE0CAF0DEE4F6022EE2402FAE43FC8
:1047F300FB12148DE96015EE2402FCE43FFD740303
:10480300120892121085E50AD2E5F50A901C42E0DF
:10481300F50C901C99124AA6780E1207F47D017CC0
:1048230000901C42E0F9AA0EAB0F1216C7740212D5
:104833000807E9F8901C42E004F0E860030248DB53
:10484300E50AA2E55004740E80027406C0E0740108
:10485300120AEAD0E0124901121AA58A0E8B0FAE92
:104863000EAF0FEE4F606D125910F0121A39124548
:10487300881249077401F07478550AA3125A0EA3DB
:10488300E50C125A0EA3A3E508F0E5091248E2E489
:10489300F0E50AA2E5500F740312089AE82406FA19
:1048A300E439FB1210858E828F83A3A374FDF0A3DA
:1048B30074FFF0E50B601290254DE493F8E50BC30C
:1048C300985006123E5AE50BF0EEFAEFFB1215472D
:1048D300E9F980067910800279C7740B02350E88D6
:1048E300828983A3A3A3A31248EE221248F222F0E3
:1048F30088828983A3A3A3A3A322E8F0A3E9F0AA50
:1049030018AB1922EE1264643F12491022F5831288
:10491300563FF9888289832274F41203787A007BE4
:1049230010901CF3E0F9121061EA4B4C4D600890B3
:104933001D057401F08043901C14E06401901E9DDA
:104943007006E0FC79018004E0FC79037A007B00C7
:10495300121631902549E493F508740193F509E49F
:10496300F50AF50B78081207EC7A007B10901CF31C
:10497300E0F912104F74041208070237A674F012FC
:104983000378EAFEEBFF8C0A8D0B890C121ABDE942
:1049930060057AFF024A76901E9CE064026003027F
:1049A3004A9C902556E493F9EEFAEFFB121739E986
:1049B3006003024A967900EEFAEFFB12170FA90C77
:1049C3001217038A088B09EA45097003024A9C8A75
:1049D300828B83A3A3A3A3A3126071707E1256518B
:1049E300850882850983A3A3A3A3A3A3E054186026
:1049F3004F90254BE493850882850983A3A3A3A342
:104A0300F07410120AEA125D0E7412120AEA124AC4
:104A1300A6EA650A7003EB650B6012EA6C7002EBA1
:104A23006D600AEA650E7003EB650F7022780E1253
:104A330007F4AA0AAB0B121BC57402120807800FF6
:104A4300901C98E0850882850983A3A3A3A3F0742F
:104A5300FE6A700374FF6B601E8045A3A3A3E0642A
:104A63000360248A828B83A3A3A3A3A3E0640470BB
:104A7300067AFE7BFF8029850882850983A3A3A389
:104A8300A3A3E0640260127907EEFAEFFB12173971
:104A9300E96006EEFAEFFB8007EEFAEFFB1216432E
:104AA300023511E0F50EA3E0F50F2274F712037837
:104AB300EAFEEBFF1214E1E9700AEEFAEFFB1214BF
:104AC300EDE96006EEFAEFFB80047AFE7BFF02421B
:104AD3004C74EE120378EAFEEBFF8C0C8D0D890EFD
:104AE300750800121ABDE979006003024C19EEFA49
:104AF300EFFB12170FA90E1217038A0A8B0BEA4555
:104B03000B607D8A828B83A3A3A3A3A3E0640360CA
:104B1300238A828B83A3A3A3A3A3E064016003027C
:104B23004C1779078A828B8312564F121739E96023
:104B330003024C17750902850A82850B83A3A3A37D
:104B4300A3A3A3E054186003024BCE7900AA0CABD5
:104B53000D12170F8A0A8B0BA80AA90B901C99E058
:104B6300687003A3E0696003024BFB90254CE49358
:104B7300FCA90EEEFAEFFB121631750801024C1771
:104B8300EEFAEFFB1216431214F38A0A8B0BA80AF0
:104B9300A90BE849607E88828983A3A3A3A3A3E02A
:104BA300A2E05070750901A2E150127901EEFCEF09
:104BB300FDAA0CAB0D121661E970908057888289AB
:104BC30083A3A3A3A3A3D2E1F08080750801850A80
:104BD30082850B83A3A312065C750AFE750BFF780F
:104BE3000A1207F47900EEFCEFFDAA0CAB0D1217C5
:104BF3001B7404120807801CA909EEFCEFFDAA0C24
:104C0300AB0D121661E9700C750801A90EEEFAEFEF
:104C1300FB1216BBA908025E5E74E912037874F0F6
:104C23001208D08A0C8B0D8C088D09750B06124F58
:104C33002F121BB38A108B11EA4511600B8A828BEA
:104C430083A3E07003024DC3E50C241DF50EE43588
:104C53000DF50F850E8212512EF51688828983A3D6
:104C6300A3A3E0FA88828983A3A3A3A3E0F8E4C8FB
:104C7300F9EA28FEE439FFAA08AB091216C1E9F9DB
:104C8300850E82850F83124F36E029F50EE50AA2C1
:104C9300E55003750B0E7487550A700F7418550A87
:104CA30064186007125113650B600A7AD37B0012F4
:104CB30011D5024DC3530A7878081207F47D00AC6E
:104CC3000EA916124F451216C77402120807E9F807
:104CD3007403687003024DC37427120AEAE0F512E5
:104CE300A3E0F513E86003024DB47418550A70038A
:104CF300024DC8E50AD2E0F50AA2E45004D2E1F578
:104D03000AA90A124F451217038A148B15A814A96E
:104D130015E849605788828983A3A3A3A3A3A3E0CB
:104D23005418604888828983A3A3A3A3A3E06401E2
:104D3300703AE51045116034125D0B888289831245
:104D4300564F121BB38A148B15A814A915E8496092
:104D53001B88828983A3E06013851082851183A356
:104D6300E0FA88828983A3E0C39A4054E50AF50BED
:104D7300780B1207F8124F3F1216857401120807B9
:104D8300E9702E7C007D0085128285138374FFF009
:104D9300A3125A1CA3A3A3A3A3A3A3A3E0600AE59E
:104DA3000C2415124F1B125D0EA90E124F4512153E
:104DB300D7851282851383E0F47003A3E0F460487F
:104DC3007900024F0D901C92E06014E50AF50B7810
:104DD3000B1207F8124F3F1216857401120807E5EC
:104DE3000AF50B780B1207F879027CFE7DFFEEFAC9
:104DF300EFFB1216857401120807E970B48512825D
:104E030085138374FFF0A3F078081207F47D01ACD7
:104E13000EA916124F451216C77402120807A90AE3
:104E2300EEFAEFFB12170F8A088B09A808A909905D
:104E33001C99E0687003A3E0696003024F01EEFA76
:104E4300EFFB1214F38A088B09A808A909E8496043
:104E53002788828983A3A3A3A3E06401600D8882CA
:104E63008983A3A3A3A3E06402700DAC18AD19EE6C
:104E7300FAEFFB1214938012121A398A088B09ACC9
:104E830008AD09AA18AB19121085850C82850D830C
:104E9300A3A3A3A3A3A3A3A3E064017012E50C241B
:104EA30015124F1B125D0E7408120892121085E53D
:104EB3000C241DF582E4350D124F23E04430F50830
:104EC30078081207F8740112088A88088909780893
:104ED3001207F4740B12088A8808890978081207E4
:104EE300F4E516F50878081207F87900EEFCEFFDF3
:104EF300124F4512165B7406120807024DC3124F78
:104F030017124F36E50EF0121A5174101208077F6C
:104F13000F02058DE50C241DF582E4350DF5832282
:104F2300F583E0F8A3E0F5838882A322901CA61200
:104F3300514A2212683BA3A3A3A3A3227901AC087D
:104F4300AD09126462350D124F4E22F583E0FAA3C8
:104F5300E0FB2274EC12037874F01208D08A0C8BF5
:104F63000DECFAEDFB750F08125D0B121BB38A08EB
:104F73008B09AC08AD09EC4D601F8C828D83A3E0D7
:104F830070171259215001097A027B00120228E896
:104F93008C828D83F0A37407F0E50C241DF582E465
:104FA300350D12512EF50E88828983125120E0FAB5
:104FB300E4CAFBEC2AFEE43BFF88828983A3A312A5
:104FC3005120A3A3E0FBECF508E43BF509888289B3
:104FD30083A3A3A3A3A3A3A3E0F50BE50AA2E45031
:104FE30003750F10A2E550067408250FF50F748F93
:104FF300550A7007125113650F600A7AD37B0012AA
:1050030011D502510E530A707800E50AA2E4501C30
:10501300124F17E02408FCA3E03400FD74081208C3
:10502300921210857808E50AC2E4F50AE50AA2E5BA
:10503300501F124F17E028F8A3E03400F9E82408C2
:10504300FCE439FDAA18AB19121085E50AC2E5F58F
:105053000AA90EEEFAEFFB1216FDE9F5109025658D
:1050630012614E50298912751300740378121209C4
:105073007474672512F582740D3513F583E0F8E532
:105083000BC3985007E50BF078008004807D78040B
:10509300901C99E06E7003A3E06F605FE87019E500
:1050A3000AF50F780F1207F812513D121685740195
:1050B300120807E970558005740468704E780A1267
:1050C30007F8740112088A880C890D780C1207F40A
:1050D300740B12088A880C890D780C1207F4E50EFC
:1050E300F50A780A1207F8A90BAC08AD09EEFAEF36
:1050F300FB12165B74061208078010780A1207F871
:1051030012513D12168574011208077410023A8970
:10511300E50C2417F582E4350DF583E022A3A3A360
:10512300E0FC88828983A3A3A3A322124910A3E0EE
:10513300F50A88828983A3A3E02279011264623588
:105143000DF58312514A22E0FCA3E0FDAA08AB0946
:105153002274EB12037874F51208D0EAFEEBFF8C8D
:10516300088D0989147420120AEAE0F511F9121660
:10517300FDE9F50A90256512614E501B750B00740D
:1051830003780A1209747465250AF582740D350BC8
:10519300F583124AA68006750EFE750FFF74011281
:1051A3000AEA7408F07425120AEAE0F510A2E45042
:1051B300087401120AEA7410F0E510A2E5500974AC
:1051C30001120AEAE02408F0AA18AB19121AA58AF8
:1051D3000C8B0DEA450D70030252F6EA24171253A5
:1051E30004121A39E50C241AF582E4350D12458FA1
:1051F3007421120AEAE0F512A3E0F513740312080E
:105203009AAA0EAB0F121493E9601512530074039C
:1052130012088AE50C2418124F1BE8F0A3E980203A
:10522300E510A2E4501BE50E6E7003E50F6F7011DD
:10523300125300E50C2418124F1BE512F0A3E513DB
:10524300F0E50C12531B124F1E12351B850A82F513
:10525300837402F0A3E51012530FE511F0EE850AF3
:1052630082850B83A3A3A3F0EF850A82850B83A317
:10527300A3A3A312530FA3A3A3E508F0E509850A8B
:1052830082850B83A3A3A3A3A3A3F0AA0EAB0F1240
:1052930016C1E92514850A82850B83A3A3A3A3A3BF
:1052A300A3A3F07800E510A2E45012AC12AD13E50D
:1052B3000A2408FAE4350BFB1210857808E510A2DE
:1052C300E5501A7423120AEA125D0EE50A28F8E47F
:1052D300350BF9E82408FAE439FB121085850C82B2
:1052E300850D83A3A3E50EF0A3E50FF0AA0CAB0D88
:1052F300121547740B1208077F0D02058DE50C2468
:1053030016F582E4350DF5837401F022F0850A82E7
:10531300850B83A3A322E5081264642274F41203A9
:10532300788A088B09ECFEEDFF750B01901C99E060
:1053330065087004A3E065096013750B00780B1210
:1053430007F8121AFF7401120807E9F50B7900AA8E
:1053530008AB0912170F8A088B09A808A909901C22
:1053630099E0687003A3E06970467900EEFAEFFBF9
:10537300121703EA4B60308A828B83A3A3A3A3A3F0
:10538300A3E0541860217508FE7509FF7808120719
:10539300F48A828B83A3A312065C126C8612171BFA
:1053A300740412080780097901EEFAEFFB1215D194
:1053B300A90B0237A674F21203787EEA7F0B7A10E8
:1053C3007B00901CF3E0F9121061EA4B4C4D70170F
:1053D30090820D1206587A107B00901CF3E0F912AC
:1053E30010557404120807901C43E014F060030284
:1053F300549A90255AE493901C43F07C0079057AE3
:10540300007B001219C18A088B090254917C007930
:1054130005AA08AB091219C18A0A8B0B8508828574
:105423000983A3A3A3A31243A6605DE5082404F89C
:10543300E4124744E024FFF0A3E034FF1261551265
:1054430043A67044850882850983A3A3A3A3A3A3CA
:10545300E054046013850882850983A3A3A3A3A34F
:10546300A3A3A3E0F91216EB850882850983A3A3FE
:10547300A3A3A3A3A3A3A37406F07AF0850882854C
:1054830009831261DB121919850A08850B09E508DE
:105493004509600302541075080080668E828F836D
:1054A300A3A3A3A3E06052F4604FEE240412559D1E
:1054B30070478E828F83A3A3A3A3A3E06403701317
:1054C30079028E828F83125D0E8E828F8312564FE6
:1054D3001216618E828F83A3A3A3A3A3E06401604A
:1054E300188E828F8374FEF0A30412314714F0A345
:1054F300041262E1E412388EF00508EE2407FE5030
:10550300010F90255012352340927E00803D1219E1
:10551300E58E08750900740378081209747462250E
:1055230008FC740D3509FD7A6D7B161219D3EA4B0D
:1055330070DC8E0875090074037808120974124729
:105543003D122A1F88828983E4F00E902565126933
:10555300BA50258E0875090074037808120974740B
:10556300622508F8740D3509F9E82407F582E41279
:1055730066A214F070D480997A008009EA1255A7C4
:10558300600214F00A90255112559640EF024476BA
:10559300902554E493F8EAC39822F582E43FF58317
:1055A300E014F02275F006A4F8A9F0740228F5823D
:1055B300740D1246A02274F712037874DA1208D01D
:1055C300ECFEEDFF750800EE4F606A8A828B831252
:1055D300563FC8241FF582E4381243A460578A82D9
:1055E3008B83125651AC18AD19EA241E124669F981
:1055F300EA241F1225B6121A21740B120AEA125654
:10560300597003A3E069702D7402120AEAE0640181
:105613007023741D120AEA125655E0640170167461
:105623001D120AEA124F27A3E0F88E828F83E068E7
:105633007003750801A9087426024249E0F8A3E043
:10564300228E828F83A3A3A3A3A3A3A3A3A3124FF7
:10565300502212683B2212565FE0682212566322E0
:10566300E0F8A3E0F98E828F83A32274F412037807
:10567300E9701E79001216798A0A8B0BAE0AAF0BFA
:1056830074FE6E700374FF6F7014902552E4936080
:105693000D79011216798A0A8B0BAE0AAF0B121A17
:1056A3006F02379674F612037874F31208D0120E51
:1056B300FF8A088B09AE08AF09901C99E06E70034E
:1056C300A3E06F60E9121A45EA6E7002EB6F60DEC9
:1056D300EEFAEFFB121ABDE970D4EE4F60D08518D5
:1056E30082851983E4F004120AEAEEF0A3EF12496B
:1056F300011214ABE970B774FE6E700374FF6F6030
:10570300ADEEFAEFFB740D022FEBC082C083121AC9
:105713006F023A0F74F2120378EAFEEBFF8C0A8DE4
:105723000B890874FC6E700374FF6F7003025901D8
:10573300790012170F8A0C8B0DAE0CAF0D740E127D
:105743000AEAE0F509901C99E06E7003A3E06F701C
:1057530009E509A2E64003025901A9091217038AC0
:105763000C8B0DA80CA90DE849704579007AFE7BD6
:10577300FF1217038A0C8B0DA80CA90DE849703092
:105783007418550970030258317A0080010A902574
:10579300501255964003025831EA75F007A4F8A950
:1057A300F0126ACF541870E574EA28F8740B39F9CB
:1057B30088828983EEF0A3EFF074FE650A700474A7
:1057C300FF650B600D88828983A3A3E50AF0A3E537
:1057D3000BF088828983A3A3A3A3A3A3E509F0A263
:1057E300E0500D88828983A3A3A3A3A3A3D2E2F0ED
:1057F3007401650888828983A3A3A3A3A3703A7461
:105803000112592CE05418602A90254BE4938882A6
:105813008983A3A3A3A3125D0AAA0AAB0B121BB32A
:105823008B0DEA450D60030259017A008036790237
:10583300025903901C98E080D5E06401700302597B
:105843000188828983A3A3A3A3A3A3E054186007B9
:1058530090254BE4938004901C97E01248E2E508FE
:105863000259000A90256312559640030259017BA1
:10587300008029EB75F007A4F8A9F074EC28F582F1
:10588300740B39F583125D0EEA75F017A4F8A9F0CD
:105893001266A66C7003A3E06D60C80B902550E4FC
:1058A30093F8EBC39840CCE4936B70B7EA75F017A9
:1058B300A4F8A9F0747A28FE740A39FF7C177D00D6
:1058C3007900EEFAEFFB120EF38E828F83E50AF076
:1058D300A3E50BF0901CA6125935A3A3A3A3A3A37E
:1058E30012421474AAF0EE240E12591312591C50CA
:1058F30001097A027B00120228125906E8F07900A6
:10590300024476EE240DF582E43FF58322EE24175C
:10591300F582E43FF583740122F012592122902588
:1059230058E49379002401F822125930221248F2E4
:10593300A32212593BA3A322125663A32274ED128E
:1059430003788A088B09890A1261474005790502A1
:105953005A09121193AA08AB09121697E9F50E908A
:105963002551E493650E700A7AFE7BFF121697E9C0
:10597300F50E902551126F184003025A07124391F6
:105983006009125A58125651120F95E50A601CE528
:105993000E125A24AA0AEA2AFAE433FB120F8F12D0
:1059A3005A121243A670147901805BE50E75F00656
:1059B300A4F8A9F0125A61E4F0A3F0E50E125A43D9
:1059C300E508F0A3E509125A0EAA82AB83E50A1291
:1059D3005A388A828B83E0602712439160228E10AB
:1059E3008F1175120078101207F0AC0AEC2CFCE44E
:1059F30033FD125A58125651120EE7740312080758
:105A03007900800279077F0B02058D125A7822856F
:105A13000C82850D83EAF0A3EBF0850C82850D8360
:105A23002275F006A4F8A9F0125B78E82404F50CBB
:105A3300E439F50D22F0901E9EE088828983F022DE
:105A430075F006A4F8A9F0125A4E22125B788882E8
:105A53008983A3A322E50E75F006A4F8EAF9740678
:105A630028F582740D39F58322125A4E74FE125AA8
:105A73007522F0A304F088828983A32274F71203AA
:105A830078ECFEEDFF121697E9F8902551E493F9AF
:105A9300E8C399502DE875F006A4F8A9F0125B74D9
:105AA300125ACA88828983A3A3A3A3123C617409EF
:105AB300120AEAE0FAA3E0F5838A8212454D7900DF
:105AC3008002790402424C88828983A3E08E828F0C
:105AD30083F02274F61203787E00801BEE75F006C5
:105AE300A4F8A9F0740428F582740D1266A26A70F2
:105AF30003A3E06B60710E9025511269BA40DDE497
:105B0300936E706374FE6A700374FF6B70597E004A
:105B130080010E9025511269BA504CEE75F006A41F
:105B2300F8AAF0EAF91255AE70E8125B74A3A374F5
:105B3300FEF0A304125B6F1243A6602BEE75F00612
