:020000040000FA
:06000000020A4D0201CDD1
:03002B0002083D8B
:0300430002070BA6
:03005300020102A5
:10008300020161010124341201000004B48903BC9C
:10009300890020FD000206FFFF010101040200C2E6
:1000A3001A000000E8030000FFFF8B1BE8030000B9
:1000B30064006400A0BB0D00A0BB0D00020008009B
:1000C300000502070101051E02051E020A0A0102BC
:1000D3000803B80B02803E0102E8030A050001FF92
:1000E300FF14010105030101FF0F10FEFF4223006E
:1000F300000000B42100000000FF000000FF00C06A
:10010300E074F11203E4A2AFE433F509D2AF85A79B
:1001130008AFA1EF5508FE74105E6006120C1D7542
:10012300A1EF74085E6008120C2375A1F78024EF19
:10013300A2E092F0E508A2E082F05017906198E007
:10014300F8900784E0C398A2D265D0335002E8F058
:1001530075A1FEE509A2E092AF7F02020443C0E06D
:1001630074F21203E4A2AFE433FED2AF9061A4E0D1
:10017300F8759B00E59158540860087591F7120CC7
:100183006B8023E59158541060087591EF120C7140
:100193008014E591A2E092F0E8A2E082F05007E03B
:1001A300C2E0F0120DC79061A3E0F8E5E9585404EA
:1001B300600E120D9D75E9FB906193E0A2E640F29B
:1001C300EEA2E092AF7F01020443C0E074F2120397
:1001D300E4A2AFE433FED2AF9061A5E0F8E5BF58E7
:1001E3005404600675BFFB120DDF80D4C3E498F896
:1001F300E499F91202308026C3E49AFAE49BFBE9FE
:1002030020E7E9120230E498F8E499F922C3E4986C
:10021300F8E499F9120230E498F8E499F9C3E49AFE
:10022300FAE49BFB22EB20E7CFE920E7E0B90010DB
:10023300BB0008E88AF084F8AAF022E4FBC8FA229B
:10024300EB70227B10C833C8C933C9335007C39A34
:10025300C3DBF280069A50012ADBEAC833F4C8C92B
:1002630033F4C9FA2275F008E4C833C8C933C93373
:10027300C99AC99B5004C92AC93BD5F0ECFBC833C2
:10028300F4C8E4C9FA22080808EAC0E0EBC0E08633
:10029300F0E7A4FA180986F0E7A42AFA180986F009
:1002A300E7A42AFA180986F0E7A42AFA1986F0E7E0
:1002B300A4FBE5F02AFA190886F0E7A42BFBE5F086
:1002C3003AFA190886F0E7A42BFBE5F03AFA181876
:1002D3000986F0E7A4C5F02BFBE43AFA1908E7C551
:1002E300F0C6A426F6E5F03BFBE43AFA1886F0E7FD
:1002F300A4F6E5F00826F6E43B08F6E43A08F6D05F
:10030300E0FBD0E0FA22E4CFC0E0E4CEC0E0E4CDED
:10031300C0E0E4CCC0E075F020E626F608E633F64C
:1003230008E633F608E633F6181818EC33FCED3319
:10033300FDEE33FEEF33FFC3EC9709ED9709EE971C
:1003430009EF97191919400FFFEC97FC09ED97FD79
:1003530009EE97FE191906D5F0BFECF709EDF70979
:10036300EEF709EFF7191919D0E0FCD0E0FDD0E062
:10037300FED0E0FF222518C582C0E0E51934FFC591
:1003830083C0E0E518C3958224F810AF088583196C
:100393008582188008858319858218D2AFCEF0A391
:1003A300E520F0A37808E608F0A3DEFAEFF0A3E572
:1003B3008124FAF8E608F0A3E608F0A3E608F0A320
:1003C3000808E608F0A3E608F0A315811581D0E03C
:1003D300FED0E0F8158115811581E8C0E0EEC0E09C
:1003E30022C0D02518C582C0E0E51934FFC583C0FB
:1003F300E0E518C3958224F310AF0885831985823D
:10040300188008858319858218D2AFC8F0A3E9F054
:10041300A3EAF0A3EBF0A37908E709F0A3D8FAEC79
:10042300F0A3EDF0A3EEF0A3EFF0A3D0E0F0A3D0A0
:10043300E0F0A3D0E0F0A3E520F0A3E5F0F0A322E1
:10044300851983851882E0C0E0A3E0F9A3E0FAA34D
:10045300E0FBA37808E0F608A3DFFAE0FCA3E0FDE5
:10046300A3E0FEA3E0FFA3E0C0E0A3E0C0E0A3E0BD
:10047300F5D0A3E0F520A3E0A3F5F010AF08858342
:10048300198582188008858319858218D2AFD08296
:10049300D083D0E0F8D0E032120ADFB900030204BF
:1004A300DAE4900301783C791C8002F0A3D8FCD9EC
:1004B300FA7A3C7B1E900086787D79018015E4935F
:1004C300A3AD82AE838A828B83F0A3AA82AB838D92
:1004D300828E83D8E9D9E77582C27583AE7404121C
:1004E30007CE7582F975832074001207CE75F0105C
:1004F3008E1A8F1B85821F85831E8518828519831B
:10050300E0CEA3E0CF851F82851E83EBC9EAC8ED49
:10051300CBECCAC3E833C8E933C9EA33CAEB33CBFC
:10052300C3EA9EF51DEB9FF51CB35004AB1CAA1D3B
:10053300EC33CCED33CDD5F0DAAE1AAF1B22D0833A
:10054300D082ECC0E0EDC0E0E493A3FCE493A3FD10
:10055300ED4C600D120619EC24FFFCED34FFFD8019
:10056300EFE493A3FCE493A3FDED4C600D1206B6F8
:10057300EC24FFFCED34FFFD80EFD0E0FDD0E0FC88
:10058300E493A3C0E0E493C0E02285198385188235
:10059300E0A3FEE0A3F5207808E0A3F608DFFAE085
:1005A300A3FFE0A3C0E0E0A3C0E0E0A3C0E0E0A3BA
:1005B300C0E0E0A3C0E010AF0885821885831980EE
:1005C30008858218858319D2AFD083D0820207D4DD
:1005D300D083D082E9C0E0E493A3C386F0C5F0954D
:1005E300F0F908E493A386F0C5F095F0700BE4935B
:1005F300A3C3994005E9048002A3E475F002A4258E
:1006030082F582E5F03583F583D0E0F9E493A3C066
:10061300E0E493C0E022C0E0C3E49396087401933E
:100623009618400FE4936670080874019366187077
:10063300007019A3A3C3E49396087401939618A3B7
:10064300A3400DD0E0D0E0D0E002057DA3A3A3A397
:10065300A3A3D0E0227404800474028000CCC0E021
:10066300EDC0E0E518C39CCCAD1950011D10AF06D9
:100673008C188D1980068C188D19D2AF120750D0A3
:10068300E0FDD0E0FC2274028000CCC0E0EDC0E0CD
:10069300E518C39CCCAD1950011D10AF068C188D05
:1006A3001980068C188D19D2AF12072ED0E0FDD019
:1006B300E0FC22C0E0C0F088F0E4936670080874A0
:1006C300019366187000A8F0A3A3700BD0F0D0E0DC
:1006D300D0E0D0E002057DA3A3D0F0D0E022D08308
:1006E300D082CCC0E0E493A360061207AF1470FA83
:1006F300E493A360061208BA1470FAD0E0FCE49302
:10070300A3C0E0E493C0E022C0E074F21203E4A2C9
:10071300AFE433FED2AFC2C0E5D1A2E45003120B63
:1007230051EEA2E092AF7F01020443CAC0E0E4931A
:10073300A3C582CCC582C583CDC583F0A3C582CCB6
:10074300C582C583CDC583DAE5D0E0CA22CAC0E03D
:10075300E0A3C582CCC582C583CDC583F0A3C58282
:10076300CCC582C583CDC583DAE6D0E0CA22C008F2
:10077300C3E096F50808A3E096420808A3E0964272
:100783000808A3E09645087001D3D0082270090831
:100793000808226016181818C6C333C608C633C61D
:1007A30008C633C608C633C6D5E0EA22C0E0E493E0
:1007B300A3D39C5010E493A3C39C400AD0E0D0E0A1
:1007C300D0E00206FEA3A3A3D0E022C09FF59FE4DE
:1007D30073D09F22D083D082C09FE493C0E0740182
:1007E30093C0E0740293F59F227404800A7403801B
:1007F30006740280027401C0E0F404120822D0E0FF
:10080300120A8A2200C0D0251810AF08F518500C20
:1008130005198008F51850020519D2AFD0D022254A
:1008230018F58210AF08F518400C15198008F51853
:1008330040021519D2AF85198322C0E0C0D0E8C0A9
:10084300E0A8A8D2AFC2C7E8A2E792AFD0E0F8D041
:10085300D0D0E032BB0102E722C082C08389828A02
:1008630083BB0003E08002E493D083D0822260162E
:10087300080808C6C313C618C613C618C613C61875
:10088300C613C6D5E0EA222518F8E43519F922255E
:1008930018FAE43519FB222518FCE43519FD22C3A7
:1008A300E0C696F608A3E0C696F608A3E0C696F659
:1008B30008A3E0C696F622C0E0E493A36C7009D0C7
:1008C300E0D0E0D0E00206FEA3A3D0E0222518107A
:1008D300AF08F518400C15198008F51840021519D2
:1008E300D2AF22E066701008A3E066700A08A3E0A6
:1008F30066700408A3E06622C3E09608A3E09608A6
:10090300A3E09608A3E096A2D265D03322E76670EF
:10091300100809E766700A0809E76670040809E722
:100923006622C3E096F008A3E096F008A3E096F0F1
:1009330008A3E096F022C3E697F60809E697F608BF
:1009430009E697F60809E697F622C3E49396087436
:100953000193960874029396087403939622E627EC
:10096300F60809E637F60809E637F60809E637F622
:1009730022700422600D18C6C333C608C633C6D519
:10098300E0F41822E493F608740193F608740293D2
:10099300F608740393F622E657F60809E657F608B5
:1009A30009E657F60809E657F622E056F608A3E0EB
:1009B30056F608A3E056F608A3E056F622E056F0F2
:1009C30008A3E056F008A3E056F008A3E056F0228F
:1009D300E026F608A3E036F608A3E036F608A3E01F
:1009E30036F622E647F60809E647F60809E647F62B
:1009F3000809E647F622E026F008A3E036F008A34C
:100A0300E036F008A3E036F022E4C396F608E49655
:100A1300F608E496F608E496F622C6F4C608C6F489
:100A2300C608C6F4C608C6F4C622C3E7960809E793
:100A3300960809E7960809E79622C3E09608A3E01B
:100A43009608A3E09608A3E0962275D00075813F2F
:100A53007518017519030002049BE6F008A3E6F07C
:100A630008A3E6F008A3E6F022600C08C6C313C689
:100A730018C613C6D5E0F422E0F608A3E0F608A3EF
:100A8300E0F608A3E0F622CAC0E0E6F0A308DAFA2B
:100A9300D0E0FA22E8F0A3E9F0A3EAF0A3EBF02216
:100AA300E0F8A3E0F9A3E0FAA3E0FB22ECF0A3ED66
:100AB300F0A3EEF0A3EFF022E0FCA3E0FDA3E0FE41
:100AC300A3E0FF22EAF0A3EBF0A3ECF0A3EDF02206
:100AD300E0FAA3E0FBA3E0FCA3E0FD22E5C754F8A2
:100AE3004401F5C77901222518F582E43519F58308
:100AF30022C2AF75D69F020000221207D7F4FF036C
:100B03001207D7F7FF031207D7FAFF031207D7D746
:100B130097041207D7E597041207D75E98041207C4
:100B2300D73299041207D7049B041207D7C8FF02D0
:100B33001207D7CF86041207D73B87041207D7F3D0
:100B430087041207D7DF88041207D74F8A041207D6
:100B5300D7B68A041207D7028B041207D7138B0464
:100B63001207D7238B041207D7968B041207D7AC2F
:100B73008B041207D7A5BE041207D7C1BE04120700
:100B8300D7C9BE041207D7D8BE041207D7E3BE04E1
:100B93001207D7EEBE041207D7F7BE041207D7FD1C
:100BA300BE041207D714BF041207D748BF041207A5
:100BB300D763BF041207D7BAFA031207D7E6FA03BB
:100BC3001207D757FD031207D797FD031207D7D78D
:100BD300FD031207D7EBFD031207D704FE03120729
:100BE300D7F5FE031207D79AFF031207D7AEFF0309
:100BF3001207D7CCB7041207D7F0B7041207D709E7
:100C0300B8041207D73BB8041207D76BB80412070E
:100C1300D798B8041207D7FAB8041207D709B9044A
:100C23001207D713B9041207D720B9041207D72C18
:100C3300AC041207D74CAC041207D78BAC041207D1
:100C4300D7A6AC041207D7C5AC041207D72BAD0443
:100C53001207D734AD041207D791AD041207D7B5E5
:100C6300AD041207D776AE041207D783AE0412077A
:100C7300D794AE041207D71AC2041207D732C2049C
:100C83001207D75EC2041207D77FFB021207D7D31E
:100C9300FC021207D7E1FC021207D7F4FC02120789
:100CA300D709FD021207D71EFD021207D731FD0235
:100CB3001207D7A5FD021207D70AFE021207D7AC07
:100CC300FE021207D770FF021207D780FF02120736
:100CD300D78FFF021207D7F7C0041207D71BC1042F
:100CE3001207D743C1041207D76BC1041207D78C6D
:100CF300B3041207D7B3B3041207D7D1B30412074F
:100D0300D744B4041207D71BA9041207D734A90484
:100D13001207D740A9041207D754A9041207D772A0
:100D2300A9041207D77CA9041207D786A9041207BE
:100D3300D799A9041207D723AA041207D798AA049C
:100D43001207D7CCAA041207D71AAB041207D76726
:100D5300AB041207D782AB041207D78CAB0412077C
:100D6300D7B2AB041207D717AC041207D740C0049D
:100D73001207D762C0041207D7EEC3041207D7596C
:100D8300F6011207D783F6011207D7A0F60112075F
:100D9300D7B3F6011207D7C9F6011207D727F70110
:100DA3001207D75FF7011207D757FB011207D79C2A
:100DB300FC011207D7CFFC011207D732FD0112073E
:100DC300D7B5FE011207D7DDFE011207D7F2FE01E8
:100DD3001207D702FF011207D746FF011207D7A157
:100DE300FF011207D7B1FF011207D76ABA0412072E
:100DF300D784BA041207D7ACBA041207D7C5BA040A
:100E03001207D7E9BA041207D707BB041207D71E84
:100E1300BB041207D74CBB041207D767BB041207E6
:100E2300D761C3041207D7699B041207D7799B04C0
:100E33001207D7809C041207D7B49C041207D7D695
:100E43009C041207D7F99C041207D7179D041207B5
:100E5300D7519D041207D7B69D041207D7F89D04F6
:100E63001207D7379E041207D7689E041207D79F2D
:100E73009E041207D7AFB5041207D7CFB5041207E4
:100E8300D7B4B6041207D79CB7041207D783A204BA
:100E93001207D790A2041207D7A8A2041207D7BF3C
:100EA300A2041207D71BA3041207D750A3041207E7
:100EB300D70AA4041207D744A4041207D7E0A40452
:100EC3001207D732A5041207D78CBF041207D7C95C
:100ED300BF041207D70BC0041207D71BC0041207A5
:100EE300D725C0041207D73DC0041207D7008004DA
:100EF3001207D70A80041207D74480041207D7AD1C
:100F030080041207D7CA80041207D76C8104120722
:100F1300D77581041207D7BA81041207D7E3810476
:100F23001207D7F081041207D76182041207D7ECA6
:100F330082041207D73A83041207D778830412076F
:100F4300D7DD83041207D70084041207D7778404FC
:100F53001207D7CE84041207D70985041207D73E98
:100F630085041207D75085041207D7628504120738
:100F7300D78185041207D78A85041207D7458604CB
:100F83001207D79186041207D72AB9041207D75636
:100F9300B1041207D78CB1041207D7D4B1041207D6
:100FA300D72DB3041207D79CB2031207D7C0B303DC
:100FB3001207D7FAB3031207D7A4B5031207D7CE84
:100FC300B5031207D743B8031207D783B803120731
:100FD300D719BA031207D7B6BA031207D708BB0348
:100FE3001207D7ABBB031207D7E3BB031207D725FF
:100FF300BC031207D794BD031207D7E2BE0312073F
:10100300D713C1031207D741C1031207D768C1031E
:101013001207D771C1031207D7C1C1031207D753F0
:10102300C2031207D782C5031207D705C6031207E7
:10103300D7CEC3041207D7E4C3041207D716C304D9
:101043001207D71090041207D72690041207D7CAA5
:1010530090041207D70991041207D72691041207A7
:10106300D75791041207D7A491041207D7D7910435
:101073001207D71292041207D70794041207D7A5B1
:10108300BD041207D704BE041207D742BE041207D9
:10109300D783BE041207D7F29D031207D7379E03E7
:1010A3001207D7C69E031207D723A0031207D7EC54
:1010B300A0031207D767A1031207D7B9A103120729
:1010C300D71AA2031207D753A2031207D793A20377
:1010D3001207D79BA3031207D7D6A3031207D7037D
:1010E300A4031207D75FA4031207D78DA403120723
:1010F300D7A7A4031207D7EEA4031207D70EA5039D
:101103001207D7CBA5031207D7ACA6031207D7063E
:10111300A7031207D74AA7031207D766A703120725
:10112300D7E2A9031207D7FEA9031207D775AA03AB
:101133001207D79AAA031207D711AB031207D7DEF8
:10114300AB031207D723AC031207D785AC031207EF
:10115300D748AD031207D74BAD031207D755AD03DD
:101163001207D75FAD031207D762AD031207D7E2A9
:10117300AD031207D70BAE031207D719AE0312073D
:10118300D740AE031207D764AE031207D79FAE034F
:101193001207D711AF031207D714AF031207D71ED5
:1011A300AF031207D75FAF031207D78CAF03120742
:1011B300D7ACAF031207D7F5AF031207D72CB00391
:1011C3001207D729B1031207D753B2031207D769FE
:1011D300B2031207D79A7F001207D7B27F00120714
:1011E300D79ABB041207D784F3031207D7D3F303A9
:1011F3001207D773F5031207D72EF7031207D77019
:10120300F7031207D78FF8031207D799F9031207C9
:10121300D7BBF9031207D705FA031207D786FA03D8
:101223001207D70080031207D71F80031207D7AB1B
:1012330080031207D7F480031207D74E81031207E6
:10124300D7C681031207D72782031207D7738203F6
:101253001207D7E782031207D76C83031207D7E479
:1012630083031207D72784031207D7408803120783
:10127300D7838A031207D7348B031207D7B68B039E
:101283001207D7F38B031207D7B88D031207D7B70B
:101293008F031207D78190031207D7FA920312071D
:1012A300D77393031207D76494031207D79F970347
:1012B3001207D7AF97031207D72699031207D7ABA5
:1012C30099031207D7F89A031207D73D9C03120715
:1012D300D7A49C031207D7409D031207D7B96F0009
:1012E3001207D75970001207D7C370001207D76AC5
:1012F30071001207D7C971001207D7757200120760
:10130300D71E75001207D74476001207D7C8760098
:101313001207D7A578001207D75279001207D7E82A
:1013230079001207D78A7B001207D79A7C0012072D
:10133300D73C7D001207D75B7E001207D7E1D203AB
:101343001207D753D3031207D79BD3031207D7DD53
:10135300D3031207D73AD4031207D78DD403120746
:10136300D7F5D4031207D70BD6031207D733D60307
:101373001207D715D7031207D726D7031207D73E6D
:10138300D7031207D73AD8031207D76BD80312072C
:10139300D774D8031207D78BD8031207D79CD80367
:1013A3001207D7CFD8031207D7E6D8031207D7E31C
:1013B300D9031207D79FDA031207D7D9DA03120723
:1013C300D7DBDB031207D7AEDC031207D74EDD03EF
:1013D3001207D7C2DD031207D7D7DD031207D7DB06
:1013E300A5041207D783A7041207D749A804120735
:1013F300D79EA8041207D71494041207D732940473
:101403001207D77694041207D79C94041207D7C205
:1014130094041207D7DA94041207D7F2940412073C
:10142300D75595041207D79795041207D7B9960491
:101433001207D7C296041207D7CB96041207D7D444
:1014430096041207D7DE96041207D7B68B04120749
:10145300D7968F041207D7A48F041207D7A98F0436
:101463001207D7E3AF041207D7C2FF031207D7E16E
:10147300FF011207D77325001207D7CA25001207E9
:10148300D73626001207D7C226001207D7782700BF
:101493001207D7C027001207D7D927001207D7FC96
:1014A30027001207D73A28001207D7892800120706
:1014B300D7B428001207D71229001207D7B9290079
:1014C3001207D7612A001207D7DD2A001207D7AA0D
:1014D3002B001207D71A2C001207D7362C0012073D
:1014E300D7652C001207D7712E001207D79F2F0044
:1014F3001207D7CB2F001207D7FF2F001207D720D1
:1015030030001207D72F30001207D73A30001207E6
:10151300D7E930001207D75931001207D7E4310059
:101523001207D7EC31001207D75932001207D795AB
:1015330032001207D75B33001207D7A5C304120783
:10154300D78334001207D7A535001207D789360091
:101553001207D7AE36001207D72037001207D7BBC2
:1015630037001207D7AB38001207D7D0380012075D
:10157300D7E839001207D7063A001207D7223A00F4
:101583001207D7B43A001207D7C43A001207D7F2AA
:101593003B001207D7763C001207D7B23C00120774
:1015A300D7F1FF031207D74942001207D75D420064
:1015B3001207D76742001207D77142001207D77B81
:1015C30042001207D78542001207D79E4200120736
:1015D300D7A842001207D71543001207D7204300AC
:1015E3001207D74843001207D75343001207D7B84F
:1015F30043001207D7C243001207D7CD4300120797
:10160300D7F143001207D71544001207D7874400C8
:101613001207D7D044001207D7EC44001207D75D56
:1016230045001207D7A945001207D7F24500120754
:10163300D73046001207D7B146001207D7584700E4
:101643001207D72749001207D78C49001207D7BAC8
:101653004A001207D7E04A001207D7284C001207A6
:10166300D7624F001207D76051001207D72B5300E0
:101673001207D7C453001207D7C555001207D77AEC
:1016830056001207D7B356001207D719570012078F
:10169300D72357001207D74C59001207D78B5A008C
:1016A3001207D7E25A001207D78D5B001207D73D06
:1016B3005D001207D78A5E001207D7AA5E001207E1
:1016C300D7FF5E001207D70060001207D72860001B
:1016D3001207D78760001207D77F61001207D7F67A
:1016E30061001207D70963001207D7776300120757
:1016F300D77664001207D7D066001207D7F96600C1
:101703001207D75F68001207D7E169001207D738BD
:101713006A001207D7E66A001207D78B6B0012071D
:10172300D7E46B001207D7A26C001207D7346D0001
:101733001207D7936D001207D7D56D001207D7068E
:101743006E001207D75D6F001207D70080021207E1
:10175300D73280021207D76B80021207D729820281
:101763001207D76D82021207D74183021207D7A04F
:1017730083021207D7B684021207D7028502120723
:10178300D79087021207D76A8A021207D7B18B0252
:101793001207D7498C021207D7558C021207D79E1E
:1017A3008C021207D7E08D021207D7D68E021207DA
:1017B300D7008F021207D7568F021207D7AF8F02B7
:1017C3001207D72290021207D75892021207D7DACC
:1017D30093021207D7BF94021207D7099602120782
:1017E300D74198021207D73E9B021207D74D9B029F
:1017F3001207D7E19B021207D7249C021207D7A333
:101803009C021207D7209F021207D752A002120789
:10181300D72AA1021207D7ACA1021207D7E1A5026A
:101823001207D710A6021207D76BA6021207D79E7C
:10183300A6021207D722A7021207D772A70212071E
:10184300D7DFA8021207D703A9021207D73AA902C2
:101853001207D747A9021207D74AA9021207D77955
:10186300A9021207D771AB021207D730AC021207D5
:10187300D75FAC021207D7E8AD021207D77CAE02DE
:101883001207D78BAE021207D7FEAE021207D7227A
:10189300B1021207D781B1021207D7D5B1021207DD
:1018A300D704B4021207D7E7B4021207D7A3B502CD
:1018B3001207D7B7B5021207D7E4B5021207D71438
:1018C300B6021207D71BB8021207D7C6B80212070F
:1018D300D74AB9021207D791B9021207D703BA023E
:1018E3001207D758BB021207D701BC021207D71938
:1018F300BC021207D7BCBC021207D738BF021207BB
:10190300D7E0C0021207D7FEC0021207D7528A01DE
:101913001207D78A8A011207D78A8F011207D7D0F5
:101923008F011207D70691011207D76B9101120796
:10193300D7E092011207D7EA95011207D71597014D
:101943001207D728A1011207D7B8A1011207D7A2FE
:10195300A4011207D7AFA5011207D722A6011207C8
:10196300D786A7011207D765A8011207D7D3AA0103
:101973001207D765AC011207D7F2AC011207D719CA
:10198300AE011207D741AE011207D7E1AE0112072C
:10199300D7CCAF011207D799B0011207D7B6B00160
:1019A3001207D7DFB0011207D70CB1011207D753C3
:1019B300B3011207D722B4011207D761B40112078A
:1019C300D7E3B4011207D784B5011207D7B6B5011F
:1019D3001207D7FDB5011207D730B6011207D77426
:1019E300B6011207D7C3B6011207D7C8B60112074B
:1019F300D724B7011207D768B7011207D742B80136
:101A03001207D7A7B8011207D70DB9011207D78854
:101A1300B9011207D7F0BC011207D7F3BD011207B2
:101A2300D771BF011207D787C2011207D729C30194
:101A33001207D772C5011207D72DC6011207D76C3B
:101A4300C6011207D744C8011207D761C80112079C
:101A5300D76AC8011207D773C8011207D77EC80116
:101A63001207D79DC8011207D741CA011207D79E93
:101A7300CA011207D7A8CA011207D7C2CA0112079F
:101A8300D7D3CB011207D71CCC011207D7D6CC0171
:101A93001207D7EDCD011207D7C2CE011207D7091E
:101AA300D0011207D70DD1011207D706D2011207B1
:101AB300D71ED2011207D755D2011207D75FD20121
:101AC3001207D76AD2011207D788D2011207D7D0DB
:101AD300D2011207D72ED3011207D755D30112070C
:101AE300D767D3011207D71CD4011207D755D401E6
:101AF3001207D777D5011207D7CAD5011207D7B076
:101B0300D6011207D7D7D6011207D747D701120735
:101B1300D7C3D7011207D71FD9011207D746DA0156
:101B23001207D708DB011207D7D6DB011207D794B8
:101B3300DC011207D77CDD011207D726DE0112076D
:101B4300D78EDE011207D743DF011207D79FDF01CC
:101B53001207D7F7DF011207D7BDE0011207D7E05D
:101B6300E0011207D79BE1011207D7BDE10112077C
:101B7300D71EE2011207D74EE4011207D747E5014A
:101B83001207D7F3E5011207D714E8011207D75D4F
:101B9300E8011207D7A8E8011207D704E9011207E1
:101BA300D762E9011207D786E9011207D7AAE9012B
:101BB3001207D7DFE9011207D707EA011207D74C4B
:101BC300EA011207D7A0EA011207D7F9EA011207BF
:101BD300D7F3EB011207D791ED011207D7D6ED0129
:101BE3001207D7FFED011207D788EE011207D7FBC3
:101BF300EE011207D709EF011207D72DEF011207E4
:101C0300D783EF011207D79EEF011207D759F001CF
:101C13001207D785F0011207D7C8F0011207D72B97
:101C2300F1011207D739F3011207D765F301120740
:101C3300D720F4011207D704F5011207D798F5014D
:101C43001207D704E9031207D73CE9031207D75D4C
:101C5300E9031207D79FE9031207D703EA03120721
:101C6300D70DEA031207D71DEA031207D754EA0375
:101C73001207D7FDED031207D7C5EF031207D7A944
:101C8300F1031207D74BF2031207D7D5F20312075A
:101C9300D78EC1021207D737C2021207D716C30263
:101CA3001207D722C4021207D742C4021207D7640D
:101CB300C5021207D714C7021207D781C70212073A
:101CC300D752C8021207D758C9021207D7D0C90280
:101CD3001207D70BCA021207D764CA021207D79F8B
:101CE300CA021207D7E8CA021207D77CCB0212072F
:101CF300D712CC021207D7E7CC021207D7BACD020C
:101D03001207D748CE021207D76ECE021207D79B0F
:101D1300CE021207D7CCCE021207D799CF021207F1
:101D2300D7A9CF021207D7FCCF021207D709D002D7
:101D33001207D716D0021207D71FD0021207D78374
:101D4300D0021207D7E1D0021207D72CD102120713
:101D5300D747D1021207D76ED1021207D78BD10210
:101D63001207D797D1021207D728D3021207D741F8
:101D7300D3021207D7BDD3021207D7D0D30212075B
:101D8300D7E0D3021207D784D4021207D7F0D502C3
:101D93001207D703D7021207D7A3D7021207D7AD6B
:101DA300D7021207D72CD8021207D73DD802120741
:101DB300D77CD8021207D7AAD8021207D777D9023D
:101DC3001207D7CED9021207D707DA021207D75D57
:101DD300DA021207D77BDA021207D7C9DA0212072F
:101DE300D794DB021207D7E2DB021207D72FDC02FC
:101DF3001207D7B2DC021207D7DCDC021207D712B4
:101E0300DD021207D721DD021207D780DD02120798
:101E1300D7F8DD021207D739DE021207D789DE02AF
:101E23001207D7B4DE021207D7CEDE021207D7E8B5
:101E3300DE021207D7BDDF021207D7C7DF02120780
:101E4300D708E0021207D759E0021207D76DE00264
:101E53001207D78FE1021207D7A4E1021207D7377F
:101E6300E2021207D7ABE2021207D750E3021207CE
:101E7300D75BE3021207D7BEE4021207D7DAE40204
:101E83001207D726E5021207D794E5021207D7C631
:101E9300E5021207D7E0E5021207D740E602120770
:101EA300D7DFE6021207D72AE7021207D77DE90236
:101EB3001207D715EA021207D78CEA021207D7E9ED
:101EC300EC021207D701ED021207D704ED02120745
:101ED300D710ED021207D724ED021207D72CED021B
:101EE3001207D763ED021207D757EE021207D7E1A5
:101EF300EE021207D763EF021207D7E3EF021207CE
:101F0300D7BAF0021207D7DCF0021207D775F10235
:101F13001207D7D2F1021207D7D5F1021207D7441D
:101F2300F2021207D790F3021207D7A3F4021207A3
:101F3300D72EF5021207D741F6021207D708F70288
:101F43001207D739F7021207D75FF7021207D768CC
:101F5300F7021207D797F7021207D747F8021207BB
:101F6300D7F7F8021207D76AF9021207D70DFA0258
:101F73001207D780FA021207D7BFFA021207D7084F
:101F8300FB021207D708D2031207D72ED103120779
:101F9300D764D0031207D7D3CE031207D79CCE033F
:101FA3001207D76ECE031207D722CE031207D78BA1
:101FB300CD031207D7FBCC031207D7D5CC031207E7
:101FC300D78ACC031207D754CC031207D7D7CB0336
:101FD3001207D772CB031207D721CB031207D749B6
:101FE300CA031207D7B9C9031207D76DC90312076A
:101FF300D7E8C8031207D7A3C8031207D787C803B4
:102003001207D72FC7031207D701C7031207D7CE6B
:10201300C6031207D7EEFF031207D752C6031207F0
:10202300D7FDFF031207D78CBD041207D726BD04C3
:102033001207D7A3BC041207D70DC3041207D7C4D2
:10204300C2041207D7AFC2041207D79FC2041207F4
:10205300D7B2A1041207D760A1041207D7EEA004D8
:102063001207D7E77F001207D787A0041207D7927A
:102073009F041207D7F79E041207D718C20412074A
:10208300D7FC7F001207D790C1041207D78C3E00FC
:102093001207D7B9E8031207D760E8031207D72B53
:1020A300E8031207D7F6E7031207D7C2E7031207BD
:1020B300D755E7031207D73DE7031207D718E703FE
:1020C3001207D7F1E3031207D7C4E1031207D7CBF3
:1020D300DF031207D757DF031207D708DF031207FF
:1020E300D7C2DE031207D7B6C3041207D764DE03D1
:1020F3001207D72E340000000080FBE47300013682
:10210300360101000102010001030100010401067F
:102113000605020000070100340801000F0904014D
:10212300010D0100FF0E0800001702000019010055
:10213300FF1A0100011B0100FE1C0100081D020023
:10214300001F010001200100012102000023010002
:102153000F240200002601000127010008280200C5
:10216300FF2A0100072B0102402C0100002D010072
:10217300012E0100012F0100FF30010B1D3108006A
:10218300003A0100083B01000F3C0100013D010042
:10219300FF3E04000042040000460400004A04001D
:1021A300004E04000052040000560400005A0400CC
:1021B300000103710301030103010301030103226E
:1021C30003020301031003000300030003000300E1
:1021D3000300030003420300032403060300030078
:1021E3000304031203250323032503230304030426
:1021F300030003000300034403000300032303005D
:102203000365032100350381030003050300030075
:1022130003000300032503230301017101010101ED
:10222300011101010131010101010180011001616D
:10223300013B001400630173017201620143010059
:1022430001130106013D01350004011201000100E3
:10225300010001000104010401330133013C014485
:1022630001320136000001000165010001350081E2
:1022730001000105018201830100010302710230A3
:1022830001600211027002010202020202800210C6
:102293000261023A00410063027302720262024366
:1022A30002000213023800000200020402120200BC
:1022B3000200020002000204020402370037003C5D
:1022C30002440200023900000200026502000235E6
:1022D30002810200020502820283020002030471EA
:1022E30004020460041104700402040204010402E1
:1022F300041004610400041404630473047204628C
:102303000443040004130406040004000404041238
:1023130004000400040004000451046400000400E9
:1023230004000444040004000400040004650400E1
:1023330004350481046400050400048304000403D9
:102343000071003001600011007000310220035061
:102353000480001000610000001400630073007229
:1023630000620043000000130006000000000004A8
:102373000012000000000000000000040004003709
:102383000037003C0244000000000000000000652C
:1023930000000035008100000005000000830000FC
:1023A3000036000100060000000F000000000000DE
:1023B3000000000000000003FFFF00000403FFFF14
:1023C3000000FFFF0FF4010005C404032000010017
:1023D300000B000000000000000003010F000000DC
:1023E30000000000000000000000000000000000EA
:1023F3000000000000000000000000000000000AD0
:1024030000000002000000040000000800000010AB
:1024130000000020000000400000008000000000D9
:10242300010000000200000004000000080000009A
:1024330010000000200000004000000000FB121309
:102443000083121F0089121F808F120100FB1202EA
:1024530000471203004D12040053120500591206DF
:1024630000651236007712FFFF0000014919067953
:10247300190873190B851910FD16024F19056719F1
:102483000755190C31190D3D19644115FF0000075B
:10249300ECFDFDFDECDCDCCCBCACAC9C9C8C7C7C16
:1024A3006C6C5C5C5C4C4C3C3C2C2C1C1C00160F78
:1024B30000000B150B020002220F3300000E5A69B5
:1024C30067426565416C6C69616E63653039010310
:1024D3000507090B0D0F00020406080A0C0D140A68
:1024E300E5D5C5B5A5A5958585756530301718194A
:1024F30021301B1D1F30000119161816161823034F
:102503000000393D3F373C3C362C442D3030161803
:102513001920231A1C1E3000034A49434E181A255A
:1025230005020C0E020B040B0A0708000F0204023B
:1025330001010101090200000000000000BE040ABD
:10254300E8030000FA06000000000E009224E124D4
:102553007F00E803FF1E1E0005280C000409080382
:10256300090303010C0A0508150C00FF10040804F5
:10257300C082C0837900126466C082C083901C1439
:10258300125D1AD083D082C3E09CA3E09D500DEA74
:10259300240B1225C21225A260027901023A1BEA1A
:1025A30075F00BA4FAA8F075F00BEBA428FB901CB4
:1025B30016E02AF8A3E03B8882F583E0540F22F566
:1025C30082E43B124F5A2274F712037889081246A9
:1025D30069122908ACF075F00BE9A42CF9901C16CC
:1025E300E028F8A3E039F9E8FEE9FF740165086023
:1025F300067402650870228A828B83122ABE7402D3
:1026030065087021EA2403FA50010B121499E9704A
:10261300148E828F83E4F0800CEA2403FCE43B12E3
:102623002AB51214938E828F83E0D2E7F0121163DE
:1026330002425874F4120378122B8F79008E828F22
:1026430083E06078890A890B8063E50A75F00BA43F
:10265300FAA8F075F00BE50B1225AE7048E50A7584
:10266300F00BA4F8AAF075F00BE50B122AD28E82B8
:102673008F83E0850882850983123C5C122A33EE3E
:102683002403FCE43F12276D12149312446DE50AF0
:10269300F0A3E50B1237A8D2E7F01211637901908A
:1026A3001C14123527050AE50A7002050B901C1449
:1026B30012565DC3E50A9AE50B9B408E0237B2744E
:1026C300F5120378EAFEEBFF750A01740B120AEAAE
:1026D300126177EC4D6015EC1253273D122B9D7957
:1026E3000112147BE508450960758023E508450957
:1026F30060441253253509122B9D12276E1214992B
:10270300E96401701BEEFAEFFB121481E9F50A8507
:102713000882850983122A2B7902AA08AB09801142
:10272300122AB6121499E9640170347903EEFAEFB0
:10273300FB12147B80298E828F83A3E064FE7003D7
:10274300A3E0F4700B122AB6121499E96401700C19
:10275300EEFAEFFB121481E9F50A8003750A000211
:1027630030E2E50A2403FCE4350BFDE5082403FA13
:10277300E43509FB2274F7120378901C1412459D6B
:10278300EA4B602FEA75F00BA4FAA8F075F00BEB97
:10279300A428FBEAFEEBFF120F9B901C1612459D2B
:1027A300901C161243B26012EEFCEFFD7900120E7C
:1027B300FF8007901C16E4F0A3F0024258C082C0C9
:1027C30083EC4D600512109180097C087D0079002F
:1027D300120EFF023A1BC082C0837900EA4B6016D7
:1027E3007800E8FCEA2C1246756004790178080841
:1027F300E8C3940840EC023A1B74F712037874F3AD
:102803001208D0ECFEEDFF851882851983E4F004ED
:10281300120AEAEAF0A3EB12490D1214B774031279
:102823000AEAAC82AD83EEFAEFFB121493EEFAEFF1
:10283300FB12149902425374F712037874F31208CB
:10284300D0ECFEEDFF851882851983E4F0EAFCEBFA
:10285300FD7403120AEAAA82AB83121493AA18AB7B
:10286300191214BD7401120AEA123C6D8E828F8311
:1028730012455974FE68700374FF6960047901801E
:1028830002790002425374F7120378EAFEEBFF1257
:102893001475E9F5087401650870111228F3F4FA48
:1028A30088828983E05A4480F0121163A9080242A6
:1028B3005874F7120378EAFEEBFF7508008E828FD7
:1028C30083E0602A121475E9F50874016508701E27
:1028D3001228F3FA88828983E05A70128E828F83DA
:1028E300E04480FA88828983E04AF012116380BC55
:1028F300124310F8122908122BFFF8A3E039F98EBE
:10290300828F83E022A3E0F9E875F00BA4F8227428
:10291300F41203788A088B097C007D00EA12277081
:10292300121493E508122A4D7900850882850983DC
:10293300A3E064FE7003A3E0F460787E007F008070
:1029430065EEFAEFFB1225A26057EEFAEFFBEA758C
:10295300F00BA4FAA8F075F00BEBA428FB901C165F
:10296300E02AF50AA3E03BF50B850882850983126B
:10297300565C850A82850B83A3E06A7003A3E06B30
:10298300701FE50A2403FAE4350BFB121499E9647A
:10299300017006122765121493122A427901125EFE
:1029A300810EEE70010F901C1412565DC3EE9AEF68
:1029B3009B408E0237B274F31203788A088B098A1C
:1029C300828B83122A2BEA122A4D750C00EA1227F6
:1029D30070121499E9640170477E007F00803C12F5
:1029E3002BF1FAA3E0398A82F583E0540F602712B2
:1029F3002BF1F50AA3E039F50B12276512108BE9C9
:102A030064017012850A82850B83122A33122A42CB
:102A1300750C01125E810EEE70010F122C0E40BF79
:102A2300A90C7F0502058DA3A374FEF0A304F02275
:102A3300A3124244850882850983A3123AAE22E594
:102A430008122A57EEF0A3EFF022122A5774FEF071
:102A5300A304F022240BF582E43509F5832274F5EF
:102A6300120378EAFEEBFF8E828F83122A2B7C00FF
:102A73007D00122AB6121493EEFAEFFB121475E9D5
:102A8300F50A7401650A702712423D122AC68508A9
:102A930082F583122ABE12276E121499E96401701B
:102AA3000EE5082403FCE43509122AB51214930237
:102AB30030E2FDEE2403FAE43FFB22A312566B122D
:102AC3003AAE22E875F00BA4F8AAF075F00BE91200
:102AD3002C05F508A3E039F5092274F21203787482
:102AE300E61208D0122B8F750A01750800750900CC
:102AF300750C00750D00851882851983E4F0EE24AA
:102B030003FCE43FFD7403120AEAAA82AB831214A6
:102B130093AA18AB191214BDE96401701F740B1248
:102B23000AEA122B9F7401120AEA1256657003A374
:102B3300E069604AA818A91988088909740D120A5E
:102B4300EA123C5BA3123C6D740E120AEA12455959
:102B5300740D1208921214B7E964017009740D120E
:102B6300088A880C890D780C1207F4AC08AD09EEBD
:102B7300FAEFFB1214877402120807E9F50AEEFA5A
:102B8300EFFB1214B1A90A741A02447FEAFEEBFFA9
:102B930012447174FEF0A304F022F58312564BF92C
:102BA300124471123AAE22C082C083780079008049
:102BB3000508E8700109901C14123585E99B50291A
:102BC300E8FAE9FBEA75F00BA4FAACF075F00BEB4D
:102BD300A42CFB901C16E02AFCA3E03B8C82F5831B
:102BE300E0540F70CC790080027901023A1BEEF8B1
:102BF300EFF9E875F00BA4F8122BFF22AAF075F099
:102C03000BE9A42AF9901C16E02822901C14124206
:102C130044C3EE98EF9922C082C08390256BE4935E
:102C230075F01CA4FCADF079FF7A167B08120EFF39
:102C3300023A1B74F7120378E9FCEAFD7A007B0081
:102C43008010EB1232909C4008E0F8EDC3984001ED
:102C53000A0B90256BE493F8EBC39840E57B0002E5
:102C6300425874EC12037874F31208D08A0C8B0D5B
:102C73008C088D09890AEC45096016AA08AB09126C
:102C830015058A0E8B0FAE0EAF0FEE4F6003022DAC
:102C9300637A0080010A90256B1255A2500F122E01
:102CA3005870F2741628FE740839FF80047E007F82
:102CB30000EE4F7003022E0C90254B122E29602537
:102CC3007403650A60067404650A70197A0479034B
:102CD3001214DB8A0E8B0F90256BE493F890254B2F
:102CE300122E42502D902549122E29602C74016515
:102CF3000A60067402650A70207A0279011214DBF5
:102D03008A0E8B0F90256BE493F8902549122E427F
:102D130040077A007B00022E24851882851983746C
:102D230001F0120AEAE50CF0A3E50DF0AC08AD09D9
:102D33007403120AEAAA82AB83121493AA18AB197A
:102D43001214C9740B120AEA123AA78E828F83A354
:102D5300A3A3A3A3A3E4125D16AA0CAB0D121BA796
:102D63007800E50A6007C39405500278048E828FC9
:102D730083E50CF0A3E50D123153A3A3E50AF0E8B4
:102D83008E828F83A3A3A3A3A31259285001097A88
:102D9300027B00120228123560A312389A12358C76
:102DA300E50A605BC394035056901E89E070189047
:102DB3002402780C120987123537120A5D90240217
:102DC300780C1209878027F50875090074027808C2
:102DD300120974122E33120987908A287810120A66
:102DE3007B780C7910120289123537120A5DEE24B2
:102DF3001312353A120A5DEE241B12591F80091271
:102E03003543122A2EA3F0A3F07A0479001214DBBF
:102E13001231444005901E9CE4F0121A7BEEFAEF47
:102E2300FB740D023A95E493F8740193F9E849228F
:102E330074022508F58274243509F583780C22E49D
:102E430093FA740193FBE8C39AF8E49BF9C3E50E84
:102E530098E50F9922EA122E5EF42275F01CA4F86D
:102E6300A9F0741A28F582740839F583E02274EE08
:102E730012037874F31208D0EAFEEBFF8C108D1165
:102E8300750800AA10AB11121505EA4B7003022F47
:102E93008C8A828B83E06E7003A3E06F7003022F32
:102EA3008C8A828B83A3A3A3A3E0C394054003026C
:102EB3002F8C8A828B83125E6FE060728A828B838F
:102EC300A3A3A3A3E0C394035064901E89E07021DD
:102ED3009024027808120987122F93120A5D902416
:102EE300027808120987EA2413122F96120A5D80CA
:102EF30030F50875090074027808120974122E332C
:102F0300120987908A287808120A7B780C790812AC
:102F1300028912367D120A5DEA2413123680120AE0
:102F23005DEA241BF582E43BF583E4F0801B75081E
:102F3300FE7509FF750AFF750BFF122F93120A5DC9
:102F4300EA2413122F96120A5D750800750900759D
:102F53000A00750B00EA240C122F96120A5D8518DD
:102F6300828519837401F0120AEAEEF0A3EFF0AC44
:102F730010AD117403120AEAAA82AB83121493AA46
:102F830018AB191214C9750801A908740D025E67FC
:102F9300EA2417F582E43BF58378082274F61203DA
:102FA300781214FF8A088B09A808A909E849601454
:102FB30088828983A3A3A3A3E06009C39405500473
:102FC300790180027900802F74F61203781214FFBE
:102FD3008A088B09A808A909E849601488828983AB
:102FE300A3A3A3A3E06009C394035004790180025F
:102FF300790080031208077F0202058D74F612031D
:10300300781214FF8A828B83E5824583600BA3A326
:10301300A3A3E0700479018002790080DAC082C042
:1030230083EAFCEBFD7A007B00023A18C082C0837E
:103033007C007D00023A1874F512037874F31208C9
:10304300D0EAFEEBFF8C088D09C3EC94F8ED94FFF6
:103053004004EE4F6065750A00801974FF650870BF
:103063000474FF6509600B1264607004A3E06509D2
:10307300603B050A90256BE493F8E50AC398503B3F
:10308300E50A122E5960EBEE4F60D01230C9120AD6
:10309300EA1249091214C3E960D87403120AEAACAC
:1030A30082AD83EEFAEFFB12108BE960C5E50A757A
:1030B300F01CA4F8A9F012328780047A007B007414
:1030C3000D120807801B8518828519837401F0741B
:1030D3001828F582740839F583124244740B22A927
:1030E3000A7F0302058D74F412037874F31208D077
:1030F3007508001215058A0A8B0BAE0AAF0BEE4F4B
:1031030060258518828519831231511230DC120A29
:10311300EA1249091214AB7C1C7D0079FFEEFAEF29
:10312300FB120EFF7508017A0479001214DB1231C9
:10313300445009901E9C7401F0121A7BA9080237AF
:10314300AD90256BE493F8C3EA98EB9400227401E5
:10315300123C60A3A32274F7120378E9FE74FE6A9B
:10316300700374FF6B7C00700380240C1231BC501D
:103173001EEC122E5960F41233567003A3E06B70E9
:10318300EA800BEC1231D16019E0640360140C1275
:1031930031BC501EEE60ECEC1231C660F1C39405F5
:1031A30050ECEC75F01CA4FCADF01269D612565D20
:1031B30080047AFE7BFF02425890256BE493F8EC7F
:1031C300C3982275F01CA4F8A9F0122E652275F09D
:1031D3001CA4F8A9F0122E65640122121517023AF5
:1031E3001BC082C083790180F274F01203788A0ACB
:1031F3008B0B7A0479011214DB8A0C8B0DEA450DD3
:103203006040EA2AFAEB33FB120F9B8A088B09AE64
:1032130008AF09EE4F60267AFE7BFF12151D74FE80
:103223006A700374FF6B601E8508828509831245EB
:103233009DE5082402F50850E2050980DE750C00BF
:1032430080047E007F00850A82850B83E50CF0EE07
:10325300FAEFFB02351DC082C0837C008009EA249B
:10326300FF1AEB34FFFB0C1231BC5011EC123290FD
:10327300940550F2EA4B70E612328780047A007BA1
:1032830000023A1B741628FA740839FB22122E5EC8
:10329300C32274F712037874F31208D07E00807D82
:1032A300EF75F017A4F8A9F012334712565DEE75C7
:1032B300F01CA4F8A9F01233567003A3E06B603D31
:1032C300EF75F017A4F8AAF0EAF9123347123C6D30
:1032D3007401120AEAE0687003A3E069601FEF75E6
:1032E300F017A4F8EAF9746428FC740A39FD74032E
:1032F300120AEAAA82AB8312108BE96013EF75F00E
:1033030017A4F8A9F0746228FA740A39FB121BB3E4
:103313000F90256FE493F8EFC39840840E1269C3AE
:10332300501FEE126F37F47003A3E0F460EE123017
:10333300C9120AEA1249091214C3E960DF7F008047
:10334300D002425312334B22746228F582740A3935
:10335300F58322126F426A2274F412037874F31213
:1033630008D07E008038908A087808120A7BEE75B0
:10337300F01CA4F8A9F0742928F582740839F583A0
:1033830078081208E66016908A387808120A7BEEED
:1033930075F01CA4F812342378081209F90E126987
:1033A300C3507AEE1231C660F4C3940350EF123463
:1033B30023120AA3E8494A4B70AC901E88E06401CB
:1033C300702D901D1C1243B26025EE75F01CA4F8FD
:1033D300A9F0741628F8740839F9123479120658CA
:1033E3008882898312350E1220FE74041208078521
:1033F30018828519837401F0EE75F01CA4F8A9F006
:103403001230D2120AEA1249091214C3E9608E7407
:1034130003120AEAAA82AB8312151180800237AD28
:10342300742D28F582740839F5832274F612037813
:103433001214FF8A088B09A808A909E84960328891
:10344300828983A3A3A3A3E06023C39403501E1222
:103453003479120ABBE82417F582E439F583120A9A
:10346300AFE8241BF582E439F5837401F079018018
:10347300027900022FFAE82413F582E439F5832256
:1034830074F0120378EAFEEBFF901D161243B2604C
:1034930072901D1C1243B2606A901D201243B260E9
:1034A3006212684F1220FEE97059901E89E0700A7B
:1034B30090240278081209878028F508750900749A
:1034C300027808120974126A317424126830780879
:1034D300120987908A28780C120A7B7808790C12D3
:1034E300028978081207EC1235081220FE740412C0
:1034F3000807E96401700C8E828F83A3A312683DD1
:103503001220FE80158E828F83A3A3124F5C901D21
:103513001C12684722740D1208077F0802058D12DA
:103523005D1EEC22E0F50AA3E0F50B22E493F8E537
:1035330008C39822EE2417F582E43FF583780C2222
:1035430012355674FEF0A304F0A3F0A3F0123E6A02
:1035530074FE22EE2417F582E43FF58322E88E827F
:103563008F83A3A3A3A3A3A3A3A31242187401123B
:103573004218A374AAF0EE2410F582E43FF583E425
:10358300F022124F5CC3E89A22A3F0124471E4F0D4
:10359300EE240CF582E43FF583E4F0A3F0A3F0A35B
:1035A300F02274F012037874F31208D0EAFEEBFFF2
:1035B3007A0279011214DBEA8E828F83F0700302A0
:1035C300367075F00CA4FAABF0120F9B8A088B09C6
:1035D300EA45097003023676AE08AF09750A008022
:1035E3001C908A38120658EEFAEFFB120F7D740412
:1035F3001208078A0C8B0DAE0CAF0D050A90256BD4
:10360300E493F8E50AC398506AE50A1231D16005DC
:10361300E0640270E61230C9120AEA124909121470
:10362300C3E960187403120AEAAC82AD83EEFAEFC1
:10363300FB1210918A0C8B0DAE0CAF0DE50A75F0E1
:103643001CA4F8A9F0743128F58274081266AE64DC
:1036530001708E123287EA2413123680120A7B120B
:10366300367D1208A2780C1207EC0235EA750800C1
:10367300750900AA08AB09023518EA2417F582E494
:103683003BF583780C22C082C083901C1F7461F0C9
:10369300A37419F0901C21745BF0A37419F0901CAF
:1036A3002574ADF0A37415F0023A1B74F712037876
:1036B300EAFEEBFF901C90E06408601FE064046086
:1036C3001A8E828F83E054036401704412430CF812
:1036D300A3E0F5838882E0640670358E828F83A32E
:1036E300A3E064FE7003A3E0F460258E828F83A3BE
:1036F300A3125D277003A3E0697008EE2415125D21
:103703000E6005121A0F8003121A15E9F5088003DB
:103713007508C2EEFAEFFB120FA10228AF74F41280
:1037230003788A088B098A828B83E0FAA3E0F8EA9C
:1037330028FAE43400FB120F9B8A0A8B0BAE0AAF04
:103743000BEE4F605A850882850983E0FC7D007982
:1037530000120EFF8E828F83122A2A121A4B8E8238
:103763008F83A3A3A3A3EAF0A3EB1237A8F8EE2851
:10377300F8E43F122BA2850882850983A3E0C0E009
:10378300125912D0E0F0121A5DEE240EF582E43FD6
:10379300F583E9123BE8E0C0E0123A9DD0E0F0EE99
:1037A300FAEFFB800A123BE0E022740D1208077F58
:1037B3000402058D741880F474F412037874E8120B
:1037C30008D0EAFEEBFF901C181243B260030238E4
:1037D300957A077B00120F9B901C1812459D901C35
:1037E300181243B270030238918E828F83120AA398
:1037F300901C18E0FCA3E0F5838C82120A97EE2458
:1038030004F50AE43FF50B850A82F583E0C0E090F6
:103813001C18124F31A3A3A3D0E0F0EE2405F50842
:10382300E43FF509850882F583E0C0E0901C181297
:103833004F42D0E012389AE0C0E0901C1812564B69
:10384300C82406F582E438F583D0E012389F120EBF
:10385300FF8E828F83120AA3851882851983120A29
:1038630097850A82850B83E0C0E07405120AEAD0CB
:10387300E01237A8C0E07404120AEAD0E0F074073B
:10388300120AEAE412490D12141BE9F980067910B1
:10389300800279010237B71262F1A322F07C187D0E
:1038A300007900AA18AB1922C082C083901C181299
:1038B30043B26010901C1812565D120FA1901C1891
:1038C300E4F0A3F012197F121B59023A1B74F4128D
:1038D300037874E81208D08A0A8B0BECFEEDFF899B
:1038E300087428120AEAE0FD7429120AEAE0FC745B
:1038F3000F6D7005740F6C6012901E84E06402609B
:1039030005EDC39C500579C10239E57424120AEA16
:10391300120AA3901C91120A97E508901C97F0EDE8
:10392300901C95F0ECA3F0742A120AEAE0901C981C
:10393300F074FF650A700474FF650B7024901E9881
:10394300E0F47003A3E0F4700C120F0B901C8EEAEA
:10395300F0A3EB8015901E981266C4E8F0A3E980EB
:1039630009901C8EE50AF0A3E50BF0EE4F6017EE0D
:10397300FAEFFB121C0DE96401700BEEFCEFFD7A0C
:10398300A27B1C121091901C81E4F0A3F0901C8484
:10399300F0A3F0901CA1F0901E84E06402700890E4
:1039A3001C95740FF0A3F0901C90740512389F12AD
:1039B3000EFF7404120AEAE4F0901C91120AA38524
:1039C3001882851983120A97901C97E0C0E074054A
:1039D300120AEAD0E0F07407120AEAE412490D125F
:1039E300141B0237B774F7120378E9901C1EF07AA0
:1039F300807B00901CDBE0F912106712157D7900C3
:103A0300024258C082C083901C1EE0700312127DD4
:103A130012157D800312150BD083D0820207D47454
:103A2300F0120378901C1EE0901E9B700FE060055F
:103A3300790012112D901E9BE4F0804AE06401602E
:103A430008901C1EE0F912112D901E9B7401F0903A
:103A53001C1EE0F46030E0F50CE4F50DF50EF50FF7
:103A6300F0908A147808120A7B780C79081202897C
:103A7300780C1207EC7A807B00901CDBE0F91210C3
:103A83005B74041208077A9B7B1E794112140902A6
:103A9300351D1208077F0C02058DEE2411F582E413
:103AA3003FF58322125947123AAE22E8F0A3E9F018
:103AB3002274F7120378EB901C98F012196D0242EE
:103AC3005874F612037874E91208D08A088B097EB9
:103AD300008A828B83A3A3A3E0C0E07406120AEAE0
:103AE300D0E0F08A828B83A3A3E0C0E07408120ABB
:103AF300EAD0E0F07409120AEA7401F08A828B8337
:103B03001243B2600D8A828B8312565D121499E9B7
:103B130070357407120AEAE4F0121A457404120AA3
:103B2300EA12459D901C90E06404700E121A5174C1
:103B330002120AEAEAF0A3EB804E7402120AEA7454
:103B4300FDF0A374FF8041AC18AD19850882850987
:103B53008312565D1214A5850882850983A3A3A346
:103B6300A3E070317407120AEA7401123C6674020E
:103B7300120AEA124559850882850983123C6D743D
:103B830004120AEAE8F0A3E9F07402120892121A86
:103B930099E9FE8041123C67740A120AEA124559F8
:103BA3007414120AEA7401123BE8A3E0C0E074152E
:103BB300120AEAD0E0F07416120AEAE4123BE012A9
:103BC3005D1A740C120AEAAA82AB83121091740A6A
:103BD300120892121145EEF97417022FF7F08508B7
:103BE3008285098322123BEC22123BE0A3A32274B9
:103BF300F712037874F81208D0EAFEEBFF7900900D
:103C03001C90E064086005E06404704785188285B1
:103C1300198374FDF0A374FFF0121A457402120A9B
:103C2300EA12459D7405120AEA123C5BA3E0C0E068
:103C33007404120AEAD0E0123C5CE0C0E07406129D
:103C43000AEAD0E0F07407120AEAE412490D121AE4
:103C530099E9F97408024255E4123C6022F08E821D
:103C63008F8322F0851882851983124244227F07AD
:103C730002058D74F412037874F91208D08A088B44
:103C8300098C0A8D0B8518828519837808120A5DC1
:103C93007404120AEAE9F07405120AEAE4F07406FD
:103CA300120AEAE412490D12155F74070237AF7462
:103CB300F51203788A088B098A828B83125E84EE5D
:103CC3004F7003023E63901C3F1243B260178A8217
:103CD3008B83A3A3E0F9EEFAEFFB901C40E0F5839E
:103CE30088821220FE8E828F83A3A3A3A3A3A3A300
:103CF300A3A3E064026003023DCD8E828F83A3A35E
:103D0300A3A3A3A3E054027003023DF185088285B7
:103D13000983A3A3E064E97003023DF1850882856A
:103D23000983A3A3E064CD7003023DF18508828576
:103D33000983A3A3E064F07003023DF1EE240D12A6
:103D430041F96028EE2413125D0E60208E828F836A
:103D5300A3A3A3A3A3A3A3A3A3A3123E82121AC93B
:103D6300E9701D7A307B011211E18014901E8AE004
:103D7300048E828F83A3A3A3A3A3A3A3A3A3A3F0CC
:103D8300850882850983A3A3E0701F750A00800953
:103D93007A367B011211E1050A850882850983A31E
:103DA300A3A3E0F8E50AC39840E6EE240A1255A956
:103DB300C0E0123E66D0E01242147404F0901E8BF1
:103DC300125941E8123E74120F538E828F83A3A3BC
:103DD300A3A3A3A3A3A3A3E0640260128E828F8391
:103DE300A3A3A3A3A3A3A3A3A3E0640670728E82D9
:103DF3008F83A3A3A3A3A3A3E0A2E05063850882B8
:103E0300850983A3A3E0F9EEFAEFFB1218B38E82C0
:103E13008F83A3A3A3A3A3A3E054FE123E82121A8B
:103E2300C9E9850882850983A3A3702AE070237AF0
:103E33002F7B011211E17E00850882850983A3A3EC
:103E4300A3E0F8EEC39850187A367B011211E10E05
:103E530080E67A318005E070077A2D7B011211E14B
:103E63000230E4123E6A22EE2413F582E43FF58326
:103E730022F0A3E9F07A207B00901CDBE0F9221208
:103E83003C60126847124F5C2274EC12037874BDD5
:103E93001208D0EAFEEBFF8C108D11750C00750E25
:103EA30000AC18AD191217FF740D120AEAE070087E
:103EB3007410120AEAE06014851882851983E0A25F
:103EC300E6500E125650121AC9E960057A35023FC0
:103ED300ED851882851983E0540C64047005750D13
:103EE300018003750D00E0A2E5503D750E01E50D5F
:103EF300A2E04034121A4B12422F7003A3E0697000
:103F0300051241F6706B121A4B12422F7003A3E095
:103F13006960151241F67010125D34AC18AD1912B8
:103F23001895E96003023FEB1241F6702C85188265
:103F3300851983E0A2E650217401120AEAE05403D2
:103F43007017851882851983E0540C640C600AE0AD
:103F5300540C64086003750C01851882851983E08D
:103F63005403F87402687019125D3012181102417B
:103F7300F112565012423D7415120AEA1245598045
:103F83009A7401687047E50CA2E0500B1241F67079
:103F930006125D30121805741A120AEAE518F0A326
:103FA300E51912423C7417120AEA1245598E828FA0
:103FB30083A3A3A3A3A3A3E0C0E07419120AEAD0C6
:103FC300E0F074171208921217630241F1E86003DC
:103FD3000241F1901C78E0640170178E828F83A3F5
:103FE300A3A3A3A3A3E0700A7A347B011211E10215
:103FF30041F17442120AEA740212423C743A120A00
:10400300EA124203E05480700302410D7424120A41
:10401300EA7402124214123C6D741C120AEA12452D
:10402300597403120AEAE0C0E07425120AEAD0E0E8
:10403300F07402120AEAE0C0E07426120AEAD0E041
:10404300F0901C8E123C6D7427120AEA12455974C3
:1040530006120AEA123C6D7429120AEA12455974CF
:1040630008120AEA123C6D742B120AEA12455974BB
:1040730010120AEAE0F8742D120AEAE8F0A3E4F059
:10408300740E120AEA123C6D742F120AEA124203EA
:10409300123C6D7431120AEA124220E0C0E074331C
:1040A300120AEAD0E0126300C0E07434120AEAD0C4
:1040B300E0F0125D0BC0E07435120AEAD0E0F07450
:1040C30011120AEAE0C0E07436120AEAD0E0F07492
:1040D30013120AEAE0C0E07437120AEAD0E0F0EE05
:1040E3002423125D0EC0E07438120AEAD0E0F0EE29
:1040F3002425125D0EC0E07439120AEAD0E0F07490
:104103001C1208921218170241F17457120AEA7826
:1041130008120A7BE50DA2E040030241A9EE240F39
:10412300125D0EC0E07412120AEAD0E0F0901C4156
:104133001243B270030241F1121A4B8A128B13A875
:1041430012A913743A120AEAE0687003A3E06960E3
:10415300030241F1EE2423125D0EF50D780D1207D3
:10416300F812420A12065C78081207ECE50EF5080D
:1041730078081207F88E828F83A3A3A3A3E0F50820
:1041830078081207F878101207F4A90C740B1208B8
:104193009A7445120892901C411256611220FE74C3
:1041A3000B1208078048E50CA2E05006125D30129E
:1041B3001805125D0BF50C780C1207F87808120736
:1041C300ECE50EF50878081207F878101207F4905A
:1041D3001C8E12065CEE2412125D0EF97444120852
:1041E3009A740A1208921218BF740A1208077443C9
:1041F300023A95EE2421F582E43FF583E0548022D0
:10420300123AAE12420A22EE2421F582E43FF583EC
:1042130022124218221262F5A3A3A3A322E8F0A359
:10422300E9F0EE240FF582E43FF583228A088B0937
:10423300A808A9091243106822F0124471124244DB
:104243002212564BF92274F712037812110F8005CC
:10425300740D1208077F0102058D74F7120378129B
:10426300111580F174F712037812112180E7C082CF
:10427300C08312111B023A1B74F712037812112721
:1042830080D374F71203787409120AEAE0F5087808
:10429300081207F8121139740180B7C082C0831263
:1042A3001145023A1B74F6120378EAFEEBFF901CE9
:1042B3007BE0A2E150498E828F83A3A3A3A3A3A390
:1042C300A3A3A3A3E064016036121A518A088B09E1
:1042D300A808A9098E828F83E0687003A3E0696050
:1042E3001E12430C640160178E828F8312565D1277
:1042F30014F3E9600A8E828F8312565D121A09EE57
:10430300FAEFFB12114B022FFA12431022124475DB
:10431300E02274F712037812115102425874F71213
:104323000378EAFEEBFF89087401650870147900CD
:104333001216C7902558E493FC7900EEFAEFFB12AE
:10434300163D02425874F712037812113F02425885
:1043530074F412037874F91208D0E9FE8A088B0901
:104363008C0A8D0B901B4B1243B2602BEE85188287
:10437300851983F07401120AEA7808120A5D74132E
:10438300120AEA123C6D7405120AEA124909901BDB
:104393004B1256611220FE023CADE50E75F006A4E9
:1043A300F8AAF0EAF974EE28F582740C39F5831251
:1043B3004244E84922C082C083121199023A1B7415
:1043C300F712037812115D02425874F712037890C2
:1043D3001E9EE0F97800800B12467D540D64017037
:1043E3000119081245EA5003E970ED02425874F7C7
:1043F300120378901E9FE0F97800800B12467D54DB
:104403008D6481700119081245EA5003E970ED02C9
:10441300425874F2120378890BE975F006A4A9F0E7
:10442300240FF508E439F509E5082AFAE43509FB10
:10443300120F9B8A0C8B0DAE0CAF0DEE4F6025ACAB
:1044430008AD097900120EFF12446DE50BF0EE255D
:1044530008F8EF3509F98E828F83A3A3A3A3A3A33F
:10446300A3124557EEFAEFFB801512447122124452
:104473007522EE240BF582E43FF583221208077FB1
:104483000602058D74F6120378EAFEEBFF1216138B
:10449300E9F8901E9DE0F9E8C3994009901C2712A2
:1044A300565D121619EE2402F8E43FF988088909CB
:1044B300901C29125A48901C29E004F0EEFAEFFBF5
:1044C30012161F850882850983E0025B77C082C0CC
:1044D300837900901C2780010912565D8A828B83A1
:1044E300E582458370F2023A1B74F7120378EAFE01
:1044F300EBFFEE4F605B901C271243B26053888240
:1045030089837A007B00EE65827003EF6583601315
:10451300AA82AB83123C6D88828983E582458360DE
:104523003080E3901C27123C6DEE687002EF698EB9
:10453300828F837008123C6D901C278003126835AC
:10454300124559EEFAEFFB121793EEFAEFFB120F37
:10455300A1024258A3A3123AAE22C082C083901C88
:10456300278004888289831243B2600A8882898300
:104573001235224D70ED8A828B83E4F0A3F0E84973
:104583006006888289838003901C2712459D023A26
:104593001BEE241AF582E43FF583EAF0A3EBF02245
:1045A300124F5CEA4B2274F7120378901C278004A5
:1045B3008A828B831245A360277800800108124505
:1045C300EA50EDE875F006A4FCADF0EA2CFCEB3DF7
:1045D300FDEC2413F582E43DF583E06970DF80048C
:1045E3007A007B0002425812466EFCE8C39C227498
:1045F300F7120378E9FE7D0080010D124669EDC3D1
:10460300985023ED75F006A4F8AFF0EFF912465F6A
:1046130070E8ED75F006A4F81246A04CF0E8240FFC
:10462300FAE439FB80047A007B0002425874F612E4
:104633000378E9FEEAFF121625EA4B601C7C008032
:1046430010EC75F006A4F8A9F012465F7002EFF0C3
:104653000C124669ECC39840E8022FFA12469824DC
:10466300131246A96E2212466EF822EA240B124652
:104673007522F582E43BF583E022E875F006A4FC9D
:10468300ADF0EA2CFCEB3DFDEC2414F582E43DF5A2
:1046930083E022EFF9EA28F8EB39F9E8221246968B
:1046A30024141246A922F582E439F583E02274F634
:1046B3001203781217337A008016EA75F006A4F80D
:1046C300A9F0125A78E4125B7BF0A3126161F00A3D
:1046D30090255D1255A240E27A00801C8A08750974
:1046E3000074037808120974124749A374FEF0A3F7
:1046F30004125938A3E4F00A9025711255A240DC44
:104703007900801A890875090074037808120974FE
:10471300748A126A33740D126830122A2C09902598
:104723006012615A40DE902566E493901C2BF09052
:104733008A141206587A107B00901CDBE0F91210E1
:10474300617404022FF7744A2508F8740D3509F9CA
:10475300888289832274F012037874F51208D08A50
:10476300088B09890A8C0BE9A2E050147508FC75C3
:1047730009FFA2E15005D2E4024819D2E302481925
:1047830012171B8A0C8B0DA80CA90D901C81E068D5
:104793007003A3E069600EAC0A7902AA08AB0912A0
:1047A3001715E9700579000248E9E50AF50C780C5C
:1047B3001207F879027CFE7DFFAA08AB0912169155
:1047C3007401120807E960030248E7E50AC2E5F548
:1047D3000AA2E64043740312089AAA08AB0912140A
:1047E3009FE9702E124F3B121B958A0C8B0DAE0C5A
:1047F300AF0DEE4F6022EE2402FAE43FFB12149950
:10480300E96015EE2402FCE43FFD740312089212E2
:104813001091E50AD2E5F50A901C2AE0F50C901CEC
:1048230081124AB2780E1207F47D017C00901C2A93
:10483300E0F9AA0EAB0F1216D37402120807E9F8B7
:10484300901C2AE004F0E860030248E7E50AA2E5C9
:104853005004740E80027406C0E07401120AEAD098
:10486300E012490D121AB18A0E8B0FAE0EAF0FEE86
:104873004F606D12591CF0121A45124594124913D8
:104883007401F07478550AA3125A1AA3E50C125A4C
:104893001AA3A3E508F0E5091248EEE4F0E50AA23D
:1048A300E5500F740312089AE82406FAE439FB1260
:1048B30010918E828F83A3A374FDF0A374FFF0E5A0
:1048C3000B6012902559E493F8E50BC39850061238
:1048D3003E66E50BF0EEFAEFFB121553E9F980069D
:1048E3007910800279C7740B02351A88828983A3F1
:1048F300A3A3A31248FA221248FE22F088828983D6
:10490300A3A3A3A3A322E8F0A3E9F0AA18AB192257
:10491300EE1264703F12491C22F58312564BF9883C
:104923008289832274F41203787A007B10901CDB53
:10493300E0F912106DEA4B4C4D6008901CED7401C8
:10494300F08043901BFCE06401901E857006E0FC40
:1049530079018004E0FC79037A007B0012163D9014
:104963002555E493F508740193F509E4F50AF50B6D
:1049730078081207EC7A007B10901CDBE0F9121028
:104983005B74041208070237B274F0120378EAFE6C
:10499300EBFF8C0A8D0B890C121AC9E960057AFFAB
:1049A300024A82901E84E064026003024AA89025B2
:1049B30062E493F9EEFAEFFB121745E96003024A4A
:1049C300A27900EEFAEFFB12171BA90C12170F8A3C
:1049D300088B09EA45097003024AA88A828B83A3DC
:1049E300A3A3A3A312607D707E12565D8508828502
:1049F3000983A3A3A3A3A3A3E05418604F9025574F
:104A0300E493850882850983A3A3A3A3F0741012FA
:104A13000AEA125D1A7412120AEA124AB2EA650A23
:104A23007003EB650B6012EA6C7002EB6D600AEACF
:104A3300650E7003EB650F7022780E1207F4AA0A55
:104A4300AB0B121BD17402120807800F901C80E07D
:104A5300850882850983A3A3A3A3F074FE6A700368
:104A630074FF6B601E8045A3A3A3E0640360248AE4
:104A7300828B83A3A3A3A3A3E0640470067AFE7BC3
:104A8300FF8029850882850983A3A3A3A3A3E064E8
:104A93000260127907EEFAEFFB121745E96006EEA2
:104AA300FAEFFB8007EEFAEFFB12164F02351DE01B
:104AB300F50EA3E0F50F2274F7120378EAFEEBFF7D
:104AC3001214EDE9700AEEFAEFFB1214F9E960062D
:104AD300EEFAEFFB80047AFE7BFF02425874EE127B
:104AE3000378EAFEEBFF8C0C8D0D890E750800121E
:104AF3001AC9E979006003024C25EEFAEFFB12179D
:104B03001BA90E12170F8A0A8B0BEA450B607D8ACD
:104B1300828B83A3A3A3A3A3E0640360238A828B72
:104B230083A3A3A3A3A3E064016003024C23790737
:104B33008A828B8312565B121745E96003024C236A
:104B4300750902850A82850B83A3A3A3A3A3A3E00C
:104B530054186003024BDA7900AA0CAB0D12171B31
:104B63008A0A8B0BA80AA90B901C81E0687003A327
:104B7300E0696003024C07902558E493FCA90EEE0C
:104B8300FAEFFB12163D750801024C23EEFAEFFB18
:104B930012164F1214FF8A0A8B0BA80AA90BE849B5
:104BA300607E88828983A3A3A3A3A3E0A2E05070BD
:104BB300750901A2E150127901EEFCEFFDAA0CABDD
:104BC3000D12166DE97090805788828983A3A3A381
:104BD300A3A3D2E1F08080750801850A82850B8347
:104BE300A3A312065C750AFE750BFF780A1207F47D
:104BF3007900EEFCEFFDAA0CAB0D1217277404121B
:104C03000807801CA909EEFCEFFDAA0CAB0D1216D8
:104C13006DE9700C750801A90EEEFAEFFB1216C7C9
:104C2300A908025E6A74E912037874F01208D08A44
:104C33000C8B0D8C088D09750B06124F3B121BBF95
:104C43008A108B11EA4511600B8A828B83A3E07073
:104C530003024DCFE50C241DF50EE4350DF50F854C
:104C63000E8212513AF51688828983A3A3A3E0FA30
:104C730088828983A3A3A3A3E0F8E4C8F9EA28FE02
:104C8300E439FFAA08AB091216CDE9F9850E82852E
:104C93000F83124F42E029F50EE50AA2E550037592
:104CA3000B0E7487550A700F7418550A6418600741
:104CB30012511F650B600A7AD37B001211E1024D7A
:104CC300CF530A7878081207F47D00AC0EA91612A8
:104CD3004F511216D37402120807E9F8740368706F
:104CE30003024DCF7427120AEAE0F512A3E0F5138D
:104CF300E86003024DC07418550A7003024DD4E5F1
:104D03000AD2E0F50AA2E45004D2E1F50AA90A1294
:104D13004F5112170F8A148B15A814A915E849606F
:104D23005788828983A3A3A3A3A3A3E0541860484D
:104D330088828983A3A3A3A3A3E06401703AE51047
:104D430045116034125D178882898312565B121BEA
:104D5300BF8A148B15A814A915E849601B8882899A
:104D630083A3E06013851082851183A3E0FA888210
:104D73008983A3E0C39A4054E50AF50B780B120725
:104D8300F8124F4B1216917401120807E9702E7C2A
:104D9300007D0085128285138374FFF0A3125A28C5
:104DA300A3A3A3A3A3A3A3A3E0600AE50C24151262
:104DB3004F27125D1AA90E124F511215E385128265
:104DC300851383E0F47003A3E0F460487900024F95
:104DD30019901C7AE06014E50AF50B780B1207F8BA
:104DE300124F4B1216917401120807E50AF50B785E
:104DF3000B1207F879027CFE7DFFEEFAEFFB121629
:104E0300917401120807E970B485128285138374C3
:104E1300FFF0A3F078081207F47D01AC0EA9161277
:104E23004F511216D37402120807A90AEEFAEFFBC8
:104E330012171B8A088B09A808A909901C81E0682E
:104E43007003A3E0696003024F0DEEFAEFFB121447
:104E5300FF8A088B09A808A909E84960278882897D
:104E630083A3A3A3A3E06401600D88828983A3A322
:104E7300A3A3E06402700DAC18AD19EEFAEFFB12B8
:104E8300149F8012121A458A088B09AC08AD09AA2F
:104E930018AB19121091850C82850D83A3A3A3A3CC
:104EA300A3A3A3A3E064017012E50C2415124F27FA
:104EB300125D1A7408120892121091E50C241DF564
:104EC30082E4350D124F2FE04430F50878081207BD
:104ED300F8740112088A8808890978081207F4749B
:104EE3000B12088A8808890978081207F4E516F571
:104EF3000878081207F87900EEFCEFFD124F511203
:104F030016677406120807024DCF124F23124F4241
:104F1300E50EF0121A5D74101208077F0F02058D5B
:104F2300E50C241DF582E4350DF58322F583E0F8C5
:104F3300A3E0F5838882A322901C8E12515622127D
:104F43006847A3A3A3A3A3227901AC08AD09126404
:104F53006E350D124F5A22F583E0FAA3E0FB22745B
:104F6300EC12037874F01208D08A0C8B0DECFAED76
:104F7300FB750F08125D17121BBF8A088B09AC085B
:104F8300AD09EC4D601F8C828D83A3E0701712591D
:104F93002D5001097A027B00120228E88C828D834E
:104FA300F0A37407F0E50C241DF582E4350D1251CE
:104FB3003AF50E8882898312512CE0FAE4CAFBEC9D
:104FC3002AFEE43BFF88828983A3A312512CA3A367
:104FD300E0FBECF508E43BF50988828983A3A3A3EE
:104FE300A3A3A3A3E0F50BE50AA2E45003750F10F6
:104FF300A2E550067408250FF50F748F550A700744
:1050030012511F650F600A7AD37B001211E102511E
:105013001A530A707800E50AA2E4501C124F23E0E9
:105023002408FCA3E03400FD7408120892121091C6
:105033007808E50AC2E4F50AE50AA2E5501F124F13
:1050430023E028F8A3E03400F9E82408FCE439FD60
:10505300AA18AB19121091E50AC2E5F50AA90EEEDA
:10506300FAEFFB121709E9F51090257112615A50F6
:1050730029891275130074037812120974744F2569
:1050830012F582740D3513F583E0F8E50BC39850E0
:1050930007E50BF078008004807D7804901C81E0A4
:1050A3006E7003A3E06F605FE87019E50AF50F788F
:1050B3000F1207F81251491216917401120807E9E9
:1050C30070558005740468704E780A1207F87401ED
:1050D30012088A880C890D780C1207F4740B1208D5
:1050E3008A880C890D780C1207F4E50EF50A780A04
:1050F3001207F8A90BAC08AD09EEFAEFFB1216671D
:1051030074061208078010780A1207F81251491220
:10511300169174011208077410023A95E50C2417CE
:10512300F582E4350DF583E022A3A3A3E0FC888296
:105133008983A3A3A3A32212491CA3E0F50A8882AF
:105143008983A3A3E022790112646E350DF58312DE
:10515300515622E0FCA3E0FDAA08AB092274EB122E
:10516300037874F51208D0EAFEEBFF8C088D0989E9
:10517300147420120AEAE0F511F9121709E9F50A85
:1051830090257112615A501B750B007403780A1233
:105193000974744D250AF582740D350BF583124A93
:1051A300B28006750EFE750FFF7401120AEA7408C9
:1051B300F07425120AEAE0F510A2E4500874011213
:1051C3000AEA7410F0E510A2E550097401120AEA24
:1051D300E02408F0AA18AB19121AB18A0C8B0DEA55
:1051E300450D7003025302EA2417125310121A4595
:1051F300E50C241AF582E4350D12459B7421120A3D
:10520300EAE0F512A3E0F513740312089AAA0EABB1
:105213000F12149FE9601512530C740312088AE5E8
:105223000C2418124F27E8F0A3E98020E510A2E42C
:10523300501BE50E6E7003E50F6F701112530CE5F2
:105243000C2418124F27E512F0A3E513F0E50C1216
:105253005327124F2A123527850A82F5837402F0E9
:10526300A3E51012531BE511F0EE850A82850B832B
:10527300A3A3A3F0EF850A82850B83A3A3A3A312A1
:10528300531BA3A3A3E508F0E509850A82850B83D5
:10529300A3A3A3A3A3A3F0AA0EAB0F1216CDE925D4
:1052A30014850A82850B83A3A3A3A3A3A3A3F078E6
:1052B30000E510A2E45012AC12AD13E50A2408FA7B
:1052C300E4350BFB1210917808E510A2E5501A742F
:1052D30023120AEA125D1AE50A28F8E4350BF9E805
:1052E3002408FAE439FB121091850C82850D83A3FF
:1052F300A3E50EF0A3E50FF0AA0CAB0D1215537442
:105303000B1208077F0D02058DE50C2416F582E4C8
:10531300350DF5837401F022F0850A82850B83A392
:10532300A322E5081264702274F41203788A088BAE
:1053330009ECFEEDFF750B01901C81E0650870041C
:10534300A3E065096013750B00780B1207F8121BB5
:105353000B7401120807E9F50B7900AA08AB0912CF
:10536300171B8A088B09A808A909901C81E068709B
:1053730003A3E06970467900EEFAEFFB12170FEA18
:105383004B60308A828B83A3A3A3A3A3A3E0541807
:1053930060217508FE7509FF78081207F48A828B6D
:1053A30083A3A312065C126C9212172774041208CB
:1053B3000780097901EEFAEFFB1215DDA90B02371D
:1053C300B274F21203787ED27F0B7A107B00901CAA
:1053D300DBE0F912106DEA4B4C4D7017908A1412F2
:1053E30006587A107B00901CDBE0F91210617404FC
:1053F300120807901C2BE014F060030254A69025BA
:1054030066E493901C2BF07C0079057A007B0012F4
:1054130019CD8A088B0902549D7C007905AA08AB33
:10542300091219CD8A0A8B0B850882850983A3A3E8
:10543300A3A31243B2605DE5082404F8E4124750C5
:10544300E024FFF0A3E034FF1261611243B2704421
:10545300850882850983A3A3A3A3A3A3E0540460BF
:1054630013850882850983A3A3A3A3A3A3A3A3E00E
:10547300F91216F7850882850983A3A3A3A3A3A31F
:10548300A3A3A37406F07AF08508828509831261C9
:10549300E7121925850A08850B09E5084509600304
:1054A30002541C75080080668E828F83A3A3A3A376
:1054B300E06052F4604FEE24041255A970478E82C7
:1054C3008F83A3A3A3A3A3E06403701379028E8243
:1054D3008F83125D1A8E828F8312565B12166D8E26
:1054E300828F83A3A3A3A3A3E0640160188E828F9A
:1054F3008374FEF0A30412315314F0A3041262ED7B
:10550300E412389AF00508EE2407FE50010F9025A7
:105513005C12352F40927E00803D1219F18E087582
:10552300090074037808120974744A2508FC740D81
:105533003509FD7A797B161219DFEA4B70DC8E0888
:1055430075090074037808120974124749122A2B4B
:1055530088828983E4F00E9025711269C650258EE6
:105563000875090074037808120974744A2508F849
:10557300740D3509F9E82407F582E41266AE14F0D8
:1055830070D480997A008009EA1255B3600214F04E
:105593000A90255D1255A240EF024482902560E4F3
:1055A30093F8EAC39822F582E43FF583E014F022EE
:1055B30075F006A4F8A9F074EA28F582740C124673
:1055C300AC2274F712037874DA1208D0ECFEEDFF04
:1055D300750800EE4F606A8A828B8312564BC8248B
:1055E3001FF582E4381243B060578A828B831256C8
:1055F3005DAC18AD19EA241E124675F9EA241F1290
:1056030025C2121A2D740B120AEA1256657003A3EF
:10561300E069702D7402120AEAE064017023741DBC
:10562300120AEA125661E064017016741D120AEA46
:10563300124F33A3E0F88E828F83E06870037508FE
:1056430001A9087426024255E0F8A3E0228E828F56
:1056530083A3A3A3A3A3A3A3A3A3124F5C221268B0
:10566300472212566BE0682212566F22E0F8A3E03D
:10567300F98E828F83A32274F4120378E9701E7962
:10568300001216858A0A8B0BAE0AAF0B74FE6E707E
:105693000374FF6F701490255EE493600D7901121B
:1056A30016858A0A8B0BAE0AAF0B121A7B0237A23E
:1056B30074F612037874F31208D0120F0B8A088B56
:1056C30009AE08AF09901C81E06E7003A3E06F6020
:1056D300E9121A51EA6E7002EB6F60DEEEFAEFFB2D
:1056E300121AC9E970D4EE4F60D0851882851983E8
:1056F300E4F004120AEAEEF0A3EF12490D1214B714
:10570300E970B774FE6E700374FF6F60ADEEFAEF6D
:10571300FB740D022FF7C082C083121A7B023A1B5F
:1057230074F2120378EAFEEBFF8C0A8D0B8908747E
:10573300FC6E700374FF6F700302590D790012172A
:105743001B8A0C8B0DAE0CAF0D740E120AEAE0F53A
:1057530009901C81E06E7003A3E06F7009E509A254
:10576300E6400302590DA90912170F8A0C8B0DA8E5
:105773000CA90DE849704579007AFE7BFF12170FDB
:105783008A0C8B0DA80CA90DE849703074185509C3
:10579300700302583D7A0080010A90255C1255A2DD
:1057A300400302583DEA75F007A4F8A9F0126ADB3A
:1057B300541870E574D228F8740B39F988828983F8
:1057C300EEF0A3EFF074FE650A700474FF650B60DE
:1057D3000D88828983A3A3E50AF0A3E50BF08882F1
:1057E3008983A3A3A3A3A3A3E509F0A2E0500D8893
:1057F300828983A3A3A3A3A3A3D2E2F074016508C0
:1058030088828983A3A3A3A3A3703A74011259388E
:10581300E05418602A902557E49388828983A3A3D0
:10582300A3A3125D16AA0AAB0B121BBF8B0DEA458D
:105833000D600302590D7A008036790202590F90E8
:105843001C80E080D5E06401700302590D888289D1
:1058530083A3A3A3A3A3A3E054186007902557E44D
:10586300938004901C7FE01248EEE50802590C0A6D
:1058730090256F1255A2400302590D7B008029EB3E
:1058830075F007A4F8A9F074D428F582740B39F5E0
:1058930083125D1AEA75F017A4F8A9F01266B26CC8
:1058A3007003A3E06D60C80B90255CE493F8EBC331
:1058B3009840CCE4936B70B7EA75F017A4F8A9F09D
:1058C300746228FE740A39FF7C177D007900EEFAB2
:1058D300EFFB120EFF8E828F83E50AF0A3E50BF038
:1058E300901C8E125941A3A3A3A3A3A31242207415
:1058F300AAF0EE240E12591F1259285001097A02F8
:105903007B00120228125912E8F07900024482EE59
:10591300240DF582E43FF58322EE2417F582E43F5C
:10592300F583740122F012592D22902564E49379B2
:10593300002401F82212593C221248FEA3221259D4
:1059430047A3A32212566FA32274ED1203788A0889
:105953008B09890A12615340057905025A15121100
:105963009FAA08AB091216A3E9F50E90255DE493EF
:10597300650E700A7AFE7BFF1216A3E9F50E9025D9
:105983005D126F244003025A1312439D6009125A99
:105993006412565D120FA1E50A601CE50E125A301F
:1059A300AA0AEA2AFAE433FB120F9B125A1E124385
:1059B300B270147901805BE50E75F006A4F8A9F0C6
:1059C300125A6DE4F0A3F0E50E125A4FE508F0A366
:1059D300E509125A1AAA82AB83E50A125A448A824B
:1059E3008B83E0602712439D60228E108F11751206
:1059F3000078101207F0AC0AEC2CFCE433FD125AC9
:105A03006412565D120EF3740312080779008002C4
:105A130079077F0B02058D125A8422850C82850D2E
:105A230083EAF0A3EBF0850C82850D832275F006E3
:105A3300A4F8A9F0125B84E82404F50CE439F50D0D
:105A430022F0901E86E088828983F02275F006A4F6
:105A5300F8A9F0125A5A22125B8488828983A3A37D
:105A630022E50E75F006A4F8EAF974EE28F58274BF
:105A73000C39F58322125A5A74FE125A8122F0A36A
:105A830004F088828983A32274F7120378ECFEED75
:105A9300FF1216A3E9F890255DE493F9E8C3995042
:105AA3002DE875F006A4F8A9F0125B80125AD68887
:105AB300828983A3A3A3A3123C6D7409120AEAE0AB
:105AC300FAA3E0F5838A82124559790080027904AA
:105AD30002425888828983A3E08E828F83F02274E6
:105AE300F61203787E00801BEE75F006A4F8A9F089
:105AF30074EC28F582740C1266AE6A7003A3E06B33
:105B030060710E90255D1269C640DDE4936E70638B
:105B130074FE6A700374FF6B70597E0080010E90EF
:105B2300255D1269C6504CEE75F006A4F8AAF0EA9A
:105B3300F91255BA70E8125B80A3A374FEF0A304B4
