:020000040000FA
:06000000020A510201CFCB
:03002B0002084187
:0300430002070FA2
:03005300020104A3
:10008300020163010124341201000004A98103B1B8
:10009300810020FD000206FFFF0101010400D21AC6
:1000A300000000E8030000FFFF9D1BE8030000645D
:1000B300006400B801A0BB0D00A0BB0D0002000846
:1000C30000000502070101051E02051E020A0A01BE
:1000D300020803B80B02803E0102E8030A0500018F
:1000E300FFFF0114010105030101FF0F10FEFF14BF
:1000F3002300000000862100000000FF000000FF35
:1001030000C0E074F11203E6A2AFE433F509D2AF05
:1001130085A708AFA1EF5508FE74105E6006120BA9
:10012300EB75A1EF74085E6008120BF175A1F780FF
:1001330024EFA2E092F0E508A2E082F0501790616C
:1001430098E0F8900794E0C398A2D265D0335002A8
:10015300E8F075A1FEE509A2E092AF7F0202044533
:10016300C0E074F21203E6A2AFE433FED2AF9061B3
:10017300A4E0F8759B00E59158540860087591F761
:10018300120C398023E59158541060087591EF12D1
:100193000C3F8014E591A2E092F0E8A2E082F050D7
:1001A30007E0C2E0F0120D959061A3E0F8E5E9588D
:1001B3005404600E120D6B75E9FB906193E0A2E6A7
:1001C30040F2EEA2E092AF7F01020445C0E074F278
:1001D3001203E6A2AFE433FED2AF9061A5E0F8E5E7
:1001E300BF585404600675BFFB120DAD80D4C3E441
:1001F30098F8E499F91202328026C3E49AFAE49B50
:10020300FBE920E7E9120232E498F8E499F922C302
:10021300E498F8E499F9120232E498F8E499F9C3FE
:10022300E49AFAE49BFB22EB20E7CFE920E7E0B96D
:100233000010BB0008E88AF084F8AAF022E4FBC8A7
:10024300FA22EB70227B10C833C8C933C933500775
:10025300C39AC3DBF280069A50012ADBEAC833F45F
:10026300C8C933F4C9FA2275F008E4C833C8C933DE
:10027300C933C99AC99B5004C92AC93BD5F0ECFBC1
:10028300C833F4C8E4C9FA22080808EAC0E0EBC09E
:10029300E086F0E7A4FA180986F0E7A42AFA180919
:1002A30086F0E7A42AFA180986F0E7A42AFA198641
:1002B300F0E7A4FBE5F02AFA190886F0E7A42BFB84
:1002C300E5F03AFA190886F0E7A42BFBE5F03AFAD1
:1002D30018180986F0E7A4C5F02BFBE43AFA1908CD
:1002E300E7C5F0C6A426F6E5F03BFBE43AFA188628
:1002F300F0E7A4F6E5F00826F6E43B08F6E43A084E
:10030300F6D0E0FBD0E0FA22E4CFC0E0E4CEC0E0D8
:10031300E4CDC0E0E4CCC0E075F020E626F608E6C4
:1003230033F608E633F608E633F6181818EC33FC10
:10033300ED33FDEE33FEEF33FFC3EC9709ED970981
:10034300EE9709EF97191919400FFFEC97FC09ED88
:1003530097FD09EE97FE191906D5F0BFECF709EDE5
:10036300F709EEF709EFF7191919D0E0FCD0E0FD12
:10037300D0E0FED0E0FF222518C582C0E0E51934A5
:10038300FFC583C0E0E518C3958224F810AF088544
:1003930083198582188008858319858218D2AFCE88
:1003A300F0A3E520F0A37808E608F0A3DEFAEFF067
:1003B300A3E58124FAF8E608F0A3E608F0A3E6082B
:1003C300F0A30808E608F0A3E608F0A31581158159
:1003D300D0E0FED0E0F8158115811581E8C0E0EE8C
:1003E300C0E022C0D02518C582C0E0E51934FFC59E
:1003F30083C0E0E518C3958224F310AF0885831901
:100403008582188008858319858218D2AFC8F0A326
:10041300E9F0A3EAF0A3EBF0A37908E709F0A3D886
:10042300FAECF0A3EDF0A3EEF0A3EFF0A3D0E0F02D
:10043300A3D0E0F0A3D0E0F0A3E520F0A3E5F0F033
:10044300A322851983851882E0C0E0A3E0F9A3E025
:10045300FAA3E0FBA37808E0F608A3DFFAE0FCA325
:10046300E0FDA3E0FEA3E0FFA3E0C0E0A3E0C0E063
:10047300A3E0F5D0A3E0F520A3E0A3F5F010AF08C7
:100483008583198582188008858319858218D2AFE0
:10049300D082D083D0E0F8D0E032120AE3B900036F
:1004A3000204DCE4900301784D791C8002F0A3D8A8
:1004B300FCD9FA7A4D7B1E900086787F79018015EE
:1004C300E493A3AD82AE838A828B83F0A3AA82AB2B
:1004D300838D828E83D8E9D9E77582B77583AC742F
:1004E300041207D27582CD75832074001207D2E4FB
:1004F3007375F0108E1A8F1B85821F85831E8518D6
:1005030082851983E0CEA3E0CF851F82851E83EB0E
:10051300C9EAC8EDCBECCAC3E833C8E933C9EA3347
:10052300CAEB33CBC3EA9EF51DEB9FF51CB3500416
:10053300AB1CAA1DEC33CCED33CDD5F0DAAE1AAF3C
:100543001B22D083D082ECC0E0EDC0E0E493A3FC97
:10055300E493A3FDED4C600D12061DEC24FFFCEDAE
:1005630034FFFD80EFE493A3FCE493A3FDED4C6023
:100573000D1206BAEC24FFFCED34FFFD80EFD0E052
:10058300FDD0E0FCE493A3C0E0E493C0E02285192E
:1005930083851882E0A3FEE0A3F5207808E0A3F6A4
:1005A30008DFFAE0A3FFE0A3C0E0E0A3C0E0E0A31C
:1005B300C0E0E0A3C0E0E0A3C0E010AF088582186C
:1005C3008583198008858218858319D2AFD083D09B
:1005D300820207D8D083D082E9C0E0E493A3C38624
:1005E300F0C5F095F0F908E493A386F0C5F095F013
:1005F300700BE493A3C3994005E9048002A3E47557
:10060300F002A42582F582E5F03583F583D0E0F985
:10061300E493A3C0E0E493C0E022C0E0C3E4939674
:10062300087401939618400FE493667008087401E8
:1006330093661870007019A3A3C3E493960874011A
:10064300939618A3A3400DD0E0D0E0D0E00205813B
:10065300A3A3A3A3A3A3D0E0227404800474028001
:1006630000CCC0E0EDC0E0E518C39CCCAD1950014F
:100673001D10AF068C188D1980068C188D19D2AFFA
:10068300120754D0E0FDD0E0FC2274028000CCC0FD
:10069300E0EDC0E0E518C39CCCAD1950011D10AFCF
:1006A300068C188D1980068C188D19D2AF1207325B
:1006B300D0E0FDD0E0FC22C0E0C0F088F0E4936617
:1006C30070080874019366187000A8F0A3A3700B58
:1006D300D0F0D0E0D0E0D0E0020581A3A3D0F0D0E9
:1006E300E022D083D082CCC0E0E493A3600612075B
:1006F300B31470FAE493A360061208BE1470FAD020
:10070300E0FCE493A3C0E0E493C0E022C0E074F211
:100713001203E6A2AFE433FED2AFC2C0E5D1A2E436
:100723005003120B61EEA2E092AF7F01020445CAAF
:10073300C0E0E493A3C582CCC582C583CDC583F055
:10074300A3C582CCC582C583CDC583DAE5D0E0CA13
:1007530022CAC0E0E0A3C582CCC582C583CDC583D0
:10076300F0A3C582CCC582C583CDC583DAE6D0E0CC
:10077300CA22C008C3E096F50808A3E09642080819
:10078300A3E096420808A3E09645087001D3D00879
:10079300227009080808226016181818C6C333C641
:1007A30008C633C608C633C608C633C6D5E0EA2230
:1007B300C0E0E493A3D39C5010E493A3C39C400AEA
:1007C300D0E0D0E0D0E0020702A3A3A3D0E022C090
:1007D3009FF59FE473D09F22D083D082C09FE49380
:1007E300C0E0740193C0E0740293F59F2274048007
:1007F3000A74038006740280027401C0E0F40412D8
:100803000826D0E0120A8E2200C0D0251810AF08A7
:10081300F518500C05198008F51850020519D2AFC8
:10082300D0D0222518F58210AF08F518400C151901
:100833008008F51840021519D2AF85198322C0E04C
:10084300C0D0E8C0E0A8A8D2AFC2C7E8A2E792AF81
:10085300D0E0F8D0D0D0E032BB0102E722C082C0A2
:100863008389828A83BB0003E08002E493D083D030
:1008730082226016080808C6C313C618C613C61812
:10088300C613C618C613C6D5E0EA222518F8E43500
:1008930019F9222518FAE43519FB222518FCE43549
:1008A30019FD22C3E0C696F608A3E0C696F608A390
:1008B300E0C696F608A3E0C696F622C0E0E493A34A
:1008C3006C7009D0E0D0E0D0E0020702A3A3D0E02F
:1008D30022251810AF08F518400C15198008F518D3
:1008E30040021519D2AF22E066701008A3E06670CB
:1008F3000A08A3E066700408A3E06622C3E0960832
:10090300A3E09608A3E09608A3E096A2D265D033AD
:1009130022E76670100809E766700A0809E766703F
:10092300040809E76622C3E096F008A3E096F008FE
:10093300A3E096F008A3E096F022C3E697F6080931
:10094300E697F60809E697F60809E697F622C3E460
:10095300939608740193960874029396087403930C
:100963009622E627F60809E637F60809E637F60879
:1009730009E637F622700422600D18C6C333C60891
:10098300C633C6D5E0F41822E493F608740193F64F
:1009930008740293F608740393F622E657F60809DF
:1009A300E657F60809E657F60809E657F622E05631
:1009B300F608A3E056F608A3E056F608A3E056F6B9
:1009C30022E056F008A3E056F008A3E056F008A38F
:1009D300E056F022E026F608A3E036F608A3E03658
:1009E300F608A3E036F622E647F60809E647F608D6
:1009F30009E647F60809E647F622E026F008A3E0F1
:100A030036F008A3E036F008A3E036F022E4C396FC
:100A1300F608E496F608E496F608E496F622C6F499
:100A2300C608C6F4C608C6F4C608C6F4C622C3E799
:100A3300960809E7960809E7960809E79622C3E0AE
:100A43009608A3E09608A3E09608A3E0962275D043
:100A53000075813F7518017519030002049DE6F0C6
:100A630008A3E6F008A3E6F008A3E6F022600C086A
:100A7300C6C313C618C613C6D5E0F422E0F608A30E
:100A8300E0F608A3E0F608A3E0F622CAC0E0E6F029
:100A9300A308DAFAD0E0FA22E8F0A3E9F0A3EAF037
:100AA300A3EBF022E0F8A3E0F9A3E0FAA3E0FB2232
:100AB300ECF0A3EDF0A3EEF0A3EFF022E0FCA3E053
:100AC300FDA3E0FEA3E0FF22EAF0A3EBF0A3ECF02A
:100AD300A3EDF022E0FAA3E0FBA3E0FCA3E0FD22F8
:100AE300E5C754F84401F5C77901222518F582E4D6
:100AF3003519F58322C2AF75D69F02000022120773
:100B0300DBEF7F001207DBF27F001207DBF57F00CC
:100B13001207DBF87F001207DBFB7F001207DBC045
:100B23009F041207DBCE9F041207DB47A0041207C2
:100B3300DB1BA1041207DBEDA2041207DBC3BC0419
:100B43001207DB158A041207DB818A041207DB39DB
:100B53008B041207DB258C041207DB958D04120727
:100B6300DBFC8D041207DB488E041207DB598E046D
:100B73001207DB698E041207DBDC8E041207DBF23B
:100B83008E041207DB0D85041207DB398504120777
:100B9300DBAA87041207DBEA87041207DB2A88042F
:100BA3001207DB3E88041207DB5788041207DB4871
:100BB30089041207DBED89041207DB018A0412079B
:100BC300DB3CFE021207DB60FE021207DB79FE024A
:100BD3001207DBABFE021207DBDBFE021207DB08A8
:100BE300FF021207DB6AFF021207DB79FF0212071B
:100BF300DB83FF021207DB90FF021207DB21AA044B
:100C03001207DB41AA041207DB80AA041207DB9B4D
:100C1300AA041207DBBAAA041207DB20AB041207EB
:100C2300DB29AB041207DB86AB041207DBAAAB0498
:100C33001207DB6BAC041207DB78AC041207DB8909
:100C4300AC041207DB38BB041207DB50BB041207EA
:100C5300DB7CBB041207DB3E8F041207DB9290049C
:100C63001207DBA090041207DBB390041207DBC862
:100C730090041207DBDD90041207DBF090041207E7
:100C8300DB6491041207DBC991041207DB6B920446
:100C93001207DB2F93041207DB3F93041207DB4E8B
:100CA30093041207DB03BA041207DB27BA04120703
:100CB300DB4FBA041207DB77BA041207DB81B104F6
:100CC3001207DBA8B1041207DBC6B1041207DB3934
:100CD300B2041207DBE7FC011207DB00FD01120778
:100CE300DB0CFD011207DB20FD011207DB3EFD01DA
:100CF3001207DB48FD011207DB52FD011207DB651A
:100D0300FD011207DBEFFD011207DB64FE01120791
:100D1300DB98FE011207DBE6FE011207DB33FF015E
:100D23001207DB4EFF011207DB58FF011207DB7EC0
:100D3300FF011207DBE3FF011207DB26FF031207A4
:100D4300DB48FF031207DB65BD041207DB2DE60357
:100D53001207DB57E6031207DB74E6031207DB8790
:100D6300E6031207DB9DE6031207DBFBE60312072C
:100D7300DB33E7031207DB2BEB031207DB70EC0318
:100D83001207DBA3EC031207DB06ED031207DB8973
:100D9300EE031207DBB1EE031207DBC6EE03120705
:100DA300DBD6EE031207DB1AEF031207DB75EF0343
:100DB3001207DB85EF031207DBC1B5041207DBDB88
:100DC300B5041207DB03B6041207DB1CB6041207D3
:100DD300DB40B6041207DB5EB6041207DB75B6040C
:100DE3001207DBA3B6041207DBBEB6041207DB7FD0
:100DF300BC041207DB52A3041207DB62A30412072D
:100E0300DB69A4041207DB9DA4041207DBBFA4045F
:100E13001207DBE2A4041207DB00A5041207DB3A86
:100E2300A5041207DB9FA5041207DBE1A504120743
:100E3300DB20A6041207DB51A6041207DB88A604F5
:100E43001207DBA4B3041207DBC4B3041207DBA944
:100E5300B4041207DB91B5041207DB9CBA04120732
:100E6300DBD9BA041207DB1BBB041207DB2BBB0461
:100E73001207DB35BB041207DBEBF6031207DBF5C6
:100E8300F6031207DB2FF7031207DB98F7031207AA
:100E9300DBB5F7031207DB57F8031207DB60F80330
:100EA3001207DBA5F8031207DBCEF8031207DBDB1F
:100EB300F8031207DB4CF9031207DBD7F903120718
:100EC300DB25FA031207DB63FA031207DBC8FA0315
:100ED3001207DBEBFA031207DB62FB031207DBB932
:100EE300FB031207DBF4FB031207DB29FC031207E6
:100EF300DB3BFC031207DB4DFC031207DB6CFC033B
:100F03001207DB75FC031207DB30FD031207DB7CE2
:100F1300FD031207DBBAFD031207DBE6FD0312072D
:100F2300DB4BAF041207DB81AF041207DBC9AF044D
:100F33001207DB22B1041207DB97AF031207DBBBF7
:100F4300B0031207DBF5B0031207DB9FB2031207EE
:100F5300DBC9B2031207DB3EB5031207DB7EB50321
:100F63001207DB14B7031207DBB1B7031207DB0366
:100F7300B8031207DBA6B8031207DBDEB8031207B8
:100F8300DB20B9031207DB8FBA031207DBDDBB03D8
:100F93001207DB0EBE031207DB3CBE031207DB6343
:100FA300BE031207DB6CBE031207DBBCBE031207D2
:100FB300DB4EBF031207DB7DC2031207DB00C30353
:100FC3001207DB27BD041207DB3DBD041207DB3428
:100FD300BC041207DBE197041207DBF7970412073F
:100FE300DB9B98041207DBDA98041207DBF79804FB
:100FF3001207DB2899041207DB7599041207DBA893
:1010030099041207DBE399041207DBD89B04120748
:10101300DBFCB8041207DB5BB9041207DB99B904E4
:101023001207DBDAB9041207DB0080031207DB4582
:1010330080031207DBCF80031207DB2C8203120726
:10104300DB0183031207DB7C83031207DBCE8303FD
:101053001207DB2F84031207DB6884031207DB13F9
:1010630087031207DBA887031207DBD28703120764
:10107300DB1B88031207DB078A031207DB5B8A0388
:101083001207DB2F8B031207DB5D8B031207DB7762
:101093008B031207DBBE8B031207DBDE8B03120706
:1010A300DB978C031207DB7C8D031207DBD68D03E2
:1010B3001207DB1A8E031207DB518F031207DBC9FA
:1010C30091031207DBE591031207DB519203120729
:1010D300DB7692031207DBED92031207DBC5930362
:1010E3001207DB0A94031207DB6C94031207DB2D50
:1010F30095031207DB3095031207DB3A95031207BA
:10110300DB4495031207DB4795031207DBB995030D
:101113001207DBE295031207DBF095031207DB1CD2
:1011230096031207DB4396031207DB679603120746
:10113300DBA296031207DB1497031207DB1797034F
:101143001207DB5897031207DB8597031207DBA50A
:1011530097031207DBEE97031207DB2598031207A9
:10116300DB2299031207DB4C9A031207DB629A0313
:101173001207DB9AFF021207DBB2FF021207DBF151
:10118300B6041207DBB5EF031207DB04F003120703
:10119300DBA4F1031207DB5FF3031207DBA1F30305
:1011A3001207DBC0F4031207DBCAF5031207DBECFB
:1011B300F5031207DB36F6031207DBB7F603120754
:1011C300DB959A031207DBB89A031207DBB89B037C
:1011D3001207DB019C031207DB599C031207DBB5E3
:1011E3009C031207DB019D031207DB779D031207A4
:1011F300DB059E031207DB7D9E031207DBC09E0304
:101203001207DBD1A2031207DB18A5031207DBE4E5
:10121300A5031207DB4DA6031207DB74A60312070F
:10122300DB43A8031207DB3EAA031207DB2FAB0342
:101233001207DBCDAB031207DB00AD031207DBEFB5
:10124300AD031207DB48AE031207DBE5AE0312075B
:10125300DBD9ED011207DB79EE011207DBE3EE01C7
:101263001207DB8AEF011207DBE9EF011207DB95B7
:10127300F0011207DB3EF3011207DB64F4011207EE
:10128300DBE8F4011207DBC5F6011207DB72F70195
:101293001207DBD7F8011207DBE7F9011207DB8935
:1012A300FA011207DBA8FB011207DB4DC303120788
:1012B300DBC3C3031207DB0BC4031207DB4DC403F9
:1012C3001207DBAAC4031207DBFDC4031207DB65A5
:1012D300C5031207DB7BC6031207DBA3C603120792
:1012E300DB8AC7031207DB9BC7031207DBB3C70302
:1012F3001207DBC5C8031207DBE2C8031207DB973B
:10130300C9031207DBBBC9031207DBD2C9031207E8
:10131300DBECC9031207DB10CA031207DB14CB0390
:101323001207DB6ECB031207DB57CC031207DBA5D7
:10133300CC031207DBE0CC031207DBEBCC03120771
:10134300DB4CCD031207DB4ECE031207DB21CF03A9
:101353001207DBC1CF031207DB35D0031207DB4AC9
:10136300D0031207DBD7D0031207DBE0A604120772
:10137300DB88A8041207DB45A9041207DB9AA9043A
:101383001207DBE59B041207DB039C041207DB4710
:101393009C041207DB6D9C041207DB939C04120769
:1013A300DBAB9C041207DBC39C041207DBDB9C044E
:1013B3001207DB3E9D041207DB809D041207DBA2AC
:1013C3009E041207DBAB9E041207DBB49E041207D4
:1013D300DBBD9E041207DBC79E041207DB87930461
:1013E3001207DB6797041207DB7597041207DB7A92
:1013F30097041207DBD8AD041207DBFBBC0412070A
:10140300DB47BD041207DB4525001207DB9C2500E3
:101413001207DB0826001207DB9426001207DB4ABB
:1014230027001207DB9227001207DBAB2700120706
:10143300DBCE27001207DB0C28001207DB5B28003A
:101443001207DB8628001207DBE428001207DB8B78
:1014530029001207DB332A001207DBAF2A00120729
:10146300DB7C2B001207DBEC2B001207DB082C00C4
:101473001207DB372C001207DB432E001207DB7148
:101483002F001207DB9D2F001207DBD12F0012075D
:10149300DBF22F001207DB0130001207DB0C3000F8
:1014A3001207DBBB30001207DB2B31001207DBB660
:1014B30031001207DBBE31001207DB2B32001207AB
:1014C300DB6732001207DB2D33001207DB00340029
:1014D3001207DB5534001207DB7735001207DB5B9D
:1014E30036001207DB6C36001207DBDE360012070C
:1014F300DB7537001207DBDA37001207DBCA380067
:101503001207DBEF38001207DB0D39001207DB2966
:1015130039001207DB9C39001207DB993A001207E6
:10152300DBA63A001207DB807D001207DB913C004B
:101533001207DBB33D001207DBC33D001207DBF1EB
:101543003E001207DB753F001207DBB13F001207B5
:10155300DB8B41001207DB4845001207DB5C4500CB
:101563001207DB6645001207DB7045001207DB7AC2
:1015730045001207DB9345001207DB9D4500120768
:10158300DB0A46001207DB1546001207DBEEFF01FC
:101593001207DB4846001207DBAD46001207DBB833
:1015A30046001207DBDC46001207DB004700120788
:1015B300DB7247001207DBBB47001207DBD747008C
:1015C3001207DB4848001207DB9448001207DBDDF3
:1015D30048001207DB1B49001207DB9C4900120776
:1015E300DB434A001207DB124C001207DB774C0087
:1015F3001207DBA54D001207DBCB4D001207DB13EF
:101603004F001207DB4D52001207DB4B5400120749
:10161300DB1656001207DBAF56001207DBB058008B
:101623001207DB6559001207DB9E59001207DB0422
:101633005A001207DB0E5A001207DB375C00120751
:10164300DB765D001207DBCD5D001207DB785E0001
:101653001207DB2860001207DB7561001207DB95B8
:1016630061001207DBEA61001207DBEB620012077D
:10167300DB1363001207DB7263001207DB6A64008B
:101683001207DBE164001207DBF465001207DB627B
:1016930066001207DB6167001207DBBB69001207F4
:1016A300DBE469001207DB4A6B001207DBCC6C003A
:1016B3001207DB236D001207DBD16D001207DB7607
:1016C3006E001207DBCF6E001207DB8D6F0012076F
:1016D300DB1F70001207DB7E70001207DBC0700097
:1016E3001207DBF170001207DB4872001207DB0000
:1016F30080021207DB3280021207DB6B80021207C3
:10170300DB2982021207DBFF82021207DB5E830200
:101713001207DB7484021207DBC084021207DB4E5C
:1017230087021207DB288A021207DB6F8B0212077C
:10173300DB078C021207DB138C021207DB5C8C02C3
:101743001207DB9E8D021207DB948E021207DBBEAB
:101753008E021207DB148F021207DB6D8F02120752
:10176300DBE08F021207DB1692021207DB9893026B
:101773001207DB8194021207DBCB95021207DB030E
:1017830098021207DB009B021207DB0F9B02120772
:10179300DBA39B021207DBE69B021207DB659C02BD
:1017A3001207DBE29E021207DB14A0021207DBEC36
:1017B300A0021207DB6EA1021207DBA3A502120728
:1017C300DBD2A5021207DB2DA6021207DB60A602FD
:1017D3001207DBD8A6021207DB10A7021207DB6091
:1017E300A7021207DBCFA8021207DBF3A802120736
:1017F300DB2DA9021207DB3AA9021207DB3DA9027E
:101803001207DB6CA9021207DB64AB021207DB23AE
:10181300AC021207DB52AC021207DB70AD021207F7
:10182300DB38AE021207DBF6AF021207DB28B00289
:101833001207DB8EB0021207DBBBB0021207DB2EEE
:10184300B1021207DB52B3021207DBB1B302120774
:10185300DB05B4021207DB34B6021207DB17B7024B
:101863001207DBD3B7021207DBE7B7021207DBFB72
:10187300B7021207DB28B8021207DB58B8021207B7
:10188300DB13BA021207DB25BB021207DB7ABB02AA
:101893001207DBC3BB021207DB3FBC021207DB8666
:1018A300BC021207DBF8BC021207DB4DBE021207B3
:1018B300DBF6BE021207DB0EBF021207DBB1BF026B
:1018C3001207DB2DC2021207DBD5C3021207DBF3BB
:1018D300C3021207DB5282011207DB8A820112075D
:1018E300DB8A87011207DBD087011207DB06890138
:1018F3001207DB6B89011207DBE08A011207DBEABF
:101903008D011207DB138F011207DB2699011207E2
:10191300DBB699011207DBA09C011207DBAD9D0129
:101923001207DB109E011207DB589F011207DBC66B
:10193300A1011207DB58A3011207DBE5A30112077C
:10194300DB04A5011207DB91A5011207DB9BA501AF
:101953001207DBC3A5011207DB63A6011207DB4EE7
:10196300A7011207DB1BA8011207DB38A801120726
:10197300DB61A8011207DB8EA8011207DBD5AA01E0
:101983001207DBA4AB011207DBE3AB011207DB6534
:10199300AC011207DB06AD011207DB38AD011207FC
:1019A300DB7FAD011207DBB2AD011207DBF6AD0140
:1019B3001207DB45AE011207DB4AAE011207DBA6B5
:1019C300AE011207DBEAAE011207DBC4AF01120757
:1019D300DB29B0011207DB8FB0011207DB0AB1016B
:1019E3001207DB72B4011207DB75B5011207DBF3D3
:1019F300B6011207DB09BA011207DBABBA01120702
:101A0300DBF4BC011207DBAFBD011207DBEEBD0146
:101A13001207DBC6BF011207DBE3BF011207DBECD2
:101A2300BF011207DBF5BF011207DB00C00112077C
:101A3300DB1FC0011207DBC3C1011207DB20C20198
:101A43001207DB2AC2011207DB42C2011207DB5372
:101A5300C3011207DB9CC3011207DB56C401120743
:101A6300DB6DC5011207DB42C6011207DB89C70123
:101A73001207DB8DC8011207DB86C9011207DB9E43
:101A8300C9011207DBD5C9011207DBDFC901120740
:101A9300DBEAC9011207DB08CA011207DB50CA01DE
:101AA3001207DBAECA011207DBD5CA011207DBE757
:101AB300CA011207DB9CCB011207DBD5CB0112074E
:101AC300DBF7CC011207DB4ACD011207DB30CE0175
:101AD3001207DB57CE011207DBC7CE011207DB4328
:101AE300CF011207DB9FD0011207DBC6D10112071A
:101AF300DB88D2011207DB56D3011207DB14D401B2
:101B03001207DBFCD4011207DBA6D5011207DB0E9B
:101B1300D6011207DBC3D6011207DB1FD701120759
:101B2300DB77D7011207DB3DD8011207DB60D80151
:101B33001207DB1BD9011207DB3DD9011207DB9E1C
:101B4300D9011207DBCEDB011207DBC7DC01120769
:101B5300DB73DD011207DB94DF011207DBDDDF013D
:101B63001207DB28E0011207DB84E0011207DBE246
:101B7300E0011207DB06E1011207DB2AE10112078C
:101B8300DB5FE1011207DB87E1011207DBCCE10137
:101B93001207DB20E2011207DB79E2011207DB7394
:101BA300E3011207DB11E5011207DB56E50112071A
:101BB300DB7FE5011207DB08E6011207DB7BE601A9
:101BC3001207DB89E6011207DBADE6011207DB032F
:101BD300E7011207DB1EE7011207DBD9E701120752
:101BE300DB05E8011207DB48E8011207DBABE8017C
:101BF3001207DBB9EA011207DBE5EA011207DBA0F2
:101C0300EB011207DB84EC011207DB18ED0112076D
:101C1300DBADDB031207DBE5DB031207DB06DC03CB
:101C23001207DB48DC031207DBACDC031207DBB66D
:101C3300DC031207DBC6DC031207DBFDDC03120740
:101C4300DBA6E0031207DB6EE2031207DB52E403B9
:101C53001207DBF4E4031207DB7EE5031207DB83E1
:101C6300C4021207DB2CC5021207DB0BC6021207E4
:101C7300DB17C7021207DB37C7021207DB59C8029B
:101C83001207DB09CA021207DB76CA021207DB4717
:101C9300CB021207DB4DCC021207DBC5CC021207C5
:101CA300DB00CD021207DB59CD021207DB94CD0214
:101CB3001207DBDDCD021207DB71CE021207DB0751
:101CC300CF021207DBDCCF021207DBAFD002120711
:101CD300DB3DD1021207DB63D1021207DB90D10295
:101CE3001207DBC1D1021207DB8ED2021207DB9E81
:101CF300D2021207DBF1D2021207DBFED202120775
:101D0300DB0BD3021207DB14D3021207DB78D302F7
:101D13001207DBD6D3021207DB21D4021207DB3C06
:101D2300D4021207DB63D4021207DB80D40212074A
:101D3300DB8CD4021207DB1DD6021207DB36D60278
:101D43001207DBB2D6021207DBC5D6021207DBD5B8
:101D5300D6021207DB79D7021207DBE5D802120796
:101D6300DBF8D9021207DB98DA021207DBA2DA02E8
:101D73001207DB21DB021207DB32DB021207DB7106
:101D8300DB021207DB9FDB021207DB6CDC021207AC
:101D9300DBC3DC021207DBFCDC021207DB52DD02D1
:101DA3001207DB70DD021207DBBEDD021207DB89DF
:101DB300DE021207DBD7DE021207DB24DF02120783
:101DC300DBA7DF021207DBD1DF021207DB07E0022A
:101DD3001207DB16E0021207DB75E0021207DBEDE8
:101DE300E0021207DB2EE1021207DB7EE10212079B
:101DF300DBA9E1021207DBC3E1021207DBDDE1022B
:101E03001207DBB2E2021207DBBCE2021207DBF7C6
:101E1300E2021207DB07E3021207DB58E3021207B1
:101E2300DB6CE3021207DB8EE4021207DBA3E4029E
:101E33001207DB36E5021207DBAAE5021207DB4FC6
:101E4300E6021207DB5AE6021207DBBDE7021207BE
:101E5300DBD9E7021207DB25E8021207DB93E8026E
:101E63001207DBC5E8021207DBDFE8021207DB3FDC
:101E7300E9021207DBDEE9021207DB29EA02120795
:101E8300DB7CEC021207DB14ED021207DB8BED02A5
:101E93001207DBE8EF021207DB00F0021207DB0395
:101EA300F0021207DB0FF0021207DB23F002120726
:101EB300DB2BF0021207DB62F0021207DB56F102A2
:101EC3001207DBE0F1021207DB62F2021207DBE228
:101ED300F2021207DBB9F3021207DBDBF30212078C
:101EE300DB74F4021207DBD1F4021207DBD4F40231
:101EF3001207DB43F5021207DB8FF6021207DBA2A0
:101F0300F7021207DB2DF8021207DB40F902120772
:101F1300DB07FA021207DB38FA021207DB5EFA026A
:101F23001207DB67FA021207DB96FA021207DB4697
:101F3300FB021207DBF6FB021207DB69FC02120746
:101F4300DB0CFD021207DB7FFD021207DBBEFD0285
:101F53001207DB07FE021207DBB67C001207DB2544
:101F63007B001207DBEE7A001207DBC07A00120750
:101F7300DB747A001207DBDD79001207DB4D790091
:101F83001207DB2779001207DBDC78001207DBA6D8
:101F930078001207DB2978001207DBC477001207E9
:101FA300DB7377001207DB9B76001207DB0B7600EF
:101FB3001207DBBF75001207DB3A75001207DBF56A
:101FC30074001207DBD974001207DB817300120758
:101FD300DB5373001207DB2073001207DBA47200CC
:101FE3001207DBBC84041207DBE3B8041207DB45EA
:101FF30084041207DB7DB8041207DBFAB704120767
:10200300DB2BBC041207DBE2BB041207DBCDBB04F2
:102013001207DBBDBB041207DBE8FF021207DBF18B
:10202300FF011207DBF683041207DBCA83041207DE
:10203300DB5A80041207DBE7FF031207DB0080048F
:102043001207DBBE7F001207DBBB7F001207DB9D9D
:102053007F001207DBD6FF031207DB337F00120773
:10206300DB3D46001207DB62DB031207DB09DB0300
:102073001207DBD4DA031207DB9FDA031207DB6BE9
:10208300DA031207DBFED9031207DBE6D9031207D3
:10209300DBC1D9031207DB9AD6031207DB6DD40326
:1020A3001207DB74D2031207DB00D2031207DBB182
:1020B300D1031207DB6BD1031207DB5A7E00120731
:1020C300DB0DD1031207DBAF3A0000000080FB00F9
:1020D3000136360101000102010001030100010480
:1020E30001060605020000070100340801000F097C
:1020F3000401010D0100FF0E080000170200001982
:102103000100FF1A0100011B0100FE1C0100081D54
:102113000200001F01000120010001210200002331
:1021230001000F24020000260100012701000828F6
:102133000200FF2A0100072B0102402C0100002DA1
:102143000100012E0100012F0100FF30010B1D31A1
:102153000800003A0100083B01000F3C0100013D6B
:102163000100FF3E04000042040000460400004A50
:102173000400004E04000052040000560400005AFC
:1021830004000001037103010301030103010301BF
:1021930003220302030103100300030003000300EF
:1021A30003000300030003420300032403060300A8
:1021B300030003040312032503230325032303045A
:1021C3000304030003000300034403000300032389
:1021D30003000365032100350381030003050300A6
:1021E300030003000300032503230301017101011D
:1021F30001010111010101310101010101800110FE
:102203000161013B00140063017301720162014328
:10221300010001130106013D013500040112010013
:102223000100010001000104010401330133013CF9
:10223300014401320136000001000165010001354E
:102243000081010001050182018301000103027184
:1022530002300160021102700201020202020280D6
:1022630002100261023A00410063027302720262C9
:1022730002430200021302380000020002040212A9
:1022830002000200020002000204020402370037C7
:10229300003C024402000239000002000265020011
:1022A3000235028102000205028202830200020358
:1022B30004710402046004110470040204020401A2
:1022C300040204100461040004140463047304721C
:1022D3000462044304000413040604000400040419
:1022E3000412040004000400040004510464000008
:1022F3000400040004440400040004000400046512
:10230300040004350481046400050400048304000C
:1023130004030071003001600011007000310220DD
:102323000350048000100061000000140063007378
:10233300007200620043000000130006000000006A
:10234300000400120000000000000000000400046C
:1023530000370037003C024400000000000000008A
:1023630000650000003500810000000500000083C7
:1023730000000036000100060000000F000000000E
:1023830000000000000000000003FFFF0000040342
:10239300FFFF0000FFFF0FF4010005C4040320004A
:1023A3000100000B000000000000000003010F000B
:1023B300000000000000000000000000000000001A
:1023C300000000000000000000000000000000000A
:1023D300000A0000000200000004000000080000E2
:1023E30000100000002000000040000000800000FA
:1023F30000000100000002000000040000000800CB
:102403000000100000002000000040000000006FEA
:102413001213001B121F0021121F80271201006FCD
:10242300120200DF110300E5110400EB110500F1B6
:10243300110600FD1136000F12FFFF0000011119F4
:10244300063B190835190B531910A1160217190564
:102453002919071D190CF9180D051964D314FF0068
:102463000007ECFDFDFDECDCDCCCBCACAC9C9C8C37
:102473007C7C6C6C5C5C5C4C4C3C3C2C2C1C1C00D5
:10248300160F00000B150B020002220F3300000E83
:102493005A6967426565416C6C69616E6365303981
:1024A30001030507090B0D0F00020406080A0C0DB2
:1024B300140AE5D5C5B5A5A595858575653030178D
:1024C300181921301B1D1F30000119161816161874
:1024D30023030000393D3F373C3C362C442D30303C
:1024E30016181920231A1C1E3000034A49434E189C
:1024F3001A2505020C0E020B040B0A0708000F0233
:10250300040201010101090200000000000000BEF5
:10251300040AE8030000FA06000000000E00642429
:10252300B3247F00E803FF1E1E0005280C000409E6
:102533000803090303010C0A0508150C00FF100426
:102543000804C082C0837900126751C082C083909F
:102553001C25126005D083D082C3E09CA3E09D506C
:102563000DEA240B122594122574600279010239B5
:1025730022EA75F00BA4FAA8F075F00BEBA428FB84
:10258300901C27E02AF8A3E03B8882F583E0540FF0
:1025930022F582E43B1252452274F712037A89082A
:1025A3001249541228DAACF075F00BE9A42CF99017
:1025B3001C27E028F8A3E039F9E8FEE9FF74016578
:1025C3000860067402650870228A828B83122A903F
:1025D300740265087021EA2403FA50010B12142BCC
:1025E300E970148E828F83E4F0800CEA2403FCE408
:1025F3003B122A871214258E828F83E0D2E7F012D2
:10260300110102455774F412037A122B6179008E7B
:10261300828F83E06078890A890B8063E50A75F00D
:102623000BA4FAA8F075F00BE50B1225807048E5B2
:102633000A75F00BA4F8AAF075F00BE50B122AA4A7
:102643008E828F83E0850882850983123F5B122A7D
:1026530005EE2403FCE43F12273F121425124758CA
:10266300E50AF0A3E50B123766D2E7F01211017900
:1026730001901C251234F9050AE50A7002050B9036
:102683001C25125948C3E50A9AE50B9B408E023775
:102693007074F512037AEAFEEBFF750A01740B12EC
:1026A3000AEE126462EC4D6015EC1256123D122BC9
:1026B3006F790112140DE508450960758023E5085B
:1026C300450960441256103509122B6F1227401228
:1026D300142BE96401701BEEFAEFFB121413E9F5F6
:1026E3000A8508828509831229FD7902AA08AB09A4
:1026F3008011122A8812142BE9640170347903EED5
:10270300FAEFFB12140D80298E828F83A3E064FEFF
:102713007003A3E0F4700B122A8812142BE96401EE
:10272300700CEEFAEFFB121413E9F50A8003750A35
:10273300000230B4E50A2403FCE4350BFDE508246C
:1027430003FAE43509FB2274F712037A901C25126D
:102753004888EA4B602FEA75F00BA4FAA8F075F0ED
:102763000BEBA428FBEAFEEBFF120F2D901C2712A4
:102773004888901C271246A76012EEFCEFFD7900F3
:10278300120E8B8007901C27E4F0A3F0024557C07C
:1027930082C083EC4D600512102380097C087D0004
:1027A3007900120E8B023922C082C0837900EA4B72
:1027B30060167800E8FCEA2C12496060047901781D
:1027C3000808E8C3940840EC02392274F712037A2C
:1027D30074F31208D4ECFEEDFF851882851983E4A7
:1027E300F004120AEEEAF0A3EB124BF81214497448
:1027F30003120AEEAC82AD83EEFAEFFB121425EE60
:10280300FAEFFB12142B02455274F712037A74F396
:102813001208D4ECFEEDFF851882851983E4F0EAF3
:10282300FCEBFD7403120AEEAA82AB83121425AAF1
:1028330018AB1912144F7401120AEE123F6C8E82F8
:102843008F8312484474FE68700374FF69600479CF
:10285300018002790002455274F712037AEAFEEB13
:10286300FF121407E9F5087401650870111228C5F1
:10287300F4FA88828983E05A4480F0121101A9088E
:1028830002455774F712037AEAFEEBFF7508008ED0
:10289300828F83E0602A121407E9F5087401650842
:1028A300701E1228C5FA88828983E05A70128E82BC
:1028B3008F83E04480FA88828983E04AF012110111
:1028C30080BC124605F81228DA122BD1F8A3E0399E
:1028D300F98E828F83E022A3E0F9E875F00BA4F868
:1028E3002274F412037A8A088B097C007D00EA12B1
:1028F3002742121425E508122A1F790085088285CC
:102903000983A3E064FE7003A3E0F460787E007F94
:10291300008065EEFAEFFB1225746057EEFAEFFBC9
:10292300EA75F00BA4FAA8F075F00BEBA428FB9062
:102933001C27E02AF50AA3E03BF50B8508828509ED
:1029430083125947850A82850B83A3E06A7003A328
:10295300E06B701FE50A2403FAE4350BFB12142B1A
:10296300E964017006122737121425122A1479011B
:1029730012616C0EEE70010F901C25125948C3EEC4
:102983009AEF9B408E02377074F312037A8A088B96
:10299300098A828B831229FDEA122A1F750C00EA29
:1029A30012274212142BE9640170477E007F0080D6
:1029B3003C122BC3FAA3E0398A82F583E0540F60FB
:1029C30027122BC3F50AA3E039F50B122737121090
:1029D3001DE964017012850A82850B83122A051290
:1029E3002A14750C0112616C0EEE70010F122BE0AC
:1029F30040BFA90C7F05020591A3A374FEF0A304B5
:102A0300F022A3124543850882850983A3123C8BD8
:102A130022E508122A29EEF0A3EFF022122A2974E4
:102A2300FEF0A304F022240BF582E43509F583229A
:102A330074F512037AEAFEEBFF8E828F831229FD6F
:102A43007C007D00122A88121425EEFAEFFB121483
:102A530007E9F50A7401650A702712453C122A98A2
:102A6300850882F583122A9012274012142BE964F9
:102A730001700EE5082403FCE43509122A871214B9
:102A8300250230B4FDEE2403FAE43FFB22A31259DE
:102A930056123C8B22E875F00BA4F8AAF075F00BE4
:102AA300E9122BD7F508A3E039F5092274F21203D2
:102AB3007A74E61208D4122B61750A017508007541
:102AC3000900750C00750D00851882851983E4F0E3
:102AD300EE2403FCE43FFD7403120AEEAA82AB83E7
:102AE300121425AA18AB1912144FE96401701F744C
:102AF3000B120AEE122B717401120AEE1259507066
:102B030003A3E069604AA818A91988088909740D04
:102B1300120AEE123F5AA3123F6C740E120AEE12FF
:102B23004844740D120896121449E964017009743B
:102B33000D12088E880C890D780C1207F8AC08ADBD
:102B430009EEFAEFFB121419740212080BE9F50AE5
:102B5300EEFAEFFB121443A90A741A02476AEAFE5B
:102B6300EBFF12475C74FEF0A304F022F5831259C5
:102B730036F912475C123C8B22C082C083780079FD
:102B830000800508E8700109901C25123557E99B60
:102B93005029E8FAE9FBEA75F00BA4FAACF075F0FA
:102BA3000BEBA42CFB901C27E02AFCA3E03B8C82BC
:102BB300F583E0540F70CC79008002790102392249
:102BC300EEF8EFF9E875F00BA4F8122BD122AAF076
:102BD30075F00BE9A42AF9901C27E02822901C2504
:102BE300124543C3EE98EF9922C082C08390253DDE
:102BF300E49375F01CA4FCADF079FF7A267B0812F0
:102C03000E8B02392274F712037AE9FCEAFD7A008B
:102C13007B008010EB1232629C4008E0F8EDC39811
:102C230040010A0B90253DE493F8EBC39840E57B04
:102C33000002455774EC12037A74F31208D48A0C19
:102C43008B0D8C088D09890AEC45096016AA08AB1F
:102C5300091214978A0E8B0FAE0EAF0FEE4F60035F
:102C6300022D357A0080010A90253D12588D500FB0
:102C7300122E2A70F2742628FE740839FF80047E0F
:102C8300007F00EE4F7003022DDE90251D122DFBF9
:102C930060257403650A60067404650A70197A0472
:102CA300790312146D8A0E8B0F90253DE493F890EF
:102CB300251D122E14502D90251B122DFB602C74F4
:102CC30001650A60067402650A70207A02790112AE
:102CD300146D8A0E8B0F90253DE493F890251B12FB
:102CE3002E1440077A007B00022DF6851882851981
:102CF300837401F0120AEEE50CF0A3E50DF0AC08C5
:102D0300AD097403120AEEAA82AB83121425AA1822
:102D1300AB1912145B740B120AEE123C848E828F71
:102D230083A3A3A3A3A3A3E4126001AA0CAB0D1274
:102D33001B757800E50A6007C39405500278048E7A
:102D4300828F83E50CF0A3E50D123125A3A3E50AD9
:102D5300F0E88E828F83A3A3A3A3A3125C13500175
:102D6300097A027B0012022A123532A31238B912F1
:102D7300355EE50A605BC394035056901E9BE0707A
:102D8300189023D4780C12098B123509120A61901A
:102D930023D4780C12098B8027F508750900740277
:102DA3007808120978122E0512098B9081F2781097
:102DB300120A7F780C791012028B123509120A61FC
:102DC300EE241312350C120A61EE241B125C0A80E6
:102DD30009123515122A00A3F0A3F07A0479001220
:102DE300146D1231164005901EAFE4F0121A49EE2D
:102DF300FAEFFB740D023A91E493F8740193F9E846
:102E0300492274D42508F58274233509F583780C97
:102E130022E493FA740193FBE8C39AF8E49BF9C3A1
:102E2300E50E98E50F9922EA122E30F42275F01C74
:102E3300A4F8A9F0742A28F582740839F583E022EE
:102E430074EE12037A74F31208D4EAFEEBFF8C10CB
:102E53008D11750800AA10AB11121497EA4B700379
:102E6300022F5E8A828B83E06E7003A3E06F700390
:102E7300022F5E8A828B83A3A3A3A3E0C39405409E
:102E830003022F5E8A828B8312615AE060728A8208
:102E93008B83A3A3A3A3E0C394035064901E9BE07E
:102EA30070219023D4780812098B122F65120A61BE
:102EB3009023D4780812098BEA2413122F68120A7C
:102EC300618030F5087509007402780812097812D8
:102ED3002E0512098B9081F27808120A7F780C79FB
:102EE3000812028B12364F120A61EA241312365269
:102EF300120A61EA241BF582E43BF583E4F0801BAC
:102F03007508FE7509FF750AFF750BFF122F651211
:102F13000A61EA2413122F68120A61750800750901
:102F230000750A00750B00EA240C122F68120A615F
:102F33008518828519837401F0120AEEEEF0A3EF6F
:102F4300F0AC10AD117403120AEEAA82AB83121413
:102F530025AA18AB1912145B750801A908740D0290
:102F63006152EA2417F582E43BF58378082274F66C
:102F730012037A1214918A088B09A808A909E8494F
:102F8300601488828983A3A3A3A3E06009C3940583
:102F93005004790180027900802F74F612037A12AB
:102FA30014918A088B09A808A909E8496014888242
:102FB3008983A3A3A3A3E06009C394035004790105
:102FC30080027900800312080B7F0202059174F6D8
:102FD30012037A1214918A828B83E5824583600BF4
:102FE300A3A3A3A3E0700479018002790080DAC06F
:102FF30082C083EAFCEBFD7A007B0002391FC082AA
:10300300C0837C007D0002391F74F512037A74F3C8
:103013001208D4EAFEEBFF8C088D09C3EC94F8ED9B
:1030230094FF4004EE4F6065750A00801974FF65D4
:1030330008700474FF6509600B12674B7004A3E00A
:103043006509603B050A90253DE493F8E50AC398BA
:10305300503BE50A122E2B60EBEE4F60D012309BF3
:10306300120AEE124BF4121455E960D87403120AD3
:10307300EEAC82AD83EEFAEFFB12101DE960C5E5FD
:103083000A75F01CA4F8A9F012325980047A007B67
:1030930000740D12080B801B851882851983740137
:1030A300F0742828F582740839F583124543740BAC
:1030B30022A90A7F0302059174F412037A74F312AE
:1030C30008D47508001214978A0A8B0BAE0AAF0B4B
:1030D300EE4F60258518828519831231231230AE95
:1030E300120AEE124BF412143D7C1C7D0079FFEEA4
:1030F300FAEFFB120E8B7508017A04790012146D36
:103103001231165009901EAF7401F0121A49A90822
:1031130002376B90253DE493F8C3EA98EB940022C1
:103123007401123F5FA3A32274F712037AE9FE74BA
:10313300FE6A700374FF6B7C00700380240C1231F1
:103143008E501EEC122E2B60F41233287003A3E072
:103153006B70EA800BEC1231A36019E06403601416
:103163000C12318E501EEE60ECEC12319860F1C3FC
:10317300940550ECEC75F01CA4FCADF0126CC1127C
:10318300594880047AFE7BFF02455790253DE4931E
:10319300F8ECC3982275F01CA4F8A9F0122E37227C
:1031A30075F01CA4F8A9F0122E376401221214A999
:1031B300023922C082C083790180F274F012037A4B
:1031C3008A0A8B0B7A04790112146D8A0C8B0DEA2F
:1031D300450D6040EA2AFAEB33FB120F2D8A088B68
:1031E30009AE08AF09EE4F60267AFE7BFF1214AFDB
:1031F30074FE6A700374FF6B601E85088285098301
:10320300124888E5082402F50850E2050980DE75B6
:103213000C0080047E007F00850A82850B83E50C09
:10322300F0EEFAEFFB0234EFC082C0837C0080092A
:10323300EA24FF1AEB34FFFB0C12318E5011EC120F
:103243003262940550F2EA4B70E612325980047AE6
:10325300007B00023922742628FA740839FB2212F3
:103263002E30C32274F712037A74F31208D47E004B
:10327300807DEF75F017A4F8A9F01233191259489D
:10328300EE75F01CA4F8A9F01233287003A3E06BC9
:10329300603DEF75F017A4F8AAF0EAF9123319129A
:1032A3003F6C7401120AEEE0687003A3E069601FCB
:1032B300EF75F017A4F8EAF9747428FC740A39FD61
:1032C3007403120AEEAA82AB8312101DE96013EF96
:1032D30075F017A4F8A9F0747228FA740A39FB126E
:1032E3001B810F902541E493F8EFC39840840E129D
:1032F3006CAE501FEE127222F47003A3E0F460EE82
:1033030012309B120AEE124BF4121455E960DF7F60
:103313000080D002455212331D22747228F5827444
:103323000A39F5832212722D6A2274F412037A7415
:10333300F31208D47E0080389082367808120A7F10
:10334300EE75F01CA4F8A9F0743928F582740839D5
:10335300F58378081208EA60169082267808120A24
:103363007FEE75F01CA4F81233F578081209FD0EF0
:10337300126CAE507AEE12319860F4C3940350EF9E
:103383001233F5120AA7E8494A4B70AC901E9AE033
:103393006401702D901D2D1246A76025EE75F01C5B
:1033A300A4F8A9F0742628F8740839F912344B12DA
:1033B300065C888289831234E01204F274041208D2
:1033C3000B8518828519837401F0EE75F01CA4F83F
:1033D300A9F01230A4120AEE124BF4121455E9604C
:1033E3008E7403120AEEAA82AB831214A3808002A6
:1033F300376B743D28F582740839F5832274F6120D
:10340300037A1214918A088B09A808A909E849606C
:103413003288828983A3A3A3A3E06023C3940350C8
:103423001E12344B120ABFE82417F582E439F583E0
:10343300120AB3E8241BF582E439F5837401F079A9
:103443000180027900022FCCE82413F582E439F5D8
:10345300832274F012037AEAFEEBFF901D271246D3
:10346300A76072901D2D1246A7606A901D31124607
:10347300A76062126B3A1204F2E97059901E9BE046
:10348300700A9023D4780812098B8028F5087509EF
:103493000074027808120978126D1C7423126B1BD6
:1034A300780812098B9081F2780C120A7F780879D8
:1034B3000C12028B78081207F01234DA1204F27439
:1034C3000412080BE96401700C8E828F83A3A3128C
:1034D3006B281204F280158E828F83A3A3125247A6
:1034E300901D2D126B3222740D12080B7F080205FA
:1034F30091126009EC22E0F50AA3E0F50B22E493B4
:10350300F8E508C39822EE2417F582E43FF58378A3
:103513000C2212352874FEF0A304F0A3F0A3F012DA
:10352300416974FE22EE2417F582E43FF58322E815
:103533008E828F83A3A3A3A3A3A3A3A3124517746C
:1035430001124517A374AAF0EE2410F582E43FF5A7
:1035530083E4F022125247C3E89A22A3F012475C95
:10356300E4F0EE240CF582E43FF583E4F0A3F0A34A
:10357300F0A3F02274F012037A74F31208D4EAFE73
:10358300EBFF7A02790112146DEA8E828F83F07059
:103593000302364275F00CA4FAABF0120F2D8A0821
:1035A3008B09EA45097003023648AE08AF09750A6C
:1035B30000801C90822612065CEEFAEFFB120F09C4
:1035C300740412080B8A0C8B0DAE0CAF0D050A9018
:1035D300253DE493F8E50AC398506AE50A1231A33E
:1035E3006005E0640270E612309B120AEE124BF49F
:1035F300121455E960187403120AEEAC82AD83EE1F
:10360300FAEFFB1210238A0C8B0DAE0CAF0DE50AFB
:1036130075F01CA4F8A9F0744128F58274081269A6
:10362300996401708E123259EA2413123652120A27
:103633007F12364F1208A6780C1207F00235BC75BC
:103643000800750900AA08AB090234EAEA2417F551
:1036530082E43BF583780C22C082C083901C3474CF
:1036630023F0A37419F002392274F712037AEAFEE5
:10367300EBFF901CA1E06408601FE06404601A8EF5
:10368300828F83E0540364017044124601F8A3E07F
:10369300F5838882E0640670358E828F83A3A3E06E
:1036A30064FE7003A3E0F460258E828F83A3A312CC
:1036B30060127003A3E0697008EE2415125FF960CD
:1036C300051219DD80031219E3E9F5088003750873
:1036D300C2EEFAEFFB120F3302288174F412037A5D
:1036E3008A088B098A828B83E0FAA3E0F8EA28FA36
:1036F300E43400FB120F2D8A0A8B0BAE0AAF0BEEDC
:103703004F605A850882850983E0FC7D00790012A9
:103713000E8B8E828F831229FC121A198E828F834D
:10372300A3A3A3A3EAF0A3EB123766F8EE28F8E409
:103733003F122B74850882850983A3E0C0E0125BE6
:10374300FDD0E0F0121A2BEE240EF582E43FF58350
:10375300E9123EE7E0C0E0123C56D0E0F0EEFAEFAB
:10376300FB800A123EDFE022740D12080B7F040275
:10377300059174F412037A74E81208D48A088B0949
:103783008C0A8D0BE9FE901CA1E064046005E064E3
:1037930008700479C2803CA37808120A61EE901C79
:1037A300A81238BE120E8B851882851983780812E9
:1037B3000A617405120AEEEEF07404120AEE740143
:1037C300F07407120AEEE4F0901CA17402124BF895
:1037D3001213AD7418809374F412037A74E8120808
:1037E300D4EAFEEBFF901C291246A760030238B40B
:1037F3007A077B00120F2D901C29124888901C29F0
:103803001246A770030238B08E828F83120AA790E4
:103813001C29E0FCA3E0F5838C82120A9BEE2404AE
:10382300F50AE43FF50B850A82F583E0C0E0901CBE
:103833002912521CA3A3A3D0E0F0EE2405F508E45B
:103843003FF509850882F583E0C0E0901C291252F8
:103853002DD0E01238B9E0C0E0901C29125936C8C7
:103863002406F582E438F583D0E01238BE120E8BBD
:103873008E828F83120AA7851882851983120A9B69
:10388300850A82850B83E0C0E07405120AEED0E05E
:10389300123766C0E07404120AEED0E0F074071227
:1038A3000AEEE4124BF81213ADE9F98006791080A1
:1038B3000279010237D61265DCA322F07C187D0061
:1038C3007900AA18AB1922C082C083901C29124622
:1038D300A76010901C29125948120F33901C29E439
:1038E300F0A3F012194D121B2702392274F71203A9
:1038F3007AE9901C2FF07A807B00901CECE0F9129F
:103903000FF912150F7900024557C082C083901C2E
:103913002FE0700312121512150F800312149DD09D
:1039230083D0820207D874F012037A901C2FE090A0
:103933001EAE700FE0600579001210CB901EAEE44E
:10394300F0804AE064016008901C2FE0F91210CB6C
:10395300901EAE7401F0901C2FE0F46030E0F50C83
:10396300E4F50DF50EF50FF09081FA7808120A7F51
:10397300780C790812028B780C1207F07A807B009E
:10398300901CECE0F9120FED740412080B7AAE7B75
:103993001E79411213950234EF74EC12037A74E723
:1039A3001208D48A0C8B0D8C0E8D0FE9FF7E0075E7
:1039B30008018E098E0A8E0B901CA17401F07C18ED
:1039C3007D007900120896120E8B7401120AEE78AC
:1039D3000C120A617406120AEEEFF07405120AEE75
:1039E3007403F07408120AEEE4F0850C10850D11CF
:1039F300850E12850F137810790812099EE510457C
:103A0300114512451360010E74017808120794E5FD
:103A1300084509450A450B70D1AA18AB19795A1202
:103A2300138F851882851983E0F508E4F509F50AF3
:103A3300F50B8E0CF50DF50EF50F7808790C1202C7
:103A43008B908242780C120A7F7808790C12028BD1
:103A53009081FA780C120A7F7808790C12030B1202
:103A63003C777A007B04901CECE0F9120FF978089C
:103A73001207F07A007B04901CECE0F9120FED744E
:103A83000412080B74011208961213AD741912086C
:103A93000B7F0C02059174F712037A7C011220C785
:103AA30002455774F712037A7C0080F174F0120315
:103AB3007A74FD1208D4EAFEEBFF890A8C0B1260BC
:103AC300021219418A088B09EA4509700579CA026D
:103AD3003C518A828B83A3A3A3A3A3A3A3E064FE85
:103AE3007003A3E0F4700579C3023C51121A198ADA
:103AF3000C8B0DA80CA90D850882850983A3A3A3AC
:103B0300A3A3A3A3E0687003A3E069700579C202CD
:103B13003C51901C9F123F6C850882850983E068A5
:103B23007003A3E0696009850882850983123DACAF
:103B3300901C9F125948121B87850882850983A30D
:103B4300A3A3A3A3A3A3A3A3A3E004901CB2123D26
:103B5300981210237401120AEE7402124BF8121A0F
:103B63007F8A0C8B0DAE0CAF0DEE4F7003023C48F9
:103B7300124BFE7406F0A3A882A983901C8C125DDD
:103B830033125C07F0121A1312487FEE2413125CEF
:103B93000A1245237440F0A3E4123C60123C8412E1
:103BA3003C56E50BF0EEFAEFFB1214E5E9FE600379
:103BB300023C4A901CA17409123C60123DA2901C65
:103BC30094E0650A6003E50AF07A957B1C794B1251
:103BD30013957A9F7B1C79501213957A947B1C79E9
:103BE300E11213957A927B1C7953121395123C7749
:103BF300901E7D125948121A43123C69E4F50EF5E2
:103C03000F780C1207F07A017B00901CECE0F9129C
:103C13000FF3740412080B7A007B04901CECE0F998
:103C2300120FF9123C697402780C120794780C1283
:103C330007F07A007B04901CECE0F9120FED74049A
:103C430012080B80027E10901AB1E4F0EEF97403AF
:103C53000234ECEE2411F582E43FF58322123EEBAD
:103C6300A3A3A3A3A322901E7DE0F508A3E08508E8
:103C73000CF50D22901E7B124543901C2B123C8B9E
:103C830022125C32123C8B22E8F0A3E9F02274F694
:103C930012037A74E51208D4851882851983ECF02F
:103CA300A3EDF0EAFEEBFF8909901CA1E064046038
:103CB30005E06408700579C2023D937426120AEE8A
:103CC300E064FE7003A3E0F4700579C3023D937CC6
:103CD300197D0079007402120896120E8B901CA1B4
:103CE3007403124BF87950121395742612089679BF
:103CF3004B121395851882851983123DACE5099003
:103D03001C94F07426120AEE123DA27425120AEED8
:103D1300E0F508901C8C123D9812102374CE5508C0
:103D23004480C0E0741A120AEED0E0F07428120A3C
:103D3300EEE004901CB2F07417120AEE7402F074F1
:103D430026120AEE123F6C740F120AEEE8F0A3E992
:103D5300123F657418120AEE124844740D120AEEEB
:103D6300E509F0740A120AEEE4F0901CA7740FF050
:103D73007AA77B1C7954121395901CA6740FF07AC2
:103D8300A67B1C7947121395740212089612139B93
:103D9300741B022FC9F0EEFCEFFD7AB37B1C2212D9
:103DA3004543901C95123C8B221269B3123C8B2223
:103DB30074F712037AEB901CA9F012192F024557DE
:103DC30074F612037A74E91208D48A088B097E0008
:103DD3008A828B83A3A3A3E0C0E07406120AEED009
:103DE300E0F08A828B83A3A3E0C0E07408120AEE9A
:103DF300D0E0F07409120AEE7401F08A828B831208
:103E030046A7600D8A828B8312594812142BE970DE
:103E1300357407120AEEE4F0121A137404120AEE50
:103E2300124888901CA1E06404700E121A1F7402D9
:103E3300120AEEEAF0A3EB804E7402120AEE74FD4E
:103E4300F0A374FF8041AC18AD19850882850983FE
:103E5300125948121437850882850983A3A3A3A3A3
:103E6300E070317407120AEE7401123F6574021296
:103E73000AEE124844850882850983123F6C740454
:103E8300120AEEE8F0A3E9F07402120896121A6718
:103E9300E9FE8041123F66740A120AEE1248447426
:103EA30014120AEE7401123EE7A3E0C0E074151287
:103EB3000AEED0E0F07416120AEEE4123EDF12604E
:103EC30005740C120AEEAA82AB83121023740A1231
:103ED30008961210E3EEF97417022FC9F0850882D1
:103EE30085098322123EEB22123EDFA3A32274F73D
:103EF30012037A74F81208D4EAFEEBFF7900901CDF
:103F0300A1E064086005E0640470478518828519A0
:103F13008374FDF0A374FFF0121A137402120AEEF5
:103F23001248887405120AEE123F5AA3E0C0E074E7
:103F330004120AEED0E0123F5BE0C0E07406120AFE
:103F4300EED0E0F07407120AEEE4124BF8121A678F
:103F5300E9F97408024554E4123F5F22F08E828F20
:103F63008322F0851882851983124543227F070235
:103F7300059174F412037A74F91208D48A088B0930
:103F83008C0A8D0B8518828519837808120A61744F
:103F930004120AEEE9F07405120AEEE4F074061254
:103FA3000AEEE4124BF81214F7740702376D74F536
:103FB30012037A8A088B098A828B8312616FEE4F10
:103FC3007003024162901C501246A760178A828BCD
:103FD30083A3A3E0F9EEFAEFFB901C51E0F583888D
:103FE300821204F28E828F83A3A3A3A3A3A3A3A30A
:103FF300A3E0640260030240CC8E828F83A3A3A359
:10400300A3A3A3E0540270030240F085088285094C
:1040130083A3A3E064E970030240F0850882850965
:1040230083A3A3E064CD70030240F0850882850971
:1040330083A3A3E064F070030240F0EE240D124466
:10404300F86028EE2413125FF960208E828F83A319
:10405300A3A3A3A3A3A3A3A3A3124181121A97E922
:10406300701D7A307B0112117F8014901E9CE00436
:104073008E828F83A3A3A3A3A3A3A3A3A3A3F08548
:104083000882850983A3A3E0701F750A0080097A5B
:10409300367B0112117F050A850882850983A3A354
:1040A300A3E0F8E50AC39840E6EE240A125894C048
:1040B300E0124165D0E01245137404F0901E9D1286
:1040C3005C2CE8124173120EDF8E828F83A3A3A3AD
:1040D300A3A3A3A3A3A3E0640260128E828F83A38E
:1040E300A3A3A3A3A3A3A3A3E0640670728E828FEA
:1040F30083A3A3A3A3A3A3E0A2E0506385088285BF
:104103000983A3A3E0F9EEFAEFFB12186F8E828FF7
:1041130083A3A3A3A3A3A3E054FE124181121A977E
:10412300E9850882850983A3A3702AE070237A2F87
:104133007B0112117F7E00850882850983A3A3A3D7
:10414300E0F8EEC39850187A367B0112117F0E8087
:10415300E67A318005E070077A2D7B0112117F0228
:1041630030B612416922EE2413F582E43FF583222F
:10417300F0A3E9F07A207B00901CECE0F922123FD7
:104183005F126B321252472274EC12037A74BD121F
:1041930008D4EAFEEBFF8C108D11750C00750E0030
:1041A300AC18AD1912179D740D120AEEE070087465
:1041B30010120AEEE06014851882851983E0A2E6E6
:1041C300500E12593B121A97E960057A350242ECF8
:1041D300851882851983E0540C64047005750D01FC
:1041E3008003750D00E0A2E5503D750E01E50DA2BB
:1041F300E04034121A1912452E7003A3E0697005CA
:104203001244F5706B121A1912452E7003A3E0695C
:1042130060151244F5701012601FAC18AD19121816
:104223004BE960030242EA1244F5702C851882853B
:104233001983E0A2E650217401120AEEE0540370E0
:1042430017851882851983E0540C640C600AE054C6
:104253000C64086003750C01851882851983E0548A
:1042630003F8740268701912601B1217AF0244F04E
:1042730012593B12453C7415120AEE124844809AB7
:104283007401687047E50CA2E0500B1244F5700608
:1042930012601B1217A3741A120AEEE518F0A3E5B5
:1042A3001912453B7417120AEE1248448E828F830B
:1042B300A3A3A3A3A3A3E0C0E07419120AEED0E062
:1042C300F074171208961217010244F0E860030213
:1042D30044F0901C89E0640170178E828F83A3A33E
:1042E300A3A3A3A3E0700A7A347B0112117F0244D3
:1042F300F07442120AEE740212453B743A120AEE4B
:10430300124502E05480700302440C7424120AEE36
:104313007402124513123F6C741C120AEE124844C5
:104323007403120AEEE0C0E07425120AEED0E0F046
:104333007402120AEEE0C0E07426120AEED0E0F036
:10434300901C9F123F6C7427120AEE1248447406A5
:10435300120AEE123F6C7429120AEE1248447408D2
:10436300120AEE123F6C742B120AEE1248447410B8
:10437300120AEEE0F8742D120AEEE8F0A3E4F074EA
:104383000E120AEE123F6C742F120AEE124502123D
:104393003F6C7431120AEE12451FE0C0E074331211
:1043A3000AEED0E01265EBC0E07434120AEED0E0FE
:1043B300F0125FF6C0E07435120AEED0E0F074112B
:1043C300120AEEE0C0E07436120AEED0E0F0741385
:1043D300120AEEE0C0E07437120AEED0E0F0EE24E9
:1043E30023125FF9C0E07438120AEED0E0F0EE2435
:1043F30025125FF9C0E07439120AEED0E0F0741CA4
:104403001208961217B50244F07457120AEE780890
:10441300120A7FE50DA2E040030244A8EE240F1226
:104423005FF9C0E07412120AEED0E0F0901C521251
:1044330046A770030244F0121A198A128B13A812AA
:10444300A913743A120AEEE0687003A3E0696003EB
:104453000244F0EE2423125FF9F50D780D1207FCE8
:1044630012450912066078081207F0E50EF5087880
:10447300081207FC8E828F83A3A3A3A3E0F5087819
:10448300081207FC78101207F8A90C740B12089E87
:104493007445120896901C5212594C1204F2740B74
:1044A30012080B8048E50CA2E0500612601B12179D
:1044B300A3125FF6F50C780C1207FC78081207F0CC
:1044C300E50EF50878081207FC78101207F8901C1F
:1044D3009F120660EE2412125FF9F9744412089ECB
:1044E300740A12089612187B740A12080B7443029A
:1044F3003A91EE2421F582E43FF583E054802212C1
:104503003C8B12450922EE2421F582E43FF58322F8
:10451300124517221265E0A3A3A3A322E8F0A3E99F
:10452300F0EE240FF582E43FF583228A088B09A875
:1045330008A9091246056822F012475C1245432276
:10454300125936F92274F712037A1210AD800574EA
:104553000D12080B7F0102059174F712037A1210F2
:10456300BF80F1C082C0831210B902392274F712DE
:10457300037A1210C580DD74F712037A7409120AE4
:10458300EEE0F50878081207FC1210D7740180C119
:10459300C082C0831210E302392274F612037AEA4E
:1045A300FEEBFF901C8CE0A2E150498E828F83A327
:1045B300A3A3A3A3A3A3A3A3A3E064016036121A36
:1045C3001F8A088B09A808A9098E828F83E0687067
:1045D30003A3E069601E124601640160178E828F97
:1045E30083125948121485E9600A8E828F83125907
:1045F300481219D7EEFAEFFB1210E9022FCC12463C
:104603000522124760E02274F712037A1210EF02B8
:10461300455774F712037AEAFEEBFF8908740165C4
:10462300087014790012166B90252AE493FC790024
:10463300EEFAEFFB1215E102455774F712037A12F3
:1046430010DD02455774F412037A74F91208D4E9A1
:10465300FE8A088B098C0A8D0B901B5D1246A7609E
:104663002BEE851882851983F07401120AEE7808FF
:10467300120A617413120AEE123F6C7405120AEEE9
:10468300124BF4901B5D12594C1204F2023FACE53D
:104693000E75F006A4F8AAF0EAF974FE28F5827400
:1046A3000C39F583124543E8492274F712037A1251
:1046B30010FB02455774F712037A901EB1E0F978A4
:1046C30000800B124968540D6401700119081248E7
:1046D300D55003E970ED02455774F712037A901E23
:1046E300B2E0F97800800B124968548D648170013F
:1046F30019081248D55003E970ED02455774F212B8
:10470300037A890BE975F006A4A9F0240FF508E4F0
:1047130039F509E5082AFAE43509FB120F2D8A0C4D
:104723008B0DAE0CAF0DEE4F6025AC08AD097900D3
:10473300120E8B124758E50BF0EE2508F8EF3509FA
:10474300F98E828F83A3A3A3A3A3A3A3124842EE4C
:10475300FAEFFB801512475C2212476022EE240B0E
:10476300F582E43FF5832212080B7F06020591745C
:10477300F612037AEAFEEBFF1215B7E9F8901EB0C2
:10478300E0F9E8C3994009901C381259481215BD45
:10479300EE2402F8E43FF988088909901C3A125D77
:1047A30033901C3AE004F0EEFAEFFB1215C38508D0
:1047B30082850983E0025E62C082C0837900901C17
:1047C300388001091259488A828B83E582458370B8
:1047D300F202392274F712037AEAFEEBFFEE4F601E
:1047E3005B901C381246A76053888289837A007BCA
:1047F30000EE65827003EF65836013AA82AB8312B8
:104803003F6C88828983E5824583603080E3901C16
:1048130038123F6CEE687002EF698E828F837008E6
:10482300123F6C901C388003126B20124844EEFA3E
:10483300EFFB121731EEFAEFFB120F33024557A3CA
:10484300A3123C8B22C082C083901C3880048882D0
:1048530089831246A7600A888289831234F44D70D3
:10486300ED8A828B83E4F0A3F0E8496006888289AD
:10487300838003901C38124888023922EE241AF5EB
:1048830082E43FF583EAF0A3EBF022125247EA4BAE
:104893002274F712037A901C3880048A828B831265
:1048A300488E602778008001081248D550EDE875DE
:1048B300F006A4FCADF0EA2CFCEB3DFDEC2413F573
:1048C30082E43DF583E06970DF80047A007B0002B7
:1048D3004557124959FCE8C39C2274F712037AE93D
:1048E300FE7D0080010D124954EDC3985023ED75F0
:1048F300F006A4F8AFF0EFF912494A70E8ED75F04D
:1049030006A4F812498B4CF0E8240FFAE439FB8033
:10491300047A007B0002455774F612037AE9FEEA33
:10492300FF1215C9EA4B601C7C008010EC75F00681
:10493300A4F8A9F012494A7002EFF00C124954ECA2
:10494300C39840E8022FCC12498324131249946E72
:1049530022124959F822EA240B12496022F582E413
:104963003BF583E022E875F006A4FCADF0EA2CFCED
:10497300EB3DFDEC2414F582E43DF583E022EFF9F1
:10498300EA28F8EB39F9E8221249812414124994F0
:1049930022F582E439F583E02274F612037A1216C3
:1049A300D77A008016EA75F006A4F8A9F0125D63C1
:1049B300E4125E66F0A312644CF00A90252F12589D
:1049C3008D40E27A00801C8A087509007403780818
:1049D300120978124A34A374FEF0A304125C23A3D1
:1049E300E4F00A90254312588D40DC7900801A893F
:1049F3000875090074037808120978749A126D1EF9
:104A0300740D126B1B1229FE099025321264454066
:104A1300DE902538E493901C3CF09081FA12065CFA
:104A23007A107B00901CECE0F9120FF37404022F50
:104A3300C9745A2508F8740D3509F98882898322C7
:104A430074F012037A74F51208D48A088B09890A60
:104A53008C0BE9A2E050147508FC7509FFA2E15024
:104A630005D2E4024B04D2E3024B041216BF8A0CB4
:104A73008B0DA80CA90D901C92E0687003A3E0694C
:104A8300600EAC0A7902AA08AB091216B9E97005DF
:104A93007900024BD4E50AF50C780C1207FC790275
:104AA3007CFE7DFFAA08AB09121635740112080BB0
:104AB300E96003024BD2E50AC2E5F50AA2E64043E8
:104AC300740312089EAA08AB09121431E9702E125E
:104AD3005226121B638A0C8B0DAE0CAF0DEE4F608A
:104AE30022EE2402FAE43FFB12142BE96015EE24B4
:104AF30002FCE43FFD7403120896121023E50AD268
:104B0300E5F50A901C3BE0F50C901C92124D9D7844
:104B13000E1207F87D017C00901C3BE0F9AA0EAB56
:104B23000F121677740212080BE9F8901C3BE0048D
:104B3300F0E86003024BD2E50AA2E55004740E804C
:104B4300027406C0E07401120AEED0E0124BF812B0
:104B53001A7F8A0E8B0FAE0EAF0FEE4F606D125C95
:104B630007F0121A1312487F124BFE7401F0747887
:104B7300550AA3125D05A3E50C125D05A3A3E50881
:104B8300F0E509124BD9E4F0E50AA2E5500F7403EE
:104B930012089EE82406FAE439FB1210238E828F52
:104BA30083A3A374FDF0A374FFF0E50B60129025BB
:104BB3002BE493F8E50BC3985006124165E50BF01F
:104BC300EEFAEFFB1214E5E9F98006791080027919
:104BD300C7740B0234EC88828983A3A3A3A3124B6B
:104BE300E522124BE922F088828983A3A3A3A3A31E
:104BF30022E8F0A3E9F0AA18AB1922EE12675B3F93
:104C0300124C0722F583125936F98882898322745C
:104C1300F412037A7A007B10901CECE0F9120FFF78
:104C2300EA4B4C4D6008901CFE7401F08043901CCD
:104C33000EE06401901E977006E0FC79018004E0A9
:104C4300FC79037A007B001215E1902527E493F5A4
:104C530008740193F509E4F50AF50B78081207F0D7
:104C63007A007B10901CECE0F9120FED740412082B
:104C73000B02377074F012037AEAFEEBFF8C0A8D95
:104C83000B890C121A97E960057AFF024D6D901E8D
:104C930096E064026003024D93902534E493F9EEA9
:104CA300FAEFFB1216E9E96003024D8D7900EEFA83
:104CB300EFFB1216BFA90C1216B38A088B09EA453B
:104CC300097003024D938A828B83A3A3A3A3A31228
:104CD3006368707E125948850882850983A3A3A35C
:104CE300A3A3A3E05418604F902529E49385088279
:104CF300850983A3A3A3A3F07410120AEE1260051F
:104D03007412120AEE124D9DEA650A7003EB650BED
:104D13006012EA6C7002EB6D600AEA650E7003EBD9
:104D2300650F7022780E1207F8AA0AAB0B121B9FAD
:104D3300740212080B800F901C91E085088285098C
:104D430083A3A3A3A3F074FE6A700374FF6B601EB6
:104D53008045A3A3A3E0640360248A828B83A3A377
:104D6300A3A3A3E0640470067AFE7BFF8029850871
:104D730082850983A3A3A3A3A3E064026012790736
:104D8300EEFAEFFB1216E9E96006EEFAEFFB800795
:104D9300EEFAEFFB1215F30234EFE0F50EA3E0F5A4
:104DA3000F2274F712037AEAFEEBFF12147FE97005
:104DB3000AEEFAEFFB12148BE96006EEFAEFFB80C2
:104DC300047AFE7BFF02455774EE12037AEAFEEB88
:104DD300FF8C0C8D0D890E750800121A97E9790066
:104DE3006003024F10EEFAEFFB1216BFA90E121664
:104DF300B38A0A8B0BEA450B607D8A828B83A3A35C
:104E0300A3A3A3E0640360238A828B83A3A3A3A346
:104E1300A3E064016003024F0E79078A828B831239
:104E230059461216E9E96003024F0E750902850A15
:104E330082850B83A3A3A3A3A3A3E0541860030257
:104E43004EC57900AA0CAB0D1216BF8A0A8B0BA8AC
:104E53000AA90B901C92E0687003A3E06960030247
:104E63004EF290252AE493FCA90EEEFAEFFB1215FD
:104E7300E1750801024F0EEEFAEFFB1215F312145F
:104E8300918A0A8B0BA80AA90BE849607E8882895C
:104E930083A3A3A3A3A3E0A2E05070750901A2E139
:104EA30050127901EEFCEFFDAA0CAB0D121611E9BD
:104EB3007090805788828983A3A3A3A3A3D2E1F030
:104EC3008080750801850A82850B83A3A31206607F
:104ED300750AFE750BFF780A1207F87900EEFCEFEE
:104EE300FDAA0CAB0D1216CB740412080B801CA97F
:104EF30009EEFCEFFDAA0CAB0D121611E9700C754F
:104F03000801A90EEEFAEFFB12166BA90802615510
:104F130074E912037A74F01208D48A0C8B0D8C088E
:104F23008D09750B06125226121B8D8A108B11EAFE
:104F33004511600B8A828B83A3E070030250BAE5AC
:104F43000C241DF50EE4350DF50F850E8212542544
:104F5300F51688828983A3A3A3E0FA88828983A3B1
:104F6300A3A3A3E0F8E4C8F9EA28FEE439FFAA08FA
:104F7300AB09121671E9F9850E82850F8312522D42
:104F8300E029F50EE50AA2E55003750B0E7487556B
:104F93000A700F7418550A6418600712540A650BD7
:104FA300600A7AD37B0012117F0250BA530A7878D1
:104FB300081207F87D00AC0EA91612523C121677A0
:104FC300740212080BE9F874036870030250BA7490
:104FD30027120AEEE0F512A3E0F513E8600302508E
:104FE300AB7418550A70030250BFE50AD2E0F50A04
:104FF300A2E45004D2E1F50AA90A12523C1216B3F4
:105003008A148B15A814A915E849605788828983E7
:10501300A3A3A3A3A3A3E05418604888828983A30E
:10502300A3A3A3A3E06401703AE510451160341211
:10503300600288828983125946121B8D8A148B154C
:10504300A814A915E849601B88828983A3E060132B
:10505300851082851183A3E0FA88828983A3E0C344
:105063009A4054E50AF50B780B1207FC12523612DC
:105073001635740112080BE9702E7C007D00851231
:105083008285138374FFF0A3125D13A3A3A3A3A3C9
:10509300A3A3A3E0600AE50C2415125212126005C3
:1050A300A90E12523C122061851282851383E0F40B
:1050B3007003A3E0F460487900025204901C8BE073
:1050C3006014E50AF50B780B1207FC125236121620
:1050D30035740112080BE50AF50B780B1207FC79FE
:1050E300027CFE7DFFEEFAEFFB1216357401120807
:1050F3000BE970B485128285138374FFF0A3F078F3
:10510300081207F87D01AC0EA91612523C1216774D
:10511300740212080BA90AEEFAEFFB1216BF8A08F3
:105123008B09A808A909901C92E0687003A3E069A1
:1051330060030251F8EEFAEFFB1214918A088B090F
:10514300A808A909E849602788828983A3A3A3A3A0
:10515300E06401600D88828983A3A3A3A3E06402B2
:10516300700DAC18AD19EEFAEFFB12143180121268
:105173001A138A088B09AC08AD09AA18AB191210C7
:1051830023850C82850D83A3A3A3A3A3A3A3A3E0D9
:1051930064017012E50C2415125212126005740892
:1051A300120896121023E50C241DF582E4350D1226
:1051B300521AE04430F50878081207FC740112080B
:1051C3008E8808890978081207F8740B12088E88EC
:1051D30008890978081207F8E516F5087808120710
:1051E300FC7900EEFCEFFD12523C12160B74061212
:1051F300080B0250BA12520E12522DE50EF0121A7B
:105203002B741012080B7F0F020591E50C241DF57A
:1052130082E4350DF58322F583E0F8A3E0F5838876
:1052230082A322901C9F12544122126B32A3A3A388
:10523300A3A3227901AC08AD09126759350D1252A7
:105243004522F583E0FAA3E0FB2274EC12037A749F
:10525300F01208D48A0C8B0DECFAEDFB750F0812D3
:105263006002121B8D8A088B09AC08AD09EC4D60F6
:105273001F8C828D83A3E07017125C185001097A8A
:10528300027B0012022AE88C828D83F0A37407F05C
:10529300E50C241DF582E4350D125425F50E8882A4
:1052A3008983125417E0FAE4CAFBEC2AFEE43BFFBD
:1052B30088828983A3A3125417A3A3E0FBECF50808
:1052C300E43BF50988828983A3A3A3A3A3A3A3E053
:1052D300F50BE50AA2E45003750F10A2E55006741E
:1052E30008250FF50F748F550A700712540A650FBE
:1052F300600A7AD37B0012117F025405530A707837
:1053030000E50AA2E4501C12520EE02408FCA3E0BC
:105313003400FD74081208961210237808E50AC2B7
:10532300E4F50AE50AA2E5501F12520EE028F8A39D
:10533300E03400F9E82408FCE439FDAA18AB19129B
:105343001023E50AC2E5F50AA90EEEFAEFFB1216E1
:10535300ADE9F51090254312644550298912751360
:105363000074037812120978745F2512F582740DA4
:105373003513F583E0F8E50BC3985007E50BF07898
:10538300008004807D7804901C92E06E7003A3E09B
:105393006F605FE87019E50AF50F780F1207FC12CA
:1053A3005434121635740112080BE97055800574D4
:1053B3000468704E780A1207FC740112088E880C78
:1053C300890D780C1207F8740B12088E880C890D5E
:1053D300780C1207F8E50EF50A780A1207FCA90BF8
:1053E300AC08AD09EEFAEFFB12160B740612080BAC
:1053F3008010780A1207FC12543412163574011205
:10540300080B7410023A91E50C2417F582E4350D6C
:10541300F583E022A3A3A3E0FC88828983A3A3A34B
:10542300A322124C07A3E0F50A88828983A3A3E091
:10543300227901126759350DF58312544122E0FC9C
:10544300A3E0FDAA08AB092274EB12037A74F512E8
:1054530008D4EAFEEBFF8C088D0989147420120A24
:10546300EEE0F511F91216ADE9F50A902543126441
:1054730045501B750B007403780A120978745D2577
:105483000AF582740D350BF583124D9D8006750E5A
:10549300FE750FFF7401120AEE7408F07425120AE8
:1054A300EEE0F510A2E450087401120AEE7410F055
:1054B300E510A2E550097401120AEEE02408F0AAEF
:1054C30018AB19121A7F8A0C8B0DEA450D70030273
:1054D30055EDEA24171255FB121A13E50C241AF59D
:1054E30082E4350D1248867421120AEEE0F512A308
:1054F300E0F513740312089EAA0EAB0F121431E9E0
:1055030060151255F7740312088EE50C2418125215
:1055130012E8F0A3E98020E510A2E4501BE50E6E2B
:105523007003E50F6F70111255F7E50C2418125232
:1055330012E512F0A3E513F0E50C12561212521500
:105543001234F9850A82F5837402F0A3E51012562A
:1055530006E511F0EE850A82850B83A3A3A3F0EF82
:10556300850A82850B83A3A3A3A3125606A3A3A331
:10557300E508F0E509850A82850B83A3A3A3A3A30A
:10558300A3F0AA0EAB0F121671E92514850A8285C2
:105593000B83A3A3A3A3A3A3A3F07800E510A2E422
:1055A3005012AC12AD13E50A2408FAE4350BFB12D2
:1055B30010237808E510A2E5501A7423120AEE129C
:1055C3006005E50A28F8E4350BF9E82408FAE4391C
:1055D300FB121023850C82850D83A3A3E50EF0A394
:1055E300E50FF0AA0CAB0D1214E5740B12080B7F38
:1055F3000D020591E50C2416F582E4350DF583744F
:1056030001F022F0850A82850B83A3A322E5081209
:10561300675B2274F412037A8A088B09ECFEEDFFB0
:10562300750B01901C92E065087004A3E0650960A6
:1056330013750B00780B1207FC121AD974011208A8
:105643000BE9F50B7900AA08AB091216BF8A088B80
:1056530009A808A909901C92E0687003A3E0697087
:10566300467900EEFAEFFB1216B3EA4B60308A82FA
:105673008B83A3A3A3A3A3A3E0541860217508FEFF
:105683007509FF78081207F88A828B83A3A3120691
:1056930060126F7D1216CB740412080B8009790116
:1056A300EEFAEFFB121587A90B02377074F212039F
:1056B3007A7EE27F0B7A107B00901CECE0F9120FEC
:1056C300FFEA4B4C4D70179081FA12065C7A107BFF
:1056D30000901CECE0F9120FF3740412080B901CF9
:1056E3003CE014F06003025791902538E493901C3A
:1056F3003CF07C0079057A007B0012199B8A088BA9
:10570300090257887C007905AA08AB0912199B8AFC
:105713000A8B0B850882850983A3A3A3A31246A73B
:10572300605DE5082404F8E4124A3BE024FFF0A39B
:10573300E034FF12644C1246A77044850882850941
:1057430083A3A3A3A3A3A3E05404601385088285C2
:105753000983A3A3A3A3A3A3A3A3E0F912169B8581
:105763000882850983A3A3A3A3A3A3A3A3A3740666
:10577300F07AF08508828509831264D21218ED85C8
:105783000A08850B09E508450960030257077508F0
:105793000080668E828F83A3A3A3A3E06052F4608C
:1057A3004FEE240412589470478E828F83A3A3A3D1
:1057B300A3A3E06403701379028E828F83126005C2
:1057C3008E828F831259461216118E828F83A3A362
:1057D300A3A3A3E0640160188E828F8374FEF0A3F9
:1057E3000412312514F0A3041265D8E41238B9F079
:1057F3000508EE2407FE50010F90252E12350140B7
:10580300927E00803D1219BF8E08750900740378DB
:1058130008120978745A2508FC740D3509FD7A1DA0
:105823007B161219ADEA4B70DC8E08750900740300
:105833007808120978124A341229FD88828983E490
:10584300F00E902543126CB150258E087509007433
:10585300037808120978745A2508F8740D3509F984
:10586300E82407F582E412699914F070D480997AD8
:10587300008009EA12589E600214F00A90252F1244
:10588300588D40EF02476D902532E493F8EAC398B0
:1058930022F582E43FF583E014F02275F006A4F8C4
:1058A300A9F074FA28F582740C1249972274F7123E
:1058B300037A74DA1208D4ECFEEDFF750800EE4F9C
:1058C300606A8A828B83125936C8241FF582E438B2
:1058D3001246A560578A828B83125948AC18AD19BA
:1058E300EA241E124960F9EA241F1225941219FBB7
:1058F300740B120AEE1259507003A3E069702D74F1
:1059030002120AEEE064017023741D120AEE1259AA
:105913004CE064017016741D120AEE12521EA3E0CD
:10592300F88E828F83E0687003750801A9087426D6
:10593300024554E0F8A3E0228E828F83A3A3A3A39E
:10594300A3A3A3A3A312524722126B3222125956C6
:10595300E0682212595A22E0F8A3E0F98E828F837D
:10596300A32274F412037AE9701E79001216298AAD
:105973000A8B0BAE0AAF0B74FE6E700374FF6F706D
:1059830014902530E493600D79011216298A0A8B4D
:105993000BAE0AAF0B121A4902376074F612037A80
:1059A30074F31208D4120E978A088B09AE08AF0954
:1059B300901C92E06E7003A3E06F60E9121A1FEA75
:1059C3006E7002EB6F60DEEEFAEFFB121A97E9706E
:1059D300D4EE4F60D0851882851983E4F004120A4F
:1059E300EEEEF0A3EF124BF8121449E970B774FE10
:1059F3006E700374FF6F60ADEEFAEFFB740D022F50
:105A0300C9C082C083121A4902392274F212037A7E
:105A1300EAFEEBFF8C0A8D0B890874FC6E7003742D
:105A2300FF6F7003025BF879001216BF8A0C8B0DAF
:105A3300AE0CAF0D740E120AEEE0F509901C92E065
:105A43006E7003A3E06F7009E509A2E64003025BF1
:105A5300F8A9091216B38A0C8B0DA80CA90DE849F5
:105A6300704579007AFE7BFF1216B38A0C8B0DA862
:105A73000CA90DE8497030741855097003025B28AE
:105A83007A0080010A90252E12588D4003025B286C
:105A9300EA75F007A4F8A9F0126DC6541870E574FE
:105AA300E228F8740B39F988828983EEF0A3EFF0CA
:105AB30074FE650A700474FF650B600D8882898328
:105AC300A3A3E50AF0A3E50BF088828983A3A3A32C
:105AD300A3A3A3E509F0A2E0500D88828983A3A3C1
:105AE300A3A3A3A3D2E2F07401650888828983A3E8
:105AF300A3A3A3A3703A7401125C23E05418602A91
:105B0300902529E49388828983A3A3A3A312600128
:105B1300AA0AAB0B121B8D8B0DEA450D6003025BCA
:105B2300F87A0080367902025BFA901C91E080D506
:105B3300E064017003025BF888828983A3A3A3A3B3
