:020000040000FA
:06000000020A450201C3E3
:03002B0002083593
:03004300020703AE
:030053000200F8B0
:100083000201570101243412010000044981035184
:10009300810020FD00020612FFFF0101010400FCA4
:1000A30012000000E8030000FFFFA313E8030000B1
:1000B30064006400B801A0BB0D00A0BB0D000202E8
:1000C3000008000005020701051E02051E0A0803B9
:1000D300B80B020102E8030A050001FFFF02050352
:1000E3000101FF1A1E00000000EE1C00000000FFCB
:1000F300000000FF00C0E074F11203DAA2AFE433A2
:10010300F509D2AF85A708AFA1EF5508FE74105EBD
:100113006006120BCD75A1EF74085E6008120BD355
:1001230075A1F78024EFA2E092F0E508A2E082F047
:100133005017906198E0F890078CE0C398A2D265BD
:10014300D0335002E8F075A1FEE509A2E092AF7F3B
:1001530002020439C0E074F21203DAA2AFE433FE00
:10016300D2AF9061A4E0F8759B00E5915854086004
:10017300087591F7120C1B8023E591585410600801
:100183007591EF120C218014E591A2E092F0E8A2A0
:10019300E082F05007E0C2E0F0120D779061A3E037
:1001A300F8E5E9585404600E120D4D75E9FB9061B2
:1001B30093E0A2E640F2EEA2E092AF7F010204399F
:1001C300C0E074F21203DAA2AFE433FED2AF90615F
:1001D300A5E0F8E5BF585404600675BFFB120D8F08
:1001E30080D4C3E498F8E499F91202268026C3E484
:1001F3009AFAE49BFBE920E7E9120226E498F8E483
:1002030099F922C3E498F8E499F9120226E498F8DC
:10021300E499F9C3E49AFAE49BFB22EB20E7CFE9E4
:1002230020E7E0B90010BB0008E88AF084F8AAF0E0
:1002330022E4FBC8FA22EB70227B10C833C8C9330F
:10024300C9335007C39AC3DBF280069A50012ADBF5
:10025300EAC833F4C8C933F4C9FA2275F008E4C80C
:1002630033C8C933C933C99AC99B5004C92AC93B86
:10027300D5F0ECFBC833F4C8E4C9FA22080808EA4D
:10028300C0E0EBC0E086F0E7A4FA180986F0E7A423
:100293002AFA180986F0E7A42AFA180986F0E7A4CF
:1002A3002AFA1986F0E7A4FBE5F02AFA190886F082
:1002B300E7A42BFBE5F03AFA190886F0E7A42BFB39
:1002C300E5F03AFA18180986F0E7A4C5F02BFBE429
:1002D3003AFA1908E7C5F0C6A426F6E5F03BFBE4B5
:1002E3003AFA1886F0E7A4F6E5F00826F6E43B08A8
:1002F300F6E43A08F6D0E0FBD0E0FA22E4CFC0E01F
:10030300E4CEC0E0E4CDC0E0E4CCC0E075F020E68C
:1003130026F608E633F608E633F608E633F6181849
:1003230018EC33FCED33FDEE33FEEF33FFC3EC97F4
:1003330009ED9709EE9709EF97191919400FFFEC8B
:1003430097FC09ED97FD09EE97FE191906D5F0BF45
:10035300ECF709EDF709EEF709EFF7191919D0E0F2
:10036300FCD0E0FDD0E0FED0E0FF222518C582C01E
:10037300E0E51934FFC583C0E0E518C3958224F88E
:1003830010AF0885831985821880088583198582B3
:1003930018D2AFCEF0A3E520F0A37808E608F0A3C7
:1003A300DEFAEFF0A3E58124FAF8E608F0A3E60805
:1003B300F0A3E608F0A30808E608F0A3E608F0A314
:1003C30015811581D0E0FED0E0F8158115811581E6
:1003D300E8C0E0EEC0E022C0D02518C582C0E0E549
:1003E3001934FFC583C0E0E518C3958224F310AF29
:1003F300088583198582188008858319858218D218
:10040300AFC8F0A3E9F0A3EAF0A3EBF0A37908E700
:1004130009F0A3D8FAECF0A3EDF0A3EEF0A3EFF00C
:10042300A3D0E0F0A3D0E0F0A3D0E0F0A3E520F068
:10043300A3E5F0F0A322851983851882E0C0E0A329
:10044300E0F9A3E0FAA3E0FBA37808E0F608A3DF52
:10045300FAE0FCA3E0FDA3E0FEA3E0FFA3E0C0E01D
:10046300A3E0C0E0A3E0F5D0A3E0F520A3E0A3F56B
:10047300F010AF0885831985821880088583198554
:100483008218D2AFD082D083D0E0F8D0E032120A03
:10049300BFB900030204D0E490030178F479138018
:1004A30002F0A3D8FCD9FA7AF47B1590008678730E
:1004B30079018015E493A3AD82AE838A828B83F0A6
:1004C300A3AA82AB838D828E83D8E9D9E77582CFC5
:1004D30075839B74031207C675823575831C74007C
:1004E3001207C6E47375F0108E1A8F1B85821F8561
:1004F300831E851882851983E0CEA3E0CF851F82F2
:10050300851E83EBC9EAC8EDCBECCAC3E833C8E95F
:1005130033C9EA33CAEB33CBC3EA9EF51DEB9FF530
:100523001CB35004AB1CAA1DEC33CCED33CDD5F07A
:10053300DAAE1AAF1B22D083D082ECC0E0EDC0E06C
:10054300E493A3FCE493A3FDED4C600D120611ECC0
:1005530024FFFCED34FFFD80EFE493A3FCE493A3BD
:10056300FDED4C600D1206AEEC24FFFCED34FFFDF7
:1005730080EFD0E0FDD0E0FCE493A3C0E0E493C0BF
:10058300E022851983851882E0A3FEE0A3F5207895
:1005930008E0A3F608DFFAE0A3FFE0A3C0E0E0A3CE
:1005A300C0E0E0A3C0E0E0A3C0E0E0A3C0E010AF80
:1005B300088582188583198008858218858319D256
:1005C300AFD083D0820207CCD083D082E9C0E0E4ED
:1005D30093A3C386F0C5F095F0F908E493A386F0DE
:1005E300C5F095F0700BE493A3C3994005E904802B
:1005F30002A3E475F002A42582F582E5F03583F5C4
:1006030083D0E0F9E493A3C0E0E493C0E022C0E028
:10061300C3E49396087401939618400FE4936670AD
:100623000808740193661870007019A3A3C3E493B8
:1006330096087401939618A3A3400DD0E0D0E0D0A0
:10064300E0020575A3A3A3A3A3A3D0E022740480AF
:100653000474028000CCC0E0EDC0E0E518C39CCC7C
:10066300AD1950011D10AF068C188D1980068C181A
:100673008D19D2AF120748D0E0FDD0E0FC227402FE
:100683008000CCC0E0EDC0E0E518C39CCCAD1950B0
:10069300011D10AF068C188D1980068C188D19D288
:1006A300AF120726D0E0FDD0E0FC22C0E0C0F08806
:1006B300F0E4936670080874019366187000A8F05C
:1006C300A3A3700BD0F0D0E0D0E0D0E0020575A377
:1006D300A3D0F0D0E022D083D082CCC0E0E493A3B7
:1006E30060061207A71470FAE493A360061208B217
:1006F3001470FAD0E0FCE493A3C0E0E493C0E022DA
:10070300C0E074F21203DAA2AFE433FED2AFC2C088
:10071300E5D1A2E45003120B43EEA2E092AF7F01B6
:10072300020439CAC0E0E493A3C582CCC582C58361
:10073300CDC583F0A3C582CCC582C583CDC583DA7D
:10074300E5D0E0CA22CAC0E0E0A3C582CCC582C519
:1007530083CDC583F0A3C582CCC582C583CDC583B4
:10076300DAE6D0E0CA22C008C3E096F50808A3E0A1
:1007730096420808A3E096420808A3E0964508704D
:1007830001D3D00822700908080822601618181827
:10079300C6C333C608C633C608C633C608C633C67F
:1007A300D5E0EA22C0E0E493A3D39C5010E493A3E2
:1007B300C39C400AD0E0D0E0D0E00206F6A3A3A396
:1007C300D0E022C09FF59FE473D09F22D083D082D4
:1007D300C09FE493C0E0740193C0E0740293F59F5B
:1007E300227404800A74038006740280027401C0B8
:1007F300E0F40412081AD0E0120A822200C0D025C5
:100803001810AF08F518500C05198008F518500298
:100813000519D2AFD0D0222518F58210AF08F518EC
:10082300400C15198008F51840021519D2AF851927
:100833008322C0E0C0D0E8C0E0A8A8D2AFC2C7E816
:10084300A2E792AFD0E0F8D0D0D0E032BB0102E70C
:1008530022C082C08389828A83BB0003E08002E4D2
:1008630093D083D082226016080808C6C313C61823
:10087300C613C618C613C618C613C6D5E0EA222582
:1008830018F8E43519F9222518FAE43519FB22255D
:1008930018FCE43519FD22C3E0C696F608A3E0C6AA
:1008A30096F608A3E0C696F608A3E0C696F622C01D
:1008B300E0E493A36C7009D0E0D0E0D0E00206F648
:1008C300A3A3D0E022251810AF08F518400C151982
:1008D3008008F51840021519D2AF22E0667010089F
:1008E300A3E066700A08A3E066700408A3E066222A
:1008F300C3E09608A3E09608A3E09608A3E096A2B7
:10090300D265D03322E76670100809E766700A08DB
:1009130009E76670040809E76622C3E096F008A3B6
:10092300E096F008A3E096F008A3E096F022C3E671
:1009330097F60809E697F60809E697F60809E69791
:10094300F622C3E49396087401939608740293966F
:10095300087403939622E627F60809E637F6080992
:10096300E637F60809E637F622700422600D18C64A
:10097300C333C608C633C6D5E0F41822E493F60899
:10098300740193F608740293F608740393F622E64F
:1009930057F60809E657F60809E657F60809E65731
:1009A300F622E056F608A3E056F608A3E056F6084A
:1009B300A3E056F622E056F008A3E056F008A3E0C1
:1009C30056F008A3E056F022E026F608A3E036F638
:1009D30008A3E036F608A3E036F622E647F6080950
:1009E300E647F60809E647F60809E647F622E02651
:1009F300F008A3E036F008A3E036F008A3E036F0F1
:100A030022E4C396F608E496F608E496F608E4961C
:100A1300F622C6F4C608C6F4C608C6F4C608C6F469
:100A2300C622C3E7960809E7960809E7960809E787
:100A33009622C3E09608A3E09608A3E09608A3E0F5
:100A4300962275D00075813F751801751903000250
:100A53000491E6F008A3E6F008A3E6F008A3E6F0A5
:100A630022600C08C6C313C618C613C6D5E0F42209
:100A7300E0F608A3E0F608A3E0F608A3E0F622CA2E
:100A8300C0E0E6F0A308DAFAD0E0FA22E8F0A3E93E
:100A9300F0A3EAF0A3EBF022E0F8A3E0F9A3E0FA75
:100AA300A3E0FB22EAF0A3EBF0A3ECF0A3EDF0222A
:100AB300E0FAA3E0FBA3E0FCA3E0FD22E5C754F8C2
:100AC3004401F5C77901222518F582E43519F58328
:100AD30022C2AF75D69F020000221207CF00A903DE
:100AE3001207CFFB7F001207CF19AF031207CF1CEA
:100AF300AF031207CF1FAF031207CF22AF031207B3
:100B0300CF41FC021207CF4FFC021207CFC8FC02F1
:100B13001207CF9CFD021207CF6EFF021207CFC24E
:100B2300FF011207CFCFF2021207CF3BF3021207E6
:100B3300CFF3F3021207CFDFF4021207CF4FF6020F
:100B43001207CFB6F6021207CF02F7021207CF132E
:100B5300F7021207CF23F7021207CF96F702120705
:100B6300CFACF7021207CFC7ED021207CFF3ED02A6
:100B73001207CF64F0021207CFA4F0021207CFE4EA
:100B8300F0021207CFF8F0021207CF11F102120799
:100B9300CF02F2021207CFA7F2021207CFBBF20273
:100BA3001207CF70A4031207CF94A4031207CFAD8B
:100BB300A4031207CFDFA4031207CF0FA503120765
:100BC300CF3CA5031207CF9EA5031207CFADA50304
:100BD3001207CFB7A5031207CFC4A5031207CF3956
:100BE30099031207CF5999031207CF989903120754
:100BF300CFB399031207CFD299031207CF389A03C1
:100C03001207CF419A031207CF9E9A031207CFC24E
:100C13009A031207CF839B031207CF909B031207FC
:100C2300CFA19B031207CF8AAC031207CFA2AC0359
:100C33001207CFCEAC031207CFF8F7021207CF4C3F
:100C4300F9021207CF5AF9021207CF6DF902120700
:100C5300CF82F9021207CF97F9021207CFAAF9023E
:100C63001207CF1EFA021207CF83FA021207CF250B
:100C7300FB021207CFE9FB021207CFF9FB021207AF
:100C8300CF08FC021207CFD0AA031207CFF4AA039E
:100C93001207CF1CAB031207CF44AB031207CF9944
:100CA300A0031207CFC0A0031207CFDEA0031207D1
:100CB300CF51A1031207CF2593031207CF3E93030E
:100CC3001207CF4A93031207CF5E93031207CF7C19
:100CD30093031207CF8693031207CF909303120750
:100CE300CFA393031207CF2D94031207CFA294032C
:100CF3001207CFD694031207CF2495031207CF719F
:100D030095031207CF8C95031207CF96950312070D
:100D1300CFBC95031207CF2196031207CF19AA035D
:100D23001207CF3BAA031207CFD4AE031207CF4457
:100D3300DD021207CF6EDD021207CF8BDD02120731
:100D4300CF9EDD021207CFB4DD021207CF12DE02FF
:100D53001207CF4ADE021207CF42E2021207CF8701
:100D6300E3021207CFBAE3021207CF1DE402120710
:100D7300CFA0E5021207CFC8E5021207CFDDE502D7
:100D83001207CFEDE5021207CF31E6021207CF8C2F
:100D9300E6021207CF9CE6021207CFCB7E001207B2
:100DA300CFE57E001207CF0D7F001207CF267F000D
:100DB3001207CF4A7F001207CF687F001207CF7F49
:100DC3007F001207CFAD7F001207CFC87F00120745
:100DD300CF49AE031207CF608C031207CF708C0389
:100DE3001207CF778D031207CFAB8D031207CFCD39
:100DF3008D031207CFF08D031207CF0E8E03120758
:100E0300CF488E031207CFAD8E031207CFEF8E03A9
:100E13001207CF2E8F031207CF5F8F031207CF96D0
:100E23008F031207CFBCA2031207CFCEA203120770
:100E3300CFB3A3031207CF40A4031207CF69AB03B9
:100E43001207CFA6AB031207CFE8AB031207CFF805
:100E5300AB031207CFCCE6021207CFD6E602120786
:100E6300CF10E7021207CF79E7021207CF96E70206
:100E73001207CF38E8021207CF41E8021207CF86E4
:100E8300E8021207CFAFE8021207CFBCE80212074D
:100E9300CF2DE9021207CFB8E9021207CF06EA0203
:100EA3001207CF44EA021207CFA9EA021207CFCCF6
:100EB300EA021207CF43EB021207CF9AEB021207A3
:100EC300CFD5EB021207CF0AEC021207CF1CEC02BC
:100ED3001207CF2EEC021207CF4DEC021207CF56AA
:100EE300EC021207CF11ED021207CF5DED021207DC
:100EF300CF9BED021207CFCEA5031207CF639E034C
:100F03001207CF999E031207CFE19E031207CF3A30
:100F1300A0031207CF0CEC011207CF30ED0112072B
:100F2300CF6AED011207CF14EF011207CF3EEF0195
:100F33001207CFB3F1011207CFF3F1011207CF89E3
:100F4300F3011207CF26F4011207CF78F401120739
:100F5300CF1BF5011207CF53F5011207CF95F5010A
:100F63001207CF04F7011207CF52F8011207CF83FC
:100F7300FA011207CFB1FA011207CFD8FA0112070B
:100F8300CFE1FA011207CF31FB011207CFC3FB01F7
:100F93001207CFF2FE011207CF75FF011207CFEE42
:100FA300AE031207CF03AE031207CF5C8803120709
:100FB300CF7288031207CF1689031207CF5589030F
:100FC3001207CF7289031207CFA389031207CFF049
:100FD30089031207CF238A031207CF5E8A031207FE
:100FE300CF538C031207CF19A9031207CF78A90394
:100FF3001207CFB6A9031207CFF7A9031207CF7FB2
:101003005F001207CFC45F001207CF4A60001207C8
:10101300CF4661001207CF8E61001207CF00620036
:101023001207CF5262001207CF8262001207CF125B
:1010330065001207CFA965001207CFD36500120719
:10104300CF0B66001207CF4468001207CF8A6800EF
:101053001207CFD468001207CFA869001207CFD4B4
:1010630069001207CFF769001207CF3E6A00120723
:10107300CF5E6A001207CFEE6A001207CF736B00D0
:101083001207CFCD6B001207CF086C001207CF1EDB
:101093006D001207CF906F001207CFD570001207B3
:1010A300CF1071001207CFDD71001207CF1D720040
:1010B3001207CF2072001207CF2A72001207CF2D1A
:1010C30072001207CFAE72001207CFD77200120759
:1010D300CF0373001207CF2A73001207CF4E73009A
:1010E3001207CFE573001207CFF373001207CF2067
:1010F30074001207CF4074001207CF8374001207E5
:10110300CFBA74001207CFB675001207CFE076008E
:101113001207CF0FAD031207CF1BAD031207CF5733
:10112300AD031207CF0EA7031207CFFAA1021207CE
:10113300CF1DA2021207CF01A3021207CF4AA302B7
:101143001207CFA2A3021207CFFEA3021207CF4AB0
:10115300A4021207CFC0A4021207CF4EA5021207A2
:10116300CFC6A5021207CF09A6021207CF1AAA02F9
:101173001207CF61AC021207CF8EAD021207CF2444
:10118300AE021207CF85BC021207CF25BD0212079C
:10119300CF8FBD021207CF36BE021207CF9ABE020F
:1011A3001207CFCDBF021207CFF3C0021207CF6CD5
:1011B300C1021207CF44C3021207CFECC3021207C6
:1011C300CF1EC5021207CFC6C5021207CFDBC60268
:1011D3001207CF0077001207CF7677001207CFBE32
:1011E30077001207CF0078001207CF5D780012074F
:1011F300CFB078001207CF1E79001207CF5A7900BB
:101203001207CF8579001207CF9D79001207CFF718
:1012130079001207CFBA7A001207CFE87A001207D3
:10122300CF0A7B001207CF047C001207CFD77C00C4
:101233001207CF777D001207CFEB7D001207CF0097
:101243007E001207CF957E001207CFEE8F031207A1
:10125300CF9691031207CF5392031207CFA892039D
:101263001207CF2C96031207CF4796031207CF8B93
:1012730096031207CFB196031207CFD7960312072F
:10128300CFEF96031207CF5297031207CF67970347
:101293001207CF8998031207CF9298031207CF9BA7
:1012A30098031207CFA498031207CF0080031207F5
:1012B300CFE083031207CFE583031207CFE783034E
:1012C3001207CFF09C031207CFD3FF021207CFD22E
:1012D300BA021207CF0080021207CF57800212070B
:1012E300CFC380021207CF4F81021207CF058202BC
:1012F3001207CF4D82021207CF6682021207CF89EF
:1013030082021207CFC782021207CF168302120787
:10131300CF4183021207CF9F83021207CF46840275
:101323001207CFEE84021207CF6A85021207CF8F0E
:1013330086021207CF9AA8031207CF128702120759
:10134300CFAB87021207CF1588021207CF05890298
:101353001207CF2A89021207CF278A021207CF3436
:101363008A021207CF3D8A021207CF268C02120788
:10137300CF478D021207CFB88D021207CF928F028B
:101383001207CF5D93021207CF7193021207CF8129
:1013930093021207CF8B93021207CF949302120783
:1013A300CF9D93021207CFA793021207CFD69302C2
:1013B3001207CF0494021207CF0F94021207CF3300
:1013C30094021207CF5794021207CFC9940212074F
:1013D300CF1295021207CF2E95021207CF9F9502C7
:1013E3001207CFEB95021207CF3496021207CF7282
:1013F30096021207CFF396021207CFBE9802120786
:10140300CF5D99021207CF259A021207CFB09C0233
:101413001207CF059D021207CF2D9D021207CF6041
:101423009E021207CFA59E021207CFFA9E02120751
:10143300CFA89F021207CF4DA0021207CF82A002AE
:101443001207CF22A1021207CF9EA1021207CFCE0D
:1014530081011207CF0082011207CF3482011207E4
:10146300CFE883011207CFBC84011207CF1B85018C
:101473001207CF3186011207CF7D86011207CF1ADB
:1014830089011207CF8F8B011207CFDB8C01120763
:10149300CF738D011207CF7F8D011207CFC88D0146
:1014A3001207CFFB8D011207CF878E011207CF9949
:1014B3008F011207CFDA90011207CFD991011207DA
:1014C300CF0392011207CF6E92011207CFC7920189
:1014D3001207CF3A93011207CF7095011207CFF687
:1014E30096011207CFDF97011207CF2D990112073B
:1014F300CF659B011207CF5C9E011207CF6B9E0144
:101503001207CFFF9E011207CF429F011207CFB2EE
:101513009F011207CF29A2011207CF5BA301120774
:10152300CF2AA4011207CFACA4011207CFF8A80158
:101533001207CF27A9011207CF82A9011207CFB53E
:10154300A9011207CFD6A9011207CF26AA011207B4
:10155300CF76AB011207CFA0AB011207CFD2AB01FD
:101563001207CFDFAB011207CFE2AB011207CF1196
:10157300AC011207CF00AE011207CFC9AE011207AB
:10158300CF0AAF011207CF60B0011207CFEFB0014E
:101593001207CF09B1011207CF6DB1011207CF8E28
:1015A300B3011207CFEDB3011207CFC3B401120782
:1015B300CFD7B4011207CFEBB4011207CF18B5018F
:1015C3001207CF48B5011207CFECB6011207CFE9D6
:1015D300B7011207CF37B8011207CFC4B8011207FA
:1015E300CF0BB9011207CF78B9011207CFCDBA01DA
:1015F3001207CF76BB011207CF8EBB011207CF3183
:10160300BC011207CFADBE011207CF55C0011207AF
:10161300CF79C0011207CF1920001207CF4B20004A
:101623001207CFCB24001207CF1A25001207CF6071
:1016330025001207CF0326001207CF6826001207E2
:10164300CFAC26001207CF1328001207CF3F290083
:101653001207CF3C2D001207CFBB2D001207CFE19D
:101663002E001207CF442F001207CF90300012072D
:10167300CF2833001207CFB533001207CFBF330093
:101683001207CFE733001207CFAF34001207CF445E
:1016930035001207CF6D35001207CF9A35001207B8
:1016A300CFEF37001207CFBC38001207CFFB38004B
:1016B3001207CF7D39001207CF283A001207CF5AFD
:1016C3003A001207CFA53A001207CFDE3A001207FD
:1016D300CF2D3B001207CF893B001207CF0B3C00F5
:1016E3001207CF703C001207CFE83C001207CF91DE
:1016F3003E001207CF893F001207CFCA40001207EE
:10170300CF1E44001207CF7A46001207CF3347009B
:101713001207CF7B47001207CF5C49001207CF9710
:1017230049001207CFA049001207CFA949001207A9
:10173300CFB449001207CFD349001207CF864A001E
:101743001207CFE34A001207CFED4A001207CF4436
:101753004B001207CF0B4C001207CF354D00120779
:10176300CF604E001207CF564F001207CF6E4F00C7
:101773001207CFA24F001207CFC04F001207CF08A6
:1017830050001207CF4150001207CFF85000120744
:10179300CFB951001207CF2C52001207CFA8520025
:1017A3001207CF4453001207CF6A54001207CF2603
:1017B30055001207CFC655001207CFB356001207C4
:1017C300CF0B57001207CFD157001207CFF45700A2
:1017D3001207CF0959001207CF5459001207CFB08F
:1017E30059001207CF185A001207CF3C5A001207AC
:1017F300CF645A001207CFA95A001207CFCD5A005F
:101803001207CF515B001207CF3A5C001207CF7F5C
:101813005C001207CFA85C001207CF465D001207D9
:10182300CFB15D001207CFDD5D001207CFBE5E00B2
:101833001207CFC4D2021207CFFCD2021207CF1D68
:10184300D3021207CF5FD3021207CFC3D30212070B
:10185300CFCDD3021207CFDDD3021207CF14D402A8
:101863001207CFBDD7021207CF85D9021207CF695E
:10187300DB021207CF0BDC021207CF95DC02120743
:10188300CFE8C1011207CF4CC2011207CFAAC20190
:101893001207CFF5C2011207CF10C3011207CF37CA
:1018A300C3011207CF54C3011207CF60C30112074C
:1018B300CFF1C4011207CF0AC5011207CF86C501B4
:1018C3001207CF99C5011207CFA9C5011207CF4D42
:1018D300C6011207CFB9C7011207CFCCC80112073F
:1018E300CF6CC9011207CF76C9011207CFF5C90121
:1018F3001207CF06CA011207CF45CA011207CF73D9
:10190300CA011207CF40CB011207CF97CB011207B1
:10191300CFD0CB011207CF26CC011207CF44CC0185
:101923001207CF92CC011207CF5DCD011207CFABC7
:10193300CD011207CFF8CD011207CF7BCE011207DD
:10194300CFA5CE011207CFDBCE011207CFEACE011E
:101953001207CF49CF011207CFC1CF011207CF0220
:10196300D0011207CF52D0011207CF7DD001120749
:10197300CF97D0011207CFB1D0011207CF86D10183
:101983001207CF90D1011207CFCBD1011207CFDBC2
:10199300D1011207CFE4D1011207CF35D2011207CB
:1019A300CF49D2011207CF6BD3011207CF80D301E6
:1019B3001207CF13D4011207CF87D4011207CF2CFC
:1019C300D5011207CF37D5011207CF97D6011207DA
:1019D300CFB3D6011207CFFFD6011207CF6DD701C0
:1019E3001207CF9FD7011207CFB9D7011207CFFB39
:1019F300D7011207CF4EDA011207CFE6DA01120739
:101A0300CF5DDB011207CFBADD011207CFD2DD01B3
:101A13001207CFD5DD011207CFE1DD011207CFF5A4
:101A2300DD011207CFFDDD011207CF34DE011207FE
:101A3300CF28DF011207CFB2DF011207CF34E00155
:101A43001207CFB4E0011207CF8BE1011207CFAD2C
:101A5300E1011207CF46E2011207CFA3E201120709
:101A6300CFA6E2011207CF15E3011207CF61E4010C
:101A73001207CF74E5011207CFFFE5011207CF125A
:101A8300E7011207CFD7E7011207CF08E8011207D2
:101A9300CF2EE8011207CF37E8011207CF66E8011E
:101AA3001207CF16E9011207CFC6E9011207CF3992
:101AB300EA011207CFDCEA011207CF4FEB0112074D
:101AC300CF8EEB011207CFD7EB011207CF08BA0273
:101AD3001207CF77B8021207CF40B8021207CF120E
:101AE300B8021207CFC6B7021207CF2FB7021207E9
:101AF300CF9FB6021207CF79B6021207CF2EB602D6
:101B03001207CFF8B5021207CF7BB5021207CF1623
:101B1300B5021207CFC5B4021207CFEDB302120705
:101B2300CF5DB3021207CF11B3021207CF8CB202FB
:101B33001207CF47B2021207CF2BB2021207CFD33D
:101B4300B0021207CFA5B0021207CF72B00212077C
:101B5300CFF6AF021207CF1388031207CF17A803DC
:101B63001207CFC287031207CFFAAD031207CFB113
:101B7300AD031207CF9CAD031207CF8CAD03120741
:101B8300CF04AF031207CFFAFF011207CF4B87032E
:101B93001207CFFC86031207CF6586031207CF9E79
:101BA300AE031207CFDE84031207CFC584031207E7
:101BB300CF4E84031207CF6CAC031207CF8DAE0355
:101BC3001207CF02AC031207CFA086021207CF7908
:101BD300D2021207CF20D2021207CFEBD102120793
:101BE300CFB6D1021207CF82D1021207CF15D1028D
:101BF3001207CFFDD0021207CFD8D0021207CFB100
:101C0300CD021207CF84CB021207CF8BC902120772
:101C1300CF17C9021207CFC8C8021207CF82C80262
:101C23001207CFACBB021207CF24C8021207CFB6EC
:101C3300AE0300000080FB00013636010100010203
:101C4300010001030100010401060605020000076B
:101C53000100340801000F090401010D0100FF0E0A
:101C630008000017020000190100FF1A0100011B00
:101C73000100FE1C0100081D0200001F01000120DD
:101C8300010001210200002301000F2402000026AD
:101C930001000127010008280200FF2A0100072B89
:101CA3000102402C0100002D0100012E0100012F33
:101CB3000100FF30010B1D310800003A0100083B11
:101CC30001000F3C0100013D0100FF3E0400004202
:101CD300040000460400004A0400004E04000052C1
:101CE300040000560400005A0400000103710301BC
:101CF3000301030103010301032203020301031090
:101D03000300030003000300030003000300034276
:101D13000300032403060300030003040312032543
:101D23000323032503230304030403000300030025
:101D33000344030003000323030003650321003569
:101D430003810300030503000300030003000325CD
:101D5300032303010171010101010111010101319A
:101D630001010101018001100161013B00140063C5
:101D73000173017201620143010001130106013D78
:101D830001350004011201000100010001000104FA
:101D9300010401330133013C0144013201360000E7
:101DA3000100016501000135008101000105018287
:101DB300018301000103027102300160021102700C
:101DC300020102020202028002100261023A004191
:101DD30000630273027202620243020002130238BA
:101DE30000000200020402120200020002000200CC
:101DF3000204020402370037003C024402000239A5
:101E030000000200026502000235028102000205A1
:101E1300028202830200020300710030016000119C
:101E230000700031022003500480001000610000A4
:101E3300001400630073007200620043000000138B
:101E43000006000000000004001200000000000073
:101E530000000004000400370037003C0244000087
:101E63000000000000000065000000350081000054
:101E7300000500000083000000360001000600009A
:101E8300000F00000000000000000000000000033D
:101E9300FFFF00000403FFFF0000FFFF0FF401003A
:101EA30005C4040320000100000B00000000000033
:101EB300000003010F00000000000000000000000C
:101EC300000000000000000000000000000000000F
:101ED300000000000000000A0000000200000004EF
:101EE3000000000800000010000000200000004077
:101EF300000000800000000001000000020000005C
:101F03000400000008000000100000002000000092
:101F130040000007ECFDFDFDECDCDCCCBCACAC9C74
:101F23009C8C7C7C6C6C5C5C5C4C4C3C3C2C2C1C1E
:101F33001C01009D110200491103004F11040055BB
:101F43001105005B1106006711FFFF00000A8916E7
:101F5300025916056B16075F160C41160D4D16FF39
:101F6300000000160F00000B150B020002220F33B6
:101F730000000E5A6967426565416C6C69616E6366
:101F830065303901030507090B0D0F00020406082C
:101F93000A0C0D140AE5D5C5B5A5A5958585756506
:101FA300303017181921301B1D1F30000119161866
:101FB30016161823030000393D3F373C3C362C44AA
:101FC3002D303016181920231A1C1E3000034A49DD
:101FD300434E181A2505020C0E020B040B0A0708C0
:101FE300000F0204020101010109020000000000C8
:101FF3000000BE040AE8030000FA06961FE8031671
:102003001F0E0004040A0C030908280C1E0508030C
:1020130000FFFF04041E74F712036EE99014EDF041
:102023009014A2E4F0120E259014F6E4F0A3F090BD
:1020330014EEF0A3F01217D3120E2B901432E4F027
:10204300A3F0121293023B8474EC12036E74D71242
:1020530008C8EAFEEBFF548060689014EDE0F912C3
:102063000E918A088B09EA4509604F7C0080010CB8
:10207300EC75F003A4F8A9F0745028F582741F39A5
:10208300F583E493F4602CE493F88508828B83E072
:102093006870DCAA08EC75F003A4F8745128F58283
:1020A300741F39F583E493C0E0740193F583D08200
:1020B3001204E6AA08AB09120E7FEEFAEF6480025F
:1020C30024ADEF5420601E1216E38A088B09EA45FB
:1020D30009600A12164DAA08AB09120E7FEEFAEF39
:1020E30064200224ADEEA2E0501F9014A7E0640F19
:1020F30070117900121623E9600990161D120AB3B4
:1021030012163BEE6401022482EF5440604F901696
:102113000DE064067028740BF0901635E0F975082D
:1021230001750900750A00750B00901495E0780895
:10213300120788AA08AB09AC0AAD0B12135390140B
:10214300151206507A007B409014EDE0F9120FC986
:1021530074041207FFEEFAEF64400224ADEE54203C
:1021630070030224867A207B009014EDE0F9120FAD
:10217300D5EA4B4C4D701A9014F2120A9BE8494A67
:102183004B700E750C01750D00750E00750F0080F8
:1021930061750C00750D00750E00750F00120FE1CF
:1021A3008A088B098C0A8D0B9014F2120A9BE8495A
:1021B3004A4B602A9014F27808120769400E750C96
:1021C300FF750DFF750EFF750FFF801285080C85D7
:1021D300090D8C0E8D0F9014F2780C12089A74016D
:1021E300780C120869E50C450D450E450F70030286
:1021F30023B37C0079047A007B001216BF8A088B14
:10220300090222DA85188285198374FFF07401129A
:102213000ACA74FFF07402120ACA74FF123073FA06
:10222300A3E0FB7403120892124F3B12499012175A
:1022330001E9640160030222BCE508123F7C123706
:10224300C34480F8A3E0F97424120ACAE8F0A3E9AE
:102253001248FBA3A3A3E0C0E07426120ACAD0E08D
:10226300124D2DA3E0540860167424120ACAA3E089
:1022730044011224C5C0E07428120ACAD0E0F01247
:102283005B2635091250396018125B261248B1A338
:10229300E0C8125E3DE0F87412120ACAE8F0A3E443
:1022A300F09081A512065074041208927407120864
:1022B3008A12137D74041207FF850882850983A39C
:1022C300A3A3A3A3A3A3A3A374061224C5F912165D
:1022D300A1850A08850B09E508450970030223B3A4
:1022E3007C007904AA08AB091216BF8A0A8B0B85F6
:1022F3000882850983A3A3A3A3E0F510A3E0F51146
:10230300E4F512F513780C7910120A254029E50833
:102313002404F8E43509F9850C10850D11888289A8
:1023230083C3E09510F0A3E0951112280EF8A3E003
:10233300F9E849709C800E850882850983A3A3A3CD
:10234300A3E4F0A3F0850882850983A3A3A3A3A331
:10235300A3A3A3A3A3E06401850882850983A3A3A0
:10236300A3A3A3A3702BE0540460030222078508F0
:1023730082850983A3A3A3A3A3A3A3A3A37406F0A2
:102383007AB78508828509831225FA121635022247
:10239300D4A3A3A3A3E060030222078508828509CF
:1023A30083A3A3A3A3A3A3A3A3A37401F00222D48F
:1023B30012168F7C0079017A007B001216BF8B09FD
:1023C300EA4509600C7A207B009014EDE0F9120EC7
:1023D300BB850C0A850D0B7C0079047A007B001207
:1023E30016BFEA4B701580538A828B83A3A3A3A3E2
:1023F3001258D1E50898E5099940078A828B831220
:102403003BEF7C0079041216BF8B0DA90DEA4970CE
:10241300D7C3E50A9508E50B95095013C3E508955D
:102423000AF508E509950BF509E508450970167ADB
:10243300207B009014EDE0F9120EBB9014F21224ED
:10244300BEA3F08037E50825E0F508E50933F50973
:10245300E4F50AF50B78081207E47A207B00901460
:10246300EDE0F9120FC374041207FF120FE1EAF84B
:10247300EBF9ECFAEDFB9014F2120A8FEE6420FAFA
:10248300EF8027EF5402600A1217CDEEFAEF6402D1
:102493008018EF54046016124BEE79019014A012C9
:1024A300499212138FEEFAEF6404FB80047A007BE7
:1024B3000074291207FF7F0C020585E4F0A3F0A343
:1024C300F0221248FFA3E022C082C08374EA1208FC
:1024D300C87C167D007900AA18AB19120E67740820
:1024E300120ACA7402F0901496124F4C12250E74FD
:1024F30009120ACA124E5A7413120ACAE4124B3E44
:1025030012128774161207FF024972E8F0A3E9F06A
:102513009014A012440F2274F712036E74DA120897
:10252300C8EAFEEBFFEE4F602DAC18AD1912170190
:102533007406120ACAE0601E7417120ACAE0FD7418
:1025430001120ACAE0FCEEFAEFFB790012160BE95E
:10255300600479A4800279007426023B8174F71227
:10256300036EEAFEEBFF8E828F83A3A3A3A3A3A331
:10257300E054406017125895124992121779E96096
:10258300067AFF7BFF8015125895800390149612EC
:10259300499274FE6A700374FF6B60471258951278
:1025A3005464121779E98E828F83600E1240B81239
:1025B3003F7C38F583E4F0A38003125E68F07C2946
:1025C3007D168E828F8312499212128DE9F508705F
:1025D30015EE4F60097901EEFAEFFB12169BA9087D
:1025E300023B847508CDAA081225F6121635E96058
:1025F300E080EB8E828F831240BC125E20E0F922D2
:1026030074F612036EE9FEEAFF7A0F7B00120E796D
:10261300EA4B601F8A828B83740CF0EEA3A3F0EF66
:102623008A828B831239619014EDE0F9120E857959
:1026330000802FEEF91216C58A088B09A808A9098C
:10264300E849601C88828983A3A3A3A3A3A3A3A3AC
:10265300A37406125B2EE0F912141FEEF91216A1F1
:102663007910024AFC74F412036E8A088B098C0AEF
:102673008D0B9014A7E0640F702CEA4509450A45B9
:102683000B60239014A2E064086005E064047016F4
:1026930078081207E47A017B009014EDE0F9120F39
:1026A300C374041207FF02293A74F412036E74FC14
:1026B3001208C8EAFEEBFF8E828F83A3A3E0F91210
:1026C30016C58A088B09EA450970030227E98E8239
:1026D3008F83A3A882A983E0C0E0EA240B1248AE4B
:1026E300D0E012280E64F160288E828F83A3E06409
:1026F300CD601E8E828F83A3E0641A60148E828F56
:1027030083A3E064E9600A8E828F83A3E064E170AF
:1027130036790012169BE9602EE5082404F50AE4D5
:102723003509F50B8508828509831227FAA3E0F999
:10273300850A82850B83124992120E37850A828598
:102743000B83125464806E8E828F83A3E0C0E07487
:1027530002120ACAD0E012331C125EAA12330EC050
:10276300E07403120ACAD0E0F0E508240C1237C063
:10277300AA18AB197005121377800312176174023C
:10278300120ACAE064E9702D850882850983123034
:1027930088750A01780A1207F0750AE9780A1207A0
:1027A300F01237B61232FE123BC312499212173798
:1027B30074021207FF850882850983A3A3A3A3A339
:1027C300A3A3A3A3E064027012850882850983A3EF
:1027D300A3A3A3A3A3A3A3A37406F08E828F83A3AF
:1027E300A3E0F91216A112168F901623122D2A12A6
:1027F300163B7404022937A3A3A3A3A3A31228049B
:1028030022E0FCA3E0FD8E828F8322125B3EE02256
:1028130074F412036EEAFEEBFF7508008E828F8359
:10282300A3A3A3A3A3E060487508088E828F83A3A4
:10283300A3A3A3A3A3A3A3A312499279FF121503EE
:102843008B0BEA450B601075082C8E828F83A3A334
:10285300A3A3A3E0D2E0F08E828F83A3A3A3A3A3B9
:10286300E05403640160030229334308110229334E
:10287300EE2418123E786038EE241A123E78600374
:10288300F470131257BB7003A3E06960030229338A
:10289300750822022933EE241B1256A3EE241A12C2
:1028A3003E78FAEE2419123E78F912140D022933F8
:1028B3008E828F83A3A3A3A3A3A3A3A3A31249924B
:1028C300121779E9640270037508011257BB70038C
:1028D300A3E0697006E508D2E1F508E50860158E06
:1028E300828F83A3A3E07006E508D2E58004E508A0
:1028F300D2E6F5088E828F83A3A3A3A3A3A3A3A3E6
:10290300A3124992121779E964017006E508D2E02F
:10291300F5088E828F83A3A3E06015EE241D123C7D
:10292300D6F9121767E964016006E508C2E0F50805
:10293300A90880031207FF7F0402058574F01203C0
:102943006E74D71208C8EAFEEBFF8E828F83A3A3AF
:10295300A3A3E0601190162112503B600990162149
:10296300122D2A12163B74031208928E828F83A3B0
:10297300A3A3A31232EF124992121701E9700302C3
:102983002AD878017405120ACAE0C3940240027877
:10299300007407120ACAE0C3940240027800740C60
:1029A300120ACAE064F87003A3E0F47003022AD8A1
:1029B300740C120ACAE064F97003A3E0F470030212
:1029C3002AD8740C120ACAE064FA7003A3E0F47004
:1029D30003022AD8740C120ACAE064FB7003A3E052
:1029E300F47003022AD87406120ACAE0F99014900C
:1029F300E0696003022AD8E8A2E04003022AD874FF
:102A030027120ACAE06003022AD8EE2413124405EF
:102A13007422120ACA124D15241C12440574101292
:102A23000ACA124E5A7409120ACAE0601F741A12B3
:102A33000ACAE0FD7404120ACAE0FC8E828F83A3E3
:102A4300A3124992790112160BE9703D740312081F
:102A53008A121647E9F5087409120ACAE0702E9023
:102A6300148AE06028742255086422602074425559
:102A730008644270147420120ACA122D36600E7450
:102A830020120ACA122D1360047ACF804AE9A2E603
:102A9300504D7420120ACA123CDC24FD600F1460EE
:102AA3000C24FD600824FD600424FE7028742012A9
:102AB3000ACA122D0C700E7420120ACA124AF7A306
:102AC300E0640D601A740312088A121791E9640115
:102AD300700D022CFF7AD37B00121125022CFFEE1E
:102AE300242DF582E43FF5831230667003A3E06979
:102AF300702275090078091207F078091207F0EEC1
:102B0300242F123E78F9122D1A12498C121737749A
:102B1300021207FF7409120ACAE07003022BBB12E8
:102B23002D1A12498C1217F78A0A8B0BEA450B7080
:102B330003022C587404120ACAE0F88E828F83A30E
:102B4300A3E028F8A3E03400F9E8240D122D04F8DB
:102B53008A828B83A3A3A3E068600EE88A828B83B7
:102B6300A3A3A312395A1224BF7904E9120ACA1281
:102B730032E6E02AF8A3E034008882F583A3AA8230
:102B8300AB83120E6D8A0C8B0D8C0E8D0F850A8212
:102B9300850B83A3A3A3A3780C1207694003022C1C
:102BA300FF9081AD780C1209CB850A82850B83A334
:102BB300A3A3A3780C120A559014A2E0640460083E
:102BC300E064096003022CFFE508A2E54003022C40
:102BD30092EE242F123E78851882851983F0EE2415
:102BE30030123E78C0E07401120ACAD0E0F0EE243D
:102BF30031123E78C0E07402120ACAD0E0F07414B5
:102C0300120ACAE06401702C740E120ACA1237D079
:102C13002413123E78687003A3E0697017740C12D2
:102C23000ACA124992121779E964027007741412DE
:102C33000ACAE4F0EE2425F582E43FF58312065038
:102C43007404120892740712088A12137D74041212
:102C530007FF022CFF9014E7E064016003022BBB23
:102C63007420120ACA122D367009E508A2E6500331
:102C7300022BBB7410120ACAE0F47003A3E0F460E1
:102C83007BEEFCEFFD740312088A121653806DA2CB
:102C9300E650697420120ACA124F227016741A126F
:102CA3000ACAE064027055740312088A7900121785
:102CB3005B80497420120ACA122D137014741A12FD
:102CC3000ACAE064047035740312088A12174F802D
:102CD3002B7420120ACA122D0C700C790074031283
:102CE300088A12179D80157420120ACA124AF7E047
:102CF300640C7008740312088A1217B5742902371A
:102D0300E7F582E439F583E02212589FE064032259
:102D130012589FE0640722EE242BF582E43FF583EB
:102D23001256ADEE241322E0F508A3E0AA08FBE453
:102D3300FCFD22123BDF64062274F412036EEAFEEA
:102D4300EBFF8C088D09901410E0600F1257BB70D5
:102D530003A3E06970051213FB805A79008E828FFA
:102D630083A3A3A3A3A3A3A3A3A312499212142BE4
:102D73008A828B83E58245836033A3A3A3A3A3A3A2
:102D8300E054186028E508241C1248AE120654E5E6
:102D93000824131248AE120654EE2418123E78F992
:102DA30012497912143D74041207FF800879001246
:102DB300497912140102293A74F712036E74F71257
:102DC30008C8EAFEEBFF9014A2E06403600DE06420
:102DD300016008E064096003022ED38E828F83A30F
:102DE300E06003022E997C007D007A027B00120EC4
:102DF300311258DB8A828B8312440B901493124E48
:102E03005A79531212759014A2E064096009901460
:102E1300A01249921217F185188285198374011241
:102E23004B3E79421212759014A27404F07401128D
:102E3300088A794A12126F74011208927A987B14E5
:102E4300120FF990160DE0640B70057406F0800BF9
:102E530079009014A012499212138F901493125672
:102E6300A97A037B00120E319014961256A97A04A4
:102E73007B00120E3190148DE0A2E35004D2F08057
:102E830002C2F0124B34795212127590161D120AB7
:102E9300B312163B8037FC7D007A037B10120E3190
:102EA30090160DE0640B7003740AF0901413E4F0B1
:102EB300FA7B409014EDE0F9120FCF8E828F8312CC
:102EC3002EDA12499212138F9014A2E4F012167D97
:102ED3007409023B81E0F8A3E0F99014A022C082B8
:102EE300C08390143212503B701F9014A2E0146000
:102EF3000924FC600A14600C800F90143C80349009
:102F03001438802F90143A802AE8496008901433CB
:102F13001232F8700C8A828B83A3E0F91213838038
:102F23001D901432124F28640270051217C1800ECF
:102F330090151112503B6006124AF81204E602493A
:102F43007274F412036E74FE1208C88A088B097A2D
:102F5300007B049014EDE0F9120FCFAA18AB197996
:102F63005012126F7A0F7B00120E798A0A8B0BAE06
:102F73000AAF0BEE4F6020850882850983A3E070BA
:102F8300169014A0E0F47003A3E0F4603B123060E9
:102F93007003A3E0696031850882850983A374EA1D
:102FA3001233141212757A967B14794B1212757AB6
:102FB300A07B1479501212757A957B1479E1121261
:102FC30075EE4F70030230548E828F837402F0903B
:102FD30014A0E0F47003A3E0F4600A1230607003FD
:102FE300A3E069704F851882851983122ED8E8F003
:102FF300A3E912331412126F9014931237D5124EA1
:103003005A7A967B14794B12126F7A957B1479E175
:1030130012126F750A00780A1207F0780A1207F085
:10302300901607122EDB1235351249921217377498
:10303300021207FF850882850983123059A3F09095
:1030430014A27403F0EEFAEFFB9014EDE0F9120E04
:10305300857402022937A3E08E828F83228518822A
:1030630085198312440F9014A0E06822E8F0A3E9C5
:1030730012307722F0850882850983E022F582E405
:103083003BF583E02212440FE8FAE9FB2274F512C0
:10309300036E74D11208C88A088B098A828B831243
:1030A3003CCE741C1208928A828B83A3A3A3A3A38E
:1030B300A3A3A31232FE124992121683741C120A9E
:1030C300CAE0702C850882850983A3A3A3A3A3A3C5
:1030D300A3A3E0C3940B40188E828F83A3A3A3A35F
:1030E300A3A3A3A3E064027007124E46E0F46003B7
:1030F3000232E19014A2E0640270030231C8E0647A
:103103000670030231C890143212503B6008123229
:10311300F870030231F89014A2E064086008E064D8
:103123000460030232E1741E120ACA1232E6A3A338
:10313300A3A3123CCE901432E0F8496007124F2E3D
:10314300640260779014A0E06E7003A3E06F6003E5
:103153000232E174016A60167423120ACAAC82ADAA
:10316300837AB47B14120FF3E960030232E17A002D
:103173007B029014EDE0F9120FD5EA4B4C4D60033E
:103183000232E19014A3120A9B85188285198312D7
:103193000A8F9014A9E0C0E07404120ACAD0E0F0C8
:1031A3007405120ACA7401F07406120ACA74021270
:1031B3004B3E121347E960030232DEEEFAEFFB12D5
:1031C30017BB0232E190143212503B70287508008D
:1031D30078081207F078081207F0EE2410F582E45D
:1031E3003FF5831232EFA31227FA124992121737CF
:1031F30074021207FF8E828F8312440B7407120A24
:10320300CAE8F0A3E91237DB12440B7409120ACAA5
:10321300124D151243A4C0E0740B120ACAD0E01277
:10322300330EF508A3E0F509740F7808120A6474E5
:103233000C120ACAE508F07420120ACAE0C0E0744E
:103243000D120ACAD0E0F07422120ACAE0C0E07478
:103253000E120ACAD0E0F0741D120ACAE0C0E0746C
:1032630010120ACAD0E0F0741E120ACAE0C0E07459
:103273000F120ACAD0E0F0EE2410123E78C0E074B8
:1032830011120ACAD0E0F07421120ACAE0C0E07435
:1032930012120ACAD0E0F0742E120ACAE0C0E07417
:1032A30013120ACAD0E0F07423120ACAA982AA83AD
:1032B30089088A09750A0078081207E87C087D00E6
:1032C3007417120ACAAA82AB83120E5B7403120725
:1032D300FF740712088A121389800312134D742F87
:1032E300023CE0E0FA8E828F83A3A322E0F98E8270
:1032F3008F83A3A322124F2F640122E0F98A828BCA
:1033030083A3A3A3A3A3A3A3A3A322F0124E4AE0E0
:1033130022F07A937B1479532212332022F08518FA
:10332300828519832274F212036E74F81208C8EAB4
:10333300FEEBFF8C0A8D0B890D908131AC18AD1912
:103343007408120748750C00EEFCEFFDAA18AB19C0
:10335300120FF3E97003750C019014EE801AEEFC62
:10336300EFFDE508240BFAE43509FB120FF3E970CE
:1033730023E50824141248AE1233AD6024E50CA2F1
:10338300E040DB850882850983E0650A7004A3E0D9
:10339300650B70DD850882850983A3A3E0650D7045
:1033A300D0AA08AB097408023975123BF7E5084542
:1033B3000922C082C0839014EE02496F74F712038E
:1033C3006E9014EE125B4C800C125299123CD11287
:1033D3000F0FEEFAEFFBEA4B70EF9014EEE4F0A35D
:1033E300F0023B8474F112036EEAFEEBFF890A8C50
:1033F300088D098E828F83E08C828D831243D3AE36
:1034030082AF83E012471812491FC41247181234BF
:10341300A6E012471F12491DA2E2E4338C828D837A
:1034230012491C131313541F12471812491BA2E706
:10343300E4338C828D83A3A3A3A31234A68E0C8FB3
:103443000D750E00780C1207E87C087D00E5082452
:1034530007FAE43509FB120E5B74031207FFEE242F
:1034630008FE50010F8E0C8F0D780C1207E87C03B9
:103473007D00E508240FFAE43509FB120E5B7403A3
:103483001207FFE50AC3940F40118E828F83A3A313
:10349300A3E0C0E01248AAD0E080041248AAE4F0F6
:1034A3000258D6A3A31243D70EAF832274F5120397
:1034B3006E8A088B098A828B83A3AE82AF83E0F97D
:1034C3001213A78E828F83E064EB602485088285C4
:1034D3000983A3E064E16018850882850983A3E07A
:1034E30064F1600C850882850983A3E0641A70097E
:1034F300850882850983A3E4F090161D120AB3128E
:10350300163B750A01780A1207F08508828509833C
:10351300A3E0F50878081207F079009014A012359B
:103523003512499212173774021207FF12168F02CF
:103533003CE31256AD90149622EAF0A3EBF0024955
:103543007274F612036E9014F1E0701B7C00790123
:103553007A007B001216BFEA4B600C8A828B8312BF
:10356300503B600312162F024AFCC082C0837904C9
:103573001216B9E9F8902010E493C398401079FF2C
:103583001216B9E9F890200EE493C3985004790118
:103593008002790002497274F012036E8A088B0963
:1035A300890B750C008A828B83A3A3A3A3A3A3A374
:1035B300A3E0F91216C58A0E8B0FAE0EAF0F750A74
:1035C30001EE4F6003023694850882850983A3A325
:1035D300A3A3A3A31256A9850882850983A3A3A342
:1035E300A3A3A3A3A3E0F9850882850983124992C3
:1035F3001216AD8A0C8B0DAE0CAF0DEE4F7003029D
:1036030037AF8E828F83A3A3A3A3E4F0A3F0E508CF
:10361300240CFAE43509FB8A828B83E0C0E012377D
:10362300B6D0E0F0E508240D1237C9240D124E542C
:1036330012177FEE240F12545EE50824111237C9C6
:103643002411124E54E50824131237C0C0E0124C63
:10365300FED0E0F0750C01EE2406124398547FF07F
:10366300A3E054FC12280E54046003023709901699
:103673002FE0F5087509007407780812096C8E822B
:103683008F83A3A3A3A3A3A3E04508F0A3E0450965
:10369300F08E828F83A3A3123BEF74077808120A7C
:1036A30064E5085407FCE50B606C8E828F83A3A34B
:1036B300A3A3A3A3A3A3A37402124920123A9A605B
:1036C3000B90148E1237D5A3A3124E5AEC7003023B
:1036D300377DEE2406125E29547FF508A3E054FCDF
:1036E300F509EC24FFF50EE434FFF50F7407780EAB
:1036F30012096CE508450EF8E509450FF98A828B36
:1037030083124E5A80748E828F83A3A3A3A3A3A391
:10371300E04480023693EC7005750A00805C8E826B
:103723008F83A3A3A3A3A3A3E05420600C120E735F
:10373300EA547F7900245F80198E828F83A3A3A329
:10374300A3A3A3E05410601A120E73EA540F790076
:10375300240A5001098E828F83A3A3A3A3F0A3E9B4
:10376300800D8E828F83A3A3A3A37401F0A3E4121D
:1037730037DB7404123A1D120EBBE50CA2E0502F86
:103783008E828F83A3A3A3A312521FE0F9EEFAEF55
:10379300FB1216B3E960181250326009EE240F12BF
:1037A300498C120F0FEEFAEFFB120F0F750A00A9E7
:1037B3000A8034EE240CF582E43FF58322F582E49B
:1037C3003509F583E022F582E43509F58312440FC8
:1037D300EE221258FFA3A3221237DF2212465BA365
:1037E300A3A3A3221207FF7F0802058574F4120323
:1037F3006E74F71208C87E001216C5EA4B700302F6
:1038030038B58A828B83A3A3A3A3A3A3A3A3A3E013
:10381300640660030238B58A828B83A3A3A3A3A3A0
:10382300A3A3E0FF8A828B83125E4DE0C0E074089D
:10383300120ACAD0E0123BD6F8A3E0F985188285B4
:103843001983124E5A1216D7EF54086063851882F3
:103853008519831256A97A007B001216A78B0BEAEF
:10386300450B704C125E9C12129F7C007D007A0007
:103873007B0080288E828F83123CDCF47003A3E0EC
:10388300F4602D9014A0122800124992121299E9A3
:10389300641A601C7C007D00EEFAEFFB1216A78A07
:1038A3000A8B0BAE0AAF0BEE4F70C979001212A54B
:1038B3007E01EEF97409022937C082C083EA4B7096
:1038C300059014F680068A828B83A3A3123AD260F2
:1038D300208A828B83A3A3A3A3A3A3A3E05408609A
:1038E300E5EC4D6010123AD97003A3E06D70D780F8
:1038F300047A007B0002497274F212036EEAFEEB53
:10390300FF890A8C088D097A147B00120F09EA4B90
:10391300603A8A828B83A3A3A3A3A3A3A3A3A3E451
:10392300123BCBA3E50A1258A6A3125EA812395A7A
:10393300123BE91239618A828B831258C3EA125B04
:10394300283BF583E4F0123951F0A3F08027A3F06C
:103953008A828B83A3A3221258BAE4F0A322A3F092
:1039630012396C3BF583E4F022EA124B2322A90AB5
:1039730074031207FF7F0602058574F412036EEACF
:10398300FEEBFF89088C0A8D0BEE4F7003023A1889
:1039930074016508701279011216B9E9F8902011C3
:1039A300E493C39850228016740465087014790454
:1039B3001216B9E9F8902010E493C398500A7911CC
:1039C300805574026508704D8E828F83A3A3A3A3D1
:1039D300A3A3A3A3A3E5081243D3A31254FDE4F0C6
:1039E300A3F09014F612503B601A8003E0F8A3E0B2
:1039F300F988828983A3A3123AD288828983A3A3F5
:103A030070EA80039014F6EEF0A3EF123A1D120E43
:103A1300BB7900800279C102293AF07A207B0090B9
:103A230014EDE0F922C082C083E9F879009014F61E
:103A3300801D8A828B83A3A3A3A3A3A3A3A3A3E031
:103A430068600574FF687001098A828B83A3A312DF
:103A53003AD270DE02497274F712036EEA4B7005B4
:103A63009014F680068A828B83A3A3123AD2602035
:103A73008A828B83A3A3A3A3A3A3A3A3A3E06970B5
:103A8300E4EC60108A828B83E0123A9A70D7800448
:103A93007A007B00023B84F8A3E0C8125E74E05412
:103AA3000422C082C0839014F680068A828B83A38B
:103AB300A3123AD260128A828B83A3A3A3A3A3A3E4
:103AC300A3A3E06970E580047A007B0002497212C7
:103AD3005B4CFBEA4B22123BDB6C2274F212036E4B
:103AE3008A0A8B0B8C0C8D0D750800750900EA454D
:103AF3000B60309014F680068E828F83A3A3123C52
:103B0300D1EE4F601EAC0CAD0DEEFAEFFB850A82D1
:103B1300850B831204E6E9640170DDEEF8EFF988A2
:103B2300088909AA08AB0902397874F712036E9061
:103B330014F612440B7C007D00800DE8FCE9FD883F
:103B4300828983A3A312440BE8496030EA687002B8
:103B5300EB6970E79014F6124992E86A7002E96B18
:103B630088828983A3A3700812440B9014F68009FA
:103B730012440B8C828D83A3A3124E5A8003120727
:103B8300FF7F0102058574F712036EEAFEEBFFEE79
:103B93004F602B1216D1123BFF124990120F0F8E5A
:103BA300828F83124992120F0F1250326009EE2452
:103BB3000F12498C120F0FEEFAEFFB120F0F80C199
:103BC3001256AD8A828B8322123BCF221258BEA398
:103BD300A3A322F0123BDB228A828B83E0F8A3E0CB
:103BE300F5838882E022123BCFA3A322A3A3A3A33E
:103BF300123BF722E0F508A3E0F509228E828F83BA
:103C03001240BC1240B23822C082C083EAFCEBFDF2
:103C1300EC4D6017EC24FBF582ED34FF1250397044
:103C230007123C65E0F46007120E7F79058030903F
:103C330014EDE0C0E0123C65D0E0F0902008E4937E
:103C4300F97AF87B14120EB5E9640170107A007BDF
:103C5300209014EDE0F9120EBB7900800279040282
:103C63004972EC24FFF582ED34FFF5832274F412DC
:103C7300036EA2AFE433F508C2AF9014F8123CD13F
:103C8300EE4F603AEE24FBF582EF34FF1250397A9F
:103C9300007B209014ED6007E0F9120EBB8005E075
:103CA300F9120EC1E4F50AF50B780A1207ECEEFCE3
:103CB300EFFD7AF87B14120EAF74021207FFE508CA
:103CC300A2E092AFEEFAEFFB02293AA3A3A31255A7
:103CD30015FF22F582E43FF583123BDF221207FF33
:103CE3007F0302058574F212036E74FA1208C8EAA0
:103CF300FEEBFF750AFE750BFF121695E960057959
:103D030011023E70EE2415123E786035901645E0A0
:103D1300C43354E0F8E0333354FC48C0E012462186
:103D2300D0E0125E7DFAA3E0FB79FF1215038B0945
:103D3300EA4509600C750AFF124D02124BE8D2E006
:103D4300F08E828F83A3A3124992121779E960063A
:103D5300EE2412124B0BEE2413123E78700D9020BA
:103D63000FE493C0E0124CFED0E0F08E828F83E02C
:103D7300A2E7500454038019EE2414123E78701203
:103D830090147FE0C0E012438ED0E0F090147FE007
:103D930004F0123E7564017016901638E0600D90C1
:103DA300148AE0700A8E828F83E07003124B088EB0
:103DB300828F83E064017011EE240B123CD66402FF
:103DC3007007123E8CE04440F0AC18AD19EEFAEFE8
:103DD300FB1216FB8A088B0974FE650A700374FFD5
:103DE300F4700D8E828F83A3A3E0F50AA3E0F50B95
:103DF300EA450960748E828F83E0C0E07401120A81
:103E0300CAD0E0F07404120ACA1258C3EE241E1278
:103E130044057402120ACA124E5A740112088288A7
:103E23000C890D780C1207ECEE2420123E80120749
:103E3300F0123E8C120654EE240E123E801207F04E
:103E43009014931206547408120ACAE0F9AC0AAD2E
:103E53000B1216F574081207FFE9FE74106E700B4F
:103E6300AA08AB09120F0F80027E10EEF974060246
:103E73003975EE2411F582E43FF583E022F582E4FF
:103E83003FF583E0F50C780C22EE124D0A22C08236
:103E9300C08374D71208C890800074031208927408
:103EA300261207488A828B83A3A3A3A312440B740D
:103EB3000E120ACAE8F0A3E912395212440B740C29
:103EC300120ACA123F82123F7C123083C0E0741A76
:103ED300120ACAD0E0F01252A31244097420120A43
:103EE300CA123F822415123080C0E07408120ACA35
:103EF300D0E0F0EA241CF582E43B12440974121268
:103F03000ACA123F822411123080C0E07409120AD7
:103F1300CAD0E0F0EA2412123080C0E07407120A1B
:103F2300CAD0E0F0EA241EF582E43B12440974246B
:103F3300120ACA123F822420123080C0E074261273
:103F43000ACAD0E012331C74FFF07401120ACA7457
:103F5300FFF07402120ACA74FFF09081A512065092
:103F63007404120892740712088A12137D740412DF
:103F730007FF79007429022508240DF582E422E85D
:103F8300F0A3E9F0EA2274F412036E74EC1208C889
:103F9300EAFEEBFF8C0A8D0B89097508107A217BE9
:103FA30000120F09851882851983125464851882BB
:103FB30085198312503B70030240AB7C217D00794D
:103FC30000851882851983E0FA120E679014A012F7
:103FD30049928518828519831240B82409F582E431
:103FE300381254627420120ACA12440B7411120A52
:103FF300CAE8F0A3E91240C2125E371240C2125E51
:10400300547402124415F8124AF7E50AF0A3E50BBB
:104013001240C2125E44E509F07422120ACAE0F8A3
:10402300851882851983E0F9A3E0C9240CF582E49D
:1040330039F583E8124415F9A3E0C91240B239F502
:10404300831258C37423120ACA1249927406120ABD
:10405300CA1254647408120ACAE8F07426120ACA0F
:10406300125899C082C083740C120ACAAC82AD8301
:10407300D083D08274051207487425120ACAE0C09F
:10408300E07413120ACAD0E0F07900AA18AB19122F
:10409300169BE964017005750800800C85188285FC
:1040A3001983124992120F0FA90874140229372495
:1040B3001FF582E4221240BC22E0F8A3E0C82212DA
:1040C3004419F8A3E0C82274EE12036EEAFEEBFF74
:1040D3008C088D098E828F83A37408124B29E060AC
:1040E300088E828F83A37410F0EE2417123E78603B
:1040F300098E828F83A3E02408F0EE2415123E7804
:1041030060088E828F83A3E004F08E828F83A3A343
:10411300A3A3A3A3E060198E828F83A3A3A3A3A366
:10412300A3A3E0C3332402F88E828F83A3E028F095
:10413300123E756005750B0E8003750B0090141904
:10414300E0640170168E828F83E06401600D901429
:1041530013E0600712438474018004124384E41261
:1041630043D3E01243A228250B8C828D83F0123EA9
:1041730075601390148BE0F9121611E9F885088223
:10418300850983E029F0850882850983E0C3947556
:10419300400975080075090002437DE0FA7B0012AF
:1041A3000F098A088B09EA4509700302437D8E8251
:1041B3008F83E0FA9014901243CC7402780C1209A6
:1041C3006CEA450CFAAB0DEE2412123E785403F55B
:1041D3000C750D007406780C12096CEA450CFCEBA7
:1041E300FDEE2415123E786004780180027800EE1B
:1041F3002416FAE43FFBE8F9ED49FD123E75F50C90
:104203007409780C12096CED450DFD8A828B8312BB
:1042130043CC740B780C12096CED450DFDEE24179D
:104223001243C6740C780C12096CED450DFD8E8299
:104233008F83A3A3A3A3A3A31243CC740A780C1262
:10424300096CED450DFDEE24231243C6740D780C65
:1042530012096CECF8ED450DF9E8850882850983B0
:10426300F0E9A3F0EE2402124398850882850983BE
:104273001243EEF0EE2404F8E43FF98882898312B6
:1042830048C2A31243EEA3A3125E831243BFF012EC
:10429300438E1243BFA3F0750A088A828B83E060C2
:1042A30015EE24181256A3E5082408FAE43509FB91
:1042B300120FF9750A10EE2417123E786019EE24D6
:1042C3001A1256A3A80AE50828FAE43509FB120FC7
:1042D300F97408250AF50A8E828F83A3A3A3A3A3E7
:1042E300A3E06058EE2407F510E43FF51185108232
:1042F300F583E0C0E01243A9D0E01243DEE0C0E062
:10430300081243ABD0E01243DEA31243B61207E810
:10431300851082851183E025E0FCE433FDA80AE5DE
:104323000828FAE43509FB120E5B74031207FF85B4
:104333001082851183E0C333250AF50AEE24151292
:104343003E786008C0E01243A9D0E0F0124E461256
:1043530043B61207E81243A3FC7D00A80B8E828F9D
:1043630083A3E0FAE5082AFAE43509FBEA28FAE42C
:104373003BFB120E5B74031207FFAA08AB0902464C
:1043830075EE2423F582E43FF58322EE2414F582AF
:10439300E43FF58322F8E43FF988828983E022F839
:1043A300EE125D28E022A80AE50828F582E4350923
:1043B300F583221258C9750E00780C221243F7A315
:1043C300A3A322F582E43FF583E0F50C750D0022EB
:1043D3001243D722F08E828F83A322F0050A8E82A6
:1043E3008F83A3A3A3A3A3A3A3A322A3A3125B3992
:1043F3001243F7221248C6A3A3227403022937EEFD
:10440300240BF582E43FF58312440F22E0F8A3E086
:10441300F92212441922123320E02274EE12036EA1
:104423008A0A8B0B8910ECFEEDFF750F017C267D4C
:10443300007900EEFAEFFB120E67E510C394085003
:10444300030245B58E828F83E510F0EEFCEFFD8508
:104453000A82850B831248ED121707E96003750F73
:10446300001248CF8E828F83124927124B1D1249A7
:1044730011C0E0EE2411F582E43FF583D0E0124948
:1044830009C0E0EE2412F582E43FF583D0E0124345
:10449300D37408124653A3A3E06018E50A2408F86E
:1044A300E4350BF9EE2413124E548E828F83A3E06E
:1044B3002408F08E828F83A3A3A3A3A3A3A3A3E0C3
:1044C30060178E828F83A38582088583091248E251
:1044D30012462112306F2408F0EE2419124B0BEE12
:1044E300241B124B0BA3124653E0600F12463A8E65
:1044F300828F83A3A3A3A3A3124666EE2418123EBE
:104503007870030245A512463AFAEE2419F582E4BF
:104513003FF583EA124666F8E50A28F582E4125E5F
:1045230096F8EE241AF582E43FF583E8124666E82E
:10453300C39AEE50682419123E78F8902009E49348
:10454300C398500575110C8008EE2419123E78F5B6
:10455300118E828F83A3E0F8E50A28F50CE4350B6E
:10456300F50D750E00780C1207E8AC11EC2CFCE489
:1045730033FD7A927B09120E5B74031207FFEE245C
:104583001BF582E43FF5837492F0A37409F0E511FF
:10459300C333F8850882850983E0288004124B0120
:1045A300E4F08E828F83A3E0F88E828F83E0C3983A
:1045B300500479008066A3E0FAE50A28F8E4350B95
:1045C30012462FE8F0A3E9124920C39AC0E0EE2473
:1045D30017F582E43FF583D0E012466C603CEE248D
:1045E30017F8E43FF9880889098882F583E024F203
:1045F300F0EE241D124398240EFAA3E03400FB8846
:1046030082898312546490148BE0F9121611E9F82D
:10461300850882850983E0C398F0A90F8054124668
:104623002522EE2415F582E43FF58322F9EE241DBD
:10463300F582E43FF583228E828F83A385820885EA
:104643008309E0F8E50A28F582E4350BF583E022D7
:104653001246572212465B22F08E828F83A3A3A3B6
:10466300A3A32212307704F022124657A3E02212AA
:1046730007FF7F0A02058574F412036E8A088B090B
:10468300EA12471FA3A3F0EA1313543F124718A3D8
:10469300A3A3F0EAC4131312471F1247297409781E
:1046A3000A120A6412470FA3A3A3A3A3A3F0EB1256
:1046B3004711124728740A780A120A64E50A54015A
:1046C300C0E0EC1254453DF583D0E012472D740B46
:1046D300780A120A6412470F124726740C780A12DA
:1046E3000A6412470FA3124726740D780A120A644C
:1046F300E50A5401C0E0EC2424F582E43DF583D0BF
:10470300E0F0740E7808120A64022933E50A5401B2
:104713008C828D8322540F8C828D832254038C824E
:104723008D8322A3A3A3A3A3A3A3F08A0A8B0B22A3
:10473300C082C08379008A828B83A3A3A3A3A3A38C
:10474300E090148A600EE0702C8A828B83A3A3E02E
:104753007023801FE0601E8A828B83A3A3A3A3A37D
:10476300A3A3A3A3124992901493E06A7003A3E056
:104773006B6002790102497274F212036E8A0A8B2A
:104783000B890C8C088D098A828B831248ED1217D2
:10479300071248CF8508828509831249271248A248
:1047A300124911C0E0E50824111248AED0E01249C5
:1047B30009C0E01248AAD0E0124D1C74081248FB4D
:1047C300E06017E50A2408F8E4350BF9E50824133B
:1047D3001248B6124D1CE02408F08508828509832F
:1047E300A3A3A3A3A3A3A3A3E060178508828509BA
:1047F30083A31248DEE50824151248B61249202483
:1048030008F0850882850983A3A3A3A3A3E0601905
:10481300850882850983A3AE82AF83124645850846
:104823008285098312491B04F0AA08AB0912170DEC
:10483300E9F50D705B850882850983A3A3A3A3A370
:10484300A31248C27016E0FAE50A2AF8E4350BF918
:10485300124898124E58E50CC39A80281248DEE895
:10486300240EF8500109124898124E5890148BE008
:10487300F9121611E9F88E828F83E0F9E50CC399DA
:1048830024F2C398C0E0E50824171248AED0E0F044
:10489300A90D023978E508241DF582E4350922E5DE
:1048A3000812396D350922E5082412F582E4350929
:1048B300F58322F582E43509F583E8F0A3E92212B2
:1048C30048C622E0850882850983A322850A82855A
:1048D3000B83A3A312493DE0F9EA22AE82AF83E042
:1048E300F8E50A28F8E4350BF922E0FAA3E0F8E446
:1048F300C8F9EA28E439FB221248FF22124D24A307
:10490300A3A3A3A3A322124950A3A3A3E022F58345
:10491300E8124949A3A3E022A3A3A3A3A3F08E8291
:104923008F83E022A3A3A3A3A3A3A3A3A312494911
:1049330012493DA3A3E0F9EAF822E0FA850A828549
:104943000B83A3A3A322F0A3E912495022F0850A03
:1049530082850B83A3A3A3A322C082C0837A067B91
:104963001579E212126F7A067B158003124992D0F1
:1049730083D0820207CC8E828F83A3A3A3A3A3A396
:10498300A3A3A31256ADEE240BF582E43FF58312E5
:104993005B4CFB22C082C08390149380CFC082C043
:1049A3008390149680C6C082C083794A12126F80A6
:1049B300BE74F612036E90150EE0FE04F0EEF912CB
:1049C30016C58B09EA450970EDEE60EAF9024AFC67
:1049D30074F212036EEAFEEBFF8C088D09890A124A
:1049E30017F78A0C8B0DAC0CAD0D740E120ACAE0CE
:1049F300F9740F120ACAE0F8EC4D7012E8701BA9A3
:104A03000AAC08AD09EEFAEFFB1218158072E860E4
:104A130017E970068C828D83E4F07401687061E994
:104A23009015137028E48022E97055EC2402F58276
:104A3300E43DF583E0A80A28F8E4340013E813F012
:104A4300703E8C828D83A3A37401F08033E004F065
:104A5300901630E0F8901513E0C3984023E4F090EB
:104A63001496E06E7003A3E06F7015EEFAEFFB7916
:104A7300011213A17A017B009014EDE0F9120FCF1C
:104A830002397874F412036E8A088B098C0A8D0B31
:104A93009081AD78081208DE700E7A017B009014C5
:104AA300EDE0F9120EBB803590161D7808120A55F9
:104AB300EA4509450A450B601878081207E47A01AC
:104AC3007B009014EDE0F9120FC374041207FF800A
:104AD3000C7A017B009014EDE0F9120FCF02293A12
:104AE300C082C08390162102353CC082C0839016D9
:104AF3002302353CA31258A0227F020205851254DB
:104B0300453FF58322EE2411F582E43FF583E4F07B
:104B130022124B1DF583124BDE22124B223F22EE53
:104B2300240BF582E422F0EE2416F582E43FF583AC
:104B330022A2F0E433851882851983F0AA18AB19F1
:104B43002274F412036EEAFEEBFF7A007B049014E6
:104B5300EDE0F9120FCF124BEE9014A27409F0128C
:104B630017198A088B09AC08AD09EE241312498C76
:104B7300120FF3E9640170587A0F7B00120E798AE1
:104B8300088B09EA450960488A828B837402F01214
:104B930058E33F124BD6FC88828983A3A3E0FBEC46
:104BA3008A82850983A3A312546588828983A3A378
:104BB300A3E08A82850983A3124BE8FAA3E0FB7979
:104BC3004A121275AA08AB099014EDE0F9120E858A
:104BD30002293A124BDCA3E022F583E0F8A3E0F9C3
:104BE3008882898322F0124625E0229014341244ED
:104BF3000F901623E8F0A3E9F090143612440F90B7
:104C03001621E8F0A3E9F02274F412036E74FD1286
:104C130008C88A088B097401120ACA7402124B3E2F
:104C230012176D8A0A8B0BAE0AAF0BEE4F7003029D
:104C33004CF9125E5DE4124D1CA3A3A3E064017062
:104C43000888828983A37420F0850882850983A359
:104C5300A3A3A3A3E06401700988828983A3E0D29C
:104C6300E6F0850882850983A3A3A3A3A3A3E06435
:104C730001700A88828983A3E0D2E78005124CFE83
:104C83007401124D2DE06401701E8508828509832D
:104C9300A3A312503B60031258EA85088285098357
:104CA300A3A312440B124E51850882850983A3A343
:104CB300A3A3A3A3A3E064017007125D1BF0A3E405
:104CC300F0850882850983124992121779E96004F5
:104CD300124D02F0EE24171258ED12171912545BFD
:104CE3008508828509831258FB124D13FAEFFB12D4
:104CF3001BC9E9F9800279100243FD125E8C22126E
:104D03004D09E0440422EE240FF582E43FF58322AB
:104D1300A3A3E8F0A3E9F0EE22124D2022124D24C2
:104D230022F0850882850983A322124D20A3A3A321
:104D3300A32274F512036E74F31208C8890AEAFEFB
:104D4300EBFF7508007509007C0D7D007900AA183A
:104D5300AB19120E67124630124F1B741F58600CAA
:104D63007AD37B001211257900024E41E8A2E55067
:104D730008740C120ACA7401F0E8A2E75008740B15
:104D8300120ACA7401F0E8A2E6740A5008120ACAA9
:104D93007401F08008120ACAE0640170138E828FD6
:104DA30083A3A3A3A3A3A3A3E06032EE24138012DF
:104DB3008E828F83A3A3A3A3A3A3A3A3E0601EEE6A
:104DC3002415F582E43FF5831233AD6010AC08ADD2
:104DD300097402120ACAAA82AB83120FF9124E4651
:104DE300124F4C124E5A740A120ACAE064017045FB
:104DF3008E828F83A3A3A3A3A3A3A3A3A3124992E6
:104E0300121779E97036124402901496E068700321
:104E1300A3E0697027E5084509601A1217198A0883
:104E23008B09AC08AD097402120ACAAA82AB8312B9
:104E33000FF3E96007AA18AB1912139BA90A740DA3
:104E4300023CE0124E4A22124B223FF58322EE240B
:104E530018F582E43FF583E8F0A3E9F02274F71232
:104E6300036E74CD1208C8EAFEEBFF8E828F8312A5
:104E73004F28A2E04003024F168E828F83124B19F4
:104E8300A3A3A3A3A3A3E054FE125B44740D1208CF
:104E930092124F3B124990121713E97076742A123B
:104EA3000ACA124F22706C7C0D7D007900AA18ABE0
:104EB30019120E677416120ACA124F4C124E5A7404
:104EC3002A120ACA124F1BA2E55008740B120ACA0F
:104ED3007401F0E8A2E75008740A120ACA7401F0D8
:104EE300E8A2E65004742080027422120ACA125601
:104EF300A97402120ACAAA82AB83120FF98E828F97
:104F030083A3A3E0C0E0740C120ACAD0E0124B3EA4
:104F13001213957433023B8112589DA3E0F82212B9
:104F23003BDF640422E0F8124F2E22A3E0C82406DC
:104F3300F582E438F583E022EA241EF582E43BF5AA
:104F430083E0F9EA1240B23B2212440F85188285AE
:104F5300198322E9F87900740468600A740A6860A6
:104F630005740368700279010207CC74F612036EAC
:104F73008A828B837424F0A3A37401F012133B8AF7
:104F8300088B09AE08AF09EE4F600D8E828F831236
:104F930055BC12171912545BEEFAEFFB024AFCC020
:104FA30082C0839014FA7401F0E9A2E350037403FE
:104FB300F0E9A2E15004E0D2E2F002497274F61281
:104FC300036E79007C008A088B0978081205CBF8F8
:104FD300FF07F54FF34FF34FF34FF34FEB4FEF4F04
:104FE300F54FE74F7C01800A7C0480067C02800237
:104FF3007C089014FAE05C600479028005EC60029E
:105003007901024AFC74F612036E8A828B83E07084
:1050130017A3A3A312503B600F8A828B83A3A3A37E
:1050230012499212154B80047A007B00024AFCEE6F
:10503300240FF582E43FF58312440FE84922C0822E
:10504300C0837C00EC75F003A4F8ADF0EDF91250C9
:10505300EB7003A3E06B7018902016E493C0E07428
:10506300FD28F58274143DF583D0E0F079C58062A4
:105073000CECC3940340CD7C00EC75F003A4F8A9B9
:10508300F074FE28F5827414122D0764FE7003A3D6
:10509300E0F4600F0CECC3940340DE7C00EC125090
:1050A300D87026EC75F003A4FCADF074FD2CF874F5
:1050B300143DF988828983A3125464902016E493E3
:1050C30088828983F0790080090CECC3940340CD76
:1050D30079C702497275F003A4F8A9F074FD28F5A5
:1050E30082741439F583E02274FE28F5827414392E
:1050F300F583E06A2274F412036E74F31208C88A0B
:10510300088B09ECFEEDFF750A12EA450970057973
:10511300000251B4901493E065087004A3E065099C
:10512300701D1217198A0A8B0BAC0AAD0BEEFAEF3E
:10513300FB120FF3E97005750A018003750A0085F8
:105143001882851983E4F004120ACA125EAA124B6C
:105153003E121317E9602A7403120ACAAA82AB83A8
:105163001212F9E964017019750A017403120ACA6B
:10517300AC82AD83EEFAEFFB120FF3E96003750A1D
:1051830000EEFCEFFDAA08AB091217FDE9F8740A5B
:10519300687005750A01801774A0687012EEFCEF41
:1051A300FDAA08AB09121809AA08AB0912181BA912
:1051B3000A740D02293774F712036EEAFEEBFF8EB1
:1051C300828F83A3A3A3A3A3A3A3A3E06013124685
:1051D3002112498612178BE964017005124E46802D
:1051E3002C8E828F83A3A3A3A3A3A3A3E06028127F
:1051F3004CFE12521F12499212178BE96401701769
:105203008E828F83A3A3A3A3A3A3A3A3A3124992D1
:10521300121785790180027900023B84122804A3C6
:10522300A3A3A3A3A3A3A3A32274F212036E74FDE7
:105233001208C88A088B09ECFEEDFF890B750A0179
:105243007401120ACA7404124B3E12176DEA4B60C2
:10525300427411120ACAE060141255A7E41258B33B
:105263008A828B83E0D2E7F0125299E4F01252A3C0
:10527300124B177403125455EE88828983A3A3F04B
:10528300EF88828983A3A3123951125EA3121BC92B
:10529300E9F50A023971EA2414F582E43BF5832225
:1052A30012396C3B2274F412036EEAFEEBFF890A97
:1052B300124630125899A3E0F50BEE2417123E78EC
:1052C300640460097AD37B00121125806FE50B1209
:1052D30006D901000EE05200DD52750A0012463075
:1052E300A3E0F9EE2409F508E43FF50988828983F0
:1052F300A3A3E0FA88828983A3A3A3E0F8E4C8F90F
:10530300EA28FCE439FDA90B850882850983124943
:10531300921213B385088285098312499212177971
:10532300E96019123E75C394024011124E4612579A
:10533300C87003A3E0696004A90A80027900022906
:105343003A74EE12036E74F51208C88A0A8B0B893D
:105353000D8C0E8D0F7E01EE120ACA740AF0741DB5
:10536300120ACAE0F50CE9700FE50CC333240AC036
:10537300E0EE120ACAD0E0F0AA18AB1912176D8A30
:10538300088B09EA4509700302543EEA1248A41245
:10539300550A7409F0A3E50DC43354E0450C1255C6
:1053A3001FAC0EAD0FEEFAEFFB120FF9EE2408FE61
:1053B30050010FE50D702F7C00741E120ACA1230C3
:1053C30088801D12544BEA28F8EB39F988828983C7
:1053D30012551A88828983123059F0A30EAF830CB9
:1053E300ECC3950C40DDE50824171248AE7401F0B8
:1053F300121719E508241AF582E435091254627468
:1054030003120892AA0AAB0B1212FFE96019E5080E
:1054130024161248AE7401F07403120882E50812D0
:1054230054453509124E58850882850983A3A31272
:105433005453AA08AB09121BC9E9FEEEF9740B0217
:1054430046722418F582E422EC25E0F8E433F922CD
:10545300E50AF0A3E50BF022EE241AF582E43FF50A
:1054630083EAF0A3EBF02274F012036E8A0A8B0B2B
:10547300890D8C088D0990136612503B6079741066
:10548300120ACAE0F50C12544CE8240EFAE439FB74
:10549300120E798A0E8B0FAE0EAF0FEE4F60588E41
:1054A300828F8374D4F01254FDA3A3E50DF0AC08EE
:1054B300AD09EE2405FAE43FFB120FF9EE123F7C2F
:1054C3003FF583E50CF07411120ACA12588E78085E
:1054D3001207E8AC0CEC2CFCE433FDEE240EFAE4EA
:1054E3003FFB120E5B74031207FFEEFAEFFB901300
:1054F300661258991204E60237EAA3A3E50AF0A359
:10550300E50B1243D7A322F583125515FF8E828F25
:105513008322E0FEA3E022E08E828F83F0A3AE829B
:10552300AF832274F012036E74FD1208C88A0A8BCB
:105533000B8C088D09890D750C017401120ACA744C
:1055430003124B3E12176D8A0E8B0FAE0EAF0FEE8A
:105553004F603D124B14740BF0A3E50D1255A0746C
:1055630013120ACA12559A1255BE12171912545B16
:105573001258EAEE1254453F125EA18E828F83A326
:10558300A3E50AF0A3E50B1255B1121BC9E9F50C0B
:10559300A90C74030237E7E08882898322F0A3A869
:1055A30082A98322EA2417F582E43BF58322125E63
:1055B300877401F0EEFAEFFB227401F0EE24171268
:1055C30058F12274F012036EEA1258E43B12569219
:1055D300F8A3E0FEE8600302568F74016E6008745E
:1055E300026E600302568FEE901413F07508137564
:1055F300091478081207EC75080175090078081278
:1056030007EC7C007D007A517B00120F8D7404122D
:1056130007FF74026E707590163FE0700A901EDAF1
:10562300780812097F8028F5087402780812096C3B
:1056330074DA2508F582741E1248B1780812097FBE
:105643009081B1780C120A737808790C12027F905A
:1056530081C1780C120A737808790C1202FF9081C9
:10566300BD780C120A737808790C12027F90141516
:105673007808120A559014151206507A007B409050
:1056830014EDE0F9120FC974041207FF0237EAF5AB
:1056930083E02401F8A3E03400F988828983E022BF
:1056A300F582E43FF5831256AD22E0FCA3E0FD2230
:1056B30074F612036EEAFEEBFF9014FB80138882EC
:1056C3008983E06E7003A3E06F603A88828983A3C5
:1056D300A312503B70E87A047B00120F098A088BEF
:1056E30009A808A909E849601C888289831258C35C
:1056F3009014FB12499288828983A3A31254649065
:1057030014FB124E5A024AFC74F412036E7E00908C
:1057130014FB80070E8A828B83A3A3123AD270F400
:10572300EE25E0FAE433FB120F098A088B09EA45F8
:1057330009607F7C009014FB80228A828B83E0F5D2
:105743000AA3E0F50B12544BE50828F582E5093965
:10575300F5831254530C8A828B83A3A3123AD2701B
:10576300D99014E81257C87003A3E0697808701C35
:105773001207ECEEF50A780A1207F07CB47D14796F
:10578300009014E81249921217A9801A1207ECEE3E
:10579300F50A780A1207F07CB47D1479009014E8B6
:1057A3001249921217A374031207FFAA08AB091236
:1057B3000F0F12134D02293A8E828F83A3A3A3A343
:1057C300A3A3A3A3A312440F901493E06822C0825F
:1057D300C08380128A828B83A3A312440B9014FB91
:1057E300124E5A120F0F9014FB123AD270E602496E
:1057F3007274F512036E9014A0123CD190150F121F
:105803002ED8124E5A7A0F7B1579501212759015B5
:105813000F12588E8013125A937004A3E065096027
:1058230006125AA01217EB050A902017E493F8E525
:105833000AC3985020E50A75F017A4F8A9F0125985
:10584300906E7003A3E06F70CD742828F5827408FE
:10585300125EA080D290150F123CD19013681250A3
:105863003B60257A067B00120E79EA4B601A8A8226
:105873008B8374D5F0A3A3E41258A6041258B390F3
:1058830013681258991204E6023CE3123BF7750AB7
:1058930000228E828F8312589D22E0F8A3E0F583C5
:1058A3008882221258AA22F08A828B83A3A3A3227E
:1058B3001258BA1258C3221258BE221258AAA3224F
:1058C300EEF0A3EFF022E0F50CA3E0F50D22124475
:1058D3000FC3227F07020585EE2402FAE43FFB2271
:1058E300EE241DF582E422EE24161258F122F582ED
:1058F300E43FF5837401F0221258FF22E0F8A3E09D
:10590300F98E828F832274F712036E7E008008EE75
:10591300125A991217EB0E12594A40F37E00EE7594
:10592300F003A4F8A9F074FD28F8741439F98882F7
:105933008983A374FEF0A304125B3EE4F00EEEC36E
:10594300940340DA023B84902017E493F8EEC39863
:105953002274F712036E7E0080010E12594A5026FC
:10596300EE1259A06A7003A3E06B70EE1259906CAB
:105973007003A3E06D600A74FF6C700374FF6D70B5
:10598300D9125AA080047A007B00023B84125994F6
:1059930022742828F582740839F583E02275F017FC
:1059A300A4F8A9F01259AB22125C23E02274F61278
:1059B300036E7CFF7DFF7AFE7BFF1217D9EA4B70E3
:1059C3003C7508008032E50875F017A4F8A9F07457
:1059D3002D28F5827408122D076005125C2E7016AF
:1059E300741E28FE740839FF8E828F831249921227
:1059F3001443EEFAEFFB0508125A0340C9024AFCAE
:105A0300902017E493F8E508C39822902017E493B5
:105A1300F8ECC3982274F412036E8A088B09ECFE27
:105A2300EDFF800B1217EBEEFCEFFDAA08AB09129A
:105A330017D9EA4B70EE02293A74F712036EEAFEA5
:105A4300EBFFEE4F60187C177D007900120E678E16
:105A5300828F8374FEF0A304125D41F0A3F0023B36
:105A63008474F612036E8A088B097E00801AEE7521
:105A7300F017A4F8A9F0125A937004A3E065096023
:105A830006125AA01217EB0E12594A40E1024AFCC1
:105A930012599465082275F017A4F8A9F0741E280A
:105AA300FA740839FB2274F612036E1217D98A08A6
:105AB3008B09A808A909E8496009E8240DFAE43923
:105AC300FB80047A007B00024AFC74F412036E8AA2
:105AD300088B09ECFEEDFF750A00750B00802FE5BE
:105AE3000B125D9B1212F9E96022E50B1259A065B6
:105AF300087004A3E065097003750A0AEEFCEFFD64
:105B0300125DA2120FF3E96003430AA0050B902074
:105B130017E493F8E50BC3985004E50A60C1A90A9A
:105B230002293AE508240FF582E422125B39A3A384
:105B3300A3A3A3A3A322125B3EA322F0888289839B
