:020000040000FA
:1000000002002700000080FB120051B9000302002B
:100010001175828075830074001200337582037538
:100020008300740012003375D0007581BF759F0086
:10003000020008C09FF59FE473D09F22D083D08236
:10004000C09FE493C0E0740193C0E0740293F59FF5
:100050002279012212003C5A0000780079008012B7
:100060000000000CECC394F040F6E82401F8E934F9
:1000700000F9C3E89AE99B50047C0080E70200394C
:10008000E5F4F875F400E5FE75FEFFE590F4F590F3
:090090007AE87B0312005480F2AF
:0400000500000027D0
:00000001FF
