:020000040000FA
:06000000020A4D0201CDD1
:03002B0002083D8B
:0300430002070BA6
:03005300020102A5
:10008300020161010124341201000004C98903A1A2
:10009300890020FD000206FFFF010101040200C5E3
:1000A3001A000000E8030000FFFF8E1BE8030000B6
:1000B30064006400A0BB0D00A0BB0D00020008009B
:1000C300000502070101051E02051E020A0A0102BC
:1000D3000803B80B02803E0102E8030A050001FF92
:1000E300FF14010105030101FF0F10FEFF5A230056
:1000F300000000CC2100000000FF000000FF00C052
:10010300E074F11203E4A2AFE433F509D2AF85A79B
:1001130008AFA1EF5508FE74105E6006120C35752A
:10012300A1EF74085E6008120C3B75A1F78024EF01
:10013300A2E092F0E508A2E082F05017906198E007
:10014300F8900787E0C398A2D265D0335002E8F055
:1001530075A1FEE509A2E092AF7F02020443C0E06D
:1001630074F21203E4A2AFE433FED2AF9061A4E0D1
:10017300F8759B00E59158540860087591F7120CC7
:10018300838023E59158541060087591EF120C8910
:100193008014E591A2E092F0E8A2E082F05007E03B
:1001A300C2E0F0120DDF9061A3E0F8E5E9585404D2
:1001B300600E120DB575E9FB906193E0A2E640F283
:1001C300EEA2E092AF7F01020443C0E074F2120397
:1001D300E4A2AFE433FED2AF9061A5E0F8E5BF58E7
:1001E3005404600675BFFB120DF780D4C3E498F87E
:1001F300E499F91202308026C3E49AFAE49BFBE9FE
:1002030020E7E9120230E498F8E499F922C3E4986C
:10021300F8E499F9120230E498F8E499F9C3E49AFE
:10022300FAE49BFB22EB20E7CFE920E7E0B90010DB
:10023300BB0008E88AF084F8AAF022E4FBC8FA229B
:10024300EB70227B10C833C8C933C9335007C39A34
:10025300C3DBF280069A50012ADBEAC833F4C8C92B
:1002630033F4C9FA2275F008E4C833C8C933C93373
:10027300C99AC99B5004C92AC93BD5F0ECFBC833C2
:10028300F4C8E4C9FA22080808EAC0E0EBC0E08633
:10029300F0E7A4FA180986F0E7A42AFA180986F009
:1002A300E7A42AFA180986F0E7A42AFA1986F0E7E0
:1002B300A4FBE5F02AFA190886F0E7A42BFBE5F086
:1002C3003AFA190886F0E7A42BFBE5F03AFA181876
:1002D3000986F0E7A4C5F02BFBE43AFA1908E7C551
:1002E300F0C6A426F6E5F03BFBE43AFA1886F0E7FD
:1002F300A4F6E5F00826F6E43B08F6E43A08F6D05F
:10030300E0FBD0E0FA22E4CFC0E0E4CEC0E0E4CDED
:10031300C0E0E4CCC0E075F020E626F608E633F64C
:1003230008E633F608E633F6181818EC33FCED3319
:10033300FDEE33FEEF33FFC3EC9709ED9709EE971C
:1003430009EF97191919400FFFEC97FC09ED97FD79
:1003530009EE97FE191906D5F0BFECF709EDF70979
:10036300EEF709EFF7191919D0E0FCD0E0FDD0E062
:10037300FED0E0FF222518C582C0E0E51934FFC591
:1003830083C0E0E518C3958224F810AF088583196C
:100393008582188008858319858218D2AFCEF0A391
:1003A300E520F0A37808E608F0A3DEFAEFF0A3E572
:1003B3008124FAF8E608F0A3E608F0A3E608F0A320
:1003C3000808E608F0A3E608F0A315811581D0E03C
:1003D300FED0E0F8158115811581E8C0E0EEC0E09C
:1003E30022C0D02518C582C0E0E51934FFC583C0FB
:1003F300E0E518C3958224F310AF0885831985823D
:10040300188008858319858218D2AFC8F0A3E9F054
:10041300A3EAF0A3EBF0A37908E709F0A3D8FAEC79
:10042300F0A3EDF0A3EEF0A3EFF0A3D0E0F0A3D0A0
:10043300E0F0A3D0E0F0A3E520F0A3E5F0F0A322E1
:10044300851983851882E0C0E0A3E0F9A3E0FAA34D
:10045300E0FBA37808E0F608A3DFFAE0FCA3E0FDE5
:10046300A3E0FEA3E0FFA3E0C0E0A3E0C0E0A3E0BD
:10047300F5D0A3E0F520A3E0A3F5F010AF08858342
:10048300198582188008858319858218D2AFD08296
:10049300D083D0E0F8D0E032120ADFB900030204BF
:1004A300DAE4900301783F791C8002F0A3D8FCD9E9
:1004B300FA7A3F7B1E900086787D79018015E4935C
:1004C300A3AD82AE838A828B83F0A3AA82AB838D92
:1004D300828E83D8E9D9E77582D97583AE74041205
:1004E30007CE75821175832174001207CE75F01043
:1004F3008E1A8F1B85821F85831E8518828519831B
:10050300E0CEA3E0CF851F82851E83EBC9EAC8ED49
:10051300CBECCAC3E833C8E933C9EA33CAEB33CBFC
:10052300C3EA9EF51DEB9FF51CB35004AB1CAA1D3B
:10053300EC33CCED33CDD5F0DAAE1AAF1B22D0833A
:10054300D082ECC0E0EDC0E0E493A3FCE493A3FD10
:10055300ED4C600D120619EC24FFFCED34FFFD8019
:10056300EFE493A3FCE493A3FDED4C600D1206B6F8
:10057300EC24FFFCED34FFFD80EFD0E0FDD0E0FC88
:10058300E493A3C0E0E493C0E02285198385188235
:10059300E0A3FEE0A3F5207808E0A3F608DFFAE085
:1005A300A3FFE0A3C0E0E0A3C0E0E0A3C0E0E0A3BA
:1005B300C0E0E0A3C0E010AF0885821885831980EE
:1005C30008858218858319D2AFD083D0820207D4DD
:1005D300D083D082E9C0E0E493A3C386F0C5F0954D
:1005E300F0F908E493A386F0C5F095F0700BE4935B
:1005F300A3C3994005E9048002A3E475F002A4258E
:1006030082F582E5F03583F583D0E0F9E493A3C066
:10061300E0E493C0E022C0E0C3E49396087401933E
:100623009618400FE4936670080874019366187077
:10063300007019A3A3C3E49396087401939618A3B7
:10064300A3400DD0E0D0E0D0E002057DA3A3A3A397
:10065300A3A3D0E0227404800474028000CCC0E021
:10066300EDC0E0E518C39CCCAD1950011D10AF06D9
:100673008C188D1980068C188D19D2AF120750D0A3
:10068300E0FDD0E0FC2274028000CCC0E0EDC0E0CD
:10069300E518C39CCCAD1950011D10AF068C188D05
:1006A3001980068C188D19D2AF12072ED0E0FDD019
:1006B300E0FC22C0E0C0F088F0E4936670080874A0
:1006C300019366187000A8F0A3A3700BD0F0D0E0DC
:1006D300D0E0D0E002057DA3A3D0F0D0E022D08308
:1006E300D082CCC0E0E493A360061207AF1470FA83
:1006F300E493A360061208BA1470FAD0E0FCE49302
:10070300A3C0E0E493C0E022C0E074F21203E4A2C9
:10071300AFE433FED2AFC2C0E5D1A2E45003120B63
:1007230069EEA2E092AF7F01020443CAC0E0E49302
:10073300A3C582CCC582C583CDC583F0A3C582CCB6
:10074300C582C583CDC583DAE5D0E0CA22CAC0E03D
:10075300E0A3C582CCC582C583CDC583F0A3C58282
:10076300CCC582C583CDC583DAE6D0E0CA22C008F2
:10077300C3E096F50808A3E096420808A3E0964272
:100783000808A3E09645087001D3D0082270090831
:100793000808226016181818C6C333C608C633C61D
:1007A30008C633C608C633C6D5E0EA22C0E0E493E0
:1007B300A3D39C5010E493A3C39C400AD0E0D0E0A1
:1007C300D0E00206FEA3A3A3D0E022C09FF59FE4DE
:1007D30073D09F22D083D082C09FE493C0E0740182
:1007E30093C0E0740293F59F227404800A7403801B
:1007F30006740280027401C0E0F404120822D0E0FF
:10080300120A8A2200C0D0251810AF08F518500C20
:1008130005198008F51850020519D2AFD0D022254A
:1008230018F58210AF08F518400C15198008F51853
:1008330040021519D2AF85198322C0E0C0D0E8C0A9
:10084300E0A8A8D2AFC2C7E8A2E792AFD0E0F8D041
:10085300D0D0E032BB0102E722C082C08389828A02
:1008630083BB0003E08002E493D083D0822260162E
:10087300080808C6C313C618C613C618C613C61875
:10088300C613C6D5E0EA222518F8E43519F922255E
:1008930018FAE43519FB222518FCE43519FD22C3A7
:1008A300E0C696F608A3E0C696F608A3E0C696F659
:1008B30008A3E0C696F622C0E0E493A36C7009D0C7
:1008C300E0D0E0D0E00206FEA3A3D0E0222518107A
:1008D300AF08F518400C15198008F51840021519D2
:1008E300D2AF22E066701008A3E066700A08A3E0A6
:1008F30066700408A3E06622C3E09608A3E09608A6
:10090300A3E09608A3E096A2D265D03322E76670EF
:10091300100809E766700A0809E76670040809E722
:100923006622C3E096F008A3E096F008A3E096F0F1
:1009330008A3E096F022C3E697F60809E697F608BF
:1009430009E697F60809E697F622C3E49396087436
:100953000193960874029396087403939622E627EC
:10096300F60809E637F60809E637F60809E637F622
:1009730022700422600D18C6C333C608C633C6D519
:10098300E0F41822E493F608740193F608740293D2
:10099300F608740393F622E657F60809E657F608B5
:1009A30009E657F60809E657F622E056F608A3E0EB
:1009B30056F608A3E056F608A3E056F622E056F0F2
:1009C30008A3E056F008A3E056F008A3E056F0228F
:1009D300E026F608A3E036F608A3E036F608A3E01F
:1009E30036F622E647F60809E647F60809E647F62B
:1009F3000809E647F622E026F008A3E036F008A34C
:100A0300E036F008A3E036F022E4C396F608E49655
:100A1300F608E496F608E496F622C6F4C608C6F489
:100A2300C608C6F4C608C6F4C622C3E7960809E793
:100A3300960809E7960809E79622C3E09608A3E01B
:100A43009608A3E09608A3E0962275D00075813F2F
:100A53007518017519030002049BE6F008A3E6F07C
:100A630008A3E6F008A3E6F022600C08C6C313C689
:100A730018C613C6D5E0F422E0F608A3E0F608A3EF
:100A8300E0F608A3E0F622CAC0E0E6F0A308DAFA2B
:100A9300D0E0FA22E8F0A3E9F0A3EAF0A3EBF02216
:100AA300E0F8A3E0F9A3E0FAA3E0FB22ECF0A3ED66
:100AB300F0A3EEF0A3EFF022E0FCA3E0FDA3E0FE41
:100AC300A3E0FF22EAF0A3EBF0A3ECF0A3EDF02206
:100AD300E0FAA3E0FBA3E0FCA3E0FD22E5C754F8A2
:100AE3004401F5C77901222518F582E43519F58308
:100AF30022C2AF75D69F020000221207D7A3BD04FE
:100B03001207D7FAFF011207D7EEFF031207D7F137
:100B1300FF031207D7F4FF031207D7F7FF031207E8
:100B2300D7FAFF031207D77A9B041207D7889B04CF
:100B33001207D7019C041207D7D59C041207D7A725
:100B43009E041207D7C8FF021207D7CF86041207E5
:100B5300D73B87041207D7F387041207D7DF88042C
:100B63001207D74F8A041207D7B68A041207D7028F
:100B73008B041207D7138B041207D7238B04120796
:100B8300D7968B041207D7AC8B041207D7BCBE04CD
:100B93001207D7D8BE041207D7E0BE041207D7EF57
:100BA300BE041207D7FABE041207D705BF04120703
:100BB300D70EBF041207D714BF041207D72BBF04E5
:100BC3001207D75FBF041207D77ABF041207D7BA39
:100BD300FA031207D7E6FA031207D757FD031207E2
:100BE300D797FD031207D7D7FD031207D7EBFD03F2
:100BF3001207D704FE031207D7F5FE031207D79A8D
:100C0300FF031207D7AEFF031207D7E3B704120798
:100C1300D707B8041207D720B8041207D752B8046D
:100C23001207D782B8041207D7AFB8041207D71137
:100C3300B9041207D720B9041207D72AB904120737
:100C4300D737B9041207D743AC041207D763AC04F0
:100C53001207D7A2AC041207D7BDAC041207D7DC26
:100C6300AC041207D742AD041207D74BAD041207E9
:100C7300D7A8AD041207D7CCAD041207D78DAE04A5
:100C83001207D79AAE041207D7ABAE041207D76385
:100C9300C2041207D77BC2041207D7A7C2041207E4
:100CA300D77FFB021207D7D3FC021207D7E1FC025E
:100CB3001207D7F4FC021207D709FD021207D71E49
:100CC300FD021207D731FD021207D7A5FD02120755
:100CD300D70AFE021207D7ACFE021207D770FF0233
:100CE3001207D780FF021207D78FFF021207D7CA56
:100CF300C1041207D7EEC1041207D716C2041207A4
:100D0300D73EC2041207D7A3B3041207D7CAB3044A
:100D13001207D7E8B3041207D75BB4041207D7321C
:100D2300A9041207D74BA9041207D757A90412071E
:100D3300D76BA9041207D789A9041207D793A9046B
:100D43001207D79DA9041207D7B0A9041207D73AEF
:100D5300AA041207D7AFAA041207D7E3AA041207FB
:100D6300D731AB041207D77EAB041207D799AB0474
:100D73001207D7A3AB041207D7C9AB041207D72EA8
:100D8300AC041207D713C1041207D735C1041207E5
:100D9300D755C4041207D76FF6011207D799F60186
:100DA3001207D7B6F6011207D7C9F6011207D7DF24
:100DB300F6011207D73DF7011207D775F70112079E
:100DC300D76DFB011207D7B2FC011207D7E5FC016F
:100DD3001207D748FD011207D7CBFE011207D7F33D
:100DE300FE011207D708FF011207D718FF011207E8
:100DF300D75CFF011207D7B7FF011207D7C7FF015F
:100E03001207D781BA041207D79BBA041207D7C3B4
:100E1300BA041207D7DCBA041207D700BB041207BF
:100E2300D71EBB041207D735BB041207D763BB0415
:100E33001207D77EBB041207D7AAC3041207D70C25
:100E43009F041207D71C9F041207D723A00412077D
:100E5300D757A0041207D779A0041207D79CA00480
:100E63001207D7BAA0041207D7F4A0041207D75960
:100E7300A1041207D79BA1041207D7DAA104120712
:100E8300D70BA2041207D742A2041207D7C6B50490
:100E93001207D7E6B5041207D7CBB6041207D7B3A8
:100EA300B7041207D79AA2041207D7A7A2041207FE
:100EB300D7BFA2041207D7D6A2041207D732A304BE
:100EC3001207D767A3041207D721A4041207D75B1D
:100ED300A4041207D7F7A4041207D749A5041207DD
:100EE300D75FC0041207D79CC0041207D7DEC00423
:100EF3001207D7EEC0041207D7F8C0041207D710A1
:100F0300C1041207D70080041207D70A800412070E
:100F1300D74480041207D7AD80041207D7CA8004D0
:100F23001207D76C81041207D77581041207D7BA49
:100F330081041207D7E381041207D7F08104120753
:100F4300D76182041207D7EC82041207D73A8304CD
:100F53001207D77883041207D7DD83041207D7005B
:100F630084041207D77784041207D7CE84041207A8
:100F7300D70985041207D73E85041207D750850485
:100F83001207D76285041207D78185041207D78A0F
:100F930085041207D74586041207D79186041207E2
:100FA300D741B9041207D76DB1041207D7A3B1040F
:100FB3001207D7EBB1041207D744B3041207D79C27
:100FC300B2031207D7C0B3031207D7FAB30312074A
:100FD300D7A4B5031207D7CEB5031207D743B80377
:100FE3001207D783B8031207D719BA031207D7B664
:100FF300BA031207D708BB031207D7ABBB03120709
:10100300D7E3BB031207D725BC031207D794BD034D
:101013001207D7E2BE031207D713C1031207D74142
:10102300C1031207D768C1031207D771C10312079F
:10103300D7C1C1031207D753C2031207D782C5030F
:101043001207D705C6031207D717C4041207D72DF3
:10105300C4041207D75FC3041207D7109004120702
:10106300D72690041207D7CA90041207D709910410
:101073001207D72691041207D75791041207D7A452
:1010830091041207D7D791041207D71292041207BB
:10109300D70794041207D7BCBD041207D71BBE049D
:1010A3001207D759BE041207D79ABE041207D7F204
:1010B3009D031207D7379E031207D7C69E03120755
:1010C300D723A0031207D7ECA0031207D767A10306
:1010D3001207D7B9A1031207D71AA2031207D753CE
:1010E300A2031207D793A2031207D79BA3031207E6
:1010F300D7D6A3031207D703A4031207D75FA4030A
:101103001207D78DA4031207D7A7A4031207D7EE9C
:10111300A4031207D70EA5031207D7CBA503120703
:10112300D7ACA6031207D706A7031207D74AA7030C
:101133001207D766A7031207D7E2A9031207D7FE40
:10114300A9031207D775AA031207D79AAA0312078E
:10115300D711AB031207D7DEAB031207D723AC03B8
:101163001207D785AC031207D748AD031207D74B35
:10117300AD031207D755AD031207D75FAD031207AF
:10118300D762AD031207D7E2AD031207D70BAE0345
:101193001207D719AE031207D740AE031207D7645D
:1011A300AE031207D79FAE031207D711AF0312077F
:1011B300D714AF031207D71EAF031207D75FAF03CE
:1011C3001207D78CAF031207D7ACAF031207D7F5BB
:1011D300AF031207D72CB0031207D729B1031207A5
:1011E300D753B2031207D769B2031207D7B27F00EE
:1011F3001207D7CA7F001207D7B1BB041207D784DF
:10120300F3031207D7D3F3031207D773F5031207B8
:10121300D72EF7031207D770F7031207D78FF803F8
:101223001207D799F9031207D7BBF9031207D7059A
:10123300FA031207D786FA031207D70080031207AF
:10124300D71F80031207D7AB80031207D7F480039D
:101253001207D74E81031207D7C681031207D72778
:1012630082031207D77382031207D7E78203120799
:10127300D76C83031207D7E483031207D7278403AA
:101283001207D74088031207D7838A031207D7347C
:101293008B031207D7B68B031207D7F38B031207FF
:1012A300D7B88D031207D7B78F031207D7819003DF
:1012B3001207D7FA92031207D77393031207D7645F
:1012C30094031207D79F97031207D7AF9703120709
:1012D300D72699031207D7AB99031207D7F89A03B6
:1012E3001207D73D9C031207D7A49C031207D740CC
:1012F3009D031207D7D16F001207D7717000120731
:10130300D7DB70001207D78271001207D7E1710093
:101313001207D78D72001207D73675001207D75CF4
:1013230076001207D7E076001207D7BD78001207C0
:10133300D76A79001207D7007A001207D7A27B0079
:101343001207D7B27C001207D7547D001207D77358
:101353007E001207D7E1D2031207D753D303120734
:10136300D79BD3031207D7DDD3031207D73AD4038E
:101373001207D78DD4031207D7F5D4031207D70B5F
:10138300D6031207D733D6031207D715D70312078D
:10139300D726D7031207D73ED7031207D73AD80366
:1013A3001207D76BD8031207D774D8031207D78B4A
:1013B300D8031207D79CD8031207D7CFD803120735
:1013C300D7E6D8031207D7E3D9031207D79FDA0367
:1013D3001207D7D9DA031207D7DBDB031207D7AE1D
:1013E300DC031207D74EDD031207D7C2DD03120752
:1013F300D7D7DD031207D7F2A5041207D79AA7049C
:101403001207D760A8041207D7B5A8041207D71488
:1014130094041207D73294041207D7769404120760
:10142300D79C94041207D7C294041207D7DA940402
:101433001207D7F294041207D75595041207D797CA
:1014430095041207D7B996041207D7C29604120758
:10145300D7CB96041207D7D496041207D7DE960487
:101463001207D7B68B041207D7968F041207D7A497
:101473008F041207D7A98F041207D7FAAF041207F4
:10148300D7C2FF031207D737C4041207D78B25002F
:101493001207D7E225001207D74E26001207D7DA24
:1014A30026001207D79027001207D7D82700120764
:1014B300D7F127001207D71428001207D7522800A4
:1014C3001207D7A128001207D7CC28001207D72A62
:1014D30029001207D7D129001207D7792A0012074A
:1014E300D7F52A001207D7C22B001207D7322C00D8
:1014F3001207D74E2C001207D77D2C001207D7896D
:101503002E001207D7B72F001207D7E32F001207B9
:10151300D71730001207D73830001207D7473000EB
:101523001207D75230001207D70131001207D771C3
:1015330031001207D7FC31001207D704320012071B
:10154300D77132001207D7D3CE031207D7733300F4
:101553001207D74634001207D79B34001207D7BDB2
:1015630035001207D7A136001207D7C63600120777
:10157300D73837001207D7D337001207D7C338003D
:101583001207D7E838001207D7003A001207D71E10
:101593003A001207D73A3A001207D7CC3A0012079B
:1015A300D7DC3A001207D70A3C001207D73DBD0427
:1015B3001207D7CA3C001207D7A43E001207D7610F
:1015C30042001207D77542001207D77F4200120765
:1015D300D78942001207D79342001207D79D4200D2
:1015E3001207D7B642001207D7C042001207D72D01
:1015F30043001207D73843001207D760430012078E
:10160300D76B43001207D7D043001207D7DA430042
:101613001207D7E543001207D70944001207D72D55
:1016230044001207D79F44001207D7E8440012076B
:10163300D70445001207D77545001207D7C14500E7
:101643001207D70A46001207D74846001207D7C920
:1016530046001207D77047001207D73F4900120709
:10166300D7A449001207D7D24A001207D7F84A0075
:101673001207D7404C001207D77A4F001207D778CA
:1016830051001207D74353001207D7DC5300120748
:10169300D7DD55001207D79256001207D7CB560055
:1016A3001207D73157001207D73B57001207D764E9
:1016B30059001207D7A35A001207D7FA5A00120784
:1016C300D7A55B001207D7555D001207D7A25E00AE
:1016D3001207D7C25E001207D7175F001207D71889
:1016E30060001207D74060001207D79F60001207FF
:1016F300D79761001207D70E62001207D721630044
:101703001207D78F63001207D78E64001207D7E83A
:1017130066001207D71167001207D7776800120710
:10172300D7F969001207D7506A001207D7FE6A007B
:101733001207D7A36B001207D7FC6B001207D7BAA7
:101743006C001207D74C6D001207D7AB6D00120760
:10175300D7ED6D001207D71E6E001207D7756F0005
:101763001207D70080021207D73280021207D76B05
:1017730080021207D72982021207D76D820212074D
:10178300D74183021207D7A083021207D7B6840278
:101793001207D70285021207D79087021207D76A6A
:1017A3008A021207D7B18B021207D7498C0212079C
:1017B300D7558C021207D79E8C021207D7E08D02F1
:1017C3001207D7D68E021207D7008F021207D756F9
:1017D3008F021207D7AF8F021207D7229002120788
:1017E300D75892021207D7DA93021207D7BF94028F
:1017F3001207D70996021207D74198021207D73E5C
:101803009B021207D74D9B021207D7E19B021207D7
:10181300D7249C021207D7A39C021207D7209F024A
:101823001207D752A0021207D72AA1021207D7AC78
:10183300A1021207D7E1A5021207D710A6021207C9
:10184300D76BA6021207D79EA6021207D722A702BA
:101853001207D772A7021207D7DFA8021207D7030E
:10186300A9021207D73AA9021207D747A9021207FA
:10187300D74AA9021207D779A9021207D771AB0277
:101883001207D730AC021207D75FAC021207D7E8B2
:10189300AD021207D77CAE021207D78BAE02120736
:1018A300D7FEAE021207D722B1021207D781B102C7
:1018B3001207D7D5B1021207D704B4021207D7E72C
:1018C300B4021207D7A3B5021207D7B7B50212079E
:1018D300D7E4B5021207D714B6021207D71BB80212
:1018E3001207D7C6B8021207D74AB9021207D7910F
:1018F300B9021207D703BA021207D758BB0212075D
:10190300D701BC021207D719BC021207D7BCBC020D
:101913001207D738BF021207D7E0C0021207D7FE5B
:10192300C0021207D7688A011207D7A08A011207DB
:10193300D7A08F011207D7E68F011207D71C910199
:101943001207D78191011207D7F692011207D70028
:1019530096011207D72B97011207D73EA101120751
:10196300D7CEA1011207D7B8A4011207D7C5A50185
:101973001207D738A6011207D79CA7011207D77BF6
:10198300A8011207D7E9AA011207D77BAC011207F6
:10199300D708AD011207D72FAE011207D757AE01F3
:1019A3001207D7F7AE011207D7E2AF011207D7AF7D
:1019B300B0011207D7CCB0011207D7F5B001120757
:1019C300D722B1011207D769B3011207D738B4017F
:1019D3001207D777B4011207D7F9B4011207D79AC0
:1019E300B5011207D7CCB5011207D713B6011207F9
:1019F300D746B6011207D78AB6011207D7D9B6015F
:101A03001207D7DEB6011207D73AB7011207D77EFE
:101A1300B7011207D758B8011207D7BDB80112078B
:101A2300D723B9011207D79EB9011207D706BD0103
:101A33001207D709BE011207D787BF011207D79D27
:101A4300C2011207D73FC3011207D788C501120786
:101A5300D743C6011207D782C6011207D75AC80156
:101A63001207D777C8011207D780C8011207D78991
:101A7300C8011207D794C8011207D7B3C8011207C8
:101A8300D757CA011207D7B4CA011207D7BECA0172
:101A93001207D7D8CA011207D7E9CB011207D732E9
:101AA300CC011207D7ECCC011207D703CE011207E2
:101AB300D7D8CE011207D71FD0011207D723D101E0
:101AC3001207D71CD2011207D734D2011207D76BE2
:101AD300D2011207D775D2011207D780D20112079C
:101AE300D79ED2011207D7E6D2011207D744D301FA
:101AF3001207D76BD3011207D77DD3011207D73251
:101B0300D4011207D76BD4011207D78DD501120761
:101B1300D7E0D5011207D7C6D6011207D7EDD601F4
:101B23001207D75DD7011207D7D9D7011207D735C7
:101B3300D9011207D75CDA011207D71EDB0112079E
:101B4300D7ECDB011207D7AADC011207D792DD011C
:101B53001207D73CDE011207D7A4DE011207D759BB
:101B6300DF011207D7B5DF011207D70DE001120716
:101B7300D7D3E0011207D7F6E0011207D7B1E1018D
:101B83001207D7D3E1011207D734E2011207D76452
:101B9300E4011207D75DE5011207D709E601120731
:101BA300D72AE8011207D773E8011207D7BEE80165
:101BB3001207D71AE9011207D778E9011207D79C50
:101BC300E9011207D7C0E9011207D7F5E9011207A6
:101BD300D71DEA011207D762EA011207D7B6EA0155
:101BE3001207D70FEB011207D709EC011207D7A78A
:101BF300ED011207D7ECED011207D715EE0112071D
:101C0300D79EEE011207D711EF011207D71FEF017D
:101C13001207D743EF011207D799EF011207D7B481
:101C2300EF011207D76FF0011207D79BF0011207DC
:101C3300D7DEF0011207D741F1011207D74FF301A5
:101C43001207D77BF3011207D736F4011207D71A0D
:101C5300F5011207D7AEF5011207D704E9031207FE
:101C6300D73CE9031207D75DE9031207D79FE903BE
:101C73001207D703EA031207D70DEA031207D71D8A
:101C8300EA031207D754EA031207D7FDED0312073D
:101C9300D7C5EF031207D7A9F1031207D74BF203F6
:101CA3001207D7D5F2031207D78EC1021207D7370F
:101CB300C2021207D716C3021207D722C4021207A1
:101CC300D742C4021207D764C5021207D714C7024A
:101CD3001207D781C7021207D752C8021207D75873
:101CE300C9021207D7D0C9021207D70BCA021207BB
:101CF300D764CA021207D79FCA021207D7E8CA02DB
:101D03001207D77CCB021207D712CC021207D7E7F0
:101D1300CC021207D7BACD021207D748CE02120758
:101D2300D76ECE021207D79BCE021207D7CCCE02B4
:101D33001207D799CF021207D7A9CF021207D7FCF0
:101D4300CF021207D709D0021207D716D002120703
:101D5300D71FD0021207D783D0021207D7E1D002D0
:101D63001207D72CD1021207D747D1021207D76E19
:101D7300D1021207D78BD1021207D797D1021207CC
:101D8300D728D3021207D741D3021207D7BDD302F4
:101D93001207D7D0D3021207D7E0D3021207D78492
:101DA300D4021207D7F0D5021207D703D7021207BE
:101DB300D7A3D7021207D7ADD7021207D72CD80261
:101DC3001207D73DD8021207D77CD8021207D7AA29
:101DD300D8021207D777D9021207D7CED902120732
:101DE300D707DA021207D75DDA021207D77BDA02C6
:101DF3001207D7C9DA021207D794DB021207D7E218
:101E0300DB021207D72FDC021207D7B2DC0212075C
:101E1300D7DCDC021207D712DD021207D721DD025D
:101E23001207D780DD021207D7F8DD021207D73970
:101E3300DE021207D789DE021207D7B4DE021207C9
:101E4300D7CEDE021207D7E8DE021207D7BDDF02C4
:101E53001207D7C7DF021207D708E0021207D759C4
:101E6300E0021207D76DE0021207D78FE1021207D3
:101E7300D7A4E1021207D737E2021207D7ABE20277
:101E83001207D750E3021207D75BE3021207D7BE4C
:101E9300E4021207D7DAE4021207D726E502120793
:101EA300D794E5021207D7C6E5021207D7E0E50289
:101EB3001207D740E6021207D7DFE6021207D72A36
:101EC300E7021207D77DE9021207D715EA021207C4
:101ED300D78CEA021207D7E9EC021207D701ED0209
:101EE3001207D704ED021207D710ED021207D72409
:101EF300ED021207D72CED021207D763ED0212078A
:101F0300D757EE021207D7E1EE021207D763EF02AB
:101F13001207D7E3EF021207D7BAF0021207D7DC92
:101F2300F0021207D775F1021207D7D2F102120796
:101F3300D7D5F1021207D744F2021207D790F30262
:101F43001207D7A3F4021207D72EF5021207D741BF
:101F5300F6021207D708F7021207D739F70212075A
:101F6300D75FF7021207D768F7021207D797F7026E
:101F73001207D747F8021207D7F7F8021207D76AF2
:101F8300F9021207D70DFA021207D780FA021207D5
:101F9300D7BFFA021207D708FB021207D79CCE035A
:101FA3001207D76ECE031207D722CE031207D78BA1
:101FB300CD031207D7FBCC031207D7D5CC031207E7
:101FC300D78ACC031207D754CC031207D7D7CB0336
:101FD3001207D772CB031207D721CB031207D749B6
:101FE300CA031207D7B9C9031207D76DC90312076A
:101FF300D7E8C8031207D7A3C8031207D787C803B4
:102003001207D72FC7031207D701C7031207D7CE6B
:10201300C6031207D752C6031207D72C9B04120715
:10202300D7DB9A041207D7649A041207D7BABC0401
:102033001207D7159A041207D756C3041207D70DF0
:10204300C3041207D7F8C2041207D7E8C204120761
:10205300D76FC4041207D7F7FF011207D7FFC304D2
:102063001207D7EEC3041207D7E999041207D74A18
:1020730098041207D73198041207D708D20312071E
:10208300D7D797041207D72EC0041207D72BC00443
:102093001207D70DC0041207D72ED1031207D7A3F7
:1020A300BF041207D78E3C001207D7B9E803120703
:1020B300D760E8031207D72BE8031207D7F6E70325
:1020C3001207D7C2E7031207D755E7031207D73D15
:1020D300E7031207D718E7031207D7F1E303120741
:1020E300D7C4E1031207D7CBDF031207D757DF03A8
:1020F3001207D708DF031207D7C2DE031207D7641C
:10210300D0031207D764DE031207D7AD32000000F5
:102113000080FBE473000136360101000102010077
:102123000103010001040106060502000007010086
:10213300340801000F090401010D0100FF0E08001E
:102143000017020000190100FF1A0100011B010022
:10215300FE1C0100081D0200001F010001200100F8
:1021630001210200002301000F24020000260100C8
:102173000127010008280200FF2A0100072B0102A2
:10218300402C0100002D0100012E0100012F010050
:10219300FF30010B1D310800003A0100083B01002C
:1021A3000F3C0100013D0100FF3E0400004204001A
:1021B30000460400004A0400004E040000520400DC
:1021C30000560400005A04000001037103010301D7
:1021D30003010301030103220302030103100300AC
:1021E3000300030003000300030003000342030092
:1021F300032403060300030003040312032503233C
:10220300032503230304030403000300030003441F
:102213000300030003230300036503210035038147
:102223000300030503000300030003000325032346
:1022330003010171010101010111010101310101D9
:102243000101018001100161013B0014006301736E
:10225300017201620143010001130106013D0135D1
:102263000004011201000100010001000104010446
:1022730001330133013C0144013201360000010006
:10228300016501000135008101000105018201831F
:1022930001000103027102300160021102700201A8
:1022A30002020202028002100261023A004100634C
:1022B3000273027202620243020002130238000038
:1022C30002000204021202000200020002000204E1
:1022D300020402370037003C0244020002390000C6
:1022E3000200026502000235028102000205028239
:1022F30002830200020304710402046004110470E7
:10230300040204020401040204100461040004141E
:102313000463047304720462044304000413040694
:102323000400040004040412040004000400040074
:102333000451046400000400040004440400040085
:1023430004000400046504000435048104640005EA
:1023530004000483040004030071003001600011D1
:10236300007000310220035004800010006100005F
:102373000014006300730072006200430000001346
:10238300000600000000000400120000000000002E
:1023930000000004000400370037003C0244000042
:1023A300000000000000006500000035008100000F
:1023B3000005000000830000003600010006000055
:1023C300000F0000000000000000000000000003F8
:1023D300FFFF00000403FFFF0000FFFF0FF40100F5
:1023E30005C4040320000100000B000000000000EE
:1023F300000003010F0000000000000000000000C7
:1024030000000000000000000000000000000000C9
:10241300000000000000000A0000000200000004A9
:102423000000000800000010000000200000004031
:102433000000008000000000010000000200000016
:10244300040000000800000010000000200000004D
:102453004000000000131313009B121F00A1121F62
:1024630080A7120100131302005F12030065120418
:10247300006B120500711206007D1236008F12FFE9
:10248300FF0000016119069119088B190B9D1910A2
:102493001517026719057F19076D190C49190D5591
:1024A30019645915FF000007ECFDFDFDECDCDCCCE5
:1024B300BCACAC9C9C8C7C7C6C6C5C5C5C4C4C3C89
:1024C3003C2C2C1C1C00160F00000B150B020002E9
:1024D300220F3300000E5A6967426565416C6C69CF
:1024E300616E6365303901030507090B0D0F0002A7
:1024F3000406080A0C0D140AE5D5C5B5A5A59585EE
:10250300857565303017181921301B1D1F300001E8
:1025130019161816161823030000393D3F373C3CA3
:10252300362C442D303016181920231A1C1E300067
:10253300034A49434E181A2505020C0E020B040BDD
:102543000A0708000F020402010101010902000049
:102553000000000000BE040AE8030000FA060000C1
:1025630000000E00AA24F9247F00E803FF1E1E00CA
:1025730005280C0004090803090303010C0A0508D4
:10258300150C00FF10040804C082C0837900126494
:102593007EC082C083901C17125D32D083D082C369
:1025A300E09CA3E09D500DEA240B1225DA1225BA14
:1025B30060027901023A33EA75F00BA4FAA8F075C8
:1025C300F00BEBA428FB901C19E02AF8A3E03B884E
:1025D30082F583E0540F22F582E43B124F7222749A
:1025E300F71203788908124681122920ACF075F09E
:1025F3000BE9A42CF9901C19E028F8A3E039F9E8B9
:10260300FEE9FF7401650860067402650870228A9A
:10261300828B83122AD6740265087021EA2403FA96
:1026230050010B1214B1E970148E828F83E4F08091
:102633000CEA2403FCE43B122ACD1214AB8E828FE6
:1026430083E0D2E7F012117B02427074F412037834
:10265300122BA779008E828F83E06078890A890B19
:102663008063E50A75F00BA4FAA8F075F00BE50B8F
:102673001225C67048E50A75F00BA4F8AAF075F0A8
:102683000BE50B122AEA8E828F83E0850882850987
:1026930083123C74122A4BEE2403FCE43F12278579
:1026A3001214AB124485E50AF0A3E50B1237C0D22E
:1026B300E7F012117B7901901C1712353F050AE5EB
:1026C3000A7002050B901C17125675C3E50A9AE5AA
:1026D3000B9B408E0237CA74F5120378EAFEEBFFB8
:1026E300750A01740B120AEA12618FEC4D6015EC46
:1026F30012533F3D122BB57901121493E508450996
:1027030060758023E5084509604412533D3509127D
:102713002BB51227861214B1E96401701BEEFAEF90
:10272300FB121499E9F50A850882850983122A4365
:102733007902AA08AB098011122ACE1214B1E964F6
:102743000170347903EEFAEFFB12149380298E8221
:102753008F83A3E064FE7003A3E0F4700B122ACE10
:102763001214B1E96401700CEEFAEFFB121499E94B
:10277300F50A8003750A000230FAE50A2403FCE433
:10278300350BFDE5082403FAE43509FB2274F7123F
:102793000378901C171245B5EA4B602FEA75F00BCE
:1027A300A4FAA8F075F00BEBA428FBEAFEEBFF12EA
:1027B3000FB3901C191245B5901C191243CA60122D
:1027C300EEFCEFFD7900120F178007901C19E4F05F
:1027D300A3F0024270C082C083EC4D60051210A9C1
:1027E30080097C087D007900120F17023A33C082FA
:1027F300C0837900EA4B60167800E8FCEA2C1246A5
:102803008D60047901780808E8C3940840EC023A23
:102813003374F712037874F31208D0ECFEEDFF85DE
:102823001882851983E4F004120AEAEAF0A3EB1292
:1028330049251214CF7403120AEAAC82AD83EEFA6F
:10284300EFFB1214ABEEFAEFFB1214B102426B74FE
:10285300F712037874F31208D0ECFEEDFF851882AB
:10286300851983E4F0EAFCEBFD7403120AEAAA82F9
:10287300AB831214ABAA18AB191214D57401120A44
:10288300EA123C858E828F8312457174FE68700351
:1028930074FF69600479018002790002426B74F766
:1028A300120378EAFEEBFF12148DE9F50874016553
:1028B30008701112290BF4FA88828983E05A448044
:1028C300F012117BA90802427074F7120378EAFE32
:1028D300EBFF7508008E828F83E0602A12148DE966
:1028E300F50874016508701E12290BFA8882898322
:1028F300E05A70128E828F83E04480FA8882898343
:10290300E04AF012117B80BC124328F812292012EE
:102913002C17F8A3E039F98E828F83E022A3E0F924
:10292300E875F00BA4F82274F41203788A088B0973
:102933007C007D00EA1227881214ABE508122A6591
:102943007900850882850983A3E064FE7003A3E010
:10295300F460787E007F008065EEFAEFFB1225BA03
:102963006057EEFAEFFBEA75F00BA4FAA8F075F0E6
:102973000BEBA428FB901C19E02AF50AA3E03BF516
:102983000B850882850983125674850A82850B8319
:10299300A3E06A7003A3E06B701FE50A2403FAE463
:1029A300350BFB1214B1E96401700612277D121472
:1029B300AB122A5A7901125E990EEE70010F901C28
:1029C30017125675C3EE9AEF9B408E0237CA74F303
:1029D3001203788A088B098A828B83122A43EA12AC
:1029E3002A65750C00EA1227881214B1E964017094
:1029F300477E007F00803C122C09FAA3E0398A82CB
:102A0300F583E0540F6027122C09F50AA3E039F58A
:102A13000B12277D1210A3E964017012850A8285C7
:102A23000B83122A4B122A5A750C01125E990EEE71
:102A330070010F122C2640BFA90C7F0502058DA340
:102A4300A374FEF0A304F022A312425C85088285DE
:102A53000983A3123AC622E508122A6FEEF0A3EF08
:102A6300F022122A6F74FEF0A304F022240BF582E5
:102A7300E43509F5832274F5120378EAFEEBFF8E41
:102A8300828F83122A437C007D00122ACE1214AB5C
:102A9300EEFAEFFB12148DE9F50A7401650A70274B
:102AA300124255122ADE850882F583122AD612278E
:102AB300861214B1E96401700EE5082403FCE435C1
:102AC30009122ACD1214AB0230FAFDEE2403FAE404
:102AD3003FFB22A3125683123AC622E875F00BA4D9
:102AE300F8AAF075F00BE9122C1DF508A3E039F5EF
:102AF300092274F212037874E61208D0122BA77518
:102B03000A01750800750900750C00750D0085181C
:102B130082851983E4F0EE2403FCE43FFD74031281
:102B23000AEAAA82AB831214ABAA18AB191214D502
:102B3300E96401701F740B120AEA122BB7740112B5
:102B43000AEA12567D7003A3E069604AA818A9191E
:102B530088088909740D120AEA123C73A3123C8592
:102B6300740E120AEA124571740D1208921214CFF0
:102B7300E964017009740D12088A880C890D780CB8
:102B83001207F4AC08AD09EEFAEFFB12149F7402BE
:102B9300120807E9F50AEEFAEFFB1214C9A90A7441
:102BA3001A024497EAFEEBFF12448974FEF0A30471
:102BB300F022F583125663F9124489123AC622C0F1
:102BC30082C08378007900800508E8700109901CB1
:102BD3001712359DE99B5029E8FAE9FBEA75F00BDA
:102BE300A4FAACF075F00BEBA42CFB901C19E02AB3
:102BF300FCA3E03B8C82F583E0540F70CC7900801A
:102C0300027901023A33EEF8EFF9E875F00BA4F814
:102C1300122C1722AAF075F00BE9A42AF9901C19BB
:102C2300E02822901C1712425CC3EE98EF9922C051
:102C330082C083902583E49375F01CA4FCADF079E6
:102C4300FF7A197B08120F17023A3374F7120378CD
:102C5300E9FCEAFD7A007B008010EB1232A89C406D
:102C630008E0F8EDC39840010A0B902583E493F83C
:102C7300EBC39840E57B0002427074EC1203787456
:102C8300F31208D08A0C8B0D8C088D09890AEC4548
:102C9300096016AA08AB0912151D8A0E8B0FAE0E1A
:102CA300AF0FEE4F6003022D7B7A0080010A90255F
:102CB300831255BA500F122E7070F2741928FE74D5
:102CC3000839FF80047E007F00EE4F7003022E243C
:102CD300902563122E4160257403650A600674040F
:102CE300650A70197A0479031214F38A0E8B0F9014
:102CF3002583E493F8902563122E5A502D90256175
:102D0300122E41602C7401650A60067402650A7014
:102D1300207A0279011214F38A0E8B0F902583E433
:102D230093F8902561122E5A40077A007B00022EF9
:102D33003C8518828519837401F0120AEAE50CF0C8
:102D4300A3E50DF0AC08AD097403120AEAAA82AB3D
:102D5300831214ABAA18AB191214E1740B120AEA0A
:102D6300123ABF8E828F83A3A3A3A3A3A3E4125D0E
:102D73002EAA0CAB0D121BBF7800E50A6007C394A3
:102D830005500278048E828F83E50CF0A3E50D12C3
:102D9300316BA3A3E50AF0E88E828F83A3A3A3A3D9
:102DA300A31259405001097A027B001202281235FE
:102DB30078A31238B21235A4E50A605BC3940350BA
:102DC30056901E8CE0701890241A780C1209871202
:102DD300354F120A5D90241A780C1209878027F563
:102DE3000875090074027808120974122E4B12092F
:102DF30087908A147810120A7B780C791012028952
:102E030012354F120A5DEE2413123552120A5DEE8B
:102E1300241B125937800912355B122A46A3F0A3EB
:102E2300F07A0479001214F312315C4005901E9F6E
:102E3300E4F0121A93EEFAEFFB740D023AADE49349
:102E4300F8740193F9E84922741A2508F582742469
:102E53003509F583780C22E493FA740193FBE8C3F4
:102E63009AF8E49BF9C3E50E98E50F9922EA122E2E
:102E730076F42275F01CA4F8A9F0741D28F5827469
:102E83000839F583E02274EE12037874F31208D044
:102E9300EAFEEBFF8C108D11750800AA10AB11121E
:102EA300151DEA4B7003022FA48A828B83E06E7098
:102EB30003A3E06F7003022FA48A828B83A3A3A3CF
:102EC300A3E0C394054003022FA48A828B83125E7E
:102ED30087E060728A828B83A3A3A3A3E0C39403D6
:102EE3005064901E8CE0702190241A780812098790
:102EF300122FAB120A5D90241A7808120987EA246C
:102F030013122FAE120A5D8030F5087509007402A2
:102F13007808120974122E4B120987908A147808C4
:102F2300120A7B780C7908120289123695120A5D0F
:102F3300EA2413123698120A5DEA241BF582E43B55
:102F4300F583E4F0801B7508FE7509FF750AFF75AC
:102F53000BFF122FAB120A5DEA2413122FAE120AD3
:102F63005D750800750900750A00750B00EA240CED
:102F7300122FAE120A5D8518828519837401F0122F
:102F83000AEAEEF0A3EFF0AC10AD117403120AEAF3
:102F9300AA82AB831214ABAA18AB191214E17508F9
:102FA30001A908740D025E7FEA2417F582E43BF55C
:102FB3008378082274F61203781215178A088B098E
:102FC300A808A909E849601488828983A3A3A3A355
:102FD300E06009C394055004790180027900802FD1
:102FE30074F61203781215178A088B09A808A90921
:102FF300E849601488828983A3A3A3A3E06009C37B
:103003009403500479018002790080031208077F3A
:103013000202058D74F61203781215178A828B83C8
:10302300E5824583600BA3A3A3A3E0700479018029
:1030330002790080DAC082C083EAFCEBFD7A007B70
:1030430000023A30C082C0837C007D00023A3074B3
:10305300F512037874F31208D0EAFEEBFF8C088DA7
:1030630009C3EC94F8ED94FF4004EE4F6065750AD4
:1030730000801974FF6508700474FF6509600B1202
:1030830064787004A3E06509603B050A902583E436
:1030930093F8E50AC398503BE50A122E7160EBEEF4
:1030A3004F60D01230E1120AEA1249211214DBE90F
:1030B30060D87403120AEAAC82AD83EEFAEFFB1216
:1030C30010A3E960C5E50A75F01CA4F8A9F0123253
:1030D3009F80047A007B00740D120807801B8518FB
:1030E300828519837401F0741B28F582740839F5FD
:1030F3008312425C740B22A90A7F0302058D74F4C8
:1031030012037874F31208D075080012151D8A0A89
:103113008B0BAE0AAF0BEE4F6025851882851983A2
:103123001231691230F4120AEA1249211214C37CD3
:103133001C7D0079FFEEFAEFFB120F177508017A79
:103143000479001214F312315C5009901E9F74012C
:10315300F0121A93A9080237C5902583E493F8C3A4
:10316300EA98EB9400227401123C78A3A32274F72B
:10317300120378E9FE74FE6A700374FF6B7C0070BF
:103183000380240C1231D4501EEC122E7160F41201
:10319300336E7003A3E06B70EA800BEC1231E960CD
:1031A30019E0640360140C1231D4501EEE60ECEC91
:1031B3001231DE60F1C3940550ECEC75F01CA4FCF5
:1031C300ADF01269EE12567580047AFE7BFF02425F
:1031D30070902583E493F8ECC3982275F01CA4F84F
:1031E300A9F0122E7D2275F01CA4F8A9F0122E7DF1
:1031F30064012212152F023A33C082C08379018001
:10320300F274F01203788A0A8B0B7A047901121490
:10321300F38A0C8B0DEA450D6040EA2AFAEB33FB87
:10322300120FB38A088B09AE08AF09EE4F60267AF6
:10323300FE7BFF12153574FE6A700374FF6B601E0C
:103243008508828509831245B5E5082402F50850EF
:10325300E2050980DE750C0080047E007F00850A8C
:1032630082850B83E50CF0EEFAEFFB023535C08265
:10327300C0837C008009EA24FF1AEB34FFFB0C12A5
:1032830031D45011EC1232A8940550F2EA4B70E697
:1032930012329F80047A007B00023A33741928FAB1
:1032A300740839FB22122E76C32274F71203787442
:1032B300F31208D07E00807DEF75F017A4F8A9F013
:1032C30012335F125675EE75F01CA4F8A9F0123391
:1032D3006E7003A3E06B603DEF75F017A4F8AAF0DE
:1032E300EAF912335F123C857401120AEAE068704E
:1032F30003A3E069601FEF75F017A4F8EAF9746798
:1033030028FC740A39FD7403120AEAAA82AB8312F9
:1033130010A3E96013EF75F017A4F8A9F0746528FA
:10332300FA740A39FB121BCB0F902587E493F8EF4D
:10333300C39840840E1269DB501FEE126F4FF47076
:1033430003A3E0F460EE1230E1120AEA12492112FB
:1033530014DBE960DF7F0080D002426B123363220B
:10336300746528F582740A39F58322126F5A6A222A
:1033730074F412037874F31208D07E008038908AB4
:10338300407808120A7BEE75F01CA4F8A9F0742C9F
:1033930028F582740839F58378081208E6601690D8
:1033A3008A1C7808120A7BEE75F01CA4F812343BD1
:1033B30078081209F90E1269DB507AEE1231DE60D9
:1033C300F4C3940350EF12343B120AA3E8494A4B67
:1033D30070AC901E8BE06401702D901D1F1243CAC8
:1033E3006025EE75F01CA4F8A9F0741928F8740888
:1033F30039F91234911206588882898312352612BC
:10340300211674041208078518828519837401F044
:10341300EE75F01CA4F8A9F01230EA120AEA124978
:10342300211214DBE9608E7403120AEAAA82AB83C9
:1034330012152980800237C5743028F58274083943
:10344300F5832274F61203781215178A088B09A8DC
:1034530008A909E849603288828983A3A3A3A3E06A
:103463006023C39403501E123491120ABBE824173D
:10347300F582E439F583120AAFE8241BF582E439B7
:10348300F5837401F0790180027900023012E82497
:1034930013F582E439F5832274F0120378EAFEEB24
:1034A300FF901D191243CA6072901D1F1243CA6018
:1034B3006A901D231243CA6062126867122116E9DB
:1034C3007059901E8CE0700A90241A7808120987AC
:1034D3008028F50875090074027808120974126AC5
:1034E3004974241268487808120987908A14780C62
:1034F300120A7B7808790C12028978081207EC12F9
:1035030035201221167404120807E96401700C8E29
:10351300828F83A3A312685512211680158E828F82
:1035230083A3A3124F74901D1F12685F22740D12A0
:1035330008077F0802058D125D36EC22E0F50AA329
:10354300E0F50B22E493F8E508C39822EE2417F57F
:1035530082E43FF583780C2212356E74FEF0A304E7
:10356300F0A3F0A3F0123E8274FE22EE2417F5823C
:10357300E43FF58322E88E828F83A3A3A3A3A3A3AF
:10358300A3A31242307401124230A374AAF0EE24B2
:1035930010F582E43FF583E4F022124F74C3E89AF6
:1035A30022A3F0124489E4F0EE240CF582E43FF503
:1035B30083E4F0A3F0A3F0A3F02274F01203787471
:1035C300F31208D0EAFEEBFF7A0279011214F3EA50
:1035D3008E828F83F0700302368875F00CA4FAABE9
:1035E300F0120FB38A088B09EA4509700302368E7D
:1035F300AE08AF09750A00801C908A1C120658EEAB
:10360300FAEFFB120F9574041208078A0C8B0DAEA8
:103613000CAF0D050A902583E493F8E50AC398508F
:103623006AE50A1231E96005E0640270E61230E1EE
:10363300120AEA1249211214DBE960187403120A10
:10364300EAAC82AD83EEFAEFFB1210A98A0C8B0D64
:10365300AE0CAF0DE50A75F01CA4F8A9F07434287C
:10366300F58274081266C66401708E12329FEA24D2
:1036730013123698120A7B1236951208A2780C128E
:1036830007EC023602750800750900AA08AB0902A7
:103693003530EA2417F582E43BF583780C22C082A7
:1036A300C083901C227479F0A37419F0901C2474C5
:1036B30073F0A37419F0901C2874C5F0A37415F06B
:1036C300023A3374F7120378EAFEEBFF901C93E09F
:1036D3006408601FE06404601A8E828F83E05403E1
:1036E30064017044124324F8A3E0F5838882E06404
:1036F3000670358E828F83A3A3E064FE7003A3E07C
:10370300F460258E828F83A3A3125D3F7003A3E031
:10371300697008EE2415125D266005121A278003CE
:10372300121A2DE9F50880037508C2EEFAEFFB12B1
:103733000FB90228C774F41203788A088B098A82A6
:103743008B83E0FAA3E0F8EA28FAE43400FB120FD3
:10375300B38A0A8B0BAE0AAF0BEE4F605A85088211
:10376300850983E0FC7D007900120F178E828F8319
:10377300122A42121A638E828F83A3A3A3A3EAF0B1
:10378300A3EB1237C0F8EE28F8E43F122BBA8508F2
:1037930082850983A3E0C0E012592AD0E0F0121A0F
:1037A30075EE240EF582E43FF583E9123C00E0C098
:1037B300E0123AB5D0E0F0EEFAEFFB800A123BF8E4
:1037C300E022740D1208077F0402058D741880F43B
:1037D30074F412037874E81208D0EAFEEBFF901C2D
:1037E3001B1243CA60030238AD7A077B00120FB382
:1037F300901C1B1245B5901C1B1243CA7003023860
:10380300A98E828F83120AA3901C1BE0FCA3E0F510
:10381300838C82120A97EE2404F50AE43FF50B85A4
:103823000A82F583E0C0E0901C1B124F49A3A3A3B7
:10383300D0E0F0EE2405F508E43FF509850882F5AC
:1038430083E0C0E0901C1B124F5AD0E01238B2E064
:10385300C0E0901C1B125663C82406F582E438F5B9
:1038630083D0E01238B7120F178E828F83120AA308
:10387300851882851983120A97850A82850B83E04E
:10388300C0E07405120AEAD0E01237C0C0E0740445
:10389300120AEAD0E0F07407120AEAE41249251288
:1038A3001433E9F980067910800279010237CF12C7
:1038B3006309A322F07C187D007900AA18AB1922B2
:1038C300C082C083901C1B1243CA6010901C1B1241
:1038D3005675120FB9901C1BE4F0A3F0121997123E
:1038E3001B71023A3374F412037874E81208D08A15
:1038F3000A8B0BECFEEDFF89087428120AEAE0FD3F
:103903007429120AEAE0FC740F6D7005740F6C6081
:1039130012901E87E064026005EDC39C500579C1D7
:103923000239FD7424120AEA120AA3901C94120AA3
:1039330097E508901C9AF0ED901C98F0ECA3F074B6
:103943002A120AEAE0901C9BF074FF650A70047463
:10395300FF650B7024901E9BE0F47003A3E0F470EA
:103963000C120F23901C91EAF0A3EB8015901E9B81
:103973001266DCE8F0A3E98009901C91E50AF0A344
:10398300E50BF0EE4F6017EEFAEFFB121C25E9642E
:1039930001700BEEFCEFFD7AA57B1C1210A9901CA5
:1039A30084E4F0A3F0901C87F0A3F0901CA4F090A3
:1039B3001E87E064027008901C98740FF0A3F090C7
:1039C3001C9374051238B7120F177404120AEAE431
:1039D300F0901C94120AA3851882851983120A9702
:1039E300901C9AE0C0E07405120AEAD0E0F0740774
:1039F300120AEAE41249251214330237CF74F7127C
:103A03000378E9901C21F07A807B00901CDEE0F9BA
:103A130012107F1215957900024270C082C0839004
:103A23001C21E070031212951215958003121523C1
:103A3300D083D0820207D474F0120378901C21E063
:103A4300901E9E700FE060057900121145901E9E36
:103A5300E4F0804AE064016008901C21E0F912114F
:103A630045901E9E7401F0901C21E0F46030E0F557
:103A73000CE4F50DF50EF50FF0908A5C7808120A48
:103A83007B780C7908120289780C1207EC7A807B18
:103A930000901CDEE0F912107374041208077A9E7A
:103AA3007B1E79411214210235351208077F0C025F
:103AB300058DEE2411F582E43FF5832212595F123E
:103AC3003AC622E8F0A3E9F02274F7120378EB90E8
:103AD3001C9BF012198502427074F612037874E984
:103AE3001208D08A088B097E008A828B83A3A3A342
:103AF300E0C0E07406120AEAD0E0F08A828B83A366
:103B0300A3E0C0E07408120AEAD0E0F07409120AD4
:103B1300EA7401F08A828B831243CA600D8A828B16
:103B2300831256751214B1E970357407120AEAE468
:103B3300F0121A5D7404120AEA1245B5901C93E060
:103B43006404700E121A697402120AEAEAF0A3EB13
:103B5300804E7402120AEA74FDF0A374FF8041AC34
:103B630018AD198508828509831256751214BD850F
:103B73000882850983A3A3A3A3E070317407120A03
:103B8300EA7401123C7E7402120AEA124571850836
:103B930082850983123C857404120AEAE8F0A3E9DA
:103BA300F07402120892121AB1E9FE8041123C7FAE
:103BB300740A120AEA1245717414120AEA740112A1
:103BC3003C00A3E0C0E07415120AEAD0E0F07416DA
:103BD300120AEAE4123BF8125D32740C120AEAAAE2
:103BE30082AB831210A9740A12089212115DEEF9C6
:103BF300741702300FF085088285098322123C0472
:103C030022123BF8A3A32274F712037874F8120864
:103C1300D0EAFEEBFF7900901C93E064086005E0B6
:103C23006404704785188285198374FDF0A374FFBB
:103C3300F0121A5D7402120AEA1245B57405120AEB
:103C4300EA123C73A3E0C0E07404120AEAD0E01263
:103C53003C74E0C0E07406120AEAD0E0F074071284
:103C63000AEAE4124925121AB1E9F9740802426D0D
:103C7300E4123C7822F08E828F8322F085188285AD
:103C8300198312425C227F0702058D74F4120378B4
:103C930074F91208D08A088B098C0A8D0B85188257
:103CA3008519837808120A5D7404120AEAE9F0742C
:103CB30005120AEAE4F07406120AEAE4124925122C
:103CC300157774070237C774F51203788A088B09CE
:103CD3008A828B83125E9CEE4F7003023E7B901CA4
:103CE300421243CA60178A828B83A3A3E0F9EEFAD8
:103CF300EFFB901C43E0F58388821221168E828F9E
:103D030083A3A3A3A3A3A3A3A3A3E06402600302C7
:103D13003DE58E828F83A3A3A3A3A3A3E0540270E4
:103D230003023E09850882850983A3A3E064E97041
:103D330003023E09850882850983A3A3E064CD704D
:103D430003023E09850882850983A3A3E064F0701A
:103D530003023E09EE240D1242116028EE241312D1
:103D63005D2660208E828F83A3A3A3A3A3A3A3A313
:103D7300A3A3123E9A121AE1E9701D7A307B011255
:103D830011F98014901E8DE0048E828F83A3A3A368
:103D9300A3A3A3A3A3A3A3F0850882850983A3A355
:103DA300E0701F750A0080097A367B011211F9054C
:103DB3000A850882850983A3A3A3E0F8E50AC398CB
:103DC30040E6EE240A1255C1C0E0123E7ED0E01256
:103DD300422C7404F0901E8E125959E8123E8C1234
:103DE3000F6B8E828F83A3A3A3A3A3A3A3A3A3E099
:103DF300640260128E828F83A3A3A3A3A3A3A3A3AE
:103E0300A3E0640670728E828F83A3A3A3A3A3A3EC
:103E1300E0A2E05063850882850983A3A3E0F9EE5D
:103E2300FAEFFB1218CB8E828F83A3A3A3A3A3A3C2
:103E3300E054FE123E9A121AE1E98508828509834D
:103E4300A3A3702AE070237A2F7B011211F97E005D
:103E5300850882850983A3A3A3E0F8EEC3985018CD
:103E63007A367B011211F90E80E67A318005E07013
:103E7300077A2D7B011211F90230FC123E8222EEE9
:103E83002413F582E43FF58322F0A3E9F07A207B43
:103E930000901CDEE0F922123C7812685F124F7426
:103EA3002274EC12037874BD1208D0EAFEEBFF8C87
:103EB300108D11750C00750E00AC18AD1912181782
:103EC300740D120AEAE070087410120AEAE0601432
:103ED300851882851983E0A2E6500E125668121ADD
:103EE300E1E960057A35024005851882851983E08A
:103EF300540C64047005750D018003750D00E0A278
:103F0300E5503D750E01E50DA2E04034121A63122F
:103F130042477003A3E069700512420E706B121AD8
:103F2300631242477003A3E069601512420E7010DA
:103F3300125D4CAC18AD191218ADE96003024003D1
:103F430012420E702C851882851983E0A2E6502157
:103F53007401120AEAE054037017851882851983E5
:103F6300E0540C640C600AE0540C64086003750CA4
:103F730001851882851983E05403F8740268701967
:103F8300125D4812182902420912566812425574EA
:103F930015120AEA124571809A7401687047E50C9C
:103FA300A2E0500B12420E7006125D4812181D74E7
:103FB3001A120AEAE518F0A3E5191242547417120B
:103FC3000AEA1245718E828F83A3A3A3A3A3A3E05E
:103FD300C0E07419120AEAD0E0F0741712089212C2
:103FE300177B024209E86003024209901C7BE064EC
:103FF3000170178E828F83A3A3A3A3A3A3E0700AE8
:104003007A347B011211F90242097442120AEA74EA
:1040130002124254743A120AEA12421BE0548070AC
:10402300030241257424120AEA740212422C123C40
:1040330085741C120AEA1245717403120AEAE0C07D
:10404300E07425120AEAD0E0F07402120AEAE0C032
:10405300E07426120AEAD0E0F0901C91123C8574B9
:1040630027120AEA1245717406120AEA123C857491
:1040730029120AEA1245717408120AEA123C85747D
:104083002B120AEA1245717410120AEAE0F8742D31
:10409300120AEAE8F0A3E4F0740E120AEA123C856D
:1040A300742F120AEA12421B123C857431120AEA77
:1040B300124238E0C0E07433120AEAD0E012631807
:1040C300C0E07434120AEAD0E0F0125D23C0E07459
:1040D30035120AEAD0E0F07411120AEAE0C0E07483
:1040E30036120AEAD0E0F07413120AEAE0C0E07470
:1040F30037120AEAD0E0F0EE2423125D26C0E07402
:1041030038120AEAD0E0F0EE2425125D26C0E074EE
:1041130039120AEAD0E0F0741C12089212182F0226
:1041230042097457120AEA7808120A7BE50DA2E0E5
:1041330040030241C1EE240F125D26C0E074121247
:104143000AEAD0E0F0901C441243CA700302420909
:10415300121A638A128B13A812A913743A120AEA69
:10416300E0687003A3E0696003024209EE242312AE
:104173005D26F50D780D1207F812422212065C78BF
:10418300081207ECE50EF50878081207F88E828FFF
:1041930083A3A3A3A3E0F50878081207F878101205
:1041A30007F4A90C740B12089A7445120892901C18
:1041B30044125679122116740B1208078048E50C35
:1041C300A2E05006125D4812181D125D23F50C780B
:1041D3000C1207F878081207ECE50EF508780812B8
:1041E30007F878101207F4901C9112065CEE241263
:1041F300125D26F9744412089A740A12089212186E
:10420300D7740A1208077443023AADEE2421F582EB
:10421300E43FF583E0548022123AC612422222EE92
:104223002421F582E43FF583221242302212630DEA
:10423300A3A3A3A322E8F0A3E9F0EE240FF582E4FD
:104243003FF583228A088B09A808A9091243286825
:1042530022F012448912425C22125663F92274F747
:104263001203781211278005740D1208077F0102CB
:10427300058D74F712037812112D80F174F7120370
:104283007812113980E7C082C083121133023A33A6
:1042930074F712037812113F80D374F71203787402
:1042A30009120AEAE0F50878081207F812115174A6
:1042B3000180B7C082C08312115D023A3374F612D3
:1042C3000378EAFEEBFF901C7EE0A2E150498E8268
:1042D3008F83A3A3A3A3A3A3A3A3A3A3E0640160C6
:1042E30036121A698A088B09A808A9098E828F8356
:1042F300E0687003A3E069601E1243246401601741
:104303008E828F8312567512150BE9600A8E828F87
:1043130083125675121A21EEFAEFFB121163023063
:10432300121243282212448DE02274F712037812EA
:10433300116902427074F7120378EAFEEBFF8908F1
:1043430074016508701479001216DF902570E493E8
:10435300FC7900EEFAEFFB12165502427074F71265
:10436300037812115702427074F412037874F9122D
:1043730008D0E9FE8A088B098C0A8D0B901B4E121C
:1043830043CA602BEE851882851983F07401120AE3
:10439300EA7808120A5D7413120AEA123C8574055E
:1043A300120AEA124921901B4E1256791221160263
:1043B3003CC5E50E75F006A4F8AAF0EAF974F128F5
:1043C300F582740C39F58312425CE84922C082C03D
:1043D300831211B1023A3374F71203781211750282
:1043E300427074F7120378901EA1E0F97800800BF5
:1043F300124695540D6401700119081246025003C8
:10440300E970ED02427074F7120378901EA2E0F98E
:104413007800800B124695548D648170011908123F
:1044230046025003E970ED02427074F21203788978
:104433000BE975F006A4A9F0240FF508E439F50992
:10444300E5082AFAE43509FB120FB38A0C8B0DAE8B
:104453000CAF0DEE4F6025AC08AD097900120F17B4
:10446300124485E50BF0EE2508F8EF3509F98E8245
:104473008F83A3A3A3A3A3A3A312456FEEFAEFFB1A
:1044830080151244892212448D22EE240BF582E416
:104493003FF583221208077F0602058D74F6120387
:1044A30078EAFEEBFF12162BE9F8901EA0E0F9E87C
:1044B300C3994009901C2A125675121631EE240234
:1044C300F8E43FF988088909901C2C125A60901C63
:1044D3002CE004F0EEFAEFFB12163785088285090B
:1044E30083E0025B8FC082C0837900901C2A800125
:1044F300091256758A828B83E582458370F2023AEC
:104503003374F7120378EAFEEBFFEE4F605B901C07
:104513002A1243CA6053888289837A007B00EE653E
:10452300827003EF65836013AA82AB83123C858894
:10453300828983E5824583603080E3901C2A123CA4
:1045430085EE687002EF698E828F837008123C8556
:10455300901C2A800312684D124571EEFAEFFB128C
:1045630017ABEEFAEFFB120FB9024270A3A3123A94
:10457300C622C082C083901C2A8004888289831249
:1045830043CA600A8882898312353A4D70ED8A8264
:104593008B83E4F0A3F0E849600688828983800373
:1045A300901C2A1245B5023A33EE241AF582E43FF1
:1045B300F583EAF0A3EBF022124F74EA4B2274F76F
:1045C300120378901C2A80048A828B831245BB6075
:1045D30027780080010812460250EDE875F006A422
:1045E300FCADF0EA2CFCEB3DFDEC2413F582E43D3D
:1045F300F583E06970DF80047A007B000242701269
:104603004686FCE8C39C2274F7120378E9FE7D001A
:1046130080010D124681EDC3985023ED75F006A479
:10462300F8AFF0EFF912467770E8ED75F006A4F8ED
:104633001246B84CF0E8240FFAE439FB80047A0000
:104643007B0002427074F6120378E9FEEAFF121649
:104653003DEA4B601C7C008010EC75F006A4F8A9C1
:10466300F01246777002EFF00C124681ECC39840CB
:10467300E80230121246B024131246C16E221246CB
:1046830086F822EA240B12468D22F582E43BF58359
:10469300E022E875F006A4FCADF0EA2CFCEB3DFD4E
:1046A300EC2414F582E43DF583E022EFF9EA28F8DF
:1046B300EB39F9E8221246AE24141246C122F582E0
:1046C300E439F583E02274F612037812174B7A006B
:1046D3008016EA75F006A4F8A9F0125A90E4125B6A
:1046E30093F0A3126179F00A9025751255BA40E24E
:1046F3007A00801C8A08750900740378081209740B
:10470300124761A374FEF0A304125950A3E4F00A04
:104713009025891255BA40DC7900801A89087509F9
:104723000074037808120974748D126A4B740D12A5
:104733006848122A440990257812617240DE902558
:104743007EE493901C2EF0908A5C1206587A107BBC
:1047530000901CDEE0F9121079740402300F744DDE
:104763002508F8740D3509F9888289832274F012BB
:10477300037874F51208D08A088B09890A8C0BE92F
:10478300A2E050147508FC7509FFA2E15005D2E4BC
:10479300024831D2E30248311217338A0C8B0DA839
:1047A3000CA90D901C84E0687003A3E069600EAC53
:1047B3000A7902AA08AB0912172DE97005790002DC
:1047C3004901E50AF50C780C1207F879027CFE7DA5
:1047D300FFAA08AB091216A97401120807E96003BE
:1047E3000248FFE50AC2E5F50AA2E6404374031254
:1047F300089AAA08AB091214B7E9702E124F531284
:104803001BAD8A0C8B0DAE0CAF0DEE4F6022EE2468
:1048130002FAE43FFB1214B1E96015EE2402FCE452
:104823003FFD74031208921210A9E50AD2E5F50AB6
:10483300901C2DE0F50C901C84124ACA780E1207C6
:10484300F47D017C00901C2DE0F9AA0EAB0F12162B
:10485300EB7402120807E9F8901C2DE004F0E860FD
:10486300030248FFE50AA2E55004740E80027406B1
:10487300C0E07401120AEAD0E0124925121AC98A6B
:104883000E8B0FAE0EAF0FEE4F606D125934F01258
:104893001A5D1245AC12492B7401F07478550AA3C2
:1048A300125A32A3E50C125A32A3A3E508F0E50924
:1048B300124906E4F0E50AA2E5500F740312089AC0
:1048C300E82406FAE439FB1210A98E828F83A3A38E
:1048D30074FDF0A374FFF0E50B6012902571E4936F
:1048E300F8E50BC3985006123E7EE50BF0EEFAEFA7
:1048F300FB12156BE9F980067910800279C7740BF6
:1049030002353288828983A3A3A3A31249122212F8
:10491300491622F088828983A3A3A3A3A322E8F0E4
:10492300A3E9F0AA18AB1922EE1264883F124934A6
:1049330022F583125663F9888289832274F4120361
:10494300787A007B10901CDEE0F9121085EA4B4C5C
:104953004D6008901CF07401F08043901BFFE064ED
:1049630001901E887006E0FC79018004E0FC790365
:104973007A007B0012165590256DE493F5087401B7
:1049830093F509E4F50AF50B78081207EC7A007B36
:1049930010901CDEE0F9121073740412080702373A
:1049A300CA74F0120378EAFEEBFF8C0A8D0B890CB4
:1049B300121AE1E960057AFF024A9A901E87E064C1
:1049C300026003024AC090257AE493F9EEFAEFFB02
:1049D30012175DE96003024ABA7900EEFAEFFB129F
:1049E3001733A90C1217278A088B09EA45097003A4
:1049F300024AC08A828B83A3A3A3A3A312609570E8
:104A03007E125675850882850983A3A3A3A3A3A356
:104A1300E05418604F90256FE493850882850983DD
:104A2300A3A3A3A3F07410120AEA125D3274121244
:104A33000AEA124ACAEA650A7003EB650B6012EAD6
:104A43006C7002EB6D600AEA650E7003EB650F7024
:104A530022780E1207F4AA0AAB0B121BE974021296
:104A63000807800F901C83E0850882850983A3A330
:104A7300A3A3F074FE6A700374FF6B601E8045A3EA
:104A8300A3A3E0640360248A828B83A3A3A3A3A3C9
:104A9300E0640470067AFE7BFF802985088285091D
:104AA30083A3A3A3A3A3E0640260127907EEFAEF42
:104AB300FB12175DE96006EEFAEFFB8007EEFAEFF3
:104AC300FB121667023535E0F50EA3E0F50F2274ED
:104AD300F7120378EAFEEBFF121505E9700AEEFA06
:104AE300EFFB121511E96006EEFAEFFB80047AFE84
:104AF3007BFF02427074EE120378EAFEEBFF8C0C2C
:104B03008D0D890E750800121AE1E9790060030220
:104B13004C3DEEFAEFFB121733A90E1217278A0A40
:104B23008B0BEA450B607D8A828B83A3A3A3A3A38C
:104B3300E0640360238A828B83A3A3A3A3A3E0641B
:104B4300016003024C3B79078A828B8312567312EE
:104B5300175DE96003024C3B750902850A82850BE8
:104B630083A3A3A3A3A3A3E054186003024BF27986
:104B730000AA0CAB0D1217338A0A8B0BA80AA90BD8
:104B8300901C84E0687003A3E0696003024C1F90EB
:104B93002570E493FCA90EEEFAEFFB121655750887
:104BA30001024C3BEEFAEFFB1216671215178A0A45
:104BB3008B0BA80AA90BE849607E88828983A3A38B
:104BC300A3A3A3E0A2E05070750901A2E1501279FA
:104BD30001EEFCEFFDAA0CAB0D121685E970908077
:104BE3005788828983A3A3A3A3A3D2E1F08080750E
:104BF3000801850A82850B83A3A312065C750AFE4E
:104C0300750BFF780A1207F47900EEFCEFFDAA0C8E
:104C1300AB0D12173F7404120807801CA909EEFCA0
:104C2300EFFDAA0CAB0D121685E9700C750801A9EE
:104C33000EEEFAEFFB1216DFA908025E8274E91288
:104C4300037874F01208D08A0C8B0D8C088D0975CB
:104C53000B06124F53121BD78A108B11EA451160B2
:104C63000B8A828B83A3E07003024DE7E50C241DBE
:104C7300F50EE4350DF50F850E82125152F51688A7
:104C8300828983A3A3A3E0FA88828983A3A3A3A32E
:104C9300E0F8E4C8F9EA28FEE439FFAA08AB0912F0
:104CA30016E5E9F9850E82850F83124F5AE029F53F
:104CB3000EE50AA2E55003750B0E7487550A700FB3
:104CC3007418550A64186007125137650B600A7A25
:104CD300D37B001211F9024DE7530A7878081207C3
:104CE300F47D00AC0EA916124F691216EB74021272
:104CF3000807E9F87403687003024DE77427120A82
:104D0300EAE0F512A3E0F513E86003024DD8741846
:104D1300550A7003024DECE50AD2E0F50AA2E4500D
:104D230004D2E1F50AA90A124F691217278A148BD4
:104D330015A814A915E849605788828983A3A3A3FA
:104D4300A3A3A3E05418604888828983A3A3A3A3E1
:104D5300A3E06401703AE51045116034125D2F88B9
:104D6300828983125673121BD78A148B15A814A930
:104D730015E849601B88828983A3E060138510824C
:104D8300851183A3E0FA88828983A3E0C39A405400
:104D9300E50AF50B780B1207F8124F631216A97484
:104DA30001120807E9702E7C007D008512828513AD
:104DB3008374FFF0A3125A40A3A3A3A3A3A3A3A3A3
:104DC300E0600AE50C2415124F3F125D32A90E1262
:104DD3004F691215FB851282851383E0F47003A3D8
:104DE300E0F460487900024F31901C7DE06014E5E7
:104DF3000AF50B780B1207F8124F631216A9740108
:104E0300120807E50AF50B780B1207F879027CFE06
:104E13007DFFEEFAEFFB1216A97401120807E97081
:104E2300B485128285138374FFF0A3F07808120708
:104E3300F47D01AC0EA916124F691216EB7402121F
:104E43000807A90AEEFAEFFB1217338A088B09A8A1
:104E530008A909901C84E0687003A3E06960030259
:104E63004F25EEFAEFFB1215178A088B09A808A93C
:104E730009E849602788828983A3A3A3A3E0640187
:104E8300600D88828983A3A3A3A3E06402700DACA1
:104E930018AD19EEFAEFFB1214B78012121A5D8ADD
:104EA300088B09AC08AD09AA18AB191210A9850C17
:104EB30082850D83A3A3A3A3A3A3A3A3E06401708B
:104EC30012E50C2415124F3F125D3274081208923A
:104ED3001210A9E50C241DF582E4350D124F47E0AD
:104EE3004430F50878081207F8740112088A880814
:104EF300890978081207F4740B12088A880889094B
:104F030078081207F4E516F50878081207F879000F
:104F1300EEFCEFFD124F6912167F740612080702AA
:104F23004DE7124F3B124F5AE50EF0121A757410EB
:104F33001208077F0F02058DE50C241DF582E43569
:104F43000DF58322F583E0F8A3E0F5838882A3229D
:104F5300901C9112516E2212685FA3A3A3A3A322F4
:104F63007901AC08AD09126486350D124F7222F532
:104F730083E0FAA3E0FB2274EC12037874F01208C6
:104F8300D08A0C8B0DECFAEDFB750F08125D2F1216
:104F93001BD78A088B09AC08AD09EC4D601F8C82C6
:104FA3008D83A3E070171259455001097A027B00E3
:104FB300120228E88C828D83F0A37407F0E50C2499
:104FC3001DF582E4350D125152F50E888289831244
:104FD3005144E0FAE4CAFBEC2AFEE43BFF888289F1
:104FE30083A3A3125144A3A3E0FBECF508E43BF530
:104FF3000988828983A3A3A3A3A3A3A3E0F50BE555
:105003000AA2E45003750F10A2E550067408250F99
:10501300F50F748F550A7007125137650F600A7ABE
:10502300D37B001211F9025132530A707800E50A5A
:10503300A2E4501C124F3BE02408FCA3E03400FD23
:1050430074081208921210A97808E50AC2E4F50A56
:10505300E50AA2E5501F124F3BE028F8A3E0340015
:10506300F9E82408FCE439FDAA18AB191210A9E5E4
:105073000AC2E5F50AA90EEEFAEFFB121721E9F5CC
:1050830010902589126172502989127513007403D7
:10509300781212097474522512F582740D3513F5C2
:1050A30083E0F8E50BC3985007E50BF07800800424
:1050B300807D7804901C84E06E7003A3E06F605FD2
:1050C300E87019E50AF50F780F1207F8125161120B
:1050D30016A97401120807E97055800574046870F5
:1050E3004E780A1207F8740112088A880C890D7821
:1050F3000C1207F4740B12088A880C890D780C12B1
:1051030007F4E50EF50A780A1207F8A90BAC08AD07
:1051130009EEFAEFFB12167F740612080780107867
:105123000A1207F81251611216A9740112080774C2
:1051330010023AADE50C2417F582E4350DF583E052
:1051430022A3A3A3E0FC88828983A3A3A3A322129F
:105153004934A3E0F50A88828983A3A3E022790175
:10516300126486350DF58312516E22E0FCA3E0FD37
:10517300AA08AB092274EB12037874F51208D0EA7B
:10518300FEEBFF8C088D0989147420120AEAE0F5FE
:1051930011F9121721E9F50A902589126172501B42
:1051A300750B007403780A1209747450250AF5828A
:1051B300740D350BF583124ACA8006750EFE750F02
:1051C300FF7401120AEA7408F07425120AEAE0F582
:1051D30010A2E450087401120AEA7410F0E510A258
:1051E300E550097401120AEAE02408F0AA18AB1981
:1051F300121AC98A0C8B0DEA450D700302531AEA81
:105203002417125328121A5DE50C241AF582E4358B
:105213000D1245B37421120AEAE0F512A3E0F51367
:10522300740312089AAA0EAB0F1214B7E960151291
:105233005324740312088AE50C2418124F3FE8F034
:10524300A3E98020E510A2E4501BE50E6E7003E590
:105253000F6F7011125324E50C2418124F3FE512FF
:10526300F0A3E513F0E50C12533F124F4212353F02
:10527300850A82F5837402F0A3E510125333E51116
:10528300F0EE850A82850B83A3A3A3F0EF850A8240
:10529300850B83A3A3A3A3125333A3A3A3E508F00E
:1052A300E509850A82850B83A3A3A3A3A3A3F0AA7D
:1052B3000EAB0F1216E5E92514850A82850B83A32D
:1052C300A3A3A3A3A3A3F07800E510A2E45012AC18
:1052D30012AD13E50A2408FAE4350BFB1210A97882
:1052E30008E510A2E5501A7423120AEA125D32E5AA
:1052F3000A28F8E4350BF9E82408FAE439FB12101C
:10530300A9850C82850D83A3A3E50EF0A3E50FF019
:10531300AA0CAB0D12156B740B1208077F0D020557
:105323008DE50C2416F582E4350DF5837401F02226
:10533300F0850A82850B83A3A322E50812648822E1
:1053430074F41203788A088B09ECFEEDFF750B01E8
:10535300901C84E065087004A3E065096013750B75
:1053630000780B1207F8121B237401120807E9F5E2
:105373000B7900AA08AB091217338A088B09A8080E
:10538300A909901C84E0687003A3E0697046790062
:10539300EEFAEFFB121727EA4B60308A828B83A366
:1053A300A3A3A3A3A3E0541860217508FE7509FF06
:1053B30078081207F48A828B83A3A312065C126C0B
:1053C300AA12173F740412080780097901EEFAEF55
:1053D300FB1215F5A90B0237CA74F21203787ED5B6
:1053E3007F0B7A107B00901CDEE0F9121085EA4BEC
:1053F3004C4D7017908A5C1206587A107B00901CF3
:10540300DEE0F91210797404120807901C2EE014E0
:10541300F060030254BE90257EE493901C2EF07C32
:105423000079057A007B001219E58A088B0902547A
:10543300B57C007905AA08AB091219E58A0A8B0B1A
:10544300850882850983A3A3A3A31243CA605DE5EC
:10545300082404F8E4124768E024FFF0A3E034FFD3
:105463001261791243CA7044850882850983A3A314
:10547300A3A3A3A3E054046013850882850983A32F
:10548300A3A3A3A3A3A3A3E0F912170F85088285FF
:105493000983A3A3A3A3A3A3A3A3A37406F07AF0EE
:1054A3008508828509831261FF12193D850A0885E3
:1054B3000B09E5084509600302543475080080664A
:1054C3008E828F83A3A3A3A3E06052F4604FEE24E4
:1054D300041255C170478E828F83A3A3A3A3A3E0B5
:1054E3006403701379028E828F83125D328E828FF2
:1054F300831256731216858E828F83A3A3A3A3A34D
:10550300E0640160188E828F8374FEF0A30412316D
:105513006B14F0A304126305E41238B2F00508EE2D
:105523002407FE50010F90257412354740927E00E8
:10553300803D121A098E0875090074037808120950
:1055430074744D2508FC740D3509FD7A917B161290
:1055530019F7EA4B70DC8E0875090074037808129A
:105563000974124761122A4388828983E4F00E90FA
:1055730025891269DE50258E0875090074037808A1
:10558300120974744D2508F8740D3509F9E82407D8
:10559300F582E41266C614F070D480997A0080090B
:1055A300EA1255CB600214F00A9025751255BA40E1
:1055B300EF02449A902578E493F8EAC39822F5829F
:1055C300E43FF583E014F02275F006A4F8A9F07423
:1055D300ED28F582740C1246C42274F71203787412
:1055E300DA1208D0ECFEEDFF750800EE4F606A8A10
:1055F300828B83125663C8241FF582E4381243C892
:1056030060578A828B83125675AC18AD19EA241E33
:1056130012468DF9EA241F1225DA121A45740B1269
:105623000AEA12567D7003A3E069702D7402120A10
:10563300EAE064017023741D120AEA125679E064E9
:10564300017016741D120AEA124F4BA3E0F88E8202
:105653008F83E0687003750801A908742602426D00
:10566300E0F8A3E0228E828F83A3A3A3A3A3A3A323
:10567300A3A3124F742212685F22125683E068229A
:1056830012568722E0F8A3E0F98E828F83A3227457
:10569300F4120378E9701E790012169D8A0A8B0BA7
:1056A300AE0AAF0B74FE6E700374FF6F7014902517
:1056B30076E493600D790112169D8A0A8B0BAE0A6C
:1056C300AF0B121A930237BA74F612037874F312FB
:1056D30008D0120F238A088B09AE08AF09901C84E7
:1056E300E06E7003A3E06F60E9121A69EA6E70025C
:1056F300EB6F60DEEEFAEFFB121AE1E970D4EE4FC6
:1057030060D0851882851983E4F004120AEAEEF06A
:10571300A3EF1249251214CFE970B774FE6E70031C
:1057230074FF6F60ADEEFAEFFB740D02300FC082B1
:10573300C083121A93023A3374F2120378EAFEEB2F
:10574300FF8C0A8D0B890874FC6E700374FF6F70F5
:105753000302592579001217338A0C8B0DAE0CAF57
:105763000D740E120AEAE0F509901C84E06E7003D2
:10577300A3E06F7009E509A2E64003025925A909D0
:105783001217278A0C8B0DA80CA90DE849704579CF
:10579300007AFE7BFF1217278A0C8B0DA80CA90D2C
:1057A300E84970307418550970030258557A00801F
:1057B300010A9025741255BA4003025855EA75F050
:1057C30007A4F8A9F0126AF3541870E574D528F801
:1057D300740B39F988828983EEF0A3EFF074FE65C8
:1057E3000A700474FF650B600D88828983A3A3E5A7
:1057F3000AF0A3E50BF088828983A3A3A3A3A3A341
:10580300E509F0A2E0500D88828983A3A3A3A3A393
:10581300A3D2E2F07401650888828983A3A3A3A3BA
:10582300A3703A7401125950E05418602A90256FFE
:10583300E49388828983A3A3A3A3125D2EAA0AAB50
:105843000B121BD78B0DEA450D60030259257A0015
:1058530080367902025927901C83E080D5E06401E9
:10586300700302592588828983A3A3A3A3A3A3E07A
:105873005418600790256FE4938004901C82E01213
:105883004906E5080259240A9025871255BA4003B0
:105893000259257B008029EB75F007A4F8A9F07461
:1058A300D728F582740B39F583125D32EA75F01748
:1058B300A4F8A9F01266CA6C7003A3E06D60C80B6C
:1058C300902574E493F8EBC39840CCE4936B70B7E2
:1058D300EA75F017A4F8A9F0746528FE740A39FF75
:1058E3007C177D007900EEFAEFFB120F178E828F83
:1058F30083E50AF0A3E50BF0901C91125959A3A379
:10590300A3A3A3A312423874AAF0EE240E125937AC
:105913001259405001097A027B0012022812592AB7
:10592300E8F0790002449AEE240DF582E43FF58312
:1059330022EE2417F582E43FF583740122F0125915
:10594300452290257CE49379002401F822125954CE
:1059530022124916A32212595FA3A322125687A328
:105963002274ED1203788A088B09890A12616B404D
:10597300057905025A2D1211B7AA08AB091216BBF5
:10598300E9F50E902575E493650E700A7AFE7BFFA8
:105993001216BBE9F50E902575126F3C4003025AAF
:1059A3002B1243B56009125A7C125675120FB9E5D2
:1059B3000A601CE50E125A48AA0AEA2AFAE433FBE3
:1059C300120FB3125A361243CA70147901805BE581
:1059D3000E75F006A4F8A9F0125A85E4F0A3F0E5D9
:1059E3000E125A67E508F0A3E509125A32AA82ABF0
:1059F30083E50A125A5C8A828B83E060271243B5DF
:105A030060228E108F1175120078101207F0AC0A05
:105A1300EC2CFCE433FD125A7C125675120F0B74F6
:105A2300031208077900800279077F0B02058D12A4
:105A33005A9C22850C82850D83EAF0A3EBF0850C3A
:105A430082850D832275F006A4F8A9F0125B9CE809
:105A53002404F50CE439F50D22F0901E89E08882C8
:105A63008983F02275F006A4F8A9F0125A72221263
:105A73005B9C88828983A3A322E50E75F006A4F8B4
:105A8300EAF974F128F582740C39F58322125A72FB
:105A930074FE125A9922F0A304F088828983A32208
:105AA30074F7120378ECFEEDFF1216BBE9F89025AC
:105AB30075E493F9E8C399502DE875F006A4F8A9A5
:105AC300F0125B98125AEE88828983A3A3A3A312D0
:105AD3003C857409120AEAE0FAA3E0F5838A82128C
:105AE300457179008002790402427088828983A318
:105AF300E08E828F83F02274F61203787E00801B7F
:105B0300EE75F006A4F8A9F074EF28F582740C1270
:105B130066C66A7003A3E06B60710E902575126907
:105B2300DE40DDE4936E706374FE6A700374FF6B92
:105B330070597E0080010E9025751269DE504CEE7F
