:020000040000FA
:06000000020A450201C3E3
:03002B0002083593
:03004300020703AE
:030053000200F8B0
:1000830002015701012434120100000489890391FC
:10009300890020FD00020612FFFF01010104000593
:1000A30013000000E8030000FFFFAC13E8030000A7
:1000B30064006400B801A0BB0D00A0BB0D000202E8
:1000C3000008000005020701051E02051E0A0803B9
:1000D300B80B020102E8030A050001FFFF02050352
:1000E3000101FFA41E00000000781D00000000FFB6
:1000F300000000FF00C0E074F11203DAA2AFE433A2
:10010300F509D2AF85A708AFA1EF5508FE74105EBD
:100113006006120C1575A1EF74085E6008120C1BC3
:1001230075A1F78024EFA2E092F0E508A2E082F047
:100133005017906198E0F8900795E0C398A2D265B4
:10014300D0335002E8F075A1FEE509A2E092AF7F3B
:1001530002020439C0E074F21203DAA2AFE433FE00
:10016300D2AF9061A4E0F8759B00E5915854086004
:10017300087591F7120C638023E5915854106008B9
:100183007591EF120C698014E591A2E092F0E8A258
:10019300E082F05007E0C2E0F0120DBF9061A3E0EF
:1001A300F8E5E9585404600E120D9575E9FB90616A
:1001B30093E0A2E640F2EEA2E092AF7F010204399F
:1001C300C0E074F21203DAA2AFE433FED2AF90615F
:1001D300A5E0F8E5BF585404600675BFFB120DD7C0
:1001E30080D4C3E498F8E499F91202268026C3E484
:1001F3009AFAE49BFBE920E7E9120226E498F8E483
:1002030099F922C3E498F8E499F9120226E498F8DC
:10021300E499F9C3E49AFAE49BFB22EB20E7CFE9E4
:1002230020E7E0B90010BB0008E88AF084F8AAF0E0
:1002330022E4FBC8FA22EB70227B10C833C8C9330F
:10024300C9335007C39AC3DBF280069A50012ADBF5
:10025300EAC833F4C8C933F4C9FA2275F008E4C80C
:1002630033C8C933C933C99AC99B5004C92AC93B86
:10027300D5F0ECFBC833F4C8E4C9FA22080808EA4D
:10028300C0E0EBC0E086F0E7A4FA180986F0E7A423
:100293002AFA180986F0E7A42AFA180986F0E7A4CF
:1002A3002AFA1986F0E7A4FBE5F02AFA190886F082
:1002B300E7A42BFBE5F03AFA190886F0E7A42BFB39
:1002C300E5F03AFA18180986F0E7A4C5F02BFBE429
:1002D3003AFA1908E7C5F0C6A426F6E5F03BFBE4B5
:1002E3003AFA1886F0E7A4F6E5F00826F6E43B08A8
:1002F300F6E43A08F6D0E0FBD0E0FA22E4CFC0E01F
:10030300E4CEC0E0E4CDC0E0E4CCC0E075F020E68C
:1003130026F608E633F608E633F608E633F6181849
:1003230018EC33FCED33FDEE33FEEF33FFC3EC97F4
:1003330009ED9709EE9709EF97191919400FFFEC8B
:1003430097FC09ED97FD09EE97FE191906D5F0BF45
:10035300ECF709EDF709EEF709EFF7191919D0E0F2
:10036300FCD0E0FDD0E0FED0E0FF222518C582C01E
:10037300E0E51934FFC583C0E0E518C3958224F88E
:1003830010AF0885831985821880088583198582B3
:1003930018D2AFCEF0A3E520F0A37808E608F0A3C7
:1003A300DEFAEFF0A3E58124FAF8E608F0A3E60805
:1003B300F0A3E608F0A30808E608F0A3E608F0A314
:1003C30015811581D0E0FED0E0F8158115811581E6
:1003D300E8C0E0EEC0E022C0D02518C582C0E0E549
:1003E3001934FFC583C0E0E518C3958224F310AF29
:1003F300088583198582188008858319858218D218
:10040300AFC8F0A3E9F0A3EAF0A3EBF0A37908E700
:1004130009F0A3D8FAECF0A3EDF0A3EEF0A3EFF00C
:10042300A3D0E0F0A3D0E0F0A3D0E0F0A3E520F068
:10043300A3E5F0F0A322851983851882E0C0E0A329
:10044300E0F9A3E0FAA3E0FBA37808E0F608A3DF52
:10045300FAE0FCA3E0FDA3E0FEA3E0FFA3E0C0E01D
:10046300A3E0C0E0A3E0F5D0A3E0F520A3E0A3F56B
:10047300F010AF0885831985821880088583198554
:100483008218D2AFD082D083D0E0F8D0E032120A03
:10049300BFB900030204D0E490030178FD7913800F
:1004A30002F0A3D8FCD9FA7AFD7B15900086787305
:1004B30079018015E493A3AD82AE838A828B83F0A6
:1004C300A3AA82AB838D828E83D8E9D9E775829AFA
:1004D3007583A874031207C67582BF75831C7400E5
:1004E3001207C6E47375F0108E1A8F1B85821F8561
:1004F300831E851882851983E0CEA3E0CF851F82F2
:10050300851E83EBC9EAC8EDCBECCAC3E833C8E95F
:1005130033C9EA33CAEB33CBC3EA9EF51DEB9FF530
:100523001CB35004AB1CAA1DEC33CCED33CDD5F07A
:10053300DAAE1AAF1B22D083D082ECC0E0EDC0E06C
:10054300E493A3FCE493A3FDED4C600D120611ECC0
:1005530024FFFCED34FFFD80EFE493A3FCE493A3BD
:10056300FDED4C600D1206AEEC24FFFCED34FFFDF7
:1005730080EFD0E0FDD0E0FCE493A3C0E0E493C0BF
:10058300E022851983851882E0A3FEE0A3F5207895
:1005930008E0A3F608DFFAE0A3FFE0A3C0E0E0A3CE
:1005A300C0E0E0A3C0E0E0A3C0E0E0A3C0E010AF80
:1005B300088582188583198008858218858319D256
:1005C300AFD083D0820207CCD083D082E9C0E0E4ED
:1005D30093A3C386F0C5F095F0F908E493A386F0DE
:1005E300C5F095F0700BE493A3C3994005E904802B
:1005F30002A3E475F002A42582F582E5F03583F5C4
:1006030083D0E0F9E493A3C0E0E493C0E022C0E028
:10061300C3E49396087401939618400FE4936670AD
:100623000808740193661870007019A3A3C3E493B8
:1006330096087401939618A3A3400DD0E0D0E0D0A0
:10064300E0020575A3A3A3A3A3A3D0E022740480AF
:100653000474028000CCC0E0EDC0E0E518C39CCC7C
:10066300AD1950011D10AF068C188D1980068C181A
:100673008D19D2AF120748D0E0FDD0E0FC227402FE
:100683008000CCC0E0EDC0E0E518C39CCCAD1950B0
:10069300011D10AF068C188D1980068C188D19D288
:1006A300AF120726D0E0FDD0E0FC22C0E0C0F08806
:1006B300F0E4936670080874019366187000A8F05C
:1006C300A3A3700BD0F0D0E0D0E0D0E0020575A377
:1006D300A3D0F0D0E022D083D082CCC0E0E493A3B7
:1006E30060061207A71470FAE493A360061208B217
:1006F3001470FAD0E0FCE493A3C0E0E493C0E022DA
:10070300C0E074F21203DAA2AFE433FED2AFC2C088
:10071300E5D1A2E45003120B49EEA2E092AF7F01B0
:10072300020439CAC0E0E493A3C582CCC582C58361
:10073300CDC583F0A3C582CCC582C583CDC583DA7D
:10074300E5D0E0CA22CAC0E0E0A3C582CCC582C519
:1007530083CDC583F0A3C582CCC582C583CDC583B4
:10076300DAE6D0E0CA22C008C3E096F50808A3E0A1
:1007730096420808A3E096420808A3E0964508704D
:1007830001D3D00822700908080822601618181827
:10079300C6C333C608C633C608C633C608C633C67F
:1007A300D5E0EA22C0E0E493A3D39C5010E493A3E2
:1007B300C39C400AD0E0D0E0D0E00206F6A3A3A396
:1007C300D0E022C09FF59FE473D09F22D083D082D4
:1007D300C09FE493C0E0740193C0E0740293F59F5B
:1007E300227404800A74038006740280027401C0B8
:1007F300E0F40412081AD0E0120A822200C0D025C5
:100803001810AF08F518500C05198008F518500298
:100813000519D2AFD0D0222518F58210AF08F518EC
:10082300400C15198008F51840021519D2AF851927
:100833008322C0E0C0D0E8C0E0A8A8D2AFC2C7E816
:10084300A2E792AFD0E0F8D0D0D0E032BB0102E70C
:1008530022C082C08389828A83BB0003E08002E4D2
:1008630093D083D082226016080808C6C313C61823
:10087300C613C618C613C618C613C6D5E0EA222582
:1008830018F8E43519F9222518FAE43519FB22255D
:1008930018FCE43519FD22C3E0C696F608A3E0C6AA
:1008A30096F608A3E0C696F608A3E0C696F622C01D
:1008B300E0E493A36C7009D0E0D0E0D0E00206F648
:1008C300A3A3D0E022251810AF08F518400C151982
:1008D3008008F51840021519D2AF22E0667010089F
:1008E300A3E066700A08A3E066700408A3E066222A
:1008F300C3E09608A3E09608A3E09608A3E096A2B7
:10090300D265D03322E76670100809E766700A08DB
:1009130009E76670040809E76622C3E096F008A3B6
:10092300E096F008A3E096F008A3E096F022C3E671
:1009330097F60809E697F60809E697F60809E69791
:10094300F622C3E49396087401939608740293966F
:10095300087403939622E627F60809E637F6080992
:10096300E637F60809E637F622700422600D18C64A
:10097300C333C608C633C6D5E0F41822E493F60899
:10098300740193F608740293F608740393F622E64F
:1009930057F60809E657F60809E657F60809E65731
:1009A300F622E056F608A3E056F608A3E056F6084A
:1009B300A3E056F622E056F008A3E056F008A3E0C1
:1009C30056F008A3E056F022E026F608A3E036F638
:1009D30008A3E036F608A3E036F622E647F6080950
:1009E300E647F60809E647F60809E647F622E02651
:1009F300F008A3E036F008A3E036F008A3E036F0F1
:100A030022E4C396F608E496F608E496F608E4961C
:100A1300F622C6F4C608C6F4C608C6F4C608C6F469
:100A2300C622C3E7960809E7960809E7960809E787
:100A33009622C3E09608A3E09608A3E09608A3E0F5
:100A4300962275D00075813F751801751903000250
:100A53000491E6F008A3E6F008A3E6F008A3E6F0A5
:100A630022600C08C6C313C618C613C6D5E0F42209
:100A7300E0F608A3E0F608A3E0F608A3E0F622CA2E
:100A8300C0E0E6F0A308DAFAD0E0FA22E8F0A3E93E
:100A9300F0A3EAF0A3EBF022E0F8A3E0F9A3E0FA75
:100AA300A3E0FB22EAF0A3EBF0A3ECF0A3EDF0222A
:100AB300E0FAA3E0FBA3E0FCA3E0FD22E5C754F8C2
:100AC3004401F5C77901222518F582E43519F58328
:100AD30022C2AF75D69F020000221207CF95B6033C
:100AE3001207CFFBB6031207CFF57F001207CFED36
:100AF300BD031207CFF0BD031207CFF3BD031207E7
:100B0300CFF6BD031207CF4192031207CF4F9203D3
:100B13001207CFC892031207CF9C93031207CF6E1D
:100B230095031207CF1BBD031207CF0885031207D6
:100B3300CF7485031207CF2C86031207CF188703C0
:100B43001207CF8888031207CFEF88031207CF3B22
:100B530089031207CF4C89031207CF5C890312075D
:100B6300CFCF89031207CFE589031207CF14B80348
:100B73001207CF30B8031207CF38B8031207CF4795
:100B8300B8031207CF52B8031207CF5DB803120799
:100B9300CF66B8031207CF6CB8031207CF83B8032D
:100BA3001207CFB7B8031207CFD2B8031207CF008B
:100BB30080031207CF2C80031207CF9D82031207F5
:100BC300CFDD82031207CF1D83031207CF318303C7
:100BD3001207CF4A83031207CF3B84031207CFE0E8
:100BE30084031207CFF484031207CF3BB103120728
:100BF300CF5FB1031207CF78B1031207CFAAB103B6
:100C03001207CFDAB1031207CF07B2031207CF6976
:100C1300B2031207CF78B2031207CF82B2031207CF
:100C2300CF8FB2031207CF04A6031207CF24A60364
:100C33001207CF63A6031207CF7EA6031207CF9D29
:100C4300A6031207CF03A7031207CF0CA7031207AC
:100C5300CF69A7031207CF8DA7031207CF4EA803AF
:100C63001207CF5BA8031207CF6CA8031207CF1894
:100C7300BB031207CF30BB031207CF5CBB031207C2
:100C8300CF91FB021207CFE5FC021207CFF3FC0260
:100C93001207CF06FD021207CF1BFD021207CF304A
:100CA300FD021207CF43FD021207CFB7FD02120761
:100CB300CF1CFE021207CFBEFE021207CF82FF0235
:100CC3001207CF92FF021207CFA1FF021207CF5CD8
:100CD3007F001207CF807F001207CFA87F00120783
:100CE300CFD07F001207CF64AD031207CF8BAD03C4
:100CF3001207CFA9AD031207CF1CAE031207CFF023
:100D03009F031207CF09A0031207CF15A0031207F1
:100D1300CF29A0031207CF47A0031207CF51A00387
:100D23001207CF5BA0031207CF6EA0031207CFF801
:100D3300A0031207CF6DA1031207CFA1A1031207CE
:100D4300CFEFA1031207CF3CA2031207CF57A20391
:100D53001207CF61A2031207CF87A2031207CFECBA
:100D6300A2031207CF68BA031207CF8ABA03120786
:100D7300CFA8BD031207CF5BE5021207CF85E502BB
:100D83001207CFA2E5021207CFB5E5021207CFCBB8
:100D9300E5021207CF29E6021207CF61E602120726
:100DA300CF59EA021207CF9EEB021207CFD1EB0213
:100DB3001207CF34EC021207CFB7ED021207CFDFD1
:100DC300ED021207CFF4ED021207CF04EE02120771
:100DD300CF48EE021207CFA3EE021207CFB3EE0203
:100DE3001207CFD9B3031207CFF3B3031207CF1BF5
:100DF300B4031207CF34B4031207CF58B403120756
:100E0300CF76B4031207CF8DB4031207CFBBB4035D
:100E13001207CFD6B4031207CFD7BC031207CFD321
:100E230095031207CFE395031207CFEA9603120740
:100E3300CF1E97031207CF4097031207CF63970381
:100E43001207CF8197031207CFBB97031207CF2057
:100E530098031207CF6298031207CFA198031207D2
:100E6300CFD298031207CF0999031207CF87AF0395
:100E73001207CF99AF031207CF7EB0031207CF0B30
:100E8300B1031207CF6199031207CF6E99031207BB
:100E9300CF8699031207CF9D99031207CFF99903C0
:100EA3001207CF2E9A031207CFE89A031207CF2215
:100EB3009B031207CFBE9B031207CF109C0312079D
:100EC300CFB7B9031207CFF4B9031207CF36BA036A
:100ED3001207CF46BA031207CF50BA031207CFE364
:100EE300EE021207CFEDEE021207CF27EF02120731
:100EF300CF90EF021207CFADEF021207CF4FF002F0
:100F03001207CF58F0021207CF9DF0021207CFC687
:100F1300F0021207CFD3F0021207CF44F1021207F7
:100F2300CFCFF1021207CF1DF2021207CF5BF202FD
:100F33001207CFC0F2021207CFE3F2021207CF5A11
:100F4300F3021207CFB1F3021207CFECF302120739
:100F5300CF21F4021207CF33F4021207CF45F40274
:100F63001207CF64F4021207CF6DF4021207CF28E1
:100F7300F5021207CF74F5021207CFB2F50212077A
:100F8300CF99B2031207CF2EAB031207CF64AB0383
:100F93001207CFACAB031207CF05AD031207CFFA8D
:100FA300A1021207CF1EA3021207CF58A3021207F2
:100FB300CF02A5021207CF2CA5021207CFA1A702C9
:100FC3001207CFE1A7021207CF77A9021207CF14A6
:100FD300AA021207CF66AA021207CF09AB021207B1
:100FE300CF41AB021207CF83AB021207CFF2AC02A1
:100FF3001207CF40AE021207CF71B0021207CF9F84
:10100300B0021207CFC6B0021207CFCFB002120749
:10101300CF1FB1021207CFB1B1021207CFE0B40262
:101023001207CF63B5021207CFC2BD031207CF91D8
:10103300BC031207CF3D8E031207CF538E03120753
:10104300CFF78E031207CF368F031207CF538F03C9
:101053001207CF848F031207CFD18F031207CF0458
:1010630090031207CF3F90031207CF349203120766
:10107300CF14B7031207CF73B7031207CFB1B70368
:101083001207CFF2B7031207CF0960001207CF4E42
:1010930060001207CFD460001207CFD0610012079F
:1010A300CF1862001207CF8A62001207CFDC6200FA
:1010B3001207CF0C63001207CF9C65001207CF33D2
:1010C30066001207CF5D66001207CF956600120710
:1010D300CFCE68001207CF1469001207CF5E6900F4
:1010E3001207CF326A001207CF5E6A001207CF8160
:1010F3006A001207CFC86A001207CFE86A00120716
:10110300CF786B001207CFFD6B001207CF576C002F
:101113001207CF926C001207CFA86D001207CF1AE7
:1011230070001207CF5F71001207CF9A7100120788
:10113300CF6772001207CFA772001207CFAA7200FF
:101143001207CFB472001207CFB772001207CF385D
:1011530073001207CF6173001207CF8D730012075C
:10116300CFB473001207CFD873001207CF6F740088
:101173001207CF7D74001207CFAA74001207CFCADB
:1011830074001207CF0D75001207CF4475001207C4
:10119300CF4076001207CF6A77001207CF9DBB03BB
:1011A3001207CFA9BB031207CFE5BB031207CF0971
:1011B300B5031207CFB0B5021207CFD3B50212079A
:1011C300CFB7B6021207CF00B7021207CF58B70244
:1011D3001207CFB4B7021207CF00B8021207CF76B7
:1011E300B8021207CF04B9021207CF7CB902120763
:1011F300CFBFB9021207CFD0BD021207CF17C0026B
:101203001207CF44C1021207CFDAC1021207CF5B24
:10121300F4011207CFFBF4011207CF65F5011207A2
:10122300CF0CF6011207CF70F6011207CFA3F70117
:101233001207CFC9F8011207CF42F9011207CF1ADB
:10124300FB011207CFC2FB011207CFF4FC01120707
:10125300CF9CFD011207CFB1FE011207CF8A7700A1
:101263001207CF0078001207CF4878001207CF8A01
:1012730078001207CFE778001207CF3A79001207F8
:10128300CFA879001207CFE479001207CF0F7A00B5
:101293001207CF277A001207CF817A001207CF44B3
:1012A3007B001207CF727B001207CF947B001207DB
:1012B300CF8E7C001207CF617D001207CF017E0025
:1012C3001207CF757E001207CF8A7E001207CF1F49
:1012D3007F001207CFB99C031207CF619E03120749
:1012E300CF1E9F031207CF739F031207CFF7A203EB
:1012F3001207CF12A3031207CF56A3031207CF7C03
:10130300A3031207CFA2A3031207CFBAA3031207A3
:10131300CFBECD021207CF32A4031207CF54A503C9
:101323001207CF5DA5031207CF66A5031207CF6F80
:10133300A5031207CFEF89031207CFCF8D0312073F
:10134300CFD48D031207CFD68D031207CFBBA903CA
:101353001207CF53BD031207CFDAFF021207CF00E4
:1013630080021207CF5780021207CFC380021207F1
:10137300CF4F81021207CF12B6031207CF4D82025D
:101383001207CF6682021207CF8982021207CFC7E4
:1013930082021207CF1683021207CF41830212077C
:1013A300CF9F83021207CF4684021207CFEE840237
:1013B3001207CF6A85021207CF8F86021207CFA0CA
:1013C30086021207CF1287021207CFAB87021207DA
:1013D300CF1588021207CF0589021207CF2A890287
:1013E3001207CF278A021207CF348A021207CF3D92
:1013F3008A021207CF268C021207CF478D021207EB
:10140300CFB88D021207CF928F021207CF5D9302DE
:101413001207CF7193021207CF8193021207CF8B6A
:1014230093021207CF9493021207CF9D93021207E0
:10143300CFA793021207CFD693021207CF049402C9
:101443001207CF0F94021207CF3394021207CF571C
:1014530094021207CFC994021207CF129502120702
:10146300CF2E95021207CF9F95021207CFEB95025D
:101473001207CF3496021207CF7296021207CFF3E8
:1014830096021207CFBE98021207CF5D9902120788
:10149300CF259A021207CFB09C021207CF059D02F7
:1014A3001207CF2D9D021207CF609E021207CFA510
:1014B3009E021207CFFA9E021207CFA89F021207BD
:1014C300CF4DA0021207CF82A0021207CF22A102A2
:1014D3001207CF9EA1021207CF1D8A011207CF4F19
:1014E3008A011207CF838A011207CF378C011207B3
:1014F300CF0B8D011207CF6A8D011207CF808E01AA
:101503001207CFCC8E011207CF6991011207CFDEEC
:1015130093011207CF2A95011207CFC29501120733
:10152300CFCE95011207CF1796011207CF4A960126
:101533001207CFD696011207CFE897011207CF29DA
:1015430099011207CF289A011207CF529A01120765
:10155300CFBD9A011207CF169B011207CF899B01BA
:101563001207CFBF9D011207CF459F011207CF2E50
:10157300A0011207CF7CA1011207CFB4A301120768
:10158300CFABA6011207CFBAA6011207CF4EA70110
:101593001207CF91A7011207CF01A8011207CF7835
:1015A300AA011207CFAAAB011207CF79AC01120728
:1015B300CFFBAC011207CF47B1011207CF76B101C0
:1015C3001207CFD1B1011207CF04B2011207CF2501
:1015D300B2011207CF75B2011207CFC5B3011207CB
:1015E300CFEFB3011207CF21B4011207CF2EB401FD
:1015F3001207CF31B4011207CF60B4011207CF4FE6
:10160300B6011207CF18B7011207CF59B701120756
:10161300CFAFB8011207CF3EB9011207CF58B901B6
:101623001207CFBCB9011207CFDDBB011207CF3CB4
:10163300BC011207CF12BD011207CF26BD0112074D
:10164300CF3ABD011207CF67BD011207CF97BD0186
:101653001207CF3BBF011207CF38C0011207CF8655
:10166300C0011207CF13C1011207CF5AC1011207DC
:10167300CFC7C1011207CF1CC3011207CFC5C301D6
:101683001207CFDDC3011207CF80C4011207CFFCBD
:10169300C6011207CFA4C8011207CFC8C801120799
:1016A300CFA320001207CFD520001207CF55250066
:1016B3001207CFA425001207CFEA25001207CF8D0A
:1016C30026001207CFF226001207CF362700120793
:1016D300CF9D28001207CFC929001207CFC62D00BE
:1016E3001207CF452E001207CF6B2F001207CFCE64
:1016F3002F001207CF1A31001207CFB2330012079F
:10170300CF3F34001207CF4934001207CF713400A2
:101713001207CF3935001207CFCE35001207CFF7A6
:1017230035001207CF2436001207CF79380012078D
:10173300CF4639001207CF8539001207CF073A0089
:101743001207CFB23A001207CFE43A001207CF2FA5
:101753003B001207CF683B001207CFB73B001207CD
:10176300CF133C001207CF953C001207CFFA3C0081
:101773001207CF723D001207CF1B3F001207CF1392
:1017830040001207CF5441001207CFA844001207AC
:10179300CF0447001207CFBD47001207CF0548000B
:1017A3001207CFE649001207CF214A001207CF2ABA
:1017B3004A001207CF334A001207CF3E4A001207EE
:1017C300CF5D4A001207CF104B001207CF6D4B00BD
:1017D3001207CF774B001207CFCE4B001207CF95DE
:1017E3004C001207CFBF4D001207CFEA4E0012077D
:1017F300CFE04F001207CFF84F001207CF2C500055
:101803001207CF4A50001207CF9250001207CFCBD6
:1018130050001207CF8251001207CF435200120724
:10182300CFB652001207CF3253001207CFCE530068
:101833001207CFF454001207CFB055001207CF5050
:1018430056001207CF3D57001207CF9557001207D6
:10185300CF5B58001207CF7E58001207CF93590071
:101863001207CFDE59001207CF3A5A001207CFA250
:101873005A001207CFC65A001207CFEE5A001207BA
:10188300CF335B001207CF575B001207CFDB5B0040
:101893001207CFC45C001207CF095D001207CF32D5
:1018A3005D001207CFD05D001207CF3B5E00120729
:1018B300CF675E001207CF485F001207CFDBDA0263
:1018C3001207CF13DB021207CF34DB021207CF76E6
:1018D300DB021207CFDADB021207CFE4DB021207C7
:1018E300CFF4DB021207CF2BDC021207CFD4DF02C7
:1018F3001207CF9CE1021207CF80E3021207CF2227
:10190300E4021207CFACE4021207CF37CA01120771
:10191300CF9BCA011207CFF9CA011207CF44CB01EB
:101923001207CF5FCB011207CF86CB011207CFA3DC
:10193300CB011207CFAFCB011207CF40CD01120766
:10194300CF59CD011207CFD5CD011207CFE8CD0175
:101953001207CFF8CD011207CF9CCE011207CF0893
:10196300D0011207CF1BD1011207CFBBD101120740
:10197300CFC5D1011207CF44D2011207CF55D201EF
:101983001207CF94D2011207CFC2D2011207CF8F11
:10199300D3011207CFE6D3011207CF1FD4011207D9
:1019A300CF75D4011207CF93D4011207CFE1D4012D
:1019B3001207CFACD5011207CFFAD5011207CF47D3
:1019C300D6011207CFCAD6011207CFF4D6011207E8
:1019D300CF2AD7011207CF39D7011207CF98D701E2
:1019E3001207CF10D8011207CF51D8011207CFA188
:1019F300D8011207CFCCD8011207CFE6D8011207BE
:101A0300CF00D9011207CFD5D9011207CFDFD901F2
:101A13001207CF1ADA011207CF2ADA011207CF33DE
:101A2300DA011207CF84DA011207CF98DA0112071D
:101A3300CFBADB011207CFCFDB011207CF62DC0184
:101A43001207CFD6DC011207CF7BDD011207CF8649
:101A5300DD011207CFE6DE011207CF02DF01120715
:101A6300CF4EDF011207CFBCDF011207CFEEDF013C
:101A73001207CF08E0011207CF4AE0011207CF9DFA
:101A8300E2011207CF35E3011207CFACE3011207DE
:101A9300CF09E6011207CF21E6011207CF24E601A1
:101AA3001207CF30E6011207CF44E6011207CF4CED
:101AB300E6011207CF83E6011207CF77E70112078A
:101AC300CF01E8011207CF83E8011207CF03E90131
:101AD3001207CFDAE9011207CFFCE9011207CF950C
:101AE300EA011207CFF2EA011207CFF5EA01120762
:101AF300CF64EB011207CFB0EC011207CFC3ED01A6
:101B03001207CF4EEE011207CF61EF011207CF2666
:101B1300F0011207CF57F0011207CF7DF001120732
:101B2300CF86F0011207CFB5F0011207CF65F1019F
:101B33001207CF15F2011207CF88F2011207CF2B3C
:101B4300F3011207CF9EF3011207CFDDF301120752
:101B5300CF26F4011207CF2DCC021207CFF6CB020A
:101B63001207CFC8CB021207CF7CCB021207CFE5F7
:101B7300CA021207CF55CA021207CF2FCA02120791
:101B8300CFE4C9021207CFAEC9021207CF31C9028F
:101B93001207CFCCC8021207CF7BC8021207CFA30C
:101BA300C7021207CF13C7021207CFC7C602120715
:101BB300CF42C6021207CFFDC5021207CFE1C5020D
:101BC3001207CF89C4021207CF5BC4021207CF28C2
:101BD300C4021207CFACC3021207CFFEFA021207E8
:101BE300CF87FA021207CF88BC031207CF38FA0255
:101BF3001207CF3FBC031207CF2ABC031207CF1A29
:101C0300BC031207CFD8BD031207CFF87F0012071A
:101C1300CF90BD031207CF0CFA021207CF51F60281
:101C23001207CF38F6021207CF7FBD031207CFDEAC
:101C3300F5021207CF86B9031207CF83B903120740
:101C4300CF65B9031207CF62CF021207CFFBB803E8
:101C53001207CF0582021207CF90DA021207CF379D
:101C6300DA021207CF02DA021207CFCDD902120726
:101C7300CF99D9021207CF2CD9021207CF14D90258
:101C83001207CFEFD8021207CFC8D5021207CF9B96
:101C9300D3021207CFA2D1021207CF2ED10212070D
:101CA300CFDFD0021207CF99D0021207CF88CE021E
:101CB3001207CF3BD0021207CF1DA4030000008000
:101CC300FB0001363601010001020100010301009E
:101CD30001040106060502000007010034080100A3
:101CE3000F090401010D0100FF0E08000017020097
:101CF30000190100FF1A0100011B0100FE1C010075
:101D0300081D0200001F0100012001000121020043
:101D1300002301000F240200002601000127010017
:101D230008280200FF2A0100072B0102402C0100B2
:101D3300002D0100012E0100012F0100FF30010BD6
:101D43001D310800003A0100083B01000F3C01006F
:101D5300013D0100FF3E0400004204000046040070
:101D6300004A0400004E0400005204000056040020
:101D7300005A04000001037103010301030103017D
:101D83000301032203020301031003000300030002
:101D930003000300030003000342030003240306BC
:101DA3000300030003040312032503230325032372
:101DB30003040304030003000300034403000300BC
:101DC3000323030003650321003503810300030597
:101DD3000300030003000300032503230301017130
:101DE3000101010101110101013101010101018021
:101DF30001100161013B0014006301730172016270
:101E03000143010001130106013D013500040112E4
:101E13000100010001000100010401040133013349
:101E2300013C01440132013600000100016501005B
:101E330001350081010001050182018301000103D5
:101E430002710230016002110270020102020202F9
:101E5300028002100261023A0041006302730272BF
:101E6300026202430200021302380000020002046D
:101E730002120200020002000200020402040237FE
:101E83000037003C024402000239000002000265F0
:101E9300020002350281020002050282028302006F
:101EA3000203007100300160001100700031022054
:101EB30003500480001000610000001400630073ED
:101EC30000720062004300000013000600000000DF
:101ED30000040012000000000000000000040004E1
:101EE30000370037003C02440000000000000000FF
:101EF300006500000035008100000005000000833C
:101F030000000036000100060000000F0000000082
:101F130000000000000000000003FFFF00000403B6
:101F2300FFFF0000FFFF0FF4010005C404032000BE
:101F33000100000B000000000000000003010F007F
:101F4300000000000000000000000000000000008E
:101F5300000000000000000000000000000000007E
:101F6300000A000000020000000400000008000056
:101F7300001000000020000000400000008000006E
:101F8300000001000000020000000400000008003F
:101F93000000100000002000000040000007ECFDDE
:101FA300FDFDECDCDCCCBCACAC9C9C8C7C7C6C6C1C
:101FB3005C5C5C4C4C3C3C2C2C1C1C01002712022E
:101FC30000D3110300D9110400DF110500E5110648
:101FD30000F111FFFF00000A131702E31605F516BF
:101FE30007E9160CCB160DD716FF000000160F00DD
:101FF300000B150B020002220F3300000E5A696713
:10200300426565416C6C69616E6365303901030536
:1020130007090B0D0F00020406080A0C0D140AE54C
:10202300D5C5B5A5A59585857565303017181921D2
:10203300301B1D1F30000119161816161823030034
:1020430000393D3F373C3C362C442D3030161819AF
:1020530020231A1C1E3000034A49434E181A250533
:10206300020C0E020B040B0A0708000F0204020104
:10207300010101090200000000000000BE040AE89B
:10208300030000FA062020E803A01F0E0004040A40
:102093000C030908280C1E05080300FFFF04041E97
:1020A30074F712036EE99014F6F09014ABE4F01297
:1020B3000E6D9014FFE4F0A3F09014F7F0A3F01268
:1020C300185D120E7390143BE4F0A3F012131D027B
:1020D3003C0E74EC12036E74D71208C8EAFEEBFFD1
:1020E300548060689014F6E0F9120F1B8A088B097C
:1020F300EA4509604F7C0080010CEC75F003A4F8FD
:10210300A9F074DA28F582741F39F583E493F46037
:102113002CE493F88508828B83E06870DCAA08ECD2
:1021230075F003A4F874DB28F582741F39F583E492
:1021330093C0E0740193F583D0821204E6AA08AB3E
:1021430009120F09EEFAEF6480022537EF5420607D
:102153001E12176D8A088B09EA4509600A1216D701
:10216300AA08AB09120F09EEFAEF6420022537EE35
:10217300A2E0501F9014B0E0640F701179001216A2
:10218300ADE96009901626120AB31216C5EE640172
:1021930002250CEF5440604F901616E06406702839
:1021A300740BF090163EE0F9750801750900750A85
:1021B30000750B0090149EE07808120788AA08ABFC
:1021C30009AC0AAD0B1213DD90141E1206507A00EF
:1021D3007B409014F6E0F912105374041207FFEEDB
:1021E300FAEF6440022537EE542070030225107A7B
:1021F300207B009014F6E0F912105FEA4B4C4D700F
:102203001A9014FB120A9BE8494A4B700E750C0195
:10221300750D00750E00750F008061750C00750D4E
:1022230000750E00750F0012106B8A088B098C0A5B
:102233008D0B9014FB120A9BE8494A4B602A9014B9
:10224300FB7808120769400E750CFF750DFF750EBC
:10225300FF750FFF801285080C85090D8C0E8D0FFD
:102263009014FB780C12089A7401780C120869E533
:102273000C450D450E450F700302243D7C00790487
:102283007A007B001217498A088B09022364851898
:102293008285198374FFF07401120ACA74FFF07403
:1022A30002120ACA74FF1230FDFAA3E0FB74031290
:1022B3000892124FC5124A1A12178BE96401600380
:1022C300022346E50812400612384D4480F8A3E085
:1022D300F97424120ACAE8F0A3E9124985A3A3A357
:1022E300E0C0E07426120ACAD0E0124DB7A3E0544E
:1022F3000860167424120ACAA3E0440112254FC0D1
:10230300E07428120ACAD0E0F0125BB0350912500B
:10231300C36018125BB012493BA3E0C8125EC7E06A
:10232300F87412120ACAE8F0A3E4F09089F41206D2
:10233300507404120892740712088A121407740462
:102343001207FF850882850983A3A3A3A3A3A3A3DD
:10235300A3A3740612254FF912172B850A08850BC0
:1023630009E5084509700302243D7C007904AA08A5
:10237300AB091217498A0A8B0B850882850983A347
:10238300A3A3A3E0F510A3E0F511E4F512F5137888
:102393000C7910120A254029E5082404F8E43509CC
:1023A300F9850C10850D1188828983C3E09510F09F
:1023B300A3E09511122898F8A3E0F9E849709C80EE
:1023C3000E850882850983A3A3A3A3E4F0A3F08564
:1023D3000882850983A3A3A3A3A3A3A3A3A3A3E021
:1023E3006401850882850983A3A3A3A3A3A3702BF8
:1023F300E054046003022291850882850983A3A324
:10240300A3A3A3A3A3A3A37406F07AB78508828525
:1024130009831226841216BF02235EA3A3A3A3E09B
:102423006003022291850882850983A3A3A3A3A342
:10243300A3A3A3A37401F002235E1217197C0079EE
:10244300017A007B001217498B09EA4509600C7A6F
:10245300207B009014F6E0F9120F45850C0A850DD8
:102463000B7C0079047A007B00121749EA4B701544
:1024730080538A828B83A3A3A3A312595BE5089895
:10248300E5099940078A828B83123C797C007904A1
:102493001217498B0DA90DEA4970D7C3E50A9508B0
:1024A300E50B95095013C3E508950AF508E5099569
:1024B3000BF509E508450970167A207B009014F6A0
:1024C300E0F9120F459014FB122548A3F08037E57D
:1024D3000825E0F508E50933F509E4F50AF50B7875
:1024E300081207E47A207B009014F6E0F912104DED
:1024F30074041207FF12106BEAF8EBF9ECFAEDFB28
:102503009014FB120A8FEE6420FAEF8027EF540237
:10251300600A121857EEFAEF64028018EF54046051
:1025230016124C7879019014A9124A1C121419EE50
:10253300FAEF6404FB80047A007B0074291207FF1E
:102543007F0C020585E4F0A3F0A3F022124989A3CE
:10255300E022C082C08374EA1208C87C167D007929
:1025630000AA18AB19120EF17408120ACA7402F009
:1025730090149F124FD61225987409120ACA124E4C
:10258300E47413120ACAE4124BC8121CB97416126B
:1025930007FF0249FCE8F0A3E9F09014A91244995B
:1025A3002274F712036E74DA1208C8EAFEEBFFEE28
:1025B3004F602DAC18AD1912178B7406120ACAE0BE
:1025C300601E7417120ACAE0FD7401120ACAE0FC05
:1025D300EEFAEFFB7900121695E9600479A4800204
:1025E30079007426023C0B74F712036EEAFEEBFFCC
:1025F3008E828F83A3A3A3A3A3A3E05440601712E7
:10260300591F124A1C121803E960067AFF7BFF80E8
:102613001512591F800390149F124A1C74FE6A708E
:102623000374FF6B604712591F1254EE121803E92B
:102633008E828F83600E12414212400638F583E486
:10264300F0A38003125EF2F07CB37D168E828F833B
:10265300124A1C121317E9F5087015EE4F60097939
:1026630001EEFAEFFB121725A908023C0E7508CDFF
:10267300AA081226801216BFE960E080EB8E828FD3
:1026830083124146125EAAE0F92274F612036EE940
:10269300FEEAFF7A0F7B00120F03EA4B601F8A8268
:1026A3008B83740CF0EEA3A3F0EF8A828B83123931
:1026B300EB9014F6E0F9120F0F7900802FEEF91268
:1026C300174F8A088B09A808A909E849601C888262
:1026D3008983A3A3A3A3A3A3A3A3A37406125BB891
:1026E300E0F91214A9EEF912172B7910024B867434
:1026F300F412036E8A088B098C0A8D0B9014B0E0D8
:10270300640F702CEA4509450A450B60239014AB0E
:10271300E064086005E06404701678081207E47A40
:10272300017B009014F6E0F912104D74041207FFB8
:102733000229C474F412036E74FC1208C8EAFEEB97
:10274300FF8E828F83A3A3E0F912174F8A088B09A8
:10275300EA450970030228738E828F83A3A882A996
:1027630083E0C0E0EA240B124938D0E012289864D1
:10277300F160288E828F83A3E064CD601E8E828FEA
:1027830083A3E0641A60148E828F83A3E064E960FC
:102793000A8E828F83A3E064E170367900121725D5
:1027A300E9602EE5082404F50AE43509F50B8508EC
:1027B30082850983122884A3E0F9850A82850B8325
:1027C300124A1C120E7F850A82850B831254EE80F7
:1027D3006E8E828F83A3E0C0E07402120ACAD0E037
:1027E3001233A6125F34123398C0E07403120ACA7C
:1027F300D0E0F0E508240C12384AAA18AB1970058A
:1028030012140180031217EB7402120ACAE064E97E
:10281300702D850882850983123112750A01780AA1
:102823001207F0750AE9780A1207F01238401233DA
:1028330088123C4D124A1C1217C174021207FF85FD
:102843000882850983A3A3A3A3A3A3A3A3A3E064EB
:10285300027012850882850983A3A3A3A3A3A3A35C
:10286300A3A37406F08E828F83A3A3E0F912172B20
:1028730012171990162C122DB41216C574040229BE
:10288300C1A3A3A3A3A3A312288E22E0FCA3E0FD6C
:102893008E828F8322125BC8E02274F412036EEAE5
:1028A300FEEBFF7508008E828F83A3A3A3A3A3E08F
:1028B30060487508088E828F83A3A3A3A3A3A3A351
:1028C300A3A3124A1C79FF12158D8B0BEA450B60EB
:1028D3001075082C8E828F83A3A3A3A3A3E0D2E059
:1028E300F08E828F83A3A3A3A3A3E05403640160A8
:1028F300030229BD4308110229BDEE2418123F0229
:102903006038EE241A123F026003F4701312584524
:102913007003A3E06960030229BD7508220229BD83
:10292300EE241B12572DEE241A123F02FAEE24193D
:10293300123F02F91214970229BD8E828F83A3A33B
:10294300A3A3A3A3A3A3A3124A1C121803E964021B
:1029530070037508011258457003A3E0697006E51A
:1029630008D2E1F508E50860158E828F83A3A3E002
:102973007006E508D2E58004E508D2E6F5088E8204
:102983008F83A3A3A3A3A3A3A3A3A3124A1C1218D5
:1029930003E964017006E508D2E0F5088E828F83AF
:1029A300A3A3E06015EE241D123D60F91217F1E9AF
:1029B30064016006E508C2E0F508A9088003120770
:1029C300FF7F0402058574F012036E74D71208C8E2
:1029D300EAFEEBFF8E828F83A3A3A3A3E060119093
:1029E300162A1250C5600990162A122DB41216C564
:1029F30074031208928E828F83A3A3A3A312337945
:102A0300124A1C12178BE97003022B6278017405BA
:102A1300120ACAE0C39402400278007407120ACA79
:102A2300E0C3940240027800740C120ACAE064F80E
:102A33007003A3E0F47003022B62740C120ACAE061
:102A430064F97003A3E0F47003022B62740C120A9E
:102A5300CAE064FA7003A3E0F47003022B62740CFF
:102A6300120ACAE064FB7003A3E0F47003022B6252
:102A73007406120ACAE0F9901499E0696003022B04
:102A830062E8A2E04003022B627427120ACAE060E4
:102A930003022B62EE241312448F7422120ACA1209
:102AA3004D9F241C12448F7410120ACA124EE474F0
:102AB30009120ACAE0601F741A120ACAE0FD7404FC
:102AC300120ACAE0FC8E828F83A3A3124A1C7901E7
:102AD300121695E9703D740312088A1216D1E9F5AE
:102AE300087409120ACAE0702E901493E0602874E7
:102AF300225508642260207442550864427014749D
:102B030020120ACA122DC0600E7420120ACA122D96
:102B13009D60047ACF804AE9A2E6504D7420120AE0
:102B2300CA123D6624FD600F14600C24FD60082466
:102B3300FD600424FE70287420120ACA122D9670B8
:102B43000E7420120ACA124B81A3E0640D601A743A
:102B53000312088A12181BE96401700D022D897A89
:102B6300D37B001211AF022D89EE242DF582E43FB1
:102B7300F5831230F07003A3E069702275090078C1
:102B8300091207F078091207F0EE242F123F02F919
:102B9300122DA4124A161217C174021207FF7409E8
:102BA300120ACAE07003022C45122DA4124A16120F
:102BB30018818A0A8B0BEA450B7003022CE274041A
:102BC300120ACAE0F88E828F83A3A3E028F8A3E059
:102BD3003400F9E8240D122D8EF88A828B83A3A387
:102BE300A3E068600EE88A828B83A3A3A31239E46F
:102BF3001225497904E9120ACA123370E02AF8A3AC
:102C0300E034008882F583A3AA82AB83120EF78A8D
:102C13000C8B0D8C0E8D0F850A82850B83A3A3A3CA
:102C2300A3780C1207694003022D89908A10780C4F
:102C33001209CB850A82850B83A3A3A3A3780C1265
:102C43000A559014ABE064046008E0640960030271
:102C53002D89E508A2E54003022D1CEE242F123F27
:102C630002851882851983F0EE2430123F02C0E0FA
:102C73007401120ACAD0E0F0EE2431123F02C0E020
:102C83007402120ACAD0E0F07414120ACAE0640192
:102C9300702C740E120ACA12385A2413123F026897
:102CA3007003A3E0697017740C120ACA124A1C124B
:102CB3001803E9640270077414120ACAE4F0EE24DC
:102CC30025F582E43FF583120650740412089274CA
:102CD3000712088A12140774041207FF022D899041
:102CE30014F0E064016003022C457420120ACA1236
:102CF3002DC07009E508A2E65003022C457410129A
:102D03000ACAE0F47003A3E0F4607BEEFCEFFD7409
:102D13000312088A1216DD806DA2E6506974201230
:102D23000ACA124FAC7016741A120ACAE06402700F
:102D330055740312088A79001217E580497420122A
:102D43000ACA122D9D7014741A120ACAE064047020
:102D530035740312088A1217D9802B7420120ACAF9
:102D6300122D96700C7900740312088A12182780AA
:102D7300157420120ACA124B81E0640C70087403A4
:102D830012088A12183F7429023871F582E439F562
:102D930083E022125929E0640322125929E06407CF
:102DA30022EE242BF582E43FF583125737EE2413EA
:102DB30022E0F508A3E0AA08FBE4FCFD22123C692B
:102DC30064062274F412036EEAFEEBFF8C088D098D
:102DD300901419E0600F1258457003A3E069700561
:102DE300121485805A79008E828F83A3A3A3A3A391
:102DF300A3A3A3A3124A1C1214B58A828B83E58270
:102E030045836033A3A3A3A3A3A3E054186028E5D9
:102E130008241C124938120654E5082413124938B1
:102E2300120654EE2418123F02F9124A031214C771
:102E330074041207FF80087900124A0312148B02EC
:102E430029C474F712036E74F71208C8EAFEEBFF85
:102E53009014ABE06403600DE064016008E0640972
:102E63006003022F5D8E828F83A3E06003022F2312
:102E73007C007D007A027B00120E791259658A82EA
:102E83008B8312449590149C124EE479531212FFD3
:102E93009014ABE0640960099014A9124A1C12183B
:102EA3007B8518828519837401124BC879421212EB
:102EB300FF9014AB7404F0740112088A794A121259
:102EC300F974011208927AA17B14121083901616DA
:102ED300E0640B70057406F0800B79009014A9125E
:102EE3004A1C12141990149C1257337A037B001254
:102EF3000E7990149F1257337A047B00120E799047
:102F03001496E0A2E35004D2F08002C2F0124BBE4A
:102F130079521212FF901626120AB31216C5803781
:102F2300FC7D007A037B10120E79901616E0640B79
:102F33007003740AF090141CE4F0FA7B409014F6CA
:102F4300E0F91210598E828F83122F64124A1C12D9
:102F530014199014ABE4F01217077409023C0BE048
:102F6300F8A3E0F99014A922C082C08390143B1205
:102F730050C5701F9014ABE014600924FC600A1460
:102F8300600C800F9014458034901441802F90146E
:102F930043802AE849600890143C123382700C8AFB
:102FA300828B83A3E0F912140D801D90143B124F02
:102FB300B26402700512184B800E90151A1250C598
:102FC3006006124B821204E60249FC74F412036E8B
:102FD30074FE1208C88A088B097A007B049014F6E1
:102FE300E0F9121059AA18AB1979501212F97A0F95
:102FF3007B00120F038A0A8B0BAE0AAF0BEE4F60F6
:1030030020850882850983A3E070169014A9E0F453
:103013007003A3E0F4603B1230EA7003A3E069603D
:1030230031850882850983A374EA12339E1212FF45
:103033007A9F7B14794B1212FF7AA97B1479501271
:1030430012FF7A9E7B1479E11212FFEE4F70030296
:1030530030DE8E828F837402F09014A9E0F4700343
:10306300A3E0F4600A1230EA7003A3E069704F85AD
:103073001882851983122F62E8F0A3E912339E1296
:1030830012F990149C12385F124EE47A9F7B1479E4
:103093004B1212F97A9E7B1479E11212F9750A0028
:1030A300780A1207F0780A1207F0901610122F65AB
:1030B3001235BF124A1C1217C174021207FF85088A
:1030C300828509831230E3A3F09014AB7403F0EE0E
:1030D300FAEFFB9014F6E0F9120F0F74020229C104
:1030E300A3E08E828F8322851882851983124499E7
:1030F3009014A9E06822E8F0A3E912310122F085D7
:103103000882850983E022F582E43BF583E02212FD
:103113004499E8FAE9FB2274F512036E74D112089C
:10312300C88A088B098A828B83123D58741C120843
:10313300928A828B83A3A3A3A3A3A3A3A3123388FB
:10314300124A1C12170D741C120ACAE0702C85084F
:1031530082850983A3A3A3A3A3A3A3A3E0C3940B7F
:1031630040188E828F83A3A3A3A3A3A3A3A3E06486
:10317300027007124ED0E0F4600302336B9014AB7D
:10318300E064027003023252E064067003023252BA
:1031930090143B1250C560081233827003023282CE
:1031A3009014ABE064086008E06404600302336BCE
:1031B300741E120ACA123370A3A3A3A3123D58901C
:1031C300143BE0F8496007124FB86402607790142B
:1031D300A9E06E7003A3E06F600302336B74016AAE
:1031E30060167423120ACAAC82AD837ABD7B1412B3
:1031F300107DE9600302336B7A007B029014F6E0E2
:10320300F912105FEA4B4C4D600302336B9014AC20
:10321300120A9B851882851983120A8F9014B2E0D3
:10322300C0E07404120ACAD0E0F07405120ACA742A
:1032330001F07406120ACA7402124BC81213D1E9C0
:103243006003023368EEFAEFFB12184502336B900A
:10325300143B1250C5702875080078081207F078DF
:10326300081207F0EE2410F582E43FF58312337958
:10327300A3122884124A1C1217C174021207FF8E6C
:10328300828F831244957407120ACAE8F0A3E912E5
:1032930038651244957409120ACA124D9F12442EBE
:1032A300C0E0740B120ACAD0E0123398F508A3E009
:1032B300F509740F7808120A64740C120ACAE50837
:1032C300F07420120ACAE0C0E0740D120ACAD0E0FA
:1032D300F07422120ACAE0C0E0740E120ACAD0E0E7
:1032E300F0741D120ACAE0C0E07410120ACAD0E0DA
:1032F300F0741E120ACAE0C0E0740F120ACAD0E0CA
:10330300F0EE2410123F02C0E07411120ACAD0E09A
:10331300F07421120ACAE0C0E07412120ACAD0E0A3
:10332300F0742E120ACAE0C0E07413120ACAD0E085
:10333300F07423120ACAA982AA8389088A09750A22
:103343000078081207E87C087D007417120ACAAADD
:1033530082AB83120EE574031207FF740712088A07
:1033630012141380031213D7742F023D6AE0FA8EEE
:10337300828F83A3A322E0F98E828F83A3A32212D9
:103383004FB9640122E0F98A828B83A3A3A3A3A389
:10339300A3A3A3A322F0124ED4E022F07A9C7B14C1
:1033A3007953221233AA22F0851882851983227455
:1033B300F212036E74F81208C8EAFEEBFF8C0A8D52
:1033C3000B890D908971AC18AD19740812074875F3
:1033D3000C00EEFCEFFDAA18AB1912107DE9700387
:1033E300750C019014F7801AEEFCEFFDE508240B31
:1033F300FAE43509FB12107DE97023E50824141261
:1034030049381234376024E50CA2E040DB8508829A
:10341300850983E0650A7004A3E0650B70DD850808
:1034230082850983A3A3E0650D70D0AA08AB097454
:10343300080239FF123C81E508450922C082C08396
:103443009014F70249F974F712036E9014F7125BA4
:10345300D6800C125323123D5B120F99EEFAEFFB49
:10346300EA4B70EF9014F7E4F0A3F0023C0E74F112
:1034730012036EEAFEEBFF890A8C088D098E828F98
:1034830083E08C828D8312445DAE82AF83E012476A
:10349300A21249A9C41247A2123530E01247A91259
:1034A30049A7A2E2E4338C828D831249A613131336
:1034B300541F1247A21249A5A2E7E4338C828D83DD
:1034C300A3A3A3A31235308E0C8F0D750E00780CB9
:1034D3001207E87C087D00E5082407FAE43509FBB8
:1034E300120EE574031207FFEE2408FE50010F8E3F
:1034F3000C8F0D780C1207E87C037D00E508240F80
:10350300FAE43509FB120EE574031207FFE50AC35B
:10351300940F40118E828F83A3A3A3E0C0E01249CE
:1035230034D0E08004124934E4F0025960A3A312BA
:1035330044610EAF832274F512036E8A088B098AE5
:10354300828B83A3AE82AF83E0F91214318E828F14
:1035530083E064EB6024850882850983A3E064E14A
:103563006018850882850983A3E064F1600C8508EF
:1035730082850983A3E0641A70098508828509831B
:10358300A3E4F0901626120AB31216C5750A017841
:103593000A1207F0850882850983A3E0F5087808F5
:1035A3001207F079009014A91235BF124A1C1217A2
:1035B300C174021207FF121719023D6D125737909B
:1035C300149F22EAF0A3EBF00249FC74F612036E97
:1035D3009014FAE0701B7C0079017A007B001217CB
:1035E30049EA4B600C8A828B831250C56003121622
:1035F300B9024B86C082C0837904121743E9F8905D
:10360300209AE493C398401079FF121743E9F89086
:103613002098E493C3985004790180027900024909
:10362300FC74F012036E8A088B09890B750C008AEF
:10363300828B83A3A3A3A3A3A3A3A3E0F912174F8E
:103643008A0E8B0FAE0EAF0F750A01EE4F600302A9
:10365300371E850882850983A3A3A3A3A3A31257B7
:1036630033850882850983A3A3A3A3A3A3A3A3E00C
:10367300F9850882850983124A1C1217378A0C8B35
:103683000DAE0CAF0DEE4F70030238398E828F836F
:10369300A3A3A3A3E4F0A3F0E508240CFAE43509FB
:1036A300FB8A828B83E0C0E0123840D0E0F0E5086B
:1036B300240D123853240D124EDE121809EE240F76
:1036C3001254E8E50824111238532411124EDEE592
:1036D30008241312384AC0E0124D88D0E0F0750C6C
:1036E30001EE2406124422547FF0A3E054FC122876
:1036F3009854046003023793901638E0F50875096F
:10370300007407780812096C8E828F83A3A3A3A386
:10371300A3A3E04508F0A3E04509F08E828F83A3BD
:10372300A3123C7974077808120A64E5085407FC6D
:10373300E50B606C8E828F83A3A3A3A3A3A3A3A390
:10374300A374021249AA123B24600B9014971238F7
:103753005FA3A3124EE4EC7003023807EE240612B3
:103763005EB3547FF508A3E054FCF509EC24FFF5A0
:103773000EE434FFF50F7407780E12096CE5084563
:103783000EF8E509450FF98A828B83124EE48074A3
:103793008E828F83A3A3A3A3A3A3E0448002371D38
:1037A300EC7005750A00805C8E828F83A3A3A3A3AC
:1037B300A3A3E05420600C120EFDEA547F79002489
:1037C3005F80198E828F83A3A3A3A3A3A3E05410C6
:1037D300601A120EFDEA540F7900240A5001098E73
:1037E300828F83A3A3A3A3F0A3E9800D8E828F838B
:1037F300A3A3A3A37401F0A3E41238657404123ADB
:10380300A7120F45E50CA2E0502F8E828F83A3A34E
:10381300A3A31252A9E0F9EEFAEFFB12173DE960F8
:10382300181250BC6009EE240F124A16120F99EEBB
:10383300FAEFFB120F99750A00A90A8034EE240CE3
:10384300F582E43FF58322F582E43509F583E0222E
:10385300F582E43509F583124499EE22125989A3BE
:10386300A322123869221246E5A3A3A3A3221207B7
:10387300FF7F0802058574F412036E74F71208C8FB
:103883007E0012174FEA4B700302393F8A828B8303
:10389300A3A3A3A3A3A3A3A3A3E064066003023982
:1038A3003F8A828B83A3A3A3A3A3A3A3E0FF8A825C
:1038B3008B83125ED7E0C0E07408120ACAD0E0120C
:1038C3003C60F8A3E0F9851882851983124EE4124F
:1038D3001761EF5408606385188285198312573383
:1038E3007A007B001217318B0BEA450B704C125F89
:1038F300261213297C007D007A007B0080288E82AB
:103903008F83123D66F47003A3E0F4602D9014A935
:1039130012288A124A1C121323E9641A601C7C00C1
:103923007D00EEFAEFFB1217318A0A8B0BAE0AAF5A
:103933000BEE4F70C9790012132F7E01EEF9740953
:103943000229C1C082C083EA4B70059014FF800630
:103953008A828B83A3A3123B5C60208A828B83A31E
:10396300A3A3A3A3A3A3E0540860E5EC4D60101246
:103973003B637003A3E06D70D780047A007B000281
:1039830049FC74F212036EEAFEEBFF890A8C088D80
:10399300097A147B00120F93EA4B603A8A828B8375
:1039A300A3A3A3A3A3A3A3A3A3E4123C55A3E50A40
:1039B300125930A3125F321239E4123C731239EBFD
:1039C3008A828B8312594DEA125BB23BF583E4F092
:1039D3001239DBF0A3F08027A3F08A828B83A3A3A1
:1039E30022125944E4F0A322A3F01239F63BF583E3
:1039F300E4F022EA124BAD22A90A74031207FF7FF7
:103A03000602058574F412036EEAFEEBFF89088C47
:103A13000A8D0BEE4F7003023AA27401650870120F
:103A23007901121743E9F890209BE493C39850223D
:103A330080167404650870147904121743E9F8902A
:103A4300209AE493C398500A79118055740265084B
:103A5300704D8E828F83A3A3A3A3A3A3A3A3A3E5E4
:103A63000812445DA3125587E4F0A3F09014FF12EB
:103A730050C5601A8003E0F8A3E0F988828983A324
:103A8300A3123B5C88828983A3A370EA800390140A
:103A9300FFEEF0A3EF123AA7120F457900800279E7
:103AA300C10229C4F07A207B009014F6E0F922C009
:103AB30082C083E9F879009014FF801D8A828B838A
:103AC300A3A3A3A3A3A3A3A3A3E068600574FF68B0
:103AD3007001098A828B83A3A3123B5C70DE0249C7
:103AE300FC74F712036EEA4B70059014FF80068A8C
:103AF300828B83A3A3123B5C60208A828B83A3A364
:103B0300A3A3A3A3A3A3A3E06970E4EC60108A8238
:103B13008B83E0123B2470D780047A007B00023C45
:103B23000EF8A3E0C8125EFEE0540422C082C083F4
:103B33009014FF80068A828B83A3A3123B5C6012DE
:103B43008A828B83A3A3A3A3A3A3A3A3E06970E5A2
:103B530080047A007B000249FC125BD6FBEA4B220D
:103B6300123C656C2274F212036E8A0A8B0B8C0C66
:103B73008D0D750800750900EA450B60309014FF40
:103B830080068E828F83A3A3123D5BEE4F601EAC33
:103B93000CAD0DEEFAEFFB850A82850B831204E66A
:103BA300E9640170DDEEF8EFF988088909AA08AB2A
:103BB30009023A0274F712036E9014FF1244957CC3
:103BC300007D00800DE8FCE9FD88828983A3A312B0
:103BD3004495E8496030EA687002EB6970E7901435
:103BE300FF124A1CE86A7002E96B88828983A3A3E7
:103BF30070081244959014FF80091244958C828DAD
:103C030083A3A3124EE480031207FF7F01020585FD
:103C130074F712036EEAFEEBFFEE4F602B12175B95
:103C2300123C89124A1A120F998E828F83124A1CF0
:103C3300120F991250BC6009EE240F124A16120F8C
:103C430099EEFAEFFB120F9980C11257378A828BD4
:103C53008322123C5922125948A3A3A322F0123CF7
:103C630065228A828B83E0F8A3E0F5838882E022D1
:103C7300123C59A3A322A3A3A3A3123C8122E0F5E0
:103C830008A3E0F509228E828F8312414612413C3C
:103C93003822C082C083EAFCEBFDEC4D6017EC24B4
:103CA300FBF582ED34FF1250C37007123CEFE0F4D2
:103CB3006007120F09790580309014F6E0C0E01216
:103CC3003CEFD0E0F0902092E493F97A017B151257
:103CD3000F3FE9640170107A007B209014F6E0F93D
:103CE300120F457900800279040249FCEC24FFF5A8
:103CF30082ED34FFF5832274F412036EA2AFE43332
:103D0300F508C2AF901501123D5BEE4F603AEE2409
:103D1300FBF582EF34FF1250C37A007B209014F638
:103D23006007E0F9120F458005E0F9120F4BE4F547
:103D33000AF50B780A1207ECEEFCEFFD7A017B150E
:103D4300120F3974021207FFE508A2E092AFEEFAF0
:103D5300EFFB0229C4A3A3A312559FFF22F582E41C
:103D63003FF583123C69221207FF7F030205857426
:103D7300F212036E74FA1208C8EAFEEBFF750AFE2C
:103D8300750BFF12171FE960057911023EFAEE2445
:103D930015123F02603590164EE0C43354E0F8E04C
:103DA300333354FC48C0E01246ABD0E0125F07FA4D
:103DB300A3E0FB79FF12158D8B09EA4509600C75A9
:103DC3000AFF124D8C124C72D2E0F08E828F83A3C5
:103DD300A3124A1C121803E96006EE2412124B9533
:103DE300EE2413123F02700D902099E493C0E01269
:103DF3004D88D0E0F08E828F83E0A2E75004540315
:103E03008019EE2414123F027012901488E0C0E06F
:103E1300124418D0E0F0901488E004F0123EFF64DE
:103E2300017016901641E0600D901493E0700A8EB5
:103E3300828F83E07003124B928E828F83E0640142
:103E43007011EE240B123D6064027007123F16E0FE
:103E53004440F0AC18AD19EEFAEFFB1217858A084F
:103E63008B0974FE650A700374FFF4700D8E828FE4
:103E730083A3A3E0F50AA3E0F50BEA450960748E7A
:103E8300828F83E0C0E07401120ACAD0E0F07404A8
:103E9300120ACA12594DEE241E12448F7402120ADA
:103EA300CA124EE47401120882880C890D780C1230
:103EB30007ECEE2420123F0A1207F0123F161206F7
:103EC30054EE240E123F0A1207F090149C1206546B
:103ED3007408120ACAE0F9AC0AAD0B12177F740812
:103EE3001207FFE9FE74106E700BAA08AB09120FDC
:103EF3009980027E10EEF974060239FFEE2411F563
:103F030082E43FF583E022F582E43FF583E0F50C9C
:103F1300780C22EE124D9422C082C08374D712080B
:103F2300C8908818740312089274261207488A826C
:103F33008B83A3A3A3A3124495740E120ACAE8F0B9
:103F4300A3E91239DC124495740C120ACA12400C0C
:103F530012400612310DC0E0741A120ACAD0E0F002
:103F630012532D1244937420120ACA12400C2415C2
:103F730012310AC0E07408120ACAD0E0F0EA241C25
:103F8300F582E43B1244937412120ACA12400C24C1
:103F93001112310AC0E07409120ACAD0E0F0EA240F
:103FA3001212310AC0E07407120ACAD0E0F0EA2400
:103FB3001EF582E43B1244937424120ACA12400C85
:103FC300242012310AC0E07426120ACAD0E0123348
:103FD300A674FFF07401120ACA74FFF07402120A85
:103FE300CA74FFF09089F412065074041208927494
:103FF3000712088A12140774041207FF7900742940
:10400300022592240DF582E422E8F0A3E9F0EA22E6
:1040130074F412036E74EC1208C8EAFEEBFF8C0A08
:104023008D0B89097508107A217B00120F9385186F
:10403300828519831254EE8518828519831250C51F
:1040430070030241357C217D007900851882851932
:1040530083E0FA120EF19014A9124A1C8518828586
:1040630019831241422409F582E4381254EC742076
:10407300120ACA1244957411120ACAE8F0A3E9128B
:10408300414C125EC112414C125EDE740212449F17
:10409300F8124B81E50AF0A3E50B12414C125ECEF8
:1040A300E509F07422120ACAE0F88518828519839B
:1040B300E0F9A3E0C9240CF582E439F583E812445E
:1040C3009FF9A3E0C912413C39F58312594D74237A
:1040D300120ACA124A1C7406120ACA1254EE74084F
:1040E300120ACAE8F07426120ACA125923C082C0FF
:1040F30083740C120ACAAC82AD83D083D082740558
:104103001207487425120ACAE0C0E07413120ACADF
:10411300D0E0F07900AA18AB19121725E9640170F1
:1041230005750800800C851882851983124A1C12B4
:104133000F99A90874140229C1241FF582E42212DD
:10414300414622E0F8A3E0C8221244A3F8A3E0C842
:104153002274EE12036EEAFEEBFF8C088D098E8249
:104163008F83A37408124BB3E060088E828F83A3FE
:104173007410F0EE2417123F0260098E828F83A31E
:10418300E02408F0EE2415123F0260088E828F832C
:10419300A3E004F08E828F83A3A3A3A3A3A3E06071
:1041A300198E828F83A3A3A3A3A3A3A3E0C3332462
:1041B30002F88E828F83A3E028F0123EFF6005751C
:1041C3000B0E8003750B00901422E0640170168EB1
:1041D300828F83E06401600D90141CE06007124439
:1041E3000E7401800412440EE412445DE012442C68
:1041F30028250B8C828D83F0123EFF60139014945C
:10420300E0F912169BE9F8850882850983E029F015
:10421300850882850983E0C3947540097508007594
:104223000900024407E0FA7B00120F938A088B0906
:10423300EA450970030244078E828F83E0FA9014E3
:10424300991244567402780C12096CEA450CFAABC5
:104253000DEE2412123F025403F50C750D00740683
:10426300780C12096CEA450CFCEBFDEE2415123FA9
:10427300026004780180027800EE2416FAE43FFB22
:10428300E8F9ED49FD123EFFF50C7409780C1209AB
:104293006CED450DFD8A828B83124456740B780CAA
:1042A30012096CED450DFDEE2417124450740C7881
:1042B3000C12096CED450DFD8E828F83A3A3A3A37E
:1042C300A3A3124456740A780C12096CED450DFD34
:1042D300EE2423124450740D780C12096CECF8EDA3
:1042E300450DF9E8850882850983F0E9A3F0EE24FA
:1042F30002124422850882850983124478F0EE2451
:1043030004F8E43FF98882898312494CA312447864
:10431300A3A3125F0D124449F0124418124449A397
:10432300F0750A088A828B83E06015EE2418125711
:104333002DE5082408FAE43509FB121083750A10E9
:10434300EE2417123F026019EE241A12572DA80A01
:10435300E50828FAE43509FB1210837408250AF5E9
:104363000A8E828F83A3A3A3A3A3A3E06058EE24A2
:1043730007F510E43FF511851082F583E0C0E012E4
:104383004433D0E0124468E0C0E008124435D0E082
:10439300124468A31244401207E8851082851183F2
:1043A300E025E0FCE433FDA80AE50828FAE4350932
:1043B300FB120EE574031207FF851082851183E05B
:1043C300C333250AF50AEE2415123F026008C0E044
:1043D300124433D0E0F0124ED01244401207E812D8
:1043E300442DFC7D00A80B8E828F83A3E0FAE508A1
:1043F3002AFAE43509FBEA28FAE43BFB120EE574DA
:10440300031207FFAA08AB090246FFEE2423F58235
:10441300E43FF58322EE2414F582E43FF58322F88A
:10442300E43FF988828983E022F8EE125DB2E0224C
:10443300A80AE50828F582E43509F58322125953C1
:10444300750E00780C22124481A3A3A322F582E403
:104453003FF583E0F50C750D002212446122F08EC6
:10446300828F83A322F0050A8E828F83A3A3A3A343
:10447300A3A3A3A322A3A3125BC3124481221249C1
:1044830050A3A32274030229C1EE240BF582E43F57
:10449300F58312449922E0F8A3E0F9221244A322FF
:1044A3001233AAE02274EE12036E8A0A8B0B891070
:1044B300ECFEEDFF750F017C267D007900EEFAEF2F
:1044C300FB120EF1E510C39408500302463F8E829F
:1044D3008F83E510F0EEFCEFFD850A82850B8312D6
:1044E3004977121791E96003750F001249598E82BB
:1044F3008F831249B1124BA712499BC0E0EE2411DE
:10450300F582E43FF583D0E0124993C0E0EE241234
:10451300F582E43FF583D0E012445D74081246DD72
:10452300A3A3E06018E50A2408F8E4350BF9EE24A8
:1045330013124EDE8E828F83A3E02408F08E828FC7
:1045430083A3A3A3A3A3A3A3A3E060178E828F8354
:10455300A385820885830912496C1246AB1230F990
:104563002408F0EE2419124B95EE241B124B95A34D
:104573001246DDE0600F1246C48E828F83A3A3A38D
:10458300A3A31246F0EE2418123F02700302462F33
:104593001246C4FAEE2419F582E43FF583EA124683
:1045A300F0F8E50A28F582E4125F20F8EE241AF504
:1045B30082E43FF583E81246F0E8C39AEE5068249C
:1045C30019123F02F8902093E493C3985005751194
:1045D3000C8008EE2419123F02F5118E828F83A3FB
:1045E300E0F8E50A28F50CE4350BF50D750E0078B7
:1045F3000C1207E8AC11EC2CFCE433FD7A9B7B092D
:10460300120EE574031207FFEE241BF582E43FF557
:1046130083749BF0A37409F0E511C333F885088212
:10462300850983E0288004124B8BE4F08E828F830C
:10463300A3E0F88E828F83E0C398500479008066EC
:10464300A3E0FAE50A28F8E4350B1246B9E8F0A32B
:10465300E91249AAC39AC0E0EE2417F582E43FF5B4
:1046630083D0E01246F6603CEE2417F8E43FF98865
:104673000889098882F583E024F2F0EE241D1244B0
:1046830022240EFAA3E03400FB888289831254EEBD
:10469300901494E0F912169BE9F885088285098342
:1046A300E0C398F0A90F80541246AF22EE2415F50B
:1046B30082E43FF58322F9EE241DF582E43FF5837E
:1046C300228E828F83A3858208858309E0F8E50A19
:1046D30028F582E4350BF583E0221246E1221246E7
:1046E300E522F08E828F83A3A3A3A3A32212310119
:1046F30004F0221246E1A3E0221207FF7F0A02051B
:104703008574F412036E8A088B09EA1247A9A3A3DE
:10471300F0EA1313543F1247A2A3A3A3F0EAC4136E
:10472300131247A91247B37409780A120A6412478D
:1047330099A3A3A3A3A3A3F0EB12479B1247B274BD
:104743000A780A120A64E50A5401C0E0EC1254CF55
:104753003DF583D0E01247B7740B780A120A64124E
:1047630047991247B0740C780A120A64124799A346
:104773001247B0740D780A120A64E50A5401C0E0C6
:10478300EC2424F582E43DF583D0E0F0740E780840
:10479300120A640229BDE50A54018C828D832254D6
:1047A3000F8C828D832254038C828D8322A3A3A337
:1047B300A3A3A3A3F08A0A8B0B22C082C083790030
:1047C3008A828B83A3A3A3A3A3A3E0901493600E75
:1047D300E0702C8A828B83A3A3E07023801FE060A8
:1047E3001E8A828B83A3A3A3A3A3A3A3A3A3124A77
:1047F3001C90149CE06A7003A3E06B6002790102D1
:1048030049FC74F212036E8A0A8B0B890C8C088D97
:10481300098A828B831249771217911249598508A5
:10482300828509831249B112492C12499BC0E0E5E4
:10483300082411124938D0E0124993C0E0124934D8
:10484300D0E0124DA67408124985E06017E50A24EA
:1048530008F8E4350BF9E5082413124940124DA674
:10486300E02408F0850882850983A3A3A3A3A3A357
:10487300A3A3E06017850882850983A3124968E52D
:104883000824151249401249AA2408F08508828594
:104893000983A3A3A3A3A3E06019850882850983E1
:1048A300A3AE82AF831246CF85088285098312495E
:1048B300A504F0AA08AB09121797E9F50D705B85FB
:1048C3000882850983A3A3A3A3A3A312494C70164B
:1048D300E0FAE50A2AF8E4350BF9124922124EE20E
:1048E300E50CC39A8028124968E8240EF8500109A0
:1048F300124922124EE2901494E0F912169BE9F841
:104903008E828F83E0F9E50CC39924F2C398C0E04B
:10491300E5082417124938D0E0F0A90D023A02E560
:1049230008241DF582E4350922E5081239F7350913
:1049330022E5082412F582E43509F58322F582E4A1
:104943003509F583E8F0A3E92212495022E08508EE
:1049530082850983A322850A82850B83A3A3124937
:10496300C7E0F9EA22AE82AF83E0F8E50A28F8E46B
:10497300350BF922E0FAA3E0F8E4C8F9EA28E439B0
:10498300FB2212498922124DAEA3A3A3A3A3A32200
:104993001249DAA3A3A3E022F583E81249D3A3A320
:1049A300E022A3A3A3A3A3F08E828F83E022A3A379
:1049B300A3A3A3A3A3A3A31249D31249C7A3A3E009
:1049C300F9EAF822E0FA850A82850B83A3A3A322DE
:1049D300F0A3E91249DA22F0850A82850B83A3A3A7
:1049E300A3A322C082C0837A0F7B1579E21212F946
:1049F3007A0F7B158003124A1CD083D0820207CC26
:104A03008E828F83A3A3A3A3A3A3A3A3A312573726
:104A1300EE240BF582E43FF583125BD6FB22C082C2
:104A2300C08390149C80CFC082C08390149F80C6A3
:104A3300C082C083794A1212F980BE74F612036EE3
:104A4300901517E0FE04F0EEF912174F8B09EA45B3
:104A53000970EDEE60EAF9024B8674F212036EEA16
:104A6300FEEBFF8C088D09890A1218818A0C8B0DC5
:104A7300AC0CAD0D740E120ACAE0F9740F120ACA17
:104A8300E0F8EC4D7012E8701BA90AAC08AD09EE12
:104A9300FAEFFB12189F8072E86017E970068C82A8
:104AA3008D83E4F07401687061E990151C7028E44B
:104AB3008022E97055EC2402F582E43DF583E0A8F9
:104AC3000A28F8E4340013E813F0703E8C828D83D7
:104AD300A3A37401F08033E004F0901639E0F8905A
:104AE300151CE0C3984023E4F090149FE06E70031C
:104AF300A3E06F7015EEFAEFFB790112142B7A0124
:104B03007B009014F6E0F9121059023A0274F41281
:104B1300036E8A088B098C0A8D0B908A1078081211
:104B230008DE700E7A017B009014F6E0F9120F454F
:104B330080359016267808120A55EA4509450A4534
:104B43000B601878081207E47A017B009014F6E0F2
:104B5300F912104D74041207FF800C7A017B009048
:104B630014F6E0F91210590229C4C082C0839016CA
:104B73002A0235C6C082C08390162C0235C6A31202
:104B8300592A227F020205851254CF3FF58322EE74
:104B93002411F582E43FF583E4F022124BA7F58359
:104BA300124C6822124BAC3F22EE240BF582E42216
:104BB300F0EE2416F582E43FF58322A2F0E4338578
:104BC3001882851983F0AA18AB192274F412036EA4
:104BD300EAFEEBFF7A007B049014F6E0F912105919
:104BE300124C789014AB7409F01217A38A088B093E
:104BF300AC08AD09EE2413124A1612107DE96401C4
:104C030070587A0F7B00120F038A088B09EA450953
:104C130060488A828B837402F012596D3F124C6094
:104C2300FC88828983A3A3E0FBEC8A82850983A3A2
:104C3300A31254EF88828983A3A3A3E08A82850900
:104C430083A3124C72FAA3E0FB794A1212FFAA085B
:104C5300AB099014F6E0F9120F0F0229C4124C6647
:104C6300A3E022F583E0F8A3E0F98882898322F0A8
:104C73001246AFE02290143D12449990162CE8F0AE
:104C8300A3E9F090143F12449990162AE8F0A3E99F
:104C9300F02274F412036E74FD1208C88A088B099B
:104CA3007401120ACA7402124BC81217F78A0A8BCC
:104CB3000BAE0AAF0BEE4F7003024D83125EE7E4B7
:104CC300124DA6A3A3A3E06401700888828983A37D
:104CD3007420F0850882850983A3A3A3A3A3E064BA
:104CE30001700988828983A3E0D2E6F08508828572
:104CF3000983A3A3A3A3A3A3E06401700A88828901
:104D030083A3E0D2E78005124D887401124DB7E00A
:104D13006401701E850882850983A3A31250C560B0
:104D230003125974850882850983A3A3124495123B
:104D33004EDB850882850983A3A3A3A3A3A3A3E0D2
:104D430064017007125DA5F0A3E4F085088285096C
:104D530083124A1C121803E96004124D8CF0EE24EE
:104D6300171259771217A31254E585088285098310
:104D7300125985124D9DFAEFFB1213BFE9F9800218
:104D83007910024487125F1622124D93E0440422E5
:104D9300EE240FF582E43FF58322A3A3E8F0A3E911
:104DA300F0EE22124DAA22124DAE22F08508828522
:104DB3000983A322124DAAA3A3A3A32274F512036A
:104DC3006E74F31208C8890AEAFEEBFF75080075D2
:104DD30009007C0D7D007900AA18AB19120EF1129F
:104DE30046BA124FA5741F58600C7AD37B00121178
:104DF300AF7900024ECBE8A2E55008740C120ACA40
:104E03007401F0E8A2E75008740B120ACA7401F0A7
:104E1300E8A2E6740A5008120ACA7401F080081264
:104E23000ACAE0640170138E828F83A3A3A3A3A392
:104E3300A3A3E06032EE241380128E828F83A3A398
:104E4300A3A3A3A3A3A3E0601EEE2415F582E43F6E
:104E5300F5831234376010AC08AD097402120ACA24
:104E6300AA82AB83121083124ED0124FD6124EE495
:104E7300740A120ACAE0640170458E828F83A3A369
:104E8300A3A3A3A3A3A3A3124A1C121803E9703676
:104E930012448C90149FE0687003A3E0697027E5C7
:104EA300084509601A1217A38A088B09AC08AD09D3
:104EB3007402120ACAAA82AB8312107DE96007AAA0
:104EC30018AB19121425A90A740D023D6A124ED4A7
:104ED30022124BAC3FF58322EE2418F582E43FF512
:104EE30083E8F0A3E9F02274F712036E74CD12087D
:104EF300C8EAFEEBFF8E828F83124FB2A2E040031B
:104F0300024FA08E828F83124BA3A3A3A3A3A3A3B9
:104F1300E054FE125BCE740D120892124FC5124A72
:104F23001A12179DE97076742A120ACA124FAC70CE
:104F33006C7C0D7D007900AA18AB19120EF1741662
:104F4300120ACA124FD6124EE4742A120ACA124F18
:104F5300A5A2E55008740B120ACA7401F0E8A2E78F
:104F63005008740A120ACA7401F0E8A2E6500474E5
:104F73002080027422120ACA1257337402120ACA18
:104F8300AA82AB831210838E828F83A3A3E0C0E037
:104F9300740C120ACAD0E0124BC812141F743302E5
:104FA3003C0B125927A3E0F822123C69640422E067
:104FB300F8124FB822A3E0C82406F582E438F5833B
:104FC300E022EA241EF582E43BF583E0F9EA12418C
:104FD3003C3B2212449985188285198322E9F8798A
:104FE30000740468600A740A6860057403687002D8
:104FF30079010207CC74F612036E8A828B837424C0
:10500300F0A3A37401F01213C58A088B09AE08AF8D
:1050130009EE4F600D8E828F831256461217A3122C
:1050230054E5EEFAEFFB024B86C082C08390150372
:105033007401F0E9A2E350037403F0E9A2E1500420
:10504300E0D2E2F00249FC74F612036E79007C00B0
:105053008A088B0978081205CBF8FF077F507D502B
:105063007D507D507D50755079507F5071507C013B
:10507300800A7C0480067C0280027C08901503E091
:105083005C600479028005EC60027901024B86744E
:10509300F612036E8A828B83E07017A3A3A31250C8
:1050A300C5600F8A828B83A3A3A3124A1C1215D552
:1050B30080047A007B00024B86EE240FF582E43FE6
:1050C300F583124499E84922C082C0837C00EC75C1
:1050D300F003A4F8ADF0EDF91251757003A3E06B82
:1050E30070189020A0E493C0E0740628F58274152C
:1050F3003DF583D0E0F079C580620CECC3940340A6
:10510300CD7C00EC75F003A4F8A9F0740728F582B0
:105113007415122D9164FE7003A3E0F4600F0CEC80
:10512300C3940340DE7C00EC1251627026EC75F0F0
:1051330003A4FCADF074062CF874153DF98882893C
:1051430083A31254EE9020A0E49388828983F0799C
:105153000080090CECC3940340CD79C70249FC7568
:10516300F003A4F8A9F0740628F582741539F583C1
:10517300E022740728F582741539F583E06A2274F6
:10518300F412036E74F31208C88A088B09ECFEED5F
:10519300FF750A12EA45097005790002523E901420
:1051A3009CE065087004A3E06509701D1217A38ACB
:1051B3000A8B0BAC0AAD0BEEFAEFFB12107DE97014
:1051C30005750A018003750A00851882851983E431
:1051D300F004120ACA125F34124BC81213A1E96019
:1051E3002A7403120ACAAA82AB83121383E96401E5
:1051F3007019750A017403120ACAAC82AD83EEFA00
:10520300EFFB12107DE96003750A00EEFCEFFDAAC7
:1052130008AB09121887E9F8740A687005750A0162
:10522300801774A0687012EEFCEFFDAA08AB091298
:105233001893AA08AB091218A5A90A740D0229C16B
:1052430074F712036EEAFEEBFF8E828F83A3A3A390
:10525300A3A3A3A3A3E060131246AB124A10121830
:1052630015E964017005124ED0802C8E828F83A3C2
:10527300A3A3A3A3A3A3E06028124D881252A912EB
:105283004A1C121815E9640170178E828F83A3A339
:10529300A3A3A3A3A3A3A3124A1C12180F790180EB
:1052A300027900023C0E12288EA3A3A3A3A3A3A3F7
:1052B300A3A32274F212036E74FD1208C88A088B2A
:1052C30009ECFEEDFF890B750A017401120ACA7419
:1052D30004124BC81217F7EA4B60427411120ACA40
:1052E300E06014125631E412593D8A828B83E0D276
:1052F300E7F0125323E4F012532D124BA17403125F
:1053030054DFEE88828983A3A3F0EF88828983A385
:10531300A31239DB125F2D1213BFE9F50A0239FB21
:10532300EA2414F582E43BF583221239F63B227416
:10533300F412036EEAFEEBFF890A1246BA125923EE
:10534300A3E0F50BEE2417123F02640460097AD33D
:105353007B001211AF806FE50B1206D901000E6AB4
:1053630053006753750A001246BAA3E0F9EE240905
:10537300F508E43FF50988828983A3A3E0FA8882CC
:105383008983A3A3A3E0F8E4C8F9EA28FCE439FD80
:10539300A90B850882850983124A1C12143D8508CE
:1053A30082850983124A1C121803E96019123EFF11
:1053B300C394024011124ED01258527003A3E069F5
:1053C3006004A90A800279000229C474EE12036EF4
:1053D30074F51208C88A0A8B0B890D8C0E8D0F7E0B
:1053E30001EE120ACA740AF0741D120ACAE0F50C1F
:1053F300E9700FE50CC333240AC0E0EE120ACAD0E9
:10540300E0F0AA18AB191217F78A088B09EA4509C5
:1054130070030254C8EA12492E1255947409F0A37A
:10542300E50DC43354E0450C1255A9AC0EAD0FEE97
:10543300FAEFFB121083EE2408FE50010FE50D7006
:105443002F7C00741E120ACA123112801D1254D509
:10545300EA28F8EB39F9888289831255A48882896E
:10546300831230E3F0A30EAF830CECC3950C40DD45
:10547300E50824171249387401F01217A3E508242C
:105483001AF582E435091254EC7403120892AA0A3D
:10549300AB0B121389E96019E50824161249387415
:1054A30001F07403120882E5081254CF3509124E35
:1054B300E2850882850983A3A31254DDAA08AB09F8
:1054C3001213BFE9FEEEF9740B0246FC2418F582B1
:1054D300E422EC25E0F8E433F922E50AF0A3E50B36
:1054E300F022EE241AF582E43FF583EAF0A3EBF011
:1054F3002274F012036E8A0A8B0B890D8C088D09B6
:1055030090136F1250C560797410120ACAE0F50C3B
:105513001254D6E8240EFAE439FB120F038A0E8BD9
:105523000FAE0EAF0FEE4F60588E828F8374D4F0A0
:10553300125587A3A3E50DF0AC08AD09EE2405FAD7
:10554300E43FFB121083EE1240063FF583E50CF0B7
:105553007411120ACA12591878081207E8AC0CEC35
:105563002CFCE433FDEE240EFAE43FFB120EE5744B
:10557300031207FFEEFAEFFB90136F125923120485
:10558300E6023874A3A3E50AF0A3E50B124461A372
:1055930022F58312559FFF8E828F8322E0FEA3E0C4
:1055A30022E08E828F83F0A3AE82AF832274F01247
:1055B300036E74FD1208C88A0A8B0B8C088D098947
:1055C3000D750C017401120ACA7403124BC8121729
:1055D300F78A0E8B0FAE0EAF0FEE4F603D124B9E50
:1055E300740BF0A3E50D12562A7413120ACA12564D
:1055F300241256481217A31254E5125974EE12548A
:10560300CF3F125F2B8E828F83A3A3E50AF0A3E51E
:105613000B12563B1213BFE9F50CA90C74030238A5
:1056230071E08882898322F0A3A882A98322EA24D5
:1056330017F582E43BF58322125F117401F0EEFA51
:10564300EFFB227401F0EE241712597B2274F0123F
:10565300036EEA12596E3B12571CF8A3E0FEE86092
:105663000302571974016E600874026E60030257D7
:1056730019EE90141CF075081C75091478081207AC
:10568300EC75080175090078081207EC7C007D00B1
:105693007A517B0012101774041207FF74026E70A4
:1056A30075901648E0700A901F64780812097F808D
:1056B30028F5087402780812096C74642508F582C9
:1056C300741F12493B780812097F9089E8780C12FD
:1056D3000A737808790C12027F9089D4780C120A25
:1056E300737808790C1202FF9089DC780C120A7324
:1056F3007808790C12027F90141E7808120A5590CC
:10570300141E1206507A007B409014F6E0F9121032
:105713005374041207FF023874F583E02401F8A3DD
:10572300E03400F988828983E022F582E43FF5833F
:1057330012573722E0FCA3E0FD2274F612036EEA4F
:10574300FEEBFF901504801388828983E06E70035B
:10575300A3E06F603A88828983A3A31250C570E8DF
:105763007A047B00120F938A088B09A808A909E819
:1057730049601C8882898312594D901504124A1C72
:1057830088828983A3A31254EE901504124EE40277
:105793004B8674F412036E7E0090150480070E8A04
:1057A300828B83A3A3123B5C70F4EE25E0FAE4330F
:1057B300FB120F938A088B09EA4509607F7C0090EE
:1057C300150480228A828B83E0F50AA3E0F50B128D
:1057D30054D5E50828F582E50939F5831254DD0C23
:1057E3008A828B83A3A3123B5C70D99014F1125865
:1057F300527003A3E0697808701C1207ECEEF50AF7
:10580300780A1207F07CBD7D1479009014F1124AD6
:105813001C121833801A1207ECEEF50A780A1207E5
:10582300F07CBD7D1479009014F1124A1C12182DDE
:1058330074031207FFAA08AB09120F991213D702B8
:1058430029C48E828F83A3A3A3A3A3A3A3A3A31279
:10585300449990149CE06822C082C08380128A829B
:105863008B83A3A3124495901504124EE4120F994F
:10587300901504123B5C70E60249FC74F512036E4A
:105883009014A9123D5B901518122F62124EE47A00
:10589300187B1579501212FF90151812591880139E
:1058A300125B1D7004A3E065096006125B2A1218DF
:1058B30075050A9020A1E493F8E50AC3985020E502
:1058C3000A75F017A4F8A9F0125A1A6E7003A3E030
:1058D3006F70CD743128F5827408125F2A80D290DC
:1058E3001518123D5B9013711250C560257A067B23
:1058F30000120F03EA4B601A8A828B8374D5F0A3DC
:10590300A3E41259300412593D9013711259231212
:1059130004E6023D6D123C81750A00228E828F835C
:1059230012592722E0F8A3E0F58388822212593422
:1059330022F08A828B83A3A3A32212594412594DC6
:105943002212594822125934A322EEF0A3EFF02277
:10595300E0F50CA3E0F50D22124499C3227F070260
:105963000585EE2402FAE43FFB22EE241DF582E4D2
:1059730022EE241612597B22F582E43FF58374014B
:10598300F02212598922E0F8A3E0F98E828F832254
:1059930074F712036E7E008008EE125B23121875F3
:1059A3000E1259D440F37E00EE75F003A4F8A9F06B
:1059B300740628F8741539F988828983A374FEF074
:1059C300A304125BC8E4F00EEEC3940340DA023C76
:1059D3000E9020A1E493F8EEC3982274F712036E9D
:1059E3007E0080010E1259D45026EE125A2A6A7094
:1059F30003A3E06B70EE125A1A6C7003A3E06D60A0
:105A03000A74FF6C700374FF6D70D9125B2A8004F3
:105A13007A007B00023C0E125A1E22743128F58252
:105A2300740839F583E02275F017A4F8A9F0125A27
:105A33003522125CADE02274F612036E7CFF7DFF0B
:105A43007AFE7BFF121863EA4B703C7508008032C4
:105A5300E50875F017A4F8A9F0743628F5827408E0
:105A6300122D916005125CB87016742728FE740815
:105A730039FF8E828F83124A1C1214CDEEFAEFFB8C
:105A83000508125A8D40C9024B869020A1E493F871
:105A9300E508C398229020A1E493F8ECC3982274FC
:105AA300F412036E8A088B09ECFEEDFF800B1218CB
:105AB30075EEFCEFFDAA08AB09121863EA4B70EE12
:105AC3000229C474F712036EEAFEEBFFEE4F60186F
:105AD3007C177D007900120EF18E828F8374FEF0A5
:105AE300A304125DCBF0A3F0023C0E74F612036E16
:105AF3008A088B097E00801AEE75F017A4F8A9F0C6
:105B0300125B1D7004A3E065096006125B2A12187C
:105B1300750E1259D440E1024B86125A1E650822B3
:105B230075F017A4F8A9F0742728FA740839FB2232
:105B330074F612036E1218638A088B09A808A90960
