:020000040000FA
:030000000200E318
:03001300020719C8
:0300330002064B77
:03003B0002077544
:030063000204E6AE
:03006B0002052B60
:03007B000205BBC0
:100083000206DB00000080FB120113B9000302002B
:10009300CDE4900F00784879038002F0A3D8FCD90F
:1000A300FA901147AA82AB839001167815790180E3
:1000B30015E493A3AC82AD838A828B83F0A3AA82D7
:1000C300AB838C828D83D8E9D9E77582A275830BC4
:1000D30074001200F575828675830074001200F5B2
:1000E30075D0007581BF75100075110F759F0002E3
:1000F300008BC09FF59FE473D09F22D083D082C032
:100103009FE493C0E0740193C0E0740293F59F22CF
:10011300790122FF00000000000000000000000041
:10012300960000000000001200FEDC07001200FE33
:10013300FB08001200FE8809001200FE9809001255
:1001430000FE470A001200FE4D0D001200FE5E0D78
:10015300001200FE7A0D001200FE850D001200FE53
:100163001B0E001200FE550E001200FE9B0E001225
:1001730000FEA00E001200FEDB0D001200FEFB0DC0
:10018300001200FE8B0E001200FE5F0C001200FE38
:100193008E0C001200FE930C001200FEA90C00123C
:1001A30000FEC00C001200FED70C001200FEFB0C78
:1001B300001200FE040D001200FE190D001200FED5
:1001C3002E0D001200FE5B0A001200FE680B0012E7
:1001D30000FE950D00E49366701308740193667036
:1001E3000C08740293667005087403936622C3E4D3
:1001F3009396087401939608740293960874039374
:100203009622E0F608A3E0F608A3E0F608A3E0F6DA
:1002130022E6F008A3E6F008A3E6F008A3E6F0223E
:10022300E0FAA3E0FBA3E0FCA3E0FD22CAC0E0E602
:10023300F0A308DAFAD0E0FA22700422600D18C69F
:10024300C333C608C633C6D5E0F41822C0D0251080
:1002530010AF08F510500205118008F51050020583
:1002630011D2AFD0D0222510F58210AF08F510407F
:100273000215118008F51040021511D2AF851183C4
:10028300222510F582E43511F58322E4732510C588
:1002930082C0E0E51134FFC583C0E0E510C3958259
:1002A30024F810AF08858311858210800885831197
:1002B300858210D2AFCEF0A3E520F0A37808E6083C
:1002C300F0A3DEFAEFF0A3E58124FAF8E608F0A341
:1002D300E608F0A3E608F0A30808E608F0A3E6089A
:1002E300F0A315811581D0E0FED0E0F815811581CA
:1002F3001581E8C0E0EEC0E022851183851082E01D
:10030300A3FEE0A3F5207808E0A3F608DFFAE0A354
:10031300FFE0A3C0E0E0A3C0E0E0A3C0E0E0A3C02F
:10032300E0E0A3C0E010AF08858210858311800848
:10033300858210858311D2AFD083D0820200FBC0A7
:10034300D02510C582C0E0E51134FFC583C0E0E5C8
:1003530010C3958224F310AF088583118582108022
:1003630008858311858210D2AFC8F0A3E9F0A3EA10
:10037300F0A3EBF0A37908E709F0A3D8FAECF0A314
:10038300EDF0A3EEF0A3EFF0A3D0E0F0A3D0E0F004
:10039300A3D0E0F0A3E520F0A3E5F0F0A3228511BC
:1003A30083851082E0C0E0A3E0F9A3E0FAA3E0FBB9
:1003B300A37808E0F608A3DFFAE0FCA3E0FDA3E0DE
:1003C300FEA3E0FFA3E0C0E0A3E0C0E0A3E0F5D01C
:1003D300A3E0F520A3E0A3F5F010AF088583118512
:1003E30082108008858311858210D2AFD082D0839A
:1003F300D0E0F8D0E03274028000C0E0F4041202CE
:1004030069D0E012022F22D083D082ECC0E0EDC08D
:10041300E0EEC0E0EFC0E0E493A3FCE493A3FDE4CB
:1004230093A3FEE493A3FFEF4E4D4C601512048695
:10043300EC24FFFCED34FFFDEE34FFFEEF34FFFF51
:1004430080E5E493A3FCE493A3FDE493A3FEE49388
:10045300A3FFEF4E4D4C60151204C3EC24FFFCEDDB
:1004630034FFFDEE34FFFEEF34FFFF80E5D0E0FF05
:10047300D0E0FED0E0FDD0E0FCE493A3C0E0E49341
:10048300C0E022C0E0C0F088F01201F1A8F04007FC
:100493001201D8A8F0701AA3A3A3A31201F1A8F024
:1004A300A3A3A3A34013D0F0D0E0D0E0D0E0020494
:1004B30070A3A3A3A3A3A3A3A3A3A3D0F0D0E022D9
:1004C300C0E0C0F088F01201D8A8F0A3A3A3A370E2
:1004D3000BD0F0D0E0D0E0D0E0020470A3A3D0F0C2
:1004E300D0E022C0E074F2120342C2DBC2C4900F18
:1004F3008AE02401F0A3E03400F0900F8AE064E87E
:100503007004A3E064017015900F8A7400F0A37463
:1005130000F0900F897401F01201548006900F8946
:100523007400F07F010203A1C0E074F1120342C220
:10053300C5E589607E7E008074750801750900EE4B
:10054300780812023CE508AF08E5895F605EEEF8C3
:100553007900E875F002A4C8AAF075F000A42AFA9D
:1005630075F002E9A42AF9748C28F582740F39F521
:1005730083E0F8A3E0F9E849602EEEF87900E87526
:10058300F002A4C8AAF075F000A42AFA75F002E9F3
:10059300A42AF9748C28F582740F39F583E0F8A343
:1005A300E0F583888212028EEFF452890EEEC39433
:1005B3000840867F020203A1C0E074F1120342C225
:1005C300EBE58A607E7E008074750801750900EE94
:1005D300780812023CE508AF08E58A5F605EEEF832
:1005E3007900E875F002A4C8AAF075F000A42AFA0D
:1005F30075F002E9A42AF9749C28F582740F39F581
:1006030083E0F8A3E0F9E849602EEEF87900E87595
:10061300F002A4C8AAF075F000A42AFA75F002E962
:10062300A42AF9749C28F582740F39F583E0F8A3A2
:10063300E0F583888212028EEFF4528A0EEEC394A1
:100643000840867F020203A1C0E074F1120342C294
:10065300E8E58B607E7E008074750801750900EE05
:10066300780812023CE508AF08E58B5F605EEEF8A0
:100673007900E875F002A4C8AAF075F000A42AFA7C
:1006830075F002E9A42AF974AC28F582740F39F5E0
:1006930083E0F8A3E0F9E849602EEEF87900E87505
:1006A300F002A4C8AAF075F000A42AFA75F002E9D2
:1006B300A42AF974AC28F582740F39F583E0F8A302
:1006C300E0F583888212028EEFF4528B0EEEC39410
:1006D3000540867F020203A1C0E074F2120342A226
:1006E300AFE433FEC2AFE5E9A2E65020900FB6E0D7
:1006F300F8A3E0F9E849600E900FB6E0F8A3E0F53F
:1007030083888212028E759B0053E9BFEEA2E092AA
:10071300AF7F010203A1C0E0C0D0E8C0E0E9C0E0C0
:10072300C082C083E5C1C0E0901039E0F87900745D
:10073300B828F582740F39F583D0E0F0901038E0D3
:10074300F8901039E0687006E59590103AF0901033
:1007530039E02401901039F0C39480400690103999
:100763007400F0D083D082D0E0F9D0E0F8D0D0D0BC
:10077300E032C0E0C0D0E8C0E0C008C009C082C019
:10078300839010BBE0F89010BCE068700B539AFBA9
:100793009010BD7401F08031C2E99010BBE0F50800
:1007A300740125089010BBF0750900743B2508F50A
:1007B3008274103509F583E0F5C19010BBE0C39452
:1007C3008040069010BB7400F0D083D082D009D053
:1007D30008D0E0F8D0D0D0E03274F71202907E094E
:1007E3007F0F1201B412016C7901EEFAEFFB1201D3
:1007F300A88E828F83E0C2E7F08E828F83E0640548
:1008030070538E828F83E0F97A0A7B0F1201A88ED0
:10081300828F83A3E0A2E55004D2F08002C2F0A24B
:10082300F0E492E090114FF0780D790F888289837C
:10083300A3E0A2E740030208F08E828F83A3A3A361
:10084300E0FA900F00E06A60030208F07401900F71
:1008530001F00208F08E828F83E024F590114CF0B2
:100863008E828F83E0F97A0A7B0F1201A88E828F22
:1008730083A3E0A2E55004D2F08002C2F0A2F0E428
:1008830092E090114FF08E828F83A3A3A3A3A3A31F
:10089300A3A3E0F8A3E0F9901148E8F0A3E9F090EE
:1008A300114D7413F0A3740FF090114CE0F83395CD
:1008B300E0F990114DE028F8A3E039F988828983A3
:1008C300E0901150F088828983A3E0A2E750128E52
:1008D300828F83A3E054DF64417006740190115149
:1008E300F08E828F83A3A3A3E0901147F0120172CD
:1008F3001201BA7F010202FC74F4120290EAFEEBC9
:10090300FF12018AE9640170047901807312017294
:10091300900F07EEF0A3EFF090114D7400F0A37465
:1009230000F07401900F02F090115778081202053D
:10093300900F037808120214900F07E0F8A3E0F574
:10094300838882A3A3A3A3E0F9120196900F07E083
:10095300F8A3E0F5838882E0FAA3E0FB12019C9000
:100963000F07E0F8A3E0F5838882A3A3E0FAA3E0EE
:10097300FB1201A27A2A7B011201C012016C7900D9
:100983007F040202FCC082C083901151E0F9D0833E
:10099300D0820200FB74F21202908A0A8B0BECFEE7
:1009A300EDFF740E120284E0F508A3E0F5091201CD
:1009B3007290114CE0F83395E0F9C3E89EE99F503B
:1009C3000D90114CE0F50C3395E0F50D80048E0C81
:1009D3008F0D780C1203F990114DE0FCA3E0FDAAF2
:1009E3000AAB0B1201D2740212024FE508640070C5
:1009F30004E50964006026120190E9F50A9011509C
:100A0300E0F83395E0F9750B00E8C3950AF8E9952A
:100A13000BF9850882850983E8F0A3E9F074009057
:100A23001151F012016C90114CE0F83395E0F9C3C9
:100A3300E89EE99F500790114CE0F98002EEF97FA0
:100A4300060202FCC082C0837401900F02F01201FF
:100A5300AED083D0820200FB74F41202908A088B1A
:100A6300098C0A8D0B53F1FE43F30C53F2F3758695
:100A73008075C480780812040A000000000C00008E
:100A830000B0040000CE0A60090000D60AC01200BC
:100A930000DE0A80250000E60A40380000EE0A0066
:100AA3004B0000F60A80700000FE0A009600000664
:100AB3000B00E100000E0B002C0100160B00C2011D
:100AC300001E0B00840300260B2E0B75C23B75C55D
:100AD30005805E75C23B75C506805675C23B75C5FC
:100AE30007804E75C23B75C508804675C2D875C56B
:100AF30008803E75C23B75C509803675C2D875C579
:100B030009802E75C23B75C50A802675C2D875C586
:100B13000A801E75C23B75C50B801675C2D875C594
:100B23000B800E75C2D875C50C800675C23B75C5A2
:100B33000A75C402438640D2AA75C1009010387466
:100B430000F09010397400F09010BB7400F0901016
:100B5300BC7400F090103A7400F09010BD7400F073
:100B63007F040202FCC082C0839011427479F0A317
:100B73007413F09011447414F090114074EFF0A3C7
:100B830074ACF09011457401F07A407B111201307E
:100B9300E9640160F4120142D083D0820200FB7E3B
:100BA300001201601201CC12014812014E800D792E
:100BB3000412017E0E74096E70027E0012015AE95E
:100BC300901146F0901146E0640170F09011467464
:100BD30000F0120136E9F874016870E0E4F508F5F5
:100BE3000978081203F97C807D007ABE7B1012011C
:100BF3003C740212024FE9F8790090113EF0A3E928
:100C0300F078009010BEE0641070B1EE1460171419
:100C1300601B14601F14602414602914602E146078
:100C23003314608B808E79011201788087790212E8
:100C3300017880807903120178020BB779041201DD
:100C430078020BB7790112017E020BB77902120108
:100C53007E020BB7790312017E020BB7C082C083F9
:100C6300906189E04460F090619074D5F09061FAEE
:100C73007409F09061B27415F09061AE7400F012D3
:100C830001BA7900D083D0820200FB79490200FBCC
:100C9300C082C08375F005E9A424D490618FF0D09D
:100CA30083D0820200FBC082C083EA906174F0E4C7
:100CB300EBFA906175F0D083D0820200FBC082C052
:100CC30083EA906172F0E4EBFA906173F0D083D021
:100CD300820200FBC082C0838011E5D98A828B83A4
:100CE300F08A828B83A3AA82AB8319E9C394015050
:100CF300E9D083D0820200FB75E1EC75E1E30200E9
:100D0300FBC082C0839061A3E0C2E6F0539AFED099
:100D130083D0820200FBC082C0839061A3E0D2E64D
:100D2300F0439A01D083D0820200FBC082C083A229
:100D3300AFE433F8C2AF900FB6EAF0A3EBF0E8A24A
:100D4300E092AFD083D0820200FB43EBE053EBEFA2
:100D530053EBF743EB04C2BC0200FBC082C08343E6
:100D6300EB0853EBFC43EB10D2BC900F897400F0FB
:100D7300D083D0820200FB53EBF753EBEFC2BC02EC
:100D830000FBC082C083900F89E0F9D083D0820238
:100D930000FB74F6120290740A120284E0FEA3E0D0
:100DA300FFEAF8EBF980188C828D83E088828983CF
:100DB300F0A3A882A9838C828D83A3AC82AD838E9A
:100DC300088F09E50824FF1EE50934FFFFE5084500
:100DD3000970D47F020202FCE914600B14600C1446
:100DE300600D14600E800ED290800AD2918006D2DC
:100DF300938002D2940200FBE914600B14600C147C
:100E0300600D14600E800EC290800AC2918006C2EB
:100E1300938002C2940200FBC082C08312018453F8
:100E2300F4FEC29043FE0153F4FDC29143FE02530C
:100E3300F4F7C29343FE0853F4EFC29443FE1090B9
:100E430011531202231201C612016CD083D0820205
:100E530000FBE5C65480F853BEFBE59DA2E550FABE
:100E6300E59DA2E240F4007401697007744948F5F6
:100E7300C68005E9700288C6E5C6F8E59EFAE86A09
:100E830070F943BE040200FBC082C08379001201E3
:100E930066D083D0820200FBD2AF0200FBC2AF0256
:020EA30000FB52
:04000005000000E314
:00000001FF
