:020000040000FA
:06000000020A510201CFCB
:03002B0002084187
:0300430002070FA2
:03005300020104A3
:1000830002016301012434120100000481810399F8
:10009300810020FD000206FFFF0101010400DA1ABE
:1000A300000000E8030000FFFFA51BE80300006455
:1000B300006400B801A0BB0D00A0BB0D0002000846
:1000C30000000502070101051E02051E020A0A01BE
:1000D300020803B80B02803E0102E8030A0500018F
:1000E300FFFF0114010105030101FF0F10FEFF8053
:1000F3002300000000F22100000000FF000000FFC9
:1001030000C0E074F11203E6A2AFE433F509D2AF05
:1001130085A708AFA1EF5508FE74105E6006120CA8
:100123005175A1EF74085E6008120C5775A1F78032
:1001330024EFA2E092F0E508A2E082F0501790616C
:1001430098E0F890079CE0C398A2D265D0335002A0
:10015300E8F075A1FEE509A2E092AF7F0202044533
:10016300C0E074F21203E6A2AFE433FED2AF9061B3
:10017300A4E0F8759B00E59158540860087591F761
:10018300120C9F8023E59158541060087591EF126B
:100193000CA58014E591A2E092F0E8A2E082F05071
:1001A30007E0C2E0F0120DFB9061A3E0F8E5E95827
:1001B3005404600E120DD175E9FB906193E0A2E641
:1001C30040F2EEA2E092AF7F01020445C0E074F278
:1001D3001203E6A2AFE433FED2AF9061A5E0F8E5E7
:1001E300BF585404600675BFFB120E1380D4C3E4DA
:1001F30098F8E499F91202328026C3E49AFAE49B50
:10020300FBE920E7E9120232E498F8E499F922C302
:10021300E498F8E499F9120232E498F8E499F9C3FE
:10022300E49AFAE49BFB22EB20E7CFE920E7E0B96D
:100233000010BB0008E88AF084F8AAF022E4FBC8A7
:10024300FA22EB70227B10C833C8C933C933500775
:10025300C39AC3DBF280069A50012ADBEAC833F45F
:10026300C8C933F4C9FA2275F008E4C833C8C933DE
:10027300C933C99AC99B5004C92AC93BD5F0ECFBC1
:10028300C833F4C8E4C9FA22080808EAC0E0EBC09E
:10029300E086F0E7A4FA180986F0E7A42AFA180919
:1002A30086F0E7A42AFA180986F0E7A42AFA198641
:1002B300F0E7A4FBE5F02AFA190886F0E7A42BFB84
:1002C300E5F03AFA190886F0E7A42BFBE5F03AFAD1
:1002D30018180986F0E7A4C5F02BFBE43AFA1908CD
:1002E300E7C5F0C6A426F6E5F03BFBE43AFA188628
:1002F300F0E7A4F6E5F00826F6E43B08F6E43A084E
:10030300F6D0E0FBD0E0FA22E4CFC0E0E4CEC0E0D8
:10031300E4CDC0E0E4CCC0E075F020E626F608E6C4
:1003230033F608E633F608E633F6181818EC33FC10
:10033300ED33FDEE33FEEF33FFC3EC9709ED970981
:10034300EE9709EF97191919400FFFEC97FC09ED88
:1003530097FD09EE97FE191906D5F0BFECF709EDE5
:10036300F709EEF709EFF7191919D0E0FCD0E0FD12
:10037300D0E0FED0E0FF222518C582C0E0E51934A5
:10038300FFC583C0E0E518C3958224F810AF088544
:1003930083198582188008858319858218D2AFCE88
:1003A300F0A3E520F0A37808E608F0A3DEFAEFF067
:1003B300A3E58124FAF8E608F0A3E608F0A3E6082B
:1003C300F0A30808E608F0A3E608F0A31581158159
:1003D300D0E0FED0E0F8158115811581E8C0E0EE8C
:1003E300C0E022C0D02518C582C0E0E51934FFC59E
:1003F30083C0E0E518C3958224F310AF0885831901
:100403008582188008858319858218D2AFC8F0A326
:10041300E9F0A3EAF0A3EBF0A37908E709F0A3D886
:10042300FAECF0A3EDF0A3EEF0A3EFF0A3D0E0F02D
:10043300A3D0E0F0A3D0E0F0A3E520F0A3E5F0F033
:10044300A322851983851882E0C0E0A3E0F9A3E025
:10045300FAA3E0FBA37808E0F608A3DFFAE0FCA325
:10046300E0FDA3E0FEA3E0FFA3E0C0E0A3E0C0E063
:10047300A3E0F5D0A3E0F520A3E0A3F5F010AF08C7
:100483008583198582188008858319858218D2AFE0
:10049300D082D083D0E0F8D0E032120AE3B900036F
:1004A3000204DCE49003017855791C8002F0A3D8A0
:1004B300FCD9FA7A557B1E900086787F79018015E6
:1004C300E493A3AD82AE838A828B83F0A3AA82AB2B
:1004D300838D828E83D8E9D9E77582007583AD74E5
:1004E300041207D275823975832174001207D2E48E
:1004F3007375F0108E1A8F1B85821F85831E8518D6
:1005030082851983E0CEA3E0CF851F82851E83EB0E
:10051300C9EAC8EDCBECCAC3E833C8E933C9EA3347
:10052300CAEB33CBC3EA9EF51DEB9FF51CB3500416
:10053300AB1CAA1DEC33CCED33CDD5F0DAAE1AAF3C
:100543001B22D083D082ECC0E0EDC0E0E493A3FC97
:10055300E493A3FDED4C600D12061DEC24FFFCEDAE
:1005630034FFFD80EFE493A3FCE493A3FDED4C6023
:100573000D1206BAEC24FFFCED34FFFD80EFD0E052
:10058300FDD0E0FCE493A3C0E0E493C0E02285192E
:1005930083851882E0A3FEE0A3F5207808E0A3F6A4
:1005A30008DFFAE0A3FFE0A3C0E0E0A3C0E0E0A31C
:1005B300C0E0E0A3C0E0E0A3C0E010AF088582186C
:1005C3008583198008858218858319D2AFD083D09B
:1005D300820207D8D083D082E9C0E0E493A3C38624
:1005E300F0C5F095F0F908E493A386F0C5F095F013
:1005F300700BE493A3C3994005E9048002A3E47557
:10060300F002A42582F582E5F03583F583D0E0F985
:10061300E493A3C0E0E493C0E022C0E0C3E4939674
:10062300087401939618400FE493667008087401E8
:1006330093661870007019A3A3C3E493960874011A
:10064300939618A3A3400DD0E0D0E0D0E00205813B
:10065300A3A3A3A3A3A3D0E0227404800474028001
:1006630000CCC0E0EDC0E0E518C39CCCAD1950014F
:100673001D10AF068C188D1980068C188D19D2AFFA
:10068300120754D0E0FDD0E0FC2274028000CCC0FD
:10069300E0EDC0E0E518C39CCCAD1950011D10AFCF
:1006A300068C188D1980068C188D19D2AF1207325B
:1006B300D0E0FDD0E0FC22C0E0C0F088F0E4936617
:1006C30070080874019366187000A8F0A3A3700B58
:1006D300D0F0D0E0D0E0D0E0020581A3A3D0F0D0E9
:1006E300E022D083D082CCC0E0E493A3600612075B
:1006F300B31470FAE493A360061208BE1470FAD020
:10070300E0FCE493A3C0E0E493C0E022C0E074F211
:100713001203E6A2AFE433FED2AFC2C0E5D1A2E436
:100723005003120B5BEEA2E092AF7F01020445CAB5
:10073300C0E0E493A3C582CCC582C583CDC583F055
:10074300A3C582CCC582C583CDC583DAE5D0E0CA13
:1007530022CAC0E0E0A3C582CCC582C583CDC583D0
:10076300F0A3C582CCC582C583CDC583DAE6D0E0CC
:10077300CA22C008C3E096F50808A3E09642080819
:10078300A3E096420808A3E09645087001D3D00879
:10079300227009080808226016181818C6C333C641
:1007A30008C633C608C633C608C633C6D5E0EA2230
:1007B300C0E0E493A3D39C5010E493A3C39C400AEA
:1007C300D0E0D0E0D0E0020702A3A3A3D0E022C090
:1007D3009FF59FE473D09F22D083D082C09FE49380
:1007E300C0E0740193C0E0740293F59F2274048007
:1007F3000A74038006740280027401C0E0F40412D8
:100803000826D0E0120A8E2200C0D0251810AF08A7
:10081300F518500C05198008F51850020519D2AFC8
:10082300D0D0222518F58210AF08F518400C151901
:100833008008F51840021519D2AF85198322C0E04C
:10084300C0D0E8C0E0A8A8D2AFC2C7E8A2E792AF81
:10085300D0E0F8D0D0D0E032BB0102E722C082C0A2
:100863008389828A83BB0003E08002E493D083D030
:1008730082226016080808C6C313C618C613C61812
:10088300C613C618C613C6D5E0EA222518F8E43500
:1008930019F9222518FAE43519FB222518FCE43549
:1008A30019FD22C3E0C696F608A3E0C696F608A390
:1008B300E0C696F608A3E0C696F622C0E0E493A34A
:1008C3006C7009D0E0D0E0D0E0020702A3A3D0E02F
:1008D30022251810AF08F518400C15198008F518D3
:1008E30040021519D2AF22E066701008A3E06670CB
:1008F3000A08A3E066700408A3E06622C3E0960832
:10090300A3E09608A3E09608A3E096A2D265D033AD
:1009130022E76670100809E766700A0809E766703F
:10092300040809E76622C3E096F008A3E096F008FE
:10093300A3E096F008A3E096F022C3E697F6080931
:10094300E697F60809E697F60809E697F622C3E460
:10095300939608740193960874029396087403930C
:100963009622E627F60809E637F60809E637F60879
:1009730009E637F622700422600D18C6C333C60891
:10098300C633C6D5E0F41822E493F608740193F64F
:1009930008740293F608740393F622E657F60809DF
:1009A300E657F60809E657F60809E657F622E05631
:1009B300F608A3E056F608A3E056F608A3E056F6B9
:1009C30022E056F008A3E056F008A3E056F008A38F
:1009D300E056F022E026F608A3E036F608A3E03658
:1009E300F608A3E036F622E647F60809E647F608D6
:1009F30009E647F60809E647F622E026F008A3E0F1
:100A030036F008A3E036F008A3E036F022E4C396FC
:100A1300F608E496F608E496F608E496F622C6F499
:100A2300C608C6F4C608C6F4C608C6F4C622C3E799
:100A3300960809E7960809E7960809E79622C3E0AE
:100A43009608A3E09608A3E09608A3E0962275D043
:100A53000075813F7518017519030002049DE6F0C6
:100A630008A3E6F008A3E6F008A3E6F022600C086A
:100A7300C6C313C618C613C6D5E0F422E0F608A30E
:100A8300E0F608A3E0F608A3E0F622CAC0E0E6F029
:100A9300A308DAFAD0E0FA22E8F0A3E9F0A3EAF037
:100AA300A3EBF022E0F8A3E0F9A3E0FAA3E0FB2232
:100AB300ECF0A3EDF0A3EEF0A3EFF022E0FCA3E053
:100AC300FDA3E0FEA3E0FF22EAF0A3EBF0A3ECF02A
:100AD300A3EDF022E0FAA3E0FBA3E0FCA3E0FD22F8
:100AE300E5C754F84401F5C77901222518F582E4D6
:100AF3003519F58322C2AF75D69F02000022120773
:100B0300DBF07F001207DBF37F001207DBF67F00C9
:100B13001207DBF97F001207DB09A0041207DB17BA
:100B2300A0041207DB90A0041207DB64A1041207E0
:100B3300DB36A3041207DB3EBF041207DB5E8A0425
:100B43001207DBCA8A041207DB828B041207DB6EEF
:100B53008C041207DBDE8D041207DB458E041207BB
:100B6300DB918E041207DBA28E041207DBB28E0424
:100B73001207DB258F041207DB3B8F041207DBE62A
:100B8300FD031207DB02FE031207DB0AFE03120753
:100B9300DB19FE031207DB24FE031207DB2FFE0320
:100BA3001207DB38FE031207DB3EFE031207DB509E
:100BB300FE031207DB6FFE031207DB93FE0312072C
:100BC300DBAEFE031207DBDEFE031207DB09FF03C6
:100BD3001207DB1FFF031207DB4EFF031207DB784D
:100BE300FF031207DB93FF031207DB56850412078B
:100BF300DB8285041207DBF387041207DB338804E7
:100C03001207DB7388041207DB8788041207DBA053
:100C130088041207DB9189041207DB368A04120762
:100C2300DB4A8A041207DB3CFE021207DB60FE028A
:100C33001207DB79FE021207DBABFE021207DBDBD6
:100C4300FE021207DB08FF021207DB6AFF0212072C
:100C5300DB79FF021207DB83FF021207DB90FF023F
:100C63001207DB6AAA041207DB8AAA041207DBC98C
:100C7300AA041207DBE4AA041207DB03AB0412077E
:100C8300DB69AB041207DB72AB041207DBCFAB04E7
:100C93001207DBF3AB041207DBB4AC041207DBC1AE
:100CA300AC041207DBD2AC041207DB42BE0412070A
:100CB300DB5ABE041207DB86BE041207DB878F04F0
:100CC3001207DBDB90041207DBE990041207DBFC5D
:100CD30090041207DB1191041207DB26910412071B
:100CE300DB3991041207DBAD91041207DB12920486
:100CF3001207DBB492041207DB7893041207DB8834
:100D030093041207DB9793041207DBA9BD041207B0
:100D1300DBCDBD041207DBF5BD041207DB1DBE04EA
:100D23001207DBCAB1041207DBF1B1041207DB0FB0
:100D3300B2041207DB82B2041207DBCEFC011207F6
:100D4300DBE7FC011207DBF3FC011207DB07FD0104
:100D53001207DB25FD011207DB2FFD011207DB392B
:100D6300FD011207DB4CFD011207DBD6FD01120763
:100D7300DB4BFE011207DB7FFE011207DBCDFE0119
:100D83001207DB1AFF011207DB35FF011207DB3FF6
:100D9300FF011207DB65FF011207DBCAFF01120720
:100DA300DBF2BC041207DB14BD041207DBE5FF0210
:100DB3001207DB2DE6031207DB57E6031207DB748A
:100DC300E6031207DB87E6031207DB9DE603120740
:100DD300DBFBE6031207DB33E7031207DB2BEB0333
:100DE3001207DB70EC031207DBA3EC031207DB062D
:100DF300ED031207DB89EE031207DBB1EE031207E3
:100E0300DBC6EE031207DBD6EE031207DB1AEF0392
:100E13001207DB75EF031207DB85EF031207DB4ACB
:100E2300B7041207DB64B7041207DB8CB70412079D
:100E3300DBA5B7041207DBC9B7041207DBE7B70466
:100E43001207DBFEB7041207DB2CB8041207DB47DB
:100E5300B8041207DBACFF031207DB9BA3041207E2
:100E6300DBABA3041207DBB2A4041207DBE6A40482
:100E73001207DB08A5041207DB2BA5041207DB49C5
:100E8300A5041207DB83A5041207DBE8A5041207F8
:100E9300DB2AA6041207DB69A6041207DB9AA60461
:100EA3001207DBD1A6041207DBEDB3041207DB0D37
:100EB300B4041207DBF2B4041207DBDAB504120739
:100EC300DB3EBC041207DB7BBC041207DBBDBC04A6
:100ED3001207DBCDBC041207DBD7BC041207DBEF20
:100EE300BC041207DBEBF6031207DBF5F60312076C
:100EF300DB2FF7031207DB98F7031207DBB5F703C2
:100F03001207DB57F8031207DB60F8031207DBA5B0
:100F1300F8031207DBCEF8031207DBDBF803120733
:100F2300DB4CF9031207DBD7F9031207DB25FA03BE
:100F33001207DB63FA031207DBC8FA031207DBEBC2
:100F4300FA031207DB62FB031207DBB9FB03120789
:100F5300DBF4FB031207DB29FC031207DB3BFC0377
:100F63001207DB4DFC031207DB6CFC031207DB7576
:100F7300FC031207DB30FD031207DB7CFD031207C2
:100F8300DBBAFD031207DB0AB6041207DB94AF04D6
:100F93001207DBCAAF041207DB12B0041207DB6BC4
:100FA300B1041207DB97AF031207DBBBB0031207D1
:100FB300DBF5B0031207DB9FB2031207DBC9B203F1
:100FC3001207DB3EB5031207DB7EB5031207DB1402
:100FD300B7031207DBB1B7031207DB03B80312072A
:100FE300DBA6B8031207DBDEB8031207DB20B90365
:100FF3001207DB8FBA031207DBDDBB031207DB0E1D
:10100300BE031207DB3CBE031207DB63BE031207FA
:10101300DB6CBE031207DBBCBE031207DB4EBF0350
:101023001207DB7DC2031207DB00C3031207DBA237
:10103300BF041207DBB8BF041207DB9AFF021207D3
:10104300DB2A98041207DB4098041207DBE49804B8
:101053001207DB2399041207DB4099041207DB71A3
:1010630099041207DBBE99041207DBF199041207F6
:10107300DB2C9A041207DB219C041207DB85BA04DC
:101083001207DBE4BA041207DB22BB041207DB639B
:10109300BB041207DB0080031207DB458003120742
:1010A300DBCF80031207DB2C82031207DB018303F0
:1010B3001207DB7C83031207DBCE83031207DB2FCC
:1010C30084031207DB6884031207DB138703120709
:1010D300DBA887031207DBD287031207DB1B880316
:1010E3001207DB078A031207DB5B8A031207DB2F76
:1010F3008B031207DB5D8B031207DB778B0312076E
:10110300DBBE8B031207DBDE8B031207DB978C033B
:101113001207DB7C8D031207DBD68D031207DB1A64
:101123008E031207DB518F031207DBC991031207EA
:10113300DBE591031207DB5192031207DB7692037F
:101143001207DBED92031207DBC593031207DB0AD9
:1011530094031207DB6C94031207DB2D950312072C
:10116300DB3095031207DB3A95031207DB44950343
:101173001207DB4795031207DBB995031207DBE27E
:1011830095031207DBF095031207DB1C9603120786
:10119300DB4396031207DB6796031207DBA2960372
:1011A3001207DB1497031207DB1797031207DB58A9
:1011B30097031207DB8597031207DBA59703120733
:1011C300DBEE97031207DB2598031207DB22990353
:1011D3001207DB4C9A031207DB629A031207DB9FA9
:1011E3007F001207DBB77F001207DB7AB804120710
:1011F300DBB5EF031207DB04F0031207DBA4F103F3
:101203001207DB5FF3031207DBA1F3031207DBC053
:10121300F4031207DBCAF5031207DBECF50312072D
:10122300DB36F6031207DBB7F6031207DB959A03E7
:101233001207DBB89A031207DBB89B031207DB0123
:101243009C031207DB599C031207DBB59C031207AF
:10125300DB019D031207DB779D031207DB059E036A
:101263001207DB7D9E031207DBC09E031207DBD14F
:10127300A2031207DB18A5031207DBE4A503120779
:10128300DB4DA6031207DB74A6031207DB43A80397
:101293001207DB3EAA031207DB2FAB031207DBCDDA
:1012A300AB031207DB00AD031207DBEFAD0312073D
:1012B300DB48AE031207DBE5AE031207DBC0ED012B
:1012C3001207DB60EE011207DBCAEE011207DB71C6
:1012D300EF011207DBD0EF011207DB7CF0011207ED
:1012E300DB25F3011207DB4BF4011207DBCFF4011B
:1012F3001207DBACF6011207DB59F7011207DBBE5D
:10130300F8011207DBCEF9011207DB70FA011207AD
:10131300DB8FFB011207DB4DC3031207DBC3C303E0
:101323001207DB0BC4031207DB4DC4031207DBAA4E
:10133300C4031207DBFDC4031207DB65C5031207F1
:10134300DB7BC6031207DBA3C6031207DB8AC703D3
:101353001207DB9BC7031207DBB3C7031207DBC507
:10136300C8031207DBE2C8031207DB97C90312079E
:10137300DBBBC9031207DBD2C9031207DBECC903CA
:101383001207DB10CA031207DB14CB031207DB6E51
:10139300CB031207DB57CC031207DBA5CC031207E1
:1013A300DBE0CC031207DBEBCC031207DB4CCD03F2
:1013B3001207DB4ECE031207DB21CF031207DBC17B
:1013C300CF031207DB35D0031207DB4AD003120722
:1013D300DBD7D0031207DB29A7041207DBD1A8044C
:1013E3001207DB8EA9041207DBE3A9041207DB2E25
:1013F3009C041207DB4C9C041207DB909C0412072D
:10140300DBB69C041207DBDC9C041207DBF49C04B0
:101413001207DB0C9D041207DB249D041207DB87F4
:101423009D041207DBC99D041207DBEB9E04120720
:10143300DBF49E041207DBFD9E041207DB069F0408
:101443001207DB109F041207DBD093041207DBB0F3
:1014530097041207DBBE97041207DBC39704120736
:10146300DB21AE041207DB76BF041207DBC2BF0425
:101473001207DBB125001207DB0826001207DB7415
:1014830026001207DB0027001207DBB6270012072E
:10149300DBFE27001207DB1728001207DB3A2800C0
:1014A3001207DB7828001207DBC728001207DBF2DC
:1014B30028001207DB5029001207DBF72900120767
:1014C300DB9F2A001207DB1B2B001207DBE82B0034
:1014D3001207DB582C001207DB742C001207DBA366
:1014E3002C001207DBAF2E001207DBDD2F001207E3
:1014F300DB0930001207DB3D30001207DB5E3000F2
:101503001207DB6D30001207DB7830001207DB2790
:1015130031001207DB9731001207DB22320012077A
:10152300DB2A32001207DB9732001207DBD33200CB
:101533001207DB9933001207DB6C34001207DBC19F
:1015430034001207DBE335001207DBC7360012074E
:10155300DBD836001207DB4A37001207DBC67E00F2
:101563001207DB4638001207DB3639001207DB5B54
:1015730039001207DB7939001207DB9539001207AE
:10158300DB083A001207DB053B001207DB123B00C6
:101593001207DB1B3B001207DBFD3C001207DB1FBE
:1015A3003E001207DB2F3E001207DB5D3F001207F0
:1015B300DBE13F001207DB1D40001207DBF74100B0
:1015C3001207DBED7F001207DBC845001207DBD2F1
:1015D30045001207DBDC45001207DBE64500120776
:1015E300DBFF45001207DB0946001207DB764600E6
:1015F3001207DB8146001207DBA946001207DBB4A2
:1016030046001207DB1947001207DB2447001207C5
:10161300DB4847001207DB6C47001207DBDE47009D
:101623001207DB2748001207DB4348001207DBB42D
:1016330048001207DB0049001207DB494900120783
:10164300DB8749001207DB084A001207DBAF4A00B9
:101653001207DB7E4C001207DBE34C001207DB11A1
:101663004E001207DB374E001207DB7F4F001207D5
:10167300DBB952001207DBB754001207DB825600B6
:101683001207DB1B57001207DB1C59001207DBD1C3
:1016930059001207DB0A5A001207DB705A001207BF
:1016A300DB7A5A001207DBA35C001207DBE25D0062
:1016B3001207DB395E001207DBE45E001207DB94DE
:1016C30060001207DBE161001207DB016200120711
:1016D300DB5662001207DB5763001207DB7F6300F0
:1016E3001207DBDE63001207DBD664001207DB4D53
:1016F30065001207DB6066001207DBCE6600120787
:10170300DBCD67001207DB276A001207DB506A0094
:101713001207DBB66B001207DB386D001207DB8F95
:101723006D001207DB3D6E001207DBE26E0012074D
:10173300DB3B6F001207DBF96F001207DB8B7000D6
:101743001207DBEA70001207DB2C71001207DB5D66
:1017530071001207DBB472001207DB00800212076C
:10176300DB3280021207DB6B80021207DB29820265
:101773001207DBFF82021207DB5E83021207DB74B0
:1017830084021207DBC084021207DB4E87021207B2
:10179300DB288A021207DB6F8B021207DB078C023E
:1017A3001207DB138C021207DB5C8C021207DB9E31
:1017B3008D021207DB948E021207DBBE8E02120724
:1017C300DB148F021207DB6D8F021207DBE08F023F
:1017D3001207DB1692021207DB9893021207DB81D2
:1017E30094021207DBCB95021207DB039802120760
:1017F300DB009B021207DB0F9B021207DBA39B029A
:101803001207DBE69B021207DB659C021207DBE291
:101813009E021207DB14A0021207DBECA0021207E0
:10182300DB6EA1021207DBA3A5021207DBD2A5021E
:101833001207DB2DA6021207DB60A6021207DBD814
:10184300A6021207DB10A7021207DB60A70212072A
:10185300DBCFA8021207DBF3A8021207DB2DA902D4
:101863001207DB3AA9021207DB3DA9021207DB6C60
:10187300A9021207DB64AB021207DB23AC021207D7
:10188300DB52AC021207DB70AD021207DB38AE028B
:101893001207DBF6AF021207DB28B0021207DB8E5A
:1018A300B0021207DBBBB0021207DB2EB102120734
:1018B300DB52B3021207DBB1B3021207DB05B4023A
:1018C3001207DB34B6021207DB17B7021207DBD3AA
:1018D300B7021207DBE7B7021207DBFBB7021207F7
:1018E300DB28B8021207DB58B8021207DB13BA026F
:1018F3001207DB25BB021207DB7ABB021207DBC32D
:10190300BB021207DB3FBC021207DB86BC021207D5
:10191300DBF8BC021207DB4DBE021207DBF6BE0288
:101923001207DB0EBF021207DBB1BF021207DB2D6A
:10193300C2021207DBD5C3021207DBF3C30212078D
:10194300DB3982011207DB7182011207DB71870128
:101953001207DBB787011207DBED88011207DB52A1
:1019630089011207DBC78A011207DBD18D01120738
:10197300DBFA8E011207DB0D99011207DB9D99013A
:101983001207DB879C011207DB949D011207DBF72B
:101993009D011207DB3F9F011207DBADA101120777
:1019A300DB3FA3011207DBCCA3011207DBEBA4018E
:1019B3001207DB78A5011207DB82A5011207DBAA58
:1019C300A5011207DB4AA6011207DB35A70112079F
:1019D300DB02A8011207DB1FA8011207DB48A801DD
:1019E3001207DB75A8011207DBBCAA011207DB8B08
:1019F300AB011207DBCAAB011207DB4CAC011207C8
:101A0300DBEDAC011207DB1FAD011207DB66AD0195
:101A13001207DB99AD011207DBDDAD011207DB2CE9
:101A2300AE011207DB31AE011207DB8DAE011207E7
:101A3300DBD1AE011207DBABAF011207DB10B00144
:101A43001207DB76B0011207DBF1B0011207DB5995
:101A5300B4011207DB5CB5011207DBDAB60112072A
:101A6300DBF0B9011207DB92BA011207DBDBBC0121
:101A73001207DB96BD011207DBD5BD011207DBADF3
:101A8300BF011207DBCABF011207DBD3BF01120775
:101A9300DBDCBF011207DBE7BF011207DB06C00176
:101AA3001207DBAAC1011207DB07C2011207DB1110
:101AB300C2011207DB29C2011207DB3AC301120775
:101AC300DB83C3011207DB3DC4011207DB54C501ED
:101AD3001207DB29C6011207DB70C7011207DB748B
:101AE300C8011207DB6DC9011207DB85C9011207A3
:101AF300DBBCC9011207DBC6C9011207DBD1C9016F
:101B03001207DBEFC9011207DB37CA011207DB95A6
:101B1300CA011207DBBCCA011207DBCECA011207D6
:101B2300DB83CB011207DBBCCB011207DBDECC016D
:101B33001207DB31CD011207DB17CE011207DB3EA3
:101B4300CE011207DBAECE011207DB2ACF0112074B
:101B5300DB86D0011207DBADD1011207DB6FD201A7
:101B63001207DB3DD3011207DBFBD3011207DBE3D3
:101B7300D4011207DB8DD5011207DBF5D50112075E
:101B8300DBAAD6011207DB06D7011207DB5ED701FA
:101B93001207DB24D8011207DB47D8011207DB0247
:101BA300D9011207DB24D9011207DB85D9011207FA
:101BB300DBB5DB011207DBAEDC011207DB5ADD010B
:101BC3001207DB7BDF011207DBC4DF011207DB0F28
:101BD300E0011207DB6BE0011207DBC9E00112072A
:101BE300DBEDE0011207DB11E1011207DB46E10146
:101BF3001207DB6EE1011207DBB3E1011207DB071A
:101C0300E2011207DB60E2011207DB5AE30112076C
:101C1300DBF8E4011207DB3DE5011207DB66E501B2
:101C23001207DBEFE5011207DB62E6011207DB7047
:101C3300E6011207DB94E6011207DBEAE60112076D
:101C4300DB05E7011207DBC0E7011207DBECE70165
:101C53001207DB2FE8011207DB92E8011207DBA072
:101C6300EA011207DBCCEA011207DB87EB0112075B
:101C7300DB6BEC011207DBFFEC011207DBADDB03CF
:101C83001207DBE5DB031207DB06DC031207DB4885
:101C9300DC031207DBACDC031207DBB6DC03120741
:101CA300DBC6DC031207DBFDDC031207DBA6E00364
:101CB3001207DB6EE2031207DB52E4031207DBF4C5
:101CC300E4031207DB7EE5031207DB83C40212077A
:101CD300DB2CC5021207DB0BC6021207DB17C70298
:101CE3001207DB37C7021207DB59C8021207DB09E9
:101CF300CA021207DB76CA021207DB47CB021207BE
:101D0300DB4DCC021207DBC5CC021207DB00CD0290
:101D13001207DB59CD021207DB94CD021207DBDD7C
:101D2300CD021207DB71CE021207DB07CF021207C7
:101D3300DBDCCF021207DBAFD0021207DB3DD1029F
:101D43001207DB63D1021207DB90D1021207DBC15A
:101D5300D1021207DB8ED2021207DB9ED2021207D8
:101D6300DBF1D2021207DBFED2021207DB0BD30236
:101D73001207DB14D3021207DB78D3021207DBD678
:101D8300D3021207DB21D4021207DB3CD402120771
:101D9300DB63D4021207DB80D4021207DB8CD4028C
:101DA3001207DB1DD6021207DB36D6021207DBB29F
:101DB300D6021207DBC5D6021207DBD5D6021207FD
:101DC300DB79D7021207DBE5D8021207DBF8D90269
:101DD3001207DB98DA021207DBA2DA021207DB2111
:101DE300DB021207DB32DB021207DB71DB021207B5
:101DF300DB9FDB021207DB6CDC021207DBC3DC02B6
:101E03001207DBFCDC021207DB52DD021207DB7078
:101E1300DD021207DBBEDD021207DB89DE021207D9
:101E2300DBD7DE021207DB24DF021207DBA7DF02A8
:101E33001207DBD1DF021207DB07E0021207DB1612
:101E4300E0021207DB75E0021207DBEDE002120786
:101E5300DB2EE1021207DB7EE1021207DBA9E102BE
:101E63001207DBC3E1021207DBDDE1021207DBB27B
:101E7300E2021207DBBCE2021207DBF7E2021207FF
:101E8300DB07E3021207DB58E3021207DB6CE30212
:101E93001207DB8EE4021207DBA3E4021207DB3630
:101EA300E5021207DBAAE5021207DB4FE60212077F
:101EB300DB5AE6021207DBBDE7021207DBD9E702B2
:101EC3001207DB25E8021207DB93E8021207DBC5E2
:101ED300E8021207DBDFE8021207DB3FE902120721
:101EE300DBDEE9021207DB29EA021207DB7CEC02E4
:101EF3001207DB14ED021207DB8BED021207DBE89E
:101F0300EF021207DB00F0021207DB03F0021207F5
:101F1300DB0FF0021207DB23F0021207DB2BF002C8
:101F23001207DB62F0021207DB56F1021207DBE055
:101F3300F1021207DB62F2021207DBE2F20212077E
:101F4300DBB9F3021207DBDBF3021207DB74F402E3
:101F53001207DBD1F4021207DBD4F4021207DB43CE
:101F6300F5021207DB8FF6021207DBA2F702120754
:101F7300DB2DF8021207DB40F9021207DB07FA0236
:101F83001207DB38FA021207DB5EFA021207DB677D
:101F9300FA021207DB96FA021207DB46FB0212076C
:101FA300DBF6FB021207DB69FC021207DB0CFD0206
:101FB3001207DB7FFD021207DBBEFD021207DB0700
:101FC300FE021207DBEC7D001207DB227D00120705
:101FD300DB917B001207DB5A7B001207DB2C7B00B3
:101FE3001207DBE07A001207DB497A001207DBB93C
:101FF30079001207DB9379001207DB487900120797
:10200300DB1279001207DB9578001207DB307800CA
:102013001207DBDF77001207DB0777001207DB7796
:1020230076001207DB2B76001207DBA6750012077A
:10203300DB6175001207DB4575001207DBED7300EA
:102043001207DBBF73001207DB8C73001207DB1070
:1020530073001207DBFC7F001207DB058504120700
:10206300DB6CBA041207DB06BA041207DB83B9047C
:102073001207DB35BF041207DBECBE041207DBD704
:10208300BE041207DBC7BE041207DBE0BF0412075E
:10209300DB8E84041207DB3F84041207DB13840402
:1020A3001207DBF0FF031207DB5A80041207DB0081
:1020B30080041207DB0DBC041207DBEFBB0412071D
:1020C300DBE6FF011207DB85BB041207DBB4450027
:1020D3001207DB62DB031207DB09DB031207DBD426
:1020E300DA031207DB9FDA031207DB6BDA0312074B
:1020F300DBFED9031207DBE6D9031207DBC1D903E1
:102103001207DB9AD6031207DB6DD4031207DB74C5
:10211300D2031207DB00D2031207DBB1D10312078C
:10212300DB6BD1031207DBD5FF011207DB0DD103F4
:102133001207DBE1370000000080FB0001363601A7
:10214300010001020100010301000104010606056B
:10215300020000070100340801000F090401010D0A
:102163000100FF0E08000017020000190100FF1A0A
:102173000100011B0100FE1C0100081D0200001FDD
:1021830001000120010001210200002301000F24AE
:102193000200002601000127010008280200FF2A8F
:1021A3000100072B0102402C0100002D0100012E2C
:1021B3000100012F0100FF30010B1D310800003A1F
:1021C3000100083B01000F3C0100013D0100FF3EFF
:1021D30004000042040000460400004A0400004ECC
:1021E30004000052040000560400005A04000001D9
:1021F300037103010301030103010301032203022A
:1022030003010310030003000300030003000300A2
:102213000300034203000324030603000300030433
:1022230003120325032303250323030403040300E9
:1022330003000300034403000300032303000365B7
:10224300032100350381030003050300030003009A
:10225300030003250323030101710101010101119E
:102263000101013101010101018001100161013B03
:102273000014006301730172016201430100011341
:102283000106013D013500040112010001000100B6
:1022930001000104010401330133013C0144013213
:1022A30001360000010001650100013500810100D4
:1022B3000105018201830100010302710230016003
:1022C3000211027002010202020202800210026184
:1022D300023A004100630273027202620243020087
:1022E300021302380000020002040212020002007C
:1022F300020002000204020402370037003C0244D9
:102303000200023900000200026502000235028168
:102313000200020502820283020002030471040226
:102323000460041104700402040204010402041092
:102333000461040004140463047304720462044318
:10234300040004130406040004000404041204003B
:1023530004000400040004510464000004000400A9
:10236300044404000400040004000465040004356C
:102373000481046400050400048304000403007161
:10238300003001600011007000310220035004800E
:10239300001000610000001400630073007200620B
:1023A30000430000001300060000000000040012B8
:1023B30000000000000000000004000400370037A4
:1023C300003C024400000000000000000065000023
:1023D3000035008100000005000000830000003686
:1023E300000100060000000F0000000000000000D4
:1023F300000000000003FFFF00000403FFFF0000D4
:10240300FFFF0FF4010005C4040320000100000BCB
:10241300000000000000000003010F0000000000A6
:1024230000000000000000000000000000000000A9
:10243300000000000000000000000000000A00008F
:10244300000200000004000000080000001000006B
:102453000020000000400000008000000000010098
:10246300000002000000040000000800000010004B
:102473000000200000004000000000DB1213008772
:10248300121F008D121F8093120100DB1202004BFA
:1024930012030051120400571205005D1206006971
:1024A3001236007B12FFFF0000017D1906A71908F1
:1024B300A1190BBF19100D17028319059519078967
:1024C300190C65190D7119643F15FF000007ECFD28
:1024D300FDFDECDCDCCCBCACAC9C9C8C7C7C6C6CE7
:1024E3005C5C5C4C4C3C3C2C2C1C1C00160F000010
:1024F3000B150B020002220F3300000E5A696742CC
:102503006565416C6C69616E63653039010305076C
:10251300090B0D0F00020406080A0C0D140AE5D579
:10252300C5B5A5A595858575653030171819213072
:102533001B1D1F300001191618161618230300005F
:10254300393D3F373C3C362C442D3030161819208A
:10255300231A1C1E3000034A49434E181A2505024C
:102563000C0E020B040B0A0708000F020402010100
:102573000101090200000000000000BE040AE80394
:102583000000FA06000000000E00D0241F257F0083
:10259300E803FF1E1E0005280C00040908030903B5
:1025A30003010C0A0508150C00FF10040804C0827F
:1025B300C08379001267BDC082C083901C2D126056
:1025C30071D083D082C3E09CA3E09D500DEA240B1D
:1025D3001226001225E06002790102398EEA75F0B5
:1025E3000BA4FAA8F075F00BEBA428FB901C2FE0CA
:1025F3002AF8A3E03B8882F583E0540F22F582E4B6
:102603003B1252B12274F712037A89081249C0129D
:102613002946ACF075F00BE9A42CF9901C2FE028A7
:10262300F8A3E039F9E8FEE9FF7401650860067470
:1026330002650870228A828B83122AFC7402650861
:102643007021EA2403FA50010B121497E970148ED7
:10265300828F83E4F0800CEA2403FCE43B122AF328
:102663001214918E828F83E0D2E7F012116D02452E
:10267300C374F412037A122BCD79008E828F83E018
:102683006078890A890B8063E50A75F00BA4FAA8C0
:10269300F075F00BE50B1225EC7048E50A75F00BAD
:1026A300A4F8AAF075F00BE50B122B108E828F8322
:1026B300E0850882850983123FC7122A71EE24033D
:1026C300FCE43F1227AB1214911247C4E50AF0A3AE
:1026D300E50B1237D2D2E7F012116D7901901C2D60
:1026E300123565050AE50A7002050B901C2D125977
:1026F300B4C3E50A9AE50B9B408E0237DC74F512EE
:10270300037AEAFEEBFF750A01740B120AEE1264F8
:10271300CEEC4D6015EC12567E3D122BDB79011287
:102723001479E508450960758023E5084509604487
:1027330012567C3509122BDB1227AC121497E9646D
:1027430001701BEEFAEFFB12147FE9F50A8508828C
:10275300850983122A697902AA08AB098011122A12
:10276300F4121497E9640170347903EEFAEFFB1263
:10277300147980298E828F83A3E064FE7003A3E023
:10278300F4700B122AF4121497E96401700CEEFA38
:10279300EFFB12147FE9F50A8003750A000231206A
:1027A300E50A2403FCE4350BFDE5082403FAE435CC
:1027B30009FB2274F712037A901C2D1248F4EA4B9A
:1027C300602FEA75F00BA4FAA8F075F00BEBA428C0
:1027D300FBEAFEEBFF120F99901C2F1248F4901C9A
:1027E3002F1247136012EEFCEFFD7900120EF780F3
:1027F30007901C2FE4F0A3F00245C3C082C083EC12
:102803004D600512108F80097C087D007900120E3F
:10281300F702398EC082C0837900EA4B60167800D4
:10282300E8FCEA2C1249CC60047901780808E8C373
:10283300940840EC02398E74F712037A74F3120889
:10284300D4ECFEEDFF851882851983E4F004120AA7
:10285300EEEAF0A3EB124C641214B57403120AEE01
:10286300AC82AD83EEFAEFFB121491EEFAEFFB129A
:1028730014970245BE74F712037A74F31208D4EC6A
:10288300FEEDFF851882851983E4F0EAFCEBFD7405
:1028930003120AEEAA82AB83121491AA18AB19127F
:1028A30014BB7401120AEE123FD88E828F83124832
:1028B300B074FE68700374FF696004790180027963
:1028C300000245BE74F712037AEAFEEBFF1214739B
:1028D300E9F508740165087011122931F4FA888248
:1028E3008983E05A4480F012116DA9080245C3742C
:1028F300F712037AEAFEEBFF7508008E828F83E0FE
:10290300602A121473E9F50874016508701E122910
:1029130031FA88828983E05A70128E828F83E04471
:1029230080FA88828983E04AF012116D80BC1246D6
:1029330071F8122946122C3DF8A3E039F98E828FE3
:1029430083E022A3E0F9E875F00BA4F82274F412F3
:10295300037A8A088B097C007D00EA1227AE1214E1
:1029630091E508122A8B7900850882850983A3E003
:1029730064FE7003A3E0F460787E007F008065EE60
:10298300FAEFFB1225E06057EEFAEFFBEA75F00B66
:10299300A4FAA8F075F00BEBA428FB901C2FE02AF7
:1029A300F50AA3E03BF50B8508828509831259B329
:1029B300850A82850B83A3E06A7003A3E06B701F13
:1029C300E50A2403FAE4350BFB121497E96401705A
:1029D300061227A3121491122A8079011261D80ECC
:1029E300EE70010F901C2D1259B4C3EE9AEF9B4069
:1029F3008E0237DC74F312037A8A088B098A828B7E
:102A030083122A69EA122A8B750C00EA1227AE1286
:102A13001497E9640170477E007F00803C122C2FDD
:102A2300FAA3E0398A82F583E0540F6027122C2F32
:102A3300F50AA3E039F50B1227A3121089E9640103
:102A43007012850A82850B83122A71122A80750CF3
:102A5300011261D80EEE70010F122C4C40BFA90C6D
:102A63007F05020591A3A374FEF0A304F022A31231
:102A730045AF850882850983A3123CF722E5081236
:102A83002A95EEF0A3EFF022122A9574FEF0A30428
:102A9300F022240BF582E43509F5832274F5120341
:102AA3007AEAFEEBFF8E828F83122A697C007D0017
:102AB300122AF4121491EEFAEFFB121473E9F50AD9
:102AC3007401650A70271245A8122B04850882F544
:102AD30083122AFC1227AC121497E96401700EE5E5
:102AE300082403FCE43509122AF31214910231205D
:102AF300FDEE2403FAE43FFB22A31259C2123CF772
:102B030022E875F00BA4F8AAF075F00BE9122C4338
:102B1300F508A3E039F5092274F212037A74E61278
:102B230008D4122BCD750A01750800750900750CC0
:102B330000750D00851882851983E4F0EE2403FCEB
:102B4300E43FFD7403120AEEAA82AB83121491AA26
:102B530018AB191214BBE96401701F740B120AEE4F
:102B6300122BDD7401120AEE1259BC7003A3E06943
:102B7300604AA818A91988088909740D120AEE1267
:102B83003FC6A3123FD8740E120AEE1248B0740D5A
:102B93001208961214B5E964017009740D12088EB7
:102BA300880C890D780C1207F8AC08AD09EEFAEF22
:102BB300FB121485740212080BE9F50AEEFAEFFB17
:102BC3001214AFA90A741A0247D6EAFEEBFF1247A2
:102BD300C874FEF0A304F022F5831259A2F9124738
:102BE300C8123CF722C082C08378007900800508B0
:102BF300E8700109901C2D1235C3E99B5029E8FAAE
:102C0300E9FBEA75F00BA4FAACF075F00BEBA42C1E
:102C1300FB901C2FE02AFCA3E03B8C82F583E0545D
:102C23000F70CC79008002790102398EEEF8EFF94A
:102C3300E875F00BA4F8122C3D22AAF075F00BE90D
:102C4300A42AF9901C2FE02822901C2D1245AFC313
:102C5300EE98EF9922C082C0839025A9E49375F082
:102C63001CA4FCADF079FF7A2E7B08120EF7023913
:102C73008E74F712037AE9FCEAFD7A007B00801078
:102C8300EB1232CE9C4008E0F8EDC39840010A0BEA
:102C93009025A9E493F8EBC39840E57B000245C374
:102CA30074EC12037A74F31208D48A0C8B0D8C081B
:102CB3008D09890AEC45096016AA08AB09121503A8
:102CC3008A0E8B0FAE0EAF0FEE4F6003022DA17A6B
:102CD3000080010A9025A91258F9500F122E967000
:102CE300F2742E28FE740839FF80047E007F00EE04
:102CF3004F7003022E4A902589122E6760257403B4
:102D0300650A60067404650A70197A04790312145B
:102D1300D98A0E8B0F9025A9E493F8902589122E5A
:102D230080502D902587122E67602C7401650A60F0
:102D3300067402650A70207A0279011214D98A0E88
:102D43008B0F9025A9E493F8902587122E804007D6
:102D53007A007B00022E628518828519837401F044
:102D6300120AEEE50CF0A3E50DF0AC08AD0974030F
:102D7300120AEEAA82AB83121491AA18AB19121489
:102D8300C7740B120AEE123CF08E828F83A3A3A3A7
:102D9300A3A3A3E412606DAA0CAB0D121BE1780090
:102DA300E50A6007C39405500278048E828F83E599
:102DB3000CF0A3E50D123191A3A3E50AF0E88E828E
:102DC3008F83A3A3A3A3A3125C7F5001097A027B81
:102DD3000012022A12359EA31239251235CAE50ABA
:102DE300605BC394035056901EA3E0701890244078
:102DF300780C12098B123575120A61902440780CF5
:102E030012098B8027F508750900740278081209E6
:102E130078122E7112098B9081D97810120A7F785B
:102E23000C791012028B123575120A61EE241312FB
:102E33003578120A61EE241B125C76800912358103
:102E4300122A6CA3F0A3F07A0479001214D9123178
:102E5300824005901EB7E4F0121AB5EEFAEFFB7448
:102E63000D023AFDE493F8740193F9E849227440A2
:102E73002508F58274243509F583780C22E493FA46
:102E8300740193FBE8C39AF8E49BF9C3E50E98E554
:102E93000F9922EA122E9CF42275F01CA4F8A9F0D3
:102EA300743228F582740839F583E02274EE120334
:102EB3007A74F31208D4EAFEEBFF8C108D117508B7
:102EC30000AA10AB11121503EA4B7003022FCA8A32
:102ED300828B83E06E7003A3E06F7003022FCA8AB4
:102EE300828B83A3A3A3A3E0C394054003022FCA49
:102EF3008A828B831261C6E060728A828B83A3A36A
:102F0300A3A3E0C394035064901EA3E07021902414
:102F130040780812098B122FD1120A61902440784D
:102F23000812098BEA2413122FD4120A618030F598
:102F33000875090074027808120978122E711209B3
:102F43008B9081D97808120A7F780C790812028B4A
:102F53001236BB120A61EA24131236BE120A61EA60
:102F6300241BF582E43BF583E4F0801B7508FE75B2
:102F730009FF750AFF750BFF122FD1120A61EA24AC
:102F830013122FD4120A61750800750900750A001F
:102F9300750B00EA240C122FD4120A61851882855E
:102FA30019837401F0120AEEEEF0A3EFF0AC10AD4A
:102FB300117403120AEEAA82AB83121491AA18ABFE
:102FC300191214C7750801A908740D0261BEEA2419
:102FD30017F582E43BF58378082274F612037A121C
:102FE30014FD8A088B09A808A909E8496014888296
:102FF3008983A3A3A3A3E06009C3940550047901C3
:1030030080027900802F74F612037A1214FD8A0865
:103013008B09A808A909E849601488828983A3A3B6
:10302300A3A3E06009C394035004790180027900EB
:10303300800312080B7F0202059174F612037A12C1
:1030430014FD8A828B83E5824583600BA3A3A3A32C
:10305300E0700479018002790080DAC082C083EADB
:10306300FCEBFD7A007B0002398BC082C0837C00BD
:103073007D0002398B74F512037A74F31208D4EAD3
:10308300FEEBFF8C088D09C3EC94F8ED94FF40042C
:10309300EE4F6065750A00801974FF65087004744B
:1030A300FF6509600B1267B77004A3E06509603B15
:1030B300050A9025A9E493F8E50AC398503BE50A6D
:1030C300122E9760EBEE4F60D0123107120AEE1208
:1030D3004C601214C1E960D87403120AEEAC82ADDD
:1030E30083EEFAEFFB121089E960C5E50A75F01C5F
:1030F300A4F8A9F01232C580047A007B00740D1283
:10310300080B801B8518828519837401F07430289D
:10311300F582740839F5831245AF740B22A90A7F2F
:103123000302059174F412037A74F31208D4750838
:10313300001215038A0A8B0BAE0AAF0BEE4F602504
:1031430085188285198312318F12311A120AEE12F1
:103153004C601214A97C1C7D0079FFEEFAEFFB1280
:103163000EF77508017A0479001214D912318250CE
:1031730009901EB77401F0121AB5A9080237D79047
:1031830025A9E493F8C3EA98EB9400227401123F53
:10319300CBA3A32274F712037AE9FE74FE6A7003C9
:1031A30074FF6B7C00700380240C1231FA501EEC08
:1031B300122E9760F41233947003A3E06B70EA80CD
:1031C3000BEC12320F6019E0640360140C1231FA35
:1031D300501EEE60ECEC12320460F1C3940550EC27
:1031E300EC75F01CA4FCADF0126D2D1259B48004E3
:1031F3007AFE7BFF0245C39025A9E493F8ECC398BC
:103203002275F01CA4F8A9F0122EA32275F01CA4B9
:10321300F8A9F0122EA364012212151502398EC0EB
:1032230082C083790180F274F012037A8A0A8B0BCD
:103233007A0479011214D98A0C8B0DEA450D60408A
:10324300EA2AFAEB33FB120F998A088B09AE08AF0F
:1032530009EE4F60267AFE7BFF12151B74FE6A701F
:103263000374FF6B601E8508828509831248F4E5A9
:10327300082402F50850E2050980DE750C0080047D
:103283007E007F00850A82850B83E50CF0EEFAEF62
:10329300FB02355BC082C0837C008009EA24FF1AED
:1032A300EB34FFFB0C1231FA5011EC1232CE9405C1
:1032B30050F2EA4B70E61232C580047A007B0002BA
:1032C300398E742E28FA740839FB22122E9CC322DD
:1032D30074F712037A74F31208D47E00807DEF75BD
:1032E300F017A4F8A9F01233851259B4EE75F01C47
:1032F300A4F8A9F01233947003A3E06B603DEF755B
:10330300F017A4F8AAF0EAF9123385123FD8740132
:10331300120AEEE0687003A3E069601FEF75F0170F
:10332300A4F8EAF9747C28FC740A39FD7403120AC0
:10333300EEAA82AB83121089E96013EF75F017A42C
:10334300F8A9F0747A28FA740A39FB121BED0F906E
:1033530025ADE493F8EFC39840840E126D1A501F05
:10336300EE12728EF47003A3E0F460EE12310712D2
:103373000AEE124C601214C1E960DF7F0080D002B4
:1033830045BE12338922747A28F582740A39F5838B
:10339300221272996A2274F412037A74F31208D413
:1033A3007E0080389081DD7808120A7FEE75F01C6C
:1033B300A4F8A9F0744128F582740839F5837808D4
:1033C3001208EA60169082097808120A7FEE75F0F7
:1033D3001CA4F812346178081209FD0E126D1A50FC
:1033E3007AEE12320460F4C3940350EF1234611284
:1033F3000AA7E8494A4B70AC901EA2E06401702D05
:10340300901D351247136025EE75F01CA4F8A9F042
:10341300742E28F8740839F91234B712065C8882BE
:10342300898312354C1204F2740412080B85188236
:103433008519837401F0EE75F01CA4F8A9F012311C
:1034430010120AEE124C601214C1E9608E7403125A
:103453000AEEAA82AB8312150F80800237D7744518
:1034630028F582740839F5832274F612037A12144C
:10347300FD8A088B09A808A909E84960328882896E
:1034830083A3A3A3A3E06023C39403501E1234B702
:10349300120ABFE82417F582E439F583120AB3E868
:1034A300241BF582E439F5837401F07901800279F4
:1034B30000023038E82413F582E439F5832274F0EE
:1034C30012037AEAFEEBFF901D2F124713607290EE
:1034D3001D35124713606A901D391247136062123B
:1034E3006BA61204F2E97059901EA3E0700A9024AF
:1034F30040780812098B8028F50875090074027852
:1035030008120978126D887424126B8778081209DF
:103513008B9081D9780C120A7F7808790C12028B70
:1035230078081207F01235461204F2740412080BDD
:10353300E96401700C8E828F83A3A3126B9412042F
:10354300F280158E828F83A3A31252B3901D35127E
:103553006B9E22740D12080B7F0802059112607591
:10356300EC22E0F50AA3E0F50B22E493F8E508C3A7
:103573009822EE2417F582E43FF583780C22123566
:103583009474FEF0A304F0A3F0A3F01241D574FEEB
:1035930022EE2417F582E43FF58322E88E828F839F
:1035A300A3A3A3A3A3A3A3A31245837401124583D7
:1035B300A374AAF0EE2410F582E43FF583E4F0222D
:1035C3001252B3C3E89A22A3F01247C8E4F0EE24E0
:1035D3000CF582E43FF583E4F0A3F0A3F0A3F0221B
:1035E30074F012037A74F31208D4EAFEEBFF7A0242
:1035F30079011214D9EA8E828F83F070030236AEFA
:1036030075F00CA4FAABF0120F998A088B09EA45FE
:103613000970030236B4AE08AF09750A00801C9026
:10362300820912065CEEFAEFFB120F75740412089E
:103633000B8A0C8B0DAE0CAF0D050A9025A9E493F4
:10364300F8E50AC398506AE50A12320F6005E06490
:103653000270E6123107120AEE124C601214C1E92D
:1036630060187403120AEEAC82AD83EEFAEFFB121C
:10367300108F8A0C8B0DAE0CAF0DE50A75F01CA4F0
:10368300F8A9F0744928F5827408126A0564017078
:103693008E1232C5EA24131236BE120A7F1236BBCB
:1036A3001208A6780C1207F002362875080075096F
:1036B30000AA08AB09023556EA2417F582E43BF564
:1036C30083780C22C082C083901C3C748FF0A37457
:1036D30019F002398E74F712037AEAFEEBFF901C9D
:1036E300A9E06408601FE06404601A8E828F83E09F
:1036F30054036401704412466DF8A3E0F583888295
:10370300E0640670358E828F83A3A3E064FE7003AA
:10371300A3E0F460258E828F83A3A312607E7003DF
:10372300A3E0697008EE24151260656005121A495A
:103733008003121A4FE9F50880037508C2EEFAEF09
:10374300FB120F9F0228ED74F412037A8A088B0987
:103753008A828B83E0FAA3E0F8EA28FAE43400FBD8
:10376300120F998A0A8B0BAE0AAF0BEE4F605A8584
:103773000882850983E0FC7D007900120EF78E82B2
:103783008F83122A68121A858E828F83A3A3A3A321
:10379300EAF0A3EB1237D2F8EE28F8E43F122BE05D
:1037A300850882850983A3E0C0E0125C69D0E0F05C
:1037B300121A97EE240EF582E43FF583E9123F5384
:1037C300E0C0E0123CC2D0E0F0EEFAEFFB800A1258
:1037D3003F4BE022740D12080B7F0402059174F431
:1037E30012037A74E81208D48A088B098C0A8D0BA9
:1037F300E9FE901CA9E064046005E06408700479A4
:10380300C2803CA37808120A61EE901CB012392AD8
:10381300120EF78518828519837808120A617405D8
:10382300120AEEEEF07404120AEE7401F074071239
:103833000AEEE4F0901CA97402124C641214197479
:1038430018809374F412037A74E81208D4EAFEEB36
:10385300FF901C3112471360030239207A077B0063
:10386300120F99901C311248F4901C3112471370B7
:103873000302391C8E828F83120AA7901C31E0FC4D
:10388300A3E0F5838C82120A9BEE2404F50AE43F3D
:10389300F50B850A82F583E0C0E0901C3112528853
:1038A300A3A3A3D0E0F0EE2405F508E43FF50985D2
:1038B3000882F583E0C0E0901C31125299D0E012E7
:1038C3003925E0C0E0901C311259A2C82406F582C4
:1038D300E438F583D0E012392A120EF78E828F83F3
:1038E300120AA7851882851983120A9B850A828585
:1038F3000B83E0C0E07405120AEED0E01237D2C0A9
:10390300E07404120AEED0E0F07407120AEEE41237
:103913004C64121419E9F9800679108002790102C6
:103923003842126648A322F07C187D007900AA1859
:10393300AB1922C082C083901C31124713601090D0
:103943001C311259B4120F9F901C31E4F0A3F012F2
:1039530019B9121B9302398E74F712037AE9901C7A
:1039630037F07A807B00901CF4E0F9121065121591
:103973007B79000245C3C082C083901C37E070038B
:1039830012128112157B8003121509D083D0820293
:1039930007D874F012037A901C37E0901EB6700FAC
:1039A300E060057900121137901EB6E4F0804AE01A
:1039B30064016008901C37E0F9121137901EB67449
:1039C30001F0901C37E0F46030E0F50CE4F50DF500
:1039D3000EF50FF09082257808120A7F780C79088B
:1039E30012028B780C1207F07A807B00901CF4E0B3
:1039F300F9121059740412080B7AB67B1E7941121E
:103A0300140102355B74EC12037A74E71208D48A4A
:103A13000C8B0D8C0E8D0FE9FF7E007508018E094E
:103A23008E0A8E0B901CA97401F07C187D0079001E
:103A3300120896120EF77401120AEE780C120A613C
:103A43007406120AEEEFF07405120AEE7403F074B2
:103A530008120AEEE4F0850C10850D11850E12850F
:103A63000F137810790812099EE510451145124588
:103A73001360010E74017808120794E5084509459F
:103A83000A450B70D1AA18AB19795A1213FB851882
:103A930082851983E0F508E4F509F50AF50B8E0C28
:103AA300F50DF50EF50F7808790C12028B9082292B
:103AB300780C120A7F7808790C12028B9082257891
:103AC3000C120A7F7808790C12030B123CE37A007C
:103AD3007B04901CF4E0F912106578081207F07A61
:103AE300007B04901CF4E0F9121059740412080BC3
:103AF3007401120896121419741912080B7F0C0220
:103B0300059174F712037A7C011215930245C3746D
:103B1300F712037A7C0080F174F012037A74FD12B9
:103B230008D4EAFEEBFF890A8C0B12606E1219AD02
:103B33008A088B09EA4509700579CA023CBD8A8265
:103B43008B83A3A3A3A3A3A3A3E064FE7003A3E0B7
:103B5300F4700579C3023CBD121A858A0C8B0DA83B
:103B63000CA90D850882850983A3A3A3A3A3A3A3FB
:103B7300E0687003A3E069700579C2023CBD901C44
:103B8300A7123FD8850882850983E0687003A3E004
:103B9300696009850882850983123E18901CA71263
:103BA30059B4121BF3850882850983A3A3A3A3A396
:103BB300A3A3A3A3A3E004901CBA123E0412108F84
:103BC3007401120AEE7402124C64121AEB8A0C8B03
:103BD3000DAE0CAF0DEE4F7003023CB4124C6A7481
:103BE30006F0A3A882A983901C94125D9F125C73B4
:103BF300F0121A7F1248EBEE2413125C7612458FF3
:103C03007440F0A3E4123CCC123CF0123CC2E50B2E
:103C1300F0EEFAEFFB121551E9FE6003023CB69099
:103C23001CA97409123CCC123E0E901C9CE0650A40
:103C33006003E50AF07A9D7B1C794B1214017AA785
:103C43007B1C79501214017A9C7B1C79E1121401BC
:103C53007A9A7B1C7953121401123CE3901E85124D
:103C630059B4121AAF123CD5E4F50EF50F780C12C5
:103C730007F07A017B00901CF4E0F912105F7404E2
:103C830012080B7A007B04901CF4E0F91210651201
:103C93003CD57402780C120794780C1207F07A0062
:103CA3007B04901CF4E0F9121059740412080B8081
:103CB300027E10901AB9E4F0EEF97403023558EE5F
:103CC3002411F582E43FF58322123F57A3A3A3A354
:103CD300A322901E85E0F508A3E085080CF50D22CC
:103CE300901E831245AF901C33123CF722125C9E48
:103CF300123CF722E8F0A3E9F02274F612037A7477
:103D0300E51208D4851882851983ECF0A3EDF0EA57
:103D1300FEEBFF8909901CA9E064046005E06408D8
:103D2300700579C2023DFF7426120AEEE064FE704C
:103D330003A3E0F4700579C3023DFF7C197D00798C
:103D4300007402120896120EF7901CA97403124C09
:103D53006479501214017426120896794B121401D7
:103D6300851882851983123E18E509901C9CF0740E
:103D730026120AEE123E0E7425120AEEE0F50890A2
:103D83001C94123E0412108F74CE55084480C0E078
:103D9300741A120AEED0E0F07428120AEEE00490CE
:103DA3001CBAF07417120AEE7402F07426120AEEAB
:103DB300123FD8740F120AEEE8F0A3E9123FD17450
:103DC30018120AEE1248B0740D120AEEE509F074E7
:103DD3000A120AEEE4F0901CAF740FF07AAF7B1C6A
:103DE3007954121401901CAE740FF07AAE7B1C79D7
:103DF300471214017402120896121407741B02303E
:103E030035F0EEFCEFFD7ABB7B1C221245AF901C14
:103E13009D123CF722126A1F123CF72274F7120319
:103E23007AEB901CB1F012199B0245C374F612038E
:103E33007A74E91208D48A088B097E008A828B83FC
:103E4300A3A3A3E0C0E07406120AEED0E0F08A82D6
:103E53008B83A3A3E0C0E07408120AEED0E0F074F1
:103E630009120AEE7401F08A828B83124713600DE4
:103E73008A828B831259B4121497E970357407122E
:103E83000AEEE4F0121A7F7404120AEE1248F49058
:103E93001CA9E06404700E121A8B7402120AEEEA73
:103EA300F0A3EB804E7402120AEE74FDF0A374FFCC
:103EB3008041AC18AD198508828509831259B41263
:103EC30014A3850882850983A3A3A3A3E070317497
:103ED30007120AEE7401123FD17402120AEE12485D
:103EE300B0850882850983123FD87404120AEEE86C
:103EF300F0A3E9F07402120896121AD3E9FE804186
:103F0300123FD2740A120AEE1248B07414120AEE67
:103F13007401123F53A3E0C0E07415120AEED0E01F
:103F2300F07416120AEEE4123F4B126071740C1215
:103F33000AEEAA82AB8312108F740A12089612112A
:103F43004FEEF97417023035F08508828509832214
:103F5300123F5722123F4BA3A32274F712037A7422
:103F6300F81208D4EAFEEBFF7900901CA9E064087C
:103F73006005E06404704785188285198374FDF039
:103F8300A374FFF0121A7F7402120AEE1248F4743B
:103F930005120AEE123FC6A3E0C0E07404120AEE53
:103FA300D0E0123FC7E0C0E07406120AEED0E0F0A2
:103FB3007407120AEEE4124C64121AD3E9F9740876
:103FC3000245C0E4123FCB22F08E828F8322F0851C
:103FD30018828519831245AF227F0702059174F475
:103FE30012037A74F91208D48A088B098C0A8D0B90
:103FF3008518828519837808120A617404120AEEFF
:10400300E9F07405120AEEE4F07406120AEEE41203
:104013004C6412156374070237D974F512037A8A54
:10402300088B098A828B831261DBEE4F7003024196
:10403300CE901C5812471360178A828B83A3A3E088
:10404300F9EEFAEFFB901C59E0F58388821204F233
:104053008E828F83A3A3A3A3A3A3A3A3A3E064023A
:1040630060030241388E828F83A3A3A3A3A3A3E09B
:104073005402700302415C850882850983A3A3E08F
:1040830064E9700302415C850882850983A3A3E088
:1040930064CD700302415C850882850983A3A3E094
:1040A30064F0700302415CEE240D1245646028EE57
:1040B300241312606560208E828F83A3A3A3A3A31E
:1040C300A3A3A3A3A31241ED121B03E9701D7A302E
:1040D3007B011211EB8014901EA4E0048E828F8367
:1040E300A3A3A3A3A3A3A3A3A3A3F08508828509E2
:1040F30083A3A3E0701F750A0080097A367B01123F
:1041030011EB050A850882850983A3A3A3E0F8E5DB
:104113000AC39840E6EE240A125900C0E01241D1C6
:10412300D0E012457F7404F0901EA5125C98E8124B
:1041330041DF120F4B8E828F83A3A3A3A3A3A3A359
:10414300A3A3E0640260128E828F83A3A3A3A3A31D
:10415300A3A3A3A3E0640670728E828F83A3A3A399
:10416300A3A3A3E0A2E05063850882850983A3A3E8
:10417300E0F9EEFAEFFB1218DB8E828F83A3A3A381
:10418300A3A3A3E054FE1241ED121B03E9850882A9
:10419300850983A3A3702AE070237A2F7B01121170
:1041A300EB7E00850882850983A3A3A3E0F8EEC311
:1041B3009850187A367B011211EB0E80E67A318023
:1041C30005E070077A2D7B011211EB0231221241B7
:1041D300D522EE2413F582E43FF58322F0A3E9F020
:1041E3007A207B00901CF4E0F922123FCB126B9EE5
:1041F3001252B32274EC12037A74BD1208D4EAFE8D
:10420300EBFF8C108D11750C00750E00AC18AD19F9
:10421300121809740D120AEEE070087410120AEEF7
:10422300E06014851882851983E0A2E6500E1259C6
:10423300A7121B03E960057A350243588518828566
:104243001983E0540C64047005750D018003750D2A
:1042530000E0A2E5503D750E01E50DA2E0403412E9
:104263001A8512459A7003A3E069700512456170BF
:104273006B121A8512459A7003A3E0696015124503
:1042830061701012608BAC18AD191218B7E9600396
:10429300024356124561702C851882851983E0A26A
:1042A300E650217401120AEEE05403701785188258
:1042B300851983E0540C640C600AE0540C640860B4
:1042C30003750C01851882851983E05403F8740281
:1042D30068701912608712181B02455C1259A712E5
:1042E30045A87415120AEE1248B0809A74016870DA
:1042F30047E50CA2E0500B1245617006126087126D
:10430300180F741A120AEEE518F0A3E5191245A75F
:104313007417120AEE1248B08E828F83A3A3A3A34D
:10432300A3A3E0C0E07419120AEED0E0F0741712F0
:10433300089612176D02455CE8600302455C901C09
:1043430091E0640170178E828F83A3A3A3A3A3A319
:10435300E0700A7A347B011211EB02455C7442125D
:104363000AEE74021245A7743A120AEE12456EE081
:10437300548070030244787424120AEE74021245C6
:104383007F123FD8741C120AEE1248B07403120A4B
:10439300EEE0C0E07425120AEED0E0F07402120AD7
:1043A300EEE0C0E07426120AEED0E0F0901CA712F3
:1043B3003FD87427120AEE1248B07406120AEE129E
:1043C3003FD87429120AEE1248B07408120AEE128A
:1043D3003FD8742B120AEE1248B07410120AEEE0A2
:1043E300F8742D120AEEE8F0A3E4F0740E120AEE4C
:1043F300123FD8742F120AEE12456E123FD8743151
:10440300120AEE12458BE0C0E07433120AEED0E0DC
:10441300126657C0E07434120AEED0E0F012606204
:10442300C0E07435120AEED0E0F07411120AEEE027
:10443300C0E07436120AEED0E0F07413120AEEE014
:10444300C0E07437120AEED0E0F0EE242312606568
:10445300C0E07438120AEED0E0F0EE242512606555
:10446300C0E07439120AEED0E0F0741C1208961200
:10447300182102455C7457120AEE7808120A7FE588
:104483000DA2E04003024514EE240F126065C0E064
:104493007412120AEED0E0F0901C5A124713700304
:1044A30002455C121A858A128B13A812A913743A57
:1044B300120AEEE0687003A3E069600302455CEE54
:1044C3002423126065F50D780D1207FC1245751251
:1044D300066078081207F0E50EF50878081207FC65
:1044E3008E828F83A3A3A3A3E0F50878081207FCA9
:1044F30078101207F8A90C740B12089E7445120861
:1045030096901C5A1259B81204F2740B12080B80BD
:1045130048E50CA2E0500612608712180F12606281
:10452300F50C780C1207FC78081207F0E50EF50875
:1045330078081207FC78101207F8901CA71206607F
:10454300EE2412126065F9744412089E740A12086C
:10455300961218E7740A12080B7443023AFDEE240C
:1045630021F582E43FF583E0548022123CF71245A3
:104573007522EE2421F582E43FF58322124583223E
:1045830012664CA3A3A3A322E8F0A3E9F0EE240F41
:10459300F582E43FF583228A088B09A808A909124A
:1045A30046716822F01247C81245AF221259A2F988
:1045B3002274F712037A1211198005740D12080B75
:1045C3007F0102059174F712037A12112B80F1C057
:1045D30082C08312112502398E74F712037A1211E5
:1045E3003180DD74F712037A7409120AEEE0F508DC
:1045F30078081207FC121143740180C1C082C08382
:1046030012114F02398E74F612037AEAFEEBFF9011
:104613001C94E0A2E150498E828F83A3A3A3A3A39A
:10462300A3A3A3A3A3E064016036121A8B8A088BA9
:1046330009A808A9098E828F83E0687003A3E06943
:10464300601E12466D640160178E828F831259B407
:104653001214F1E9600A8E828F831259B4121A433D
:10466300EEFAEFFB1211550230381246712212474F
:10467300CCE02274F712037A12115B0245C374F77C
:1046830012037AEAFEEBFF89087401650870147956
:10469300001216D7902596E493FC7900EEFAEFFB0F
:1046A30012164D0245C374F712037A1211490245DB
:1046B300C374F412037A74F91208D4E9FE8A088BDE
:1046C300098C0A8D0B901B65124713602BEE85181E
:1046D30082851983F07401120AEE7808120A617454
:1046E30013120AEE123FD87405120AEE124C6090B0
:1046F3001B651259B81204F2024018E50E75F00654
:10470300A4F8AAF0EAF9740628F582740D39F58342
:104713001245AFE8492274F712037A121167024572
:10472300C374F712037A901EB9E0F97800800B1274
:1047330049D4540D6401700119081249415003E929
:1047430070ED0245C374F712037A901EBAE0F9784C
:1047530000800B1249D4548D6481700119081249E9
:10476300415003E970ED0245C374F212037A890BD9
:10477300E975F006A4A9F0240FF508E439F509E575
:10478300082AFAE43509FB120F998A0C8B0DAE0C3B
:10479300AF0DEE4F6025AC08AD097900120EF7128C
:1047A30047C4E50BF0EE2508F8EF3509F98E828F43
:1047B30083A3A3A3A3A3A3A31248AEEEFAEFFB80A4
:1047C300151247C8221247CC22EE240BF582E43F90
:1047D300F5832212080B7F0602059174F612037A01
:1047E300EAFEEBFF121623E9F8901EB8E0F9E8C3DE
:1047F300994009901C401259B4121629EE2402F86C
:10480300E43FF988088909901C42125D9F901C427D
:10481300E004F0EEFAEFFB12162F85088285098378
:10482300E0025ECEC082C0837900901C4080010903
:104833001259B48A828B83E582458370F202398EE2
:1048430074F712037AEAFEEBFFEE4F605B901C40B5
:104853001247136053888289837A007B00EE658256
:104863007003EF65836013AA82AB83123FD88882FB
:104873008983E5824583603080E3901C40123FD8F2
:10488300EE687002EF698E828F837008123FD890B2
:104893001C408003126B8C1248B0EEFAEFFB121728
:1048A3009DEEFAEFFB120F9F0245C3A3A3123CF741
:1048B30022C082C083901C4080048882898312476F
:1048C30013600A888289831235604D70ED8A828B6A
:1048D30083E4F0A3F0E8496006888289838003902B
:1048E3001C401248F402398EEE241AF582E43FF597
:1048F30083EAF0A3EBF0221252B3EA4B2274F712CD
:10490300037A901C4080048A828B831248FA6027C2
:10491300780080010812494150EDE875F006A4FCC7
:10492300ADF0EA2CFCEB3DFDEC2413F582E43DF500
:1049330083E06970DF80047A007B000245C312497B
:10494300C5FCE8C39C2274F712037AE9FE7D00805C
:10495300010D1249C0EDC3985023ED75F006A4F87C
:10496300AFF0EFF91249B670E8ED75F006A4F8124E
:1049730049F74CF0E8240FFAE439FB80047A007B12
:10498300000245C374F612037AE9FEEAFF121635F4
:10499300EA4B601C7C008010EC75F006A4F8A9F0CB
:1049A3001249B67002EFF00C1249C0ECC39840E80C
:1049B3000230381249EF2413124A006E221249C5FD
:1049C300F822EA240B1249CC22F582E43BF583E07A
:1049D30022E875F006A4FCADF0EA2CFCEB3DFDECFF
:1049E3002414F582E43DF583E022EFF9EA28F8EB9D
:1049F30039F9E8221249ED2414124A0022F582E41F
:104A030039F583E02274F612037A1217437A008091
:104A130016EA75F006A4F8A9F0125DCFE4125ED28F
:104A2300F0A31264B8F00A90259B1258F940E27A79
:104A330000801C8A0875090074037808120978122B
:104A43004AA0A374FEF0A304125C8FA3E4F00A90BF
:104A530025AF1258F940DC7900801A8908750900DE
:104A63007403780812097874A2126D8A740D126B9C
:104A730087122A6A0990259E1264B140DE9025A40C
:104A8300E493901C44F090822512065C7A107B001C
:104A9300901CF4E0F912105F74040230357462253F
:104AA30008F8740D3509F9888289832274F012039A
:104AB3007A74F51208D48A088B09890A8C0BE9A247
:104AC300E050147508FC7509FFA2E15005D2E40219
:104AD3004B70D2E3024B7012172B8A0C8B0DA80C70
:104AE300A90D901C9AE0687003A3E069600EAC0AFC
:104AF3007902AA08AB09121725E970057900024C5F
:104B030040E50AF50C780C1207FC79027CFE7DFF68
:104B1300AA08AB091216A1740112080BE96003027B
:104B23004C3EE50AC2E5F50AA2E6404374031208C7
:104B33009EAA08AB0912149DE9702E125292121B01
:104B4300CF8A0C8B0DAE0CAF0DEE4F6022EE24021C
:104B5300FAE43FFB121497E96015EE2402FCE43FEC
:104B6300FD740312089612108FE50AD2E5F50A9038
:104B73001C43E0F50C901C9A124E09780E1207F8AC
:104B83007D017C00901C43E0F9AA0EAB0F1216E3E3
:104B9300740212080BE9F8901C43E004F0E8600388
:104BA300024C3EE50AA2E55004740E80027406C06E
:104BB300E07401120AEED0E0124C64121AEB8A0E72
:104BC3008B0FAE0EAF0FEE4F606D125C73F0121AC7
:104BD3007F1248EB124C6A7401F07478550AA312E1
:104BE3005D71A3E50C125D71A3A3E508F0E509125D
:104BF3004C45E4F0E50AA2E5500F740312089EE861
:104C03002406FAE439FB12108F8E828F83A3A374D8
:104C1300FDF0A374FFF0E50B6012902597E493F881
:104C2300E50BC39850061241D1E50BF0EEFAEFFB0A
:104C3300121551E9F980067910800279C7740B02C5
:104C4300355888828983A3A3A3A3124C5122124C03
:104C53005522F088828983A3A3A3A3A322E8F0A308
:104C6300E9F0AA18AB1922EE1267C73F124C732260
:104C7300F5831259A2F9888289832274F412037A84
:104C83007A007B10901CF4E0F912106BEA4B4C4D48
:104C93006008901D067401F08043901C16E06401C7
:104CA300901E9F7006E0FC79018004E0FC79037A92
:104CB300007B0012164D902593E493F5087401933D
:104CC300F509E4F50AF50B78081207F07A007B1072
:104CD300901CF4E0F9121059740412080B0237DC2B
:104CE30074F012037AEAFEEBFF8C0A8D0B890C1227
:104CF3001B03E960057AFF024DD9901E9EE0640212
:104D03006003024DFF9025A0E493F9EEFAEFFB1246
:104D13001755E96003024DF97900EEFAEFFB12171C
:104D23002BA90C12171F8A088B09EA450970030285
:104D33004DFF8A828B83A3A3A3A3A31263D4707EA4
:104D43001259B4850882850983A3A3A3A3A3A3E06F
:104D53005418604F902595E493850882850983A3B1
:104D6300A3A3A3F07410120AEE1260717412120A54
:104D7300EE124E09EA650A7003EB650B6012EA6CEA
:104D83007002EB6D600AEA650E7003EB650F70222B
:104D9300780E1207F8AA0AAB0B121C0B7402120846
:104DA3000B800F901C99E0850882850983A3A3A338
:104DB300A3F074FE6A700374FF6B601E8045A3A3A7
:104DC300A3E0640360248A828B83A3A3A3A3A3E049
:104DD300640470067AFE7BFF802985088285098337
:104DE300A3A3A3A3A3E0640260127907EEFAEFFB87
:104DF300121755E96006EEFAEFFB8007EEFAEFFBB8
:104E030012165F02355BE0F50EA3E0F50F2274F78F
:104E130012037AEAFEEBFF1214EBE9700AEEFAEFE3
:104E2300FB1214F7E96006EEFAEFFB80047AFE7BCF
:104E3300FF0245C374EE12037AEAFEEBFF8C0C8D7E
:104E43000D890E750800121B03E979006003024FF8
:104E53007CEEFAEFFB12172BA90E12171F8A0A8B8F
:104E63000BEA450B607D8A828B83A3A3A3A3A3E0F4
:104E7300640360238A828B83A3A3A3A3A3E06401B7
:104E83006003024F7A79078A828B831259B2121711
:104E930055E96003024F7A750902850A82850B83FF
:104EA300A3A3A3A3A3A3E054186003024F31790083
:104EB300AA0CAB0D12172B8A0A8B0BA80AA90B900D
:104EC3001C9AE0687003A3E0696003024F5E9025BB
:104ED30096E493FCA90EEEFAEFFB12164D7508014A
:104EE300024F7AEEFAEFFB12165F1214FD8A0A8B59
:104EF3000BA80AA90BE849607E88828983A3A3A330
:104F0300A3A3E0A2E05070750901A2E15012790158
:104F1300EEFCEFFDAA0CAB0D12167DE970908057E5
:104F230088828983A3A3A3A3A3D2E1F08080750819
:104F330001850A82850B83A3A3120660750AFE7599
:104F43000BFF780A1207F87900EEFCEFFDAA0CAB11
:104F53000D121737740412080B801CA909EEFCEF1D
:104F6300FDAA0CAB0D12167DE9700C750801A90E94
:104F7300EEFAEFFB1216D7A9080261C174E9120316
:104F83007A74F01208D48A0C8B0D8C088D09750B7A
:104F930006125292121BF98A108B11EA4511600B0B
:104FA3008A828B83A3E07003025126E50C241DF54E
:104FB3000EE4350DF50F850E82125491F516888295
:104FC3008983A3A3A3E0FA88828983A3A3A3A3E08D
:104FD300F8E4C8F9EA28FEE439FFAA08AB09121677
:104FE300DDE9F9850E82850F83125299E029F50ECA
:104FF300E50AA2E55003750B0E7487550A700F740A
:1050030018550A64186007125476650B600A7AD340
:105013007B001211EB025126530A7878081207F825
:105023007D00AC0EA9161252A81216E374021208E0
:105033000BE9F874036870030251267427120AEE11
:10504300E0F512A3E0F513E8600302511774185555
:105053000A700302512BE50AD2E0F50AA2E45004D8
:10506300D2E1F50AA90A1252A812171F8A148B1546
:10507300A814A915E849605788828983A3A3A3A329
:10508300A3A3E05418604888828983A3A3A3A3A39E
:10509300E06401703AE5104511603412606E888255
:1050A30089831259B2121BF98A148B15A814A915F6
:1050B300E849601B88828983A3E060138510828599
:1050C3001183A3E0FA88828983A3E0C39A4054E55D
:1050D3000AF50B780B1207FC1252A21216A17401E7
:1050E30012080BE9702E7C007D00851282851383E4
:1050F30074FFF0A3125D7FA3A3A3A3A3A3A3A3E0C1
:10510300600AE50C241512527E126071A90E125228
:10511300A81215F9851282851383E0F47003A3E0C6
:10512300F460487900025270901C93E06014E50A21
:10513300F50B780B1207FC1252A21216A17401127E
:10514300080BE50AF50B780B1207FC79027CFE7D50
:10515300FFEEFAEFFB1216A1740112080BE970B40B
:1051630085128285138374FFF0A3F078081207F881
:105173007D01AC0EA9161252A81216E3740212088E
:105183000BA90AEEFAEFFB12172B8A088B09A80862
:10519300A909901C9AE0687003A3E06960030252B6
:1051A30064EEFAEFFB1214FD8A088B09A808A9091B
:1051B300E849602788828983A3A3A3A3E0640160ED
:1051C3000D88828983A3A3A3A3E06402700DAC18A6
:1051D300AD19EEFAEFFB12149D8012121A7F8A08A2
:1051E3008B09AC08AD09AA18AB1912108F850C8274
:1051F300850D83A3A3A3A3A3A3A3A3E064017012B8
:10520300E50C241512527E1260717408120896126E
:10521300108FE50C241DF582E4350D125286E0440F
:1052230030F50878081207FC740112088E88088983
:105233000978081207F8740B12088E880889097810
:10524300081207F8E516F50878081207FC7900EE4E
:10525300FCEFFD1252A8121677740612080B0251C6
:105263002612527A125299E50EF0121A97741012FE
:10527300080B7F0F020591E50C241DF582E4350D23
:10528300F58322F583E0F8A3E0F5838882A32290D7
:105293001CA71254AD22126B9EA3A3A3A3A322792E
:1052A30001AC08AD091267C5350D1252B122F58361
:1052B300E0FAA3E0FB2274EC12037A74F01208D430
:1052C3008A0C8B0DECFAEDFB750F0812606E121B46
:1052D300F98A088B09AC08AD09EC4D601F8C828DEF
:1052E30083A3E07017125C845001097A027B0012D9
:1052F300022AE88C828D83F0A37407F0E50C241D49
:10530300F582E4350D125491F50E88828983125487
:1053130083E0FAE4CAFBEC2AFEE43BFF888289833C
:10532300A3A3125483A3A3E0FBECF508E43BF50924
:1053330088828983A3A3A3A3A3A3A3E0F50BE50A10
:10534300A2E45003750F10A2E550067408250FF56B
:105353000F748F550A7007125476650F600A7AD35B
:105363007B001211EB025471530A707800E50AA214
:10537300E4501C12527AE02408FCA3E03400FD74CC
:105383000812089612108F7808E50AC2E4F50AE5B8
:105393000AA2E5501F12527AE028F8A3E03400F97C
:1053A300E82408FCE439FDAA18AB1912108FE50AAA
:1053B300C2E5F50AA90EEEFAEFFB121719E9F5108B
:1053C3009025AF1264B150298912751300740378C4
:1053D3001212097874672512F582740D3513F5835B
:1053E300E0F8E50BC3985007E50BF07800800480E4
:1053F3007D7804901C9AE06E7003A3E06F605FE811
:105403007019E50AF50F780F1207FC1254A0121653
:10541300A1740112080BE970558005740468704E7D
:10542300780A1207FC740112088E880C890D780C17
:105433001207F8740B12088E880C890D780C12076A
:10544300F8E50EF50A780A1207FCA90BAC08AD09BA
:10545300EEFAEFFB121677740612080B8010780A27
:105463001207FC1254A01216A1740112080B741037
:10547300023AFDE50C2417F582E4350DF583E022AD
:10548300A3A3A3E0FC88828983A3A3A3A322124C32
:1054930073A3E0F50A88828983A3A3E0227901122A
:1054A30067C5350DF5831254AD22E0FCA3E0FDAAD8
:1054B30008AB092274EB12037A74F51208D4EAFEDE
:1054C300EBFF8C088D0989147420120AEEE0F511A4
:1054D300F9121719E9F50A9025AF1264B1501B753B
:1054E3000B007403780A1209787465250AF582742F
:1054F3000D350BF583124E098006750EFE750FFFF1
:105503007401120AEE7408F07425120AEEE0F51025
:10551300A2E450087401120AEE7410F0E510A2E53B
:1055230050097401120AEEE02408F0AA18AB19120C
:105533001AEB8A0C8B0DEA450D7003025659EA24C7
:1055430017125667121A7FE50C241AF582E4350DFB
:105553001248F27421120AEEE0F512A3E0F5137477
:105563000312089EAA0EAB0F12149DE96015125682
:1055730063740312088EE50C241812527EE8F0A31C
:10558300E98020E510A2E4501BE50E6E7003E50FE1
:105593006F7011125663E50C241812527EE512F057
:1055A300A3E513F0E50C12567E1252811235658580
:1055B3000A82F5837402F0A3E510125672E511F026
:1055C300EE850A82850B83A3A3A3F0EF850A828568
:1055D3000B83A3A3A3A3125672A3A3A3E508F0E529
:1055E30009850A82850B83A3A3A3A3A3A3F0AA0E11
:1055F300AB0F1216DDE92514850A82850B83A3A35D
:10560300A3A3A3A3A3F07800E510A2E45012AC1265
:10561300AD13E50A2408FAE4350BFB12108F780862
:10562300E510A2E5501A7423120AEE126071E50A1E
:1056330028F8E4350BF9E82408FAE439FB12108F53
:10564300850C82850D83A3A3E50EF0A3E50FF0AAD5
:105653000CAB0D121551740B12080B7F0D02059143
:10566300E50C2416F582E4350DF5837401F022F080
:10567300850A82850B83A3A322E5081267C72274D8
:10568300F412037A8A088B09ECFEEDFF750B019087
:105693001C9AE065087004A3E065096013750B00AC
:1056A300780B1207FC121B45740112080BE9F50B6A
:1056B3007900AA08AB0912172B8A088B09A808A935
:1056C30009901C9AE0687003A3E06970467900EEC4
:1056D300FAEFFB12171FEA4B60308A828B83A3A376
:1056E300A3A3A3A3E0541860217508FE7509FF78EE
:1056F300081207F88A828B83A3A3120660126FE94C
:10570300121737740412080B80097901EEFAEFFBC4
:105713001215F3A90B0237DC74F212037A7EEA7FC7
:105723000B7A107B00901CF4E0F912106BEA4B4CDF
:105733004D701790822512065C7A107B00901CF442
:10574300E0F912105F740412080B901C44E014F08B
:1057530060030257FD9025A4E493901C44F07C0061
:1057630079057A007B00121A078A088B090257F41D
:105773007C007905AA08AB09121A078A0A8B0B85E4
:105783000882850983A3A3A3A3124713605DE508D9
:105793002404F8E4124AA7E024FFF0A3E034FF1244
:1057A30064B81247137044850882850983A3A3A3B1
:1057B300A3A3A3E054046013850882850983A3A3EC
:1057C300A3A3A3A3A3A3E0F912170785088285095E
:1057D30083A3A3A3A3A3A3A3A3A37406F07AF0852F
:1057E300088285098312653E121959850A08850BBB
:1057F30009E5084509600302577375080080668E42
:10580300828F83A3A3A3A3E06052F4604FEE24042A
:1058130012590070478E828F83A3A3A3A3A3E064CE
:1058230003701379028E828F831260718E828F834D
:105833001259B212167D8E828F83A3A3A3A3A3E072
:10584300640160188E828F8374FEF0A30412319179
:1058530014F0A304126644E4123925F00508EE247B
:1058630007FE50010F90259A12356D40927E0080FD
:105873003D121A2B8E0875090074037808120978F3
:1058830074622508FC740D3509FD7A897B16121A9A
:1058930019EA4B70DC8E0875090074037808120945
:1058A30078124AA0122A6988828983E4F00E90252F
:1058B300AF126D1D50258E08750900740378081208
:1058C300097874622508F8740D3509F9E82407F599
:1058D30082E4126A0514F070D480997A008009EA90
:1058E30012590A600214F00A90259B1258F940EFEE
:1058F3000247D990259EE493F8EAC39822F582E4FF
:105903003FF583E014F02275F006A4F8A9F07402C1
:1059130028F582740D124A032274F712037A74DA9B
:105923001208D4ECFEEDFF750800EE4F606A8A8220
:105933008B831259A2C8241FF582E43812471160E1
:10594300578A828B831259B4AC18AD19EA241E12FC
:1059530049CCF9EA241F122600121A67740B120AA3
:10596300EE1259BC7003A3E069702D7402120AEEA3
:10597300E064017023741D120AEE1259B8E0640149
:105983007016741D120AEE12528AA3E0F88E828FEB
:1059930083E0687003750801A90874260245C0E016
:1059A300F8A3E0228E828F83A3A3A3A3A3A3A3A31D
:1059B300A31252B322126B9E221259C2E068221222
:1059C30059C622E0F8A3E0F98E828F83A32274F4F0
:1059D30012037AE9701E79001216958A0A8B0BAEB0
:1059E3000AAF0B74FE6E700374FF6F701490259CE6
:1059F300E493600D79011216958A0A8B0BAE0AAFF8
:105A03000B121AB50237CC74F612037A74F3120828
:105A1300D4120F038A088B09AE08AF09901C9AE0D1
:105A23006E7003A3E06F60E9121A8BEA6E7002EBEB
:105A33006F60DEEEFAEFFB121B03E970D4EE4F60EA
:105A4300D0851882851983E4F004120AEEEEF0A3E0
:105A5300EF124C641214B5E970B774FE6E700374E0
:105A6300FF6F60ADEEFAEFFB740D023035C082C0FC
:105A730083121AB502398E74F212037AEAFEEBFF2F
:105A83008C0A8D0B890874FC6E700374FF6F7003AE
:105A9300025C64790012172B8A0C8B0DAE0CAF0DD0
:105AA300740E120AEEE0F509901C9AE06E7003A3DF
:105AB300E06F7009E509A2E64003025C64A90912DC
:105AC300171F8A0C8B0DA80CA90DE84970457900A6
:105AD3007AFE7BFF12171F8A0C8B0DA80CA90DE809
:105AE300497030741855097003025B947A00800181
:105AF3000A90259A1258F94003025B94EA75F0075D
:105B0300A4F8A9F0126E32541870E574EA28F874F8
:105B13000B39F988828983EEF0A3EFF074FE650AEE
:105B2300700474FF650B600D88828983A3A3E50A63
:105B3300F0A3E50BF088828983A3A3A3A3A3A3E522
